:1000000059C0000074C0000072C0000070C0000041
:100010006EC000006CC000006AC00000B4C70000E1
:1000200066C0000064C0000062C0000047C5000058
:100030005EC000005CC0000097C4000058C0000013
:1000400056C0000054C0000059C4000015C4000090
:100050004EC000004CC000004AC0000048C0000074
:1000600046C0000044C000008305D7054A0682064A
:100070001B07B306EB061B074E414E494E49545928
:10008000494E46CDCCCC3D0AD7233C17B7D1387763
:10009000CC2B329595E6241FB14F0A000020410079
:1000A00000C84200401C4620BCBE4CCA1B0E5AAEC3
:1000B000C59D740011241FBECFEFD8E0DEBFCDBFB9
:1000C00011E0A0E0B1E0E2EDF1E302C005900D9295
:1000D000A03AB107D9F725E0A0EAB1E001C01D922E
:1000E000A437B207E1F70E94A1080C94E71888CF63
:1000F000623059F020F4613059F45C9809C06330E3
:1001000031F0643029F45F9803C05D9801C05E98B7
:100110008EBD0DB407FEFDCF8EB51EBC0DB407FE1F
:10012000FDCF8EB59BB1906F9BB908951F93CF9370
:10013000DF93DC01FC0180E090E09F012A1B3B0B78
:1001400026173707F4F44191292F332727FD3A95D5
:100150002427322F222748E050E0E901CC0FDD1F91
:1001600037FF06C09E0111E2212710E1312701C0AF
:100170009E014150510989F7982F8827822793279C
:10018000DCCFDF91CF911F9108958F929F92AF9214
:10019000BF92CF92DF92EF92FF926B017C0197FFAB
:1001A00007C0CC24DD247601C61AD70AE80AF90A6A
:1001B000F594E794D794C794C1142AE0D206E104D9
:1001C000F104F4F420E5822E912CA12CB12C21E035
:1001D00030E0C814D904EA04FB043CF4215031098E
:1001E0003093A1012093A00111C02F5F3F4F40E544
:1001F000840E911CA11CB11C2032310551F706C0A0
:1002000020E230E03093A1012093A001C090AD0125
:10021000D090AE01E090AF01F090B001DC01CB01D5
:100220008C0D9D1DAE1DBF1D8093A9019093AA0149
:10023000A093AB01B093AC0180916F00826080937A
:100240006F00FF90EF90DF90CF90BF90AF909F90A6
:100250008F900895CF92DF92EF92FF920F931F93AA
:10026000CF93DF93EC01062F81E042DF182F602F40
:1002700082E03EDF612F70E0762F6627682B759550
:100280006795072E000C880B990B0E94931420E0B1
:1002900030E040E05DE30E94471520E030E040E8B8
:1002A00053E40E94F7136C837D838E839F836C815C
:1002B0007D818E819F8120E030E040EF52E40E94FA
:1002C000431518163CF4FE01EE59FF4F108288B119
:1002D000807F88B900913E0310913F036881798146
:1002E0008A819B812C813D814E815F810E94F71321
:1002F000F8013A96EE0FFF1FEE0FFF1FEC0FFD1FE8
:100300006083718382839383E0913E03F0913F0386
:100310003A96EE0FFF1FEE0FFF1FEC0FFD1F6081DF
:100320007181828193812C8D3D8D4E8D5F8D0E94D8
:100330004715688779878A879B87CC84DD84EE841C
:10034000FF84E0913E03F0913F033A96EE0FFF1FCA
:10035000EE0FFF1FEC0FFD1F608171818281938181
:1003600028A139A14AA15BA10E9447159B01AC01BC
:10037000C701B6010E94F8136C877D878E879F871F
:100380006C857D858E859F8520E030E040E751E4D7
:100390000E944315181644F480E090E0A0E7B1E411
:1003A0008C879D87AE87BF876C857D858E859F8571
:1003B00020E030E040E751EC0E945C1487FF08C069
:1003C00080E090E0A0E7B1EC8C879D87AE87BF8787
:1003D000E0913E03F0913F033A96EE0FFF1FEE0FC0
:1003E000FF1FEC0FFD1F6081718182819381E0917D
:1003F0000201F09103013A96EE0FFF1FEE0FFF1F6F
:10040000EC0FFD1F2081318142815381CCA0DDA002
:10041000EEA0FFA00E94F713A70196010E944715C6
:10042000688B798B8A8B9B8B688579858A859B8580
:100430002C853D854E855F85C888D988EA88FB88EC
:100440000E94F813A70196010E94F813688F798F14
:100450008A8F9B8F888D998DAA8DBB8D8C8B9D8B60
:10046000AE8BBF8B6C897D898E899F890E94AA156E
:100470000E946014FE01E05AFF4F71836083E09197
:100480003E03F0913F033A96EE0FFF1FEE0FFF1F62
:10049000EC0FFD1F80819181A281B381BC01CD0150
:1004A0009F7720E030E040EA50E40E9443151816A0
:1004B00024F41C861D861E861F86E0913E03F09163
:1004C0003F033A96EE0FFF1FEE0FFF1FEC0FFD1FCD
:1004D00080819181A281B381FE01EC5AFF4F20817E
:1004E000318142815381BC01CD019F770E945C1410
:1004F000FE01E85AFF4F18160CF180819181019698
:100500009183808320813181DE01A65ABF4F4D91B6
:100510005C916DE3649FC001659F900D11242817C5
:10052000390794F0C45ADF4F81E090E099838883C3
:100530008081918101979183808306C0118210820E
:10054000C45ADF4F19821882DF91CF911F910F910A
:10055000FF90EF90DF90CF900895CF93DF93D82F47
:10056000C92F6EE170E08FE495E00E945E169C0159
:1005700025503109ED2FFC2FCF014496DF011D924C
:10058000A817B907E1F7A9E5B5E0CD018F5495406B
:10059000821793071CF48D918193F7CFDF91CF9150
:1005A0000895823059F020F4813059F45C9809C0E4
:1005B000833031F0843029F45F9803C05D9801C026
:1005C0005E9880E88EBD0DB407FEFDCF8EB583EC3E
:1005D0008EBD0DB407FEFDCF8EB58BB1806F8BB98C
:1005E0000895CF93DF93EC0185E495E00E946916AE
:1005F000CE010E94691690913D0391113CC020915B
:1006000045058881203329F520914605203399F44A
:1006100020914705203331F491E0209148052813BB
:1006200029C029C0281327C091E02091480589815D
:10063000281320C020C028131EC02091470589819F
:10064000281319C091E0209148058A81281312C00F
:1006500012C0281310C020914605898128130BC0B1
:10066000209147058A81281306C091E02091480512
:100670008B81281390E0892FDF91CF9108958F927D
:100680009F92AF92BF92CF92DF92EF92FF920F9321
:100690001F93CF93DF93CDB7DEB7A8970FB6F8942B
:1006A000DEBF0FBECDBF21E22983209150052A83F2
:1006B000209151052B83209152052C83BC01FE0112
:1006C000359600E010E05F01DC010D900020E9F7B5
:1006D0009D01281B390B2E5F3F4FA8014F5F5F4FD5
:1006E0007A010217130730F4DB012D91BD0121932C
:1006F0008701EACFBA01CE0101966C0117DD4C01EA
:1007000040E165E475E00E94731685E495E00E947F
:10071000691690E18916910498F480914505F501D8
:10072000E00FF11F808380E3FE01E00FF11F84835F
:10073000FE01E00FF11F8383F601EE0DFF1D8083A4
:10074000C4014097803F9105A8F480914605F501CA
:10075000E00FF11F808380914505FE01E00FF11F3E
:10076000848380E3FE01E00FF11F8383F601EE0D29
:10077000FF1D8083C4019A9581159F40C0F4F50147
:10078000E00FF11F809147058083FE01E00FF11F0C
:10079000809146058483FE01E00FF11F809145059D
:1007A0008383F601EE0DFF1D80E380831CC081145E
:1007B000B0E19B06C0F0F601EE0DFF1D80914505EE
:1007C0008083FE01E00FF11F809146058383FE01C7
:1007D000E00FF11F809147058483F501E00FF11FC1
:1007E0008091480580830B5F1F4FF601E00FF11FDA
:1007F0008DE08083F6019191F89420916E058091AF
:100800006D05281305C08091C10080628093C100EE
:1008100080916D05A0917005B0917105A80FB11D73
:100820009C9380916D05482F50E020916F0530E03A
:10083000215031094217530711F08F5F01C080E04A
:1008400080936D057894CF018C199D0908171907BD
:1008500094F6A8960FB6F894DEBF0FBECDBFDF9119
:10086000CF911F910F91FF90EF90DF90CF90BF90AD
:10087000AF909F908F9008951F920F920FB60F9296
:1008800011242F933F934F935F938F939F93EF93F5
:10089000FF9390916E0580916D059817E9F0809116
:1008A0006E05E0917005F0917105E80FF11D9081E2
:1008B00080916E05482F50E020916F0530E0215067
:1008C00031094217530711F08F5F01C080E0809318
:1008D0006E059093C60005C08091C1008F7D809306
:1008E000C100FF91EF919F918F915F914F913F9147
:1008F0002F910F900FBE0F901F9018951F920F927F
:100900000FB60F9211242F933F934F935F938F93C2
:100910009F93EF93FF938091C60090914A05E091D9
:100920004D05F0914E05E90FF11D808380914A0538
:10093000482F50E020914C0530E0215031094217FA
:10094000530711F08F5F01C080E080934A05FF914B
:10095000EF919F918F915F914F913F912F910F90C8
:100960000FBE0F901F9018951F920F920FB60F9207
:1009700011242F933F938F939F93809138039091ED
:1009800039030196909339038093380320913803FB
:100990003091390380913A0390913B03281739072E
:1009A00034F480913C03882319F0409A01C04098A8
:1009B00080913803909139038436910524F0109288
:1009C0003903109238038091D5029091D602019696
:1009D0009093D6028093D5022091D5023091D60211
:1009E0008091D7029091D8022817390734F480916A
:1009F000D902882319F0419A01C041988091D5020B
:100A00009091D6028436910524F01092D60210926D
:100A1000D5028091720290917302019690937302B5
:100A2000809372022091720230917302809174025D
:100A3000909175022817390734F480917602882343
:100A400019F0429A01C0429880917202909173020B
:100A50008436910524F010927302109272028091F4
:100A60000F029091100201969093100280930F0252
:100A700020910F0230911002809111029091120288
:100A80002817390734F480911302882319F0439A08
:100A900001C0439880910F02909110028436910515
:100AA00024F01092100210920F029F918F913F91AB
:100AB0002F910F900FBE0F901F9018951F920F92BD
:100AC0000FB60F921124CF92DF92EF92FF922F93E5
:100AD0003F934F935F936F937F938F939F93AF93C6
:100AE000BF93EF93FF93E091A8018E2FEE0F990B28
:100AF000AA0BBB0B8830910508F0AFC1FC01EC5C80
:100B0000FF4F0C94F3158091A2019091A3010196DF
:100B10009093A3018093A2018091A2019091A301DF
:100B2000813591050CF499C11092A3011092A20194
:100B30004091A4015091A5018091A0019091A10143
:100B4000481759073CF5E091A401F091A501609187
:100B5000000170910101EE0FFF1FE35AFE4F40812B
:100B60005181649FC001659F900D749F900D112469
:100B700090938700809386008091860090918700F3
:100B80008091A4019091A50101969093A501809375
:100B9000A40163C181E08093A8018091A401909198
:100BA000A50101979093A5018093A40156C180915E
:100BB000A9019091AA01A091AB01B091AC01C090A4
:100BC000AD01D090AE01E090AF01F090B001609126
:100BD000A0017091A1018C199D09AE09BF09B7FF51
:100BE00007C0B095A095909581959F4FAF4FBF4F8F
:100BF000E0E5E69FA001E79F500D1124052E000CB3
:100C0000660B770B84179507A607B7070CF025C16D
:100C10008091A2019091A30101969093A3018093EA
:100C2000A2018091A2019091A301813591050CF45C
:100C300014C11092A3011092A2018091A40190917D
:100C4000A50197FD0AC1E091A401F091A501609171
:100C5000000170910101EE0FFF1FE35AFE4F40812A
:100C60005181649FC001659F900D749F900D112468
:100C700090938700809386008091860090918700F2
:100C80008091A4019091A50101979093A501809373
:100C9000A401E3C0189922C088EE93E090938700E6
:100CA0008093860080918600909187008091AD01AD
:100CB0009091AE01A091AF01B091B00180589C40DD
:100CC000A109B1098093A9019093AA01A093AB0156
:100CD000B093AC0183E08093A801BFC08091A901CB
:100CE0009091AA01A091AB01B091AC010296A11D17
:100CF000B11D8093A9019093AA01A093AB01B09379
:100D0000AC01ABC08091AD019091AE01A091AF015B
:100D1000B091B0014091A9015091AA016091AB013D
:100D20007091AC01841B950BA60BB70B0297A10524
:100D3000B10509F092C084E08093A8018091AD01D3
:100D40009091AE01A091AF01B091B0018C51934F41
:100D5000AF4FBF4F8093A9019093AA01A093AB011D
:100D6000B093AC017AC0189922C088EE93E09093BA
:100D70008700809386008091860090918700809103
:100D8000AD019091AE01A091AF01B091B00180583A
:100D9000934FAF4FBF4F8093A9019093AA01A093A7
:100DA000AB01B093AC0186E08093A80156C080915E
:100DB000A9019091AA01A091AB01B091AC01029759
:100DC000A109B1098093A9019093AA01A093AB0155
:100DD000B093AC0142C08091A9019091AA01A09169
:100DE000AB01B091AC014091AD015091AE01609169
:100DF000AF017091B001841B950BA60BB70B029746
:100E0000A105B10551F587E08093A8018091AD015E
:100E10009091AE01A091AF01B091B001845E9C4071
:100E2000A109B1098093A9019093AA01A093AB01F4
:100E3000B093AC0112C0189910C01092AD0110927D
:100E4000AE011092AF011092B0011092A901109260
:100E5000AA011092AB011092AC014091AD015091EA
:100E6000AE016091AF017091B0018091A9019091A4
:100E7000AA01A091AB01B091AC01481759076A07CC
:100E80007B07C4F42A9A95B182E0892785B98091BD
:100E9000AD019091AE01A091AF01B091B00101966A
:100EA000A11DB11D8093AD019093AE01A093AF0140
:100EB000B093B0014091AD015091AE016091AF018E
:100EC0007091B0018091A9019091AA01A091AB010C
:100ED000B091AC0184179507A607B707C4F42A9808
:100EE00095B182E0892785B98091AD019091AE01DD
:100EF000A091AF01B091B0010197A109B109809310
:100F0000AD019093AE01A093AF01B093B0014091B9
:100F1000AD015091AE016091AF017091B00180912F
:100F2000A9019091AA01A091AB01B091AC01481721
:100F300059076A077B0751F4299880916F00825006
:100F400080936F001092A5011092A40183B1282F05
:100F5000217030E03093A7012093A601FF91EF911B
:100F6000BF91AF919F918F917F916F915F914F91C1
:100F70003F912F91FF90EF90DF90CF900F900FBE99
:100F80000F901F9018951F920F920FB60F92112479
:100F90002F933F934F935F936F937F938F939F9381
:100FA000AF93BF93EF93FF9378945B9A61E070E007
:100FB0008AED92E04FD962E070E087E792E04AD98B
:100FC00063E070E084E192E045D964E070E081EB99
:100FD00091E040D980913E0390913F030196909318
:100FE0003F0380933E0380913E0390913F030B9714
:100FF00024F010923F0310923E0380913E039091A3
:101000003F030196909303018093020180910201B6
:10101000909103010B9724F01092030110920201AA
:101020005B98FF91EF91BF91AF919F918F917F91CD
:101030006F915F914F913F912F910F900FBE0F9045
:101040001F9018958F929F92AF92BF92CF92DF928E
:10105000EF92FF920F931F93CF93DF93CDB7DEB73D
:1010600064970FB6F894DEBF0FBECDBF4B015C0195
:101070008A010E9460146B017C0184E1F8011192E5
:101080008A95E9F74AE0B801C6010E94731668E143
:1010900071E0C8010E943F16B601DD0C880B990B68
:1010A0000E9493149B01AC01C501B4010E94F71387
:1010B00020E030E04AE754E40E9447150E946014A3
:1010C0009B0177FF04C022273327261B370B4AE0FA
:1010D000CE0101967C01BC01C9010E947316C12C8E
:1010E000D12C83E0A82EB12CF70101900020E9F764
:1010F0003197EE19FF09C5018E1B9F0BC816D90643
:1011000048F46AE171E0C8010E943F169FEFC91AD6
:10111000D90AEACFB701C8010E943F1664960FB6FC
:10112000F894DEBF0FBECDBFDF91CF911F910F911D
:10113000FF90EF90DF90CF90BF90AF909F908F90F7
:101140000895CF93DF93CDB7DEB7C554D1090FB65D
:10115000F894DEBF0FBECDBF80E1E4E0F1E0DE0138
:10116000559601900D928A95E1F71DA21EA21FA22D
:1011700018A610923D03F8941092C50082E2809365
:10118000C4008091C00082608093C00088E9809391
:10119000C10086E08093C20019821A821FEF1B8370
:1011A00083E493E09D838C8385E0FE013196DE012C
:1011B000D39601900D928A95E1F785E0FE01F396B2
:1011C000DE01D89601900D928A95E1F785E0FE0147
:1011D000F896ADE6B5E001900D928A95E1F7198297
:1011E0001A821B8382E494E09D838C8385E0FE0158
:1011F0003196DE01999601900D928A95E1F785E08E
:10120000FE01B996DE019E9601900D928A95E1F756
:1012100085E0FE01BE96AAE4B5E001900D928A95A4
:10122000E1F7789424988CE284B98DE58CBD81E057
:1012300090E090933B0380933A039093D80280937D
:10124000D702909375028093740290931202809358
:10125000110288EF8AB98FE087B9219A8BB1806F2C
:101260008BB980E090E00E9467186093DA02709377
:10127000DB028093DC029093DD0284E090E00E9428
:1012800067186093F6027093F7028093F8029093C8
:10129000F90288E090E00E9467186093FA02709368
:1012A000FB028093FC029093FD028CE090E00E9490
:1012B00067186093FE027093FF028093000390937F
:1012C000010380E190E00E94671860932E03709301
:1012D0002F03809330039093310384E190E00E94C8
:1012E0006C18909335038093340388E190E00E945A
:1012F00067186093770270937802809379029093D5
:101300007A028CE190E00E946718609393027093D8
:101310009402809395029093960280E290E00E945E
:101320006718609397027093980280939902909344
:101330009A0284E290E00E94671860939B02709387
:101340009C0280939D0290939E0288E290E00E940E
:1013500067186093CB027093CC028093CD02909378
:10136000CE028CE290E00E946C189093D20280939F
:10137000D10280E390E00E9467186093140270939A
:101380001502809316029093170284E390E00E9466
:101390006718609330027093310280933202909309
:1013A000330288E390E00E946718609334027093E0
:1013B000350280933602909337028CE390E00E94CE
:1013C0006718609338027093390280933A029093C1
:1013D0003B0280E490E00E9467186093680270937B
:1013E000690280936A0290936B0284E490E00E9409
:1013F0006C1890936F0280936E0288E490E00E94D4
:1014000067186093B1017093B2018093B301909318
:10141000B4018CE490E00E9467186093CD01709352
:10142000CE018093CF019093D00180E590E00E949F
:1014300067186093D1017093D2018093D301909388
:10144000D40184E590E00E9467186093D501709301
:10145000D6018093D7019093D80188E590E00E944F
:1014600067186093050270930602809307029093B9
:1014700008028CE590E00E946C1890930C02809317
:101480000B0281E08ED882E08CD883E08AD884E099
:1014900088D882E080936E0084BD95E095BD90E190
:1014A00097BD80936F009AE1909381002CE231E028
:1014B000309387002093860020918600309187002A
:1014C000809370008093B00087E08093B100109308
:1014D000B30078948FE4C82E85E0D82E9EE1492E83
:1014E000552453942BE0A22EB12C3AE0832E912C5C
:1014F00066246394712C55E0352E6CE2E62EFF24B1
:10150000F39472E0272EF601242D11922A95E9F723
:1015100040914D0550914E0580914C0590E001970A
:10152000EFE4F5E030914B0520914A053217D1F3F5
:1015300020914B05DA01A20FB11D3C9120914B0582
:10154000622F70E06817790711F02F5F01C020E06B
:1015500020934B0531933D3021F035E0ED36F30714
:1015600009F780914F05833271F66FE370E08FE4E5
:1015700095E00E944A168C01009709F480C4FC0192
:101580008181809340038281809341036CE171E00B
:1015900080E493E00E945516892B61F5F801838160
:1015A0008093450584818093460585818093470516
:1015B0008681809348056EE170E08FE495E00E949B
:1015C0005E16BC01655071098FE495E00E9496009B
:1015D00040E1BE01635C7F4F0E947316CE01CD9641
:1015E00000D8882321F0CE01459649D803C08FE169
:1015F00091E045D869E271E080E493E00E945516DD
:10160000892B09F080CFF801838123968FAF239730
:10161000848124968FAF2497858125968FAF259757
:1016200086818093450587818093460580858093D8
:1016300047058185809348056EE170E08FE495E071
:101640000E945E16BC01655071098FE495E00E940E
:10165000960040E1BE01635C7F4F0E947316CE018D
:10166000CD960E94F102882309F459C4CE018E5B05
:101670009F4F0E9419166D32F1E07F0709F4D5C221
:101680000CF0DCC0683C710509F447C20CF063C083
:101690006936710509F4ECC1BCF56636710509F4CB
:1016A000C5C1CCF46436710509F4AFC16536710566
:1016B00009F0E0C36091E2027091E3028091E402DC
:1016C0009091E502AE014F5F5F4FBCDCCE01019609
:1016D0000E943F0318CF6736710509F4B8C1683618
:1016E000710509F0C7C36091DA027091DB02809145
:1016F000DC029091DD02AE014F5F5F4FA3DCCE01B3
:1017000001960E943F03FFCE6C36710509F4D2C1E9
:10171000CCF46A36710509F4BCC16B36710509F069
:10172000A9C36091FE027091FF0280910003909125
:101730000103AE014F5F5F4F85DCCE0101960E9431
:101740003F03E1CE6D36710509F4C5C16E367105F2
:1017500009F4D0C18FC36E3C710509F422C2BCF5F7
:101760006B3C710509F4FBC1CCF4693C710509F4CB
:10177000E5C16A3C710509F07DC3609183027091F7
:1017800084028091850290918602AE014F5F5F4F87
:1017900059DCCE0101960E943F03B5CE6C3C710529
:1017A00009F4EEC16D3C710509F064C360919302C8
:1017B000709194028091950290919602AE014F5FD4
:1017C0005F4F40DCCE0101960E943F039CCE613DFD
:1017D000710509F408C2CCF46F3C710509F4F2C13B
:1017E000603D710509F046C36091CB027091CC0257
:1017F0008091CD029091CE02AE014F5F5F4F22DC0F
:10180000CE0101960E943F037ECE623D710509F430
:10181000F9C16C32714009F02DC3609118027091CA
:10182000190280911A0290911B02AE014F5F5F4F27
:1018300009DCCE0101960E943F0365CE6239E1E0EA
:101840007E0709F47CC20CF078C0633321E0720794
:1018500009F42FC2D4F56033E1E07E0709F407C232
:10186000D4F46E3221E0720709F4F0C16F32714096
:1018700009F000C360912402709125028091260234
:1018800090912702AE014F5F5F4FDCDBCE010196E6
:101890000E943F0338CE6133E1E07E0709F4F8C1CE
:1018A0006233714009F0E6C26091340270913502F2
:1018B0008091360290913702AE014F5F5F4FC2DBDD
:1018C000CE0101960E943F031ECE663321E07207CF
:1018D00009F411C2C4F46433E1E07E0709F4FAC1EB
:1018E0006533714009F0C6C280916E0290916F021B
:1018F0004AE0BE016F5F7F4F0E947316CE010196D2
:101900000E943F0300CE603921E0720709F406C24D
:101910006139714009F0AEC26091B9017091BA01AC
:101920008091BB019091BC01AE014F5F5F4F8ADB9C
:10193000CE0101960E943F03E6CD6839E1E07E07C3
:1019400009F441C2D4F5653921E0720709F419C2DE
:10195000D4F46339E1E07E0709F402C264397140CE
:1019600009F088C26091B1017091B2018091B30118
:101970009091B401AE014F5F5F4F64DBCE010196E1
:101980000E943F03C0CD663921E0720709F40AC204
:101990006739714009F06EC26091D5017091D6012E
:1019A0008091D7019091D801AE014F5F5F4F4ADB24
:1019B000CE0101960E943F03A6CD6835E2E07E0786
:1019C00009F433C254F4693921E0720709F40CC2F6
:1019D0006A39714009F416C24DC26935E2E07E07EA
:1019E00009F436C26A35724009F044C280910001A0
:1019F000909101014AE0BE016F5F7F4F0E94731614
:101A0000CE0101960E943F037ECD6091DE0270916F
:101A1000DF028091E0029091E102AE014F5F5F4FE3
:101A200011DBCE0101960E943F036DCD6091E6026D
:101A30007091E7028091E8029091E902AE014F5F58
:101A40005F4F00DBCE0101960E943F035CCD6091A9
:101A5000EA027091EB028091EC029091ED02AE01EE
:101A60004F5F5F4FEFDACE0101960E943F034BCDEF
:101A70006091F6027091F7028091F8029091F9025C
:101A8000AE014F5F5F4FDEDACE0101960E943F0349
:101A90003ACD6091FA027091FB028091FC02909124
:101AA000FD02AE014F5F5F4FCDDACE0101960E947D
:101AB0003F0329CD60912E0370912F038091300355
:101AC00090913103AE014F5F5F4FBCDACE010196BA
:101AD0000E943F0318CD80913403909135034AE072
:101AE000BE016F5F7F4F0E947316CE0101960E9468
:101AF0003F0309CD8091360390913703009741F061
:101B0000019709F000CD8CE291E00E943F03FBCCED
:101B10008AE191E00E943F03F6CC60917B027091D4
:101B20007C0280917D0290917E02AE014F5F5F4FFB
:101B300089DACE0101960E943F03E5CC60917F02D5
:101B4000709180028091810290918202AE014F5F7C
:101B50005F4F78DACE0101960E943F03D4CC6091AA
:101B60008702709188028091890290918A02AE0169
:101B70004F5F5F4F67DACE0101960E943F03C3CCEF
:101B800060917702709178028091790290917A0247
:101B9000AE014F5F5F4F56DACE0101960E943F03C0
:101BA000B2CC6091970270919802809199029091C5
:101BB0009A02AE014F5F5F4F45DACE0101960E9457
:101BC0003F03A1CC60919B0270919C0280919D0289
:101BD00090919E02AE014F5F5F4F34DACE010196C5
:101BE0000E943F0390CC8091D1029091D2024AE0B2
:101BF000BE016F5F7F4F0E947316CE0101960E9457
:101C00003F0381CC8091D3029091D402009741F0A0
:101C1000019709F078CC8CE291E00E943F0373CCED
:101C20008AE191E00E943F036ECC60911C027091AA
:101C30001D0280911E0290911F02AE014F5F5F4F07
:101C400001DACE0101960E943F035DCC6091200233
:101C5000709121028091220290912302AE014F5F88
:101C60005F4FF0D9CE0101960E943F034CCC6091AA
:101C70001402709115028091160290911702AE0124
:101C80004F5F5F4FDFD9CE0101960E943F033BCCEF
:101C90006091300270913102809132029091330252
:101CA000AE014F5F5F4FCED9CE0101960E943F0338
:101CB0002ACC609138027091390280913A02909159
:101CC0003B02AE014F5F5F4FBDD9CE0101960E942E
:101CD0003F0319CC609168027091690280916A0299
:101CE00090916B02AE014F5F5F4FACD9CE01019670
:101CF0000E943F0308CC809170029091710200977E
:101D000041F0019709F0FFCB8CE291E00E943F0384
:101D1000FACB8AE191E00E943F03F5CB6091B501D7
:101D20007091B6018091B7019091B801AE014F5FFB
:101D30005F4F88D9CE0101960E943F03E4CB6091AA
:101D4000BD017091BE018091BF019091C001AE01B3
:101D50004F5F5F4F77D9CE0101960E943F03D3CBEF
:101D60006091C1017091C2018091C3019091C40141
:101D7000AE014F5F5F4F66D9CE0101960E943F03CF
:101D8000C2CB6091CD017091CE018091CF01909135
:101D9000D001AE014F5F5F4F55D9CE0101960E9431
:101DA0003F03B1CB6091D1017091D2018091D301F9
:101DB0009091D401AE014F5F5F4F44D9CE0101969F
:101DC0000E943F03A0CB60910502709106028091B2
:101DD000070290910802AE014F5F5F4F33D9CE01E9
:101DE00001960E943F038FCB80910B0290910C02D1
:101DF0004AE0BE016F5F7F4F76D7CE0101960E9409
:101E00003F0381CB80910D0290910E02009741F02B
:101E1000019709F078CB8CE291E00E943F0373CBED
:101E20008AE191E00E943F036ECB8091A6019091E0
:101E3000A701009741F0019709F065CB8CE291E092
:101E40000E943F0360CB8AE191E00E943F035BCB9D
:101E50006091AD017091AE018091AF019091B001A0
:101E60002AE0AE014F5F5F4F48D7CE0101960E9436
:101E70003F0349CB8EE291E00E943F0344CB66E2F0
:101E800070E08FE495E006D7FC01892B09F48BC440
:101E900081818093410582818093420583812396CD
:101EA0008FAF2397848124968FAF249785812596C1
:101EB0008FAF259766E371E081E495E0F6D6892B34
:101EC00009F021CB6DE070E08FE495E0E3D6FC01F2
:101ED0003497208120934505319620812093460533
:101EE0003196208120934705319680818093480563
:101EF0006EE170E08FE495E0E1D6BC0165507109B8
:101F00008FE495E00E94960040E1BE01635C7F4F44
:101F1000EAD6CE01CD960E94F102811105C08FE173
:101F200091E00E943F03EFCACE018E5B9F4F81D6A6
:101F3000603621E0720709F4F3C10CF086C06A3FF5
:101F4000710509F464C10CF03DC06939710509F4EB
:101F500021C1F4F46739710509F4F4C00CF006C12D
:101F60006639710509F019C4CE0101960E94AD02CF
:101F7000CE0101963ED66093DA027093DB02809325
:101F8000DC029093DD0289E191E00E943F03BBCA2D
:101F90006B39710509F427C10CF410C16C39710556
:101FA00009F0FBC3CE0101960E94AD02CE0101965D
:101FB00023D6909335038093340389E191E00E9406
:101FC0003F03A1CA6E3F710509F45DC1D4F46C3FB3
:101FD000710509F430C10CF042C1CE0101960E9496
:101FE000AD02CE01019605D66093930270939402E0
:101FF000809395029093960289E191E00E943F03BD
:1020000082CA6115E1E07E0709F466C10CF450C193
:102010006E3521E0720709F46FC16F35714009F028
:10202000BCC3CE0101960E94AD02CE010196E1D55E
:1020300060933002709331028093320290933302A6
:1020400089E191E00E943F035ECA653CE1E07E07C2
:1020500009F4DBC10CF040C0643621E0720709F4DA
:102060009CC1DCF46236E1E07E0709F46DC10CF03E
:1020700080C1CE0101960E94AD02CE010196B9D574
:10208000609338027093390280933A0290933B0236
:1020900089E191E00E943F0336CA633C21E0720768
:1020A00009F48BC10CF09DC1623C714009F075C30D
:1020B000CE0101960E94AD02CE0101969AD56093A1
:1020C000B1017093B2018093B3019093B40189E19F
:1020D00091E00E943F0317CA643FF1E07F0709F4D3
:1020E000D1C1DCF4673C31E0730709F4B7C10CF4EB
:1020F000A0C1683C714009F050C3CE0101960E9416
:10210000AD02CE01019678D590930C0280930B021C
:1021100089E191E00E943F03F6C9693522E0720728
:1021200009F4D8C22CF46835724009F4A9C235C349
:102130006A35F2E07F0709F4ECC26B35724009F4AE
:10214000F9C22BC3CE0101960E94AD02CE010196C9
:1021500050D56093F6027093F7028093F802909343
:10216000F90289E191E00E943F03CDC9CE010196B9
:102170000E94AD02CE0101963CD56093FA027093A5
:10218000FB028093FC029093FD0289E191E00E94A2
:102190003F03B9C9CE0101960E94AD02CE0101965E
:1021A00028D56093FE027093FF0280930003909302
:1021B000010389E191E00E943F03A5C9809159057F
:1021C000813339F450923C0389E391E00E943F034C
:1021D0009AC9803309F097C910923C038CE391E0CF
:1021E0000E943F0390C9CE0101960E94AD02CE012C
:1021F0000196FFD460932E0370932F0380933003D6
:102200009093310389E191E00E943F037CC9CE01A4
:1022100001960E94AD02CE010196EBD46093770245
:10222000709378028093790290937A0289E191E029
:102230000E943F0368C9CE0101960E94AD02CE0103
:102240000196D7D460939702709398028093990275
:1022500090939A0289E191E00E943F0354C9CE0114
:1022600001960E94AD02CE010196C3D460939B02F9
:1022700070939C0280939D0290939E0289E191E06D
:102280000E943F0340C980915905813339F450922F
:10229000D90289E391E00E943F0335C9803309F0F8
:1022A00032C91092D9028CE391E00E943F032BC9FE
:1022B000CE0101960E94AD02CE0101969AD46093A0
:1022C000CB027093CC028093CD029093CE0289E131
:1022D00091E00E943F0317C9CE0101960E94AD0212
:1022E000CE01019689D49093D2028093D10289E1E4
:1022F00091E00E943F0307C9CE0101960E94AD0202
:10230000CE01019676D460931402709315028093E7
:1023100016029093170289E191E00E943F03F3C8EF
:10232000CE0101960E94AD02CE01019662D4609367
:10233000340270933502809336029093370289E11C
:1023400091E00E943F03DFC880915905813339F441
:102350005092760289E391E00E943F03D4C8803313
:1023600009F0D1C8109276028CE391E00E943F03FD
:10237000CAC8CE0101960E94AD02CE01019639D4A1
:10238000609368027093690280936A0290936B0273
:1023900089E191E00E943F03B6C8CE0101960E94F8
:1023A000AD02CE01019628D490936F0280936E0205
:1023B00089E191E00E943F03A6C8CE0101960E94E8
:1023C000AD02CE01019615D46093CD017093CE017C
:1023D0008093CF019093D00189E191E00E943F0367
:1023E00092C8CE0101960E94AD02CE01019601D4A1
:1023F0006093D1017093D2018093D3019093D40163
:1024000089E191E00E943F037EC8CE0101960E94BF
:10241000AD02CE010196EDD36093D5017093D60144
:102420008093D7019093D80189E191E00E943F0306
:102430006AC880915905813339F45092130289E3B7
:1024400091E00E943F035FC8803309F05CC810929E
:1024500013028CE391E00E943F0355C8CE01019620
:102460000E94AD02CE010196C4D360930502709321
:102470000602809307029093080289E191E00E948E
:102480003F0341C84091DA025091DB026091DC02C7
:102490007091DD0280E090E024D64091F6025091E8
:1024A000F7026091F8027091F90284E090E019D689
:1024B0004091FA025091FB026091FC027091FD0282
:1024C00088E090E00ED64091FE025091FF026091AC
:1024D0000003709101038CE090E003D640912E033D
:1024E00050912F03609130037091310380E190E0AF
:1024F000F8D5609134037091350384E190E0F6D50E
:1025000040917702509178026091790270917A023D
:1025100088E190E0E6D54091930250919402609159
:102520009502709196028CE190E0DBD54091970284
:10253000509198026091990270919A0280E290E025
:10254000D0D540919B0250919C0260919D02709168
:102550009E0284E290E0C5D54091CB025091CC021E
:102560006091CD027091CE0288E290E0BAD5609180
:10257000D1027091D2028CE290E0B8D54091140261
:1025800050911502609116027091170280E390E05D
:10259000A8D5409130025091310260913202709181
:1025A000330284E390E09DD540913402509135028E
:1025B000609136027091370288E390E092D54091A5
:1025C00038025091390260913A0270913B028CE3DB
:1025D00090E087D5409168025091690260916A024B
:1025E00070916B0280E490E07CD560916E027091F6
:1025F0006F0284E490E07AD54091B1015091B2012C
:102600006091B3017091B40188E490E06AD5409183
:10261000CD015091CE016091CF017091D0018CE439
:1026200090E05FD54091D1015091D2016091D301EA
:102630007091D40180E590E054D54091D50150913E
:10264000D6016091D7017091D80184E590E049D519
:1026500040910502509106026091070270910802B4
:1026600088E590E03ED560910B0270910C028CE5FC
:1026700090E03CD589E191E00E943F030C94830AED
:10268000CE0101960E94AD0261E471E0CE01019697
:102690000CD3892B19F42092A80109C060E471E0E1
:1026A000CE01019602D3892B79F43092A801F092E1
:1026B0008700E0928600809186009091870080914B
:1026C0006F00826080936F0089E191E00E943F0378
:1026D0000C94830ACE0101960E94AD02CE010196B0
:1026E0008BD2181619062CF070920101609200012D
:1026F00008C08B3091052CF090920101809200016E
:10270000E3CFF501E81BF90BF0930101E093000121
:10271000DBCFCE0101960E94AD021092A801CE013E
:10272000019687D20E94C50089E191E00E943F0393
:102730000C94830ACE0101960E94AD02CE0101964F
:1027400078D20091AD011091AE012091AF0130918E
:10275000B001061717072807390774F00091AD017B
:102760001091AE012091AF013091B0016017710757
:10277000820793070CF0A8CF0091AD011091AE0134
:102780002091AF013091B0011092A801601B710B34
:10279000820B930B0E94C50097CF84E491E00E94C6
:1027A0003F030C94830A64E270E08FE495E072D2F8
:1027B000FC01892B11F40C94830A818180934105DB
:1027C0008281809342058381809343056CE471E0AC
:1027D00081E495E06AD2892B11F00C94830A50921F
:1027E0003D0380E591E00E943F030C94830A50581A
:1027F000BB27AA270ED00DC1FED030F003D120F0A8
:1028000031F49F3F11F41EF4F3C00EF4E095E7FBA2
:10281000E9C0E92F0FD180F3BA1762077307840765
:10282000950718F071F49EF527C10EF4E0950B2E74
:10283000BA2FA02D0B01B90190010C01CA01A00112
:102840001124FF27591B99F0593F50F4503E68F16D
:102850001A16F040A22F232F342F4427585FF3CFAE
:10286000469537952795A795F0405395C9F77EF47F
:102870001F16BA0B620B730B840BBAF09150A1F0C8
:10288000FF0FBB1F661F771F881FC2F70EC0BA0F4E
:10289000621F731F841F48F4879577956795B795D6
:1028A000F7959E3F08F0B3CF9395880F08F09927CE
:1028B000EE0F97958795089571D008F481E00895FB
:1028C00004D06894B111D9C00895BCD088F09F5746
:1028D00090F0B92F9927B751A0F0D1F0660F771F6C
:1028E000881F991F1AF0BA95C9F712C0B13081F04C
:1028F000C3D0B1E00895C0C0672F782F8827B85F94
:1029000039F0B93FCCF3869577956795B395D9F7AC
:102910003EF490958095709561957F4F8F4F9F4FB6
:102920000895E89409C097FB3EF4909580957095C2
:1029300061957F4F8F4F9F4F9923A9F0F92F96E90B
:10294000BB279395F695879577956795B795F11180
:10295000F8CFFAF4BB0F11F460FF1BC06F5F7F4F1D
:102960008F4F9F4F16C0882311F096E911C077232F
:1029700021F09EE8872F762F05C0662371F096E838
:10298000862F70E060E02AF09A95660F771F881F07
:10299000DAF7880F9695879597F90895990F0008AB
:1029A000550FAA0BE0E8FEEF16161706E807F90721
:1029B000C0F012161306E407F50798F0621B730BBC
:1029C000840B950B39F40A2661F0232B242B252B3D
:1029D00021F408950A2609F4A140A6958FEF811DE0
:1029E000811D089597F99F6780E870E060E0089581
:1029F0009FEF80EC089500240A9416161706180617
:102A00000906089500240A941216130614060506F2
:102A10000895092E0394000C11F4882352F0BB0F83
:102A200040F4BF2B11F460FF04C06F5F7F4F8F4FE6
:102A30009F4F089557FD9058440F551F59F05F3F21
:102A400071F04795880F97FB991F61F09F3F79F0D0
:102A500087950895121613061406551FF2CF469552
:102A6000F1DF08C0161617061806991FF1CF8695D4
:102A70007105610508940895E894BB2766277727B8
:102A8000CB0197F908958ADF08F48FEF08950BD0F2
:102A9000C0CFB1DF28F0B6DF18F0952309F0A2CF40
:102AA000A7CF1124EACFC6DFA0F3959FD1F3950FEE
:102AB00050E0551F629FF001729FBB27F00DB11DC2
:102AC000639FAA27F00DB11DAA1F649F6627B00D52
:102AD000A11D661F829F2227B00DA11D621F739F3B
:102AE000B00DA11D621F839FA00D611D221F749F49
:102AF0003327A00D611D231F849F600D211D822F90
:102B0000762F6A2F11249F5750408AF0E1F08823D6
:102B10004AF0EE0FFF1FBB1F661F771F881F9150E3
:102B20005040A9F79E3F510570F05CCFA6CF5F3FA4
:102B3000ECF3983EDCF3869577956795B795F79516
:102B4000E7959F5FC1F7FE2B880F911D969587959E
:102B500097F9089577DFE0F09E37D8F09639B8F40A
:102B60009E3848F4672F782F8827985FF9CF86958D
:102B70007795679593959539D0F3B62FB1706B0F14
:102B8000711D811D20F4879577956795939502C0F7
:102B90001CC073CF882371F4772321F09850872BC2
:102BA000762F07C0662311F499270DC09051862B0C
:102BB00070E060E02AF09A95660F771F881FDAF7B9
:102BC000880F9695879597F908959F3F31F091501A
:102BD00020F4879577956795B795880F911D969501
:102BE000879597F90895EE0FFF1F0590F491E02D5A
:102BF000099466277727E6C0FC0188279927E8947F
:102C000021912032E9F3293010F02E30C8F32B3215
:102C100039F02D3231F4689403C092D0820F911DA7
:102C2000219120532A30C8F31EF4909581959F4F2F
:102C300008951F93FC0199278827BC01E8941191FE
:102C40001032E9F3193010F01E30C8F31B3249F08E
:102C50001D3241F4689405C05ED0610F711D811D65
:102C6000911D119110531A30B8F33EF49095809550
:102C7000709561957F4F8F4F9F4F1F910895FB0176
:102C8000DC010D900020E9F7119701900D920020D2
:102C9000E1F70895FC018191861721F08823D9F787
:102CA000992708953197CF010895FB01DC018D919B
:102CB000019080190110D9F3990B0895FC0161501E
:102CC000704001900110D8F7809590958E0F9F1F4E
:102CD0000895DC016C9161566A3108F0605E6F5BAB
:102CE0006D93C1F70895BB274A3031F4992322F43C
:102CF000BDE2909581959F4F4DC0BB272A3051F47E
:102D0000992342F4BDE290958095709561957F4F2F
:102D10008F4F9F4F1EC0592F482F372F262F660FDA
:102D2000771F881F991F660F771F881F991F620FD3
:102D3000731F841F951F660F771F881F991F0895A3
:102D40007AE0979F902D879F802D910D11240895F3
:102D5000BB27FA01A62F6217710581059105330B78
:102D600030FB66F0AA27660F771F881F991FAA1FDE
:102D7000A21710F0A21B63953850A9F7A05DAA33E3
:102D800008F0A95DA19336F7B111B1931082CA0181
:102D90008BC1BB27FB015527AA27880F991FAA1FA4
:102DA000A41710F0A41B83955051B9F7A05DAA3366
:102DB00008F0A95DA193009779F7B111B193119231
:102DC000CB0172C1A0E0B0E0E7EEF6E1BEC1EC01DC
:102DD0007B016115710519F0DB018D939C938E01C8
:102DE0000F5F1F4F7880872D90E03ED1892B11F027
:102DF000E801F5CFBDE27B1205C00F5F1F4F798060
:102E0000C1E008C0EBE27E1204C08E010E5F1F4FCE
:102E10007980C0E06801F1E0CF1AD10843E050E0CA
:102E200060E870E0C60128D1892BE9F4680122E04E
:102E3000C20ED11C45E050E06BE770E0C6011CD12A
:102E4000892B21F4680187E0C80ED11CE114F1043C
:102E500019F0D701CD92DC92C111F9C060E070E0A9
:102E600080E89FE7FDC043E050E068E770E0C601FE
:102E700003D1892B51F4E114F10409F4EDC00E5F84
:102E80001F4FF70111830083E7C0680160E070E025
:102E9000CB0100E010E0F601D0EDD70DDA3050F5AF
:102EA0002C2F2260622E2C2F2870C2FF05C021110A
:102EB00027C00F5F1F4F24C0222311F001501109BA
:102EC000A5E0B0E09B01AC0132D14B015C01880C64
:102ED000991CAA1CBB1CC501B4016D0F711D811D7D
:102EE000911D6839A9E97A078A07A9E19A0740F094
:102EF000C66005C0DE3F51F4C3FD44C0C8606C2EFF
:102F0000BFEFCB1ADB0A7080C62DC5CF2D2F2F7DCA
:102F10002531C1F540814D3211F4C06106C04B32FC
:102F200021F0319621E030E006C03296D6011196AC
:102F30004C9122E030E0A0EDA40FAA3018F0E21B83
:102F4000F30B20C040E050E04038BCE05B075CF48D
:102F50009A01220F331F220F331F420F531F440FBA
:102F6000551F4A0F511D3196DF0111972C91A0ED8D
:102F7000A20FAA3048F3C4FF03C0519541955109EF
:102F8000040F151FC1FF07C0E114F10421F03197B0
:102F9000D701ED93FC93C5DCC370C33019F06B010E
:102FA0007C0106C06B017C01F7FAF094F7F8F0940D
:102FB00020E030E0A901C701B6017EDC882309F4D6
:102FC00043C017FF06C0119501951109C7E9D0E06C
:102FD00002C0CFEAD0E05E01B8E1AB1AB108460109
:102FE000BE2DAF2D90E2E92EF12C0E151F057CF0C1
:102FF000FE012591359145915491B4018B2F9A2F63
:1030000046DD4B01B82FA92F0E191F09EECF2497CB
:10301000F594E794CA15DB0541F76401EB2EFA2E0F
:103020008E2D880F8F2D881F8F3F41F020E030E0DC
:10303000A901C701B60140DC811106C082E290E01F
:103040009093730580937205C701B60109C060E0D3
:1030500070E080E89FEF04C060E070E080EC9FE7E4
:10306000CDB7DEB7EEE08DC091112EC0803219F0E1
:1030700089508550D0F70895FB01DC014150504044
:1030800088F08D9181341CF08B350CF4805E659155
:1030900061341CF06B350CF4605E861B611171F3BA
:1030A000990B0895881BFCCFDC01FC01672F7191FF
:1030B0007723E1F7329704C07C916D93708362911E
:1030C000AE17BF07C8F30895992788270895A6E18A
:1030D000B0E044E050E00FC0A8E1B0E042E050E0D2
:1030E0000AC0242F17D0252F15D000C012D0272FAB
:1030F00011C0DC01CB01FC01F999FECF06C0F2BD85
:10310000E1BDF89A319600B40D9241505040B8F7A5
:103110000895262FF999FECF1FBA92BD81BD20BD1B
:103120000FB6F894FA9AF99A0FBE0196089540D016
:10313000A59F900DB49F900DA49F800D911D11240B
:1031400008952F923F924F925F926F927F928F924B
:103150009F92AF92BF92CF92DF92EF92FF920F9326
:103160001F93CF93DF93CDB7DEB7CA1BDB0B0FB630
:10317000F894DEBF0FBECDBF09942A8839884888ED
:103180005F846E847D848C849B84AA84B984C88483
:10319000DF80EE80FD800C811B81AA81B981CE0F7A
:1031A000D11D0FB6F894DEBF0FBECDBFED0108955F
:1031B000A29FB001B39FC001A39F700D811D112478
:1031C000911DB29F700D811D1124911D0895F894D9
:0231D000FFCF2F
:1031D2000A00010043324341205341204144502020
:1031E200312E3000000000002E003000494600431E
:1031F2005243206572726F7200565200310056526D
:103202006572726F72005653004F4E004F46460071
:103212004343570056536572726F72004352430024
:103222004352432064697361626C6564000A03055A
:10323200030003F902F102E802DD02D102C202B187
:10324200029D0287026E02520234021402F201CF80
:1032520001AA0186016301410121010301E700CEB8
:1032620000B800A4009300840078006D00640000A0
:00000001FF
