S00C0000433243412E737265631F
S113000051C000006BC0000069C0000067C0000060
S113001065C0000063C0000061C00000C3C60000EA
S11300205DC000005BC0000059C00000D5C40000E2
S113003055C0000053C0000025C400004FC000009C
S11300404DC000004BC00000E7C30000A3C3000084
S113005045C0000043C0000041C000003FC0000094
S11300603DC000003BC000004E414E494E4954592A
S1130070494E46CDCCCC3D0AD7233C17B7D138776F
S1130080CC2B329595E6241FB14F0A000020410085
S113009000C84200401C4620BCBE4CCA1B0E5AAECF
S11300A0C59D740011241FBECFEFD8E0DEBFCDBFC5
S11300B011E0A0E0B1E0E8E3FCE202C005900D929B
S11300C0AE38B107D9F725E0AEE8B1E001C01D9222
S11300D0AE35B207E1F744D70C941A1691CF6230CB
S11300E059F020F4613059F45C9809C0633031F060
S11300F0643029F45F9803C05D9801C05E988EBD9A
S11301000DB407FEFDCF8EB51EBC0DB407FEFDCFAA
S11301108EB59BB1906F9BB908951F93CF93DF93D6
S1130120DC01FC0180E090E09F012A1B3B0B2617B9
S11301303707F4F44191292F332727FD3A952427D3
S1130140322F222748E050E0E901CC0FDD1F37FFB2
S113015006C09E0111E2212710E1312701C09E0152
S11301604150510989F7982F882782279327DCCF9C
S1130170DF91CF911F910895CF92DF92EF92FF927A
S11301800F931F93CF93DF93EC01062F81E0A7DF3A
S1130190182F602F82E0A3DF612F70E0762F66278F
S11301A0682B75956795072E000C880B990B0E9498
S11301B0CC1120E030E040E05DE30E94801220E0BA
S11301C030E040E853E40E9430116C837D838E83D9
S11301D09F836C817D818E819F8120E030E040EFA0
S11301E052E40E947C1218163CF4FE01EE59FF4FB3
S11301F0108288B1807F88B90091290310912A0365
S1130200688179818A819B812C813D814E815F81C6
S11302100E943011F8013A96EE0FFF1FEE0FFF1FF8
S1130220EC0FFD1F6083718382839383E091290324
S1130230F0912A033A96EE0FFF1FEE0FFF1FEC0F0B
S1130240FD1F60817181828193812C8D3D8D4E8D46
S11302505F8D0E948012688779878A879B87CC8408
S1130260DD84EE84FF84E0912903F0912A033A9619
S1130270EE0FFF1FEE0FFF1FEC0FFD1F608171815A
S11302808281938128A139A14AA15BA10E94801295
S11302909B01AC01C701B6010E9431116C877D87B7
S11302A08E879F876C857D858E859F8520E030E0D5
S11302B040E251E40E947C12181644F480E090E07D
S11302C0A0E2B1E48C879D87AE87BF876C857D856E
S11302D08E859F8520E030E040E251EC0E9495112C
S11302E087FF08C080E090E0A0E2B1EC8C879D8796
S11302F0AE87BF87E0912903F0912A033A96EE0F67
S1130300FF1FEE0FFF1FEC0FFD1F608171818281C3
S11303109381E0910201F09103013A96EE0FFF1FE1
S1130320EE0FFF1FEC0FFD1F2081318142815381AD
S1130330CCA0DDA0EEA0FFA00E943011A701960181
S11303400E948012688B798B8A8B9B8B6885798558
S11303508A859B852C853D854E855F85C888D9888F
S1130360EA88FB880E943111A70196010E9431118D
S1130370688F798F8A8F9B8F888D998DAA8DBB8D7D
S11303808C8B9D8BAE8BBF8B6C897D898E899F896D
S11303900E94E3120E949911FE01E05AFF4F7183FB
S11303A06083E0912903F0912A033A96EE0FFF1F30
S11303B0EE0FFF1FEC0FFD1F80819181A281B3819D
S11303C0BC01CD019F7720E030E040EA50E40E9478
S11303D07C12181624F41C861D861E861F86E09146
S11303E02903F0912A033A96EE0FFF1FEE0FFF1F29
S11303F0EC0FFD1F80819181A281B381FE01EC5A33
S1130400FF4F2081318142815381BC01CD019F770F
S11304100E949511FE01E85AFF4F18160CF18081D5
S1130420918101969183808320813181DE01A65AD6
S1130430BF4F4D915C916DE3649FC001659F900D2A
S113044011242817390794F0C45ADF4F81E090E053
S1130450998388838081918101979183808306C0E9
S113046011821082C45ADF4F19821882DF91CF9112
S11304701F910F91FF90EF90DF90CF900895CF934D
S1130480DF93D82FC92F6EE170E089E395E00E94D5
S113049091139C0125503109ED2FFC2FCF01449677
S11304A0DF011D92A817B907E1F7A3E4B5E0CD0178
S11304B089539540821793071CF48D918193F7CF4C
S11304C0DF91CF910895823059F020F4813059F4AE
S11304D05C9809C0833031F0843029F45F9803C0FC
S11304E05D9801C05E9880E88EBD0DB407FEFDCF17
S11304F08EB583EC8EBD0DB407FEFDCF8EB58BB1EA
S1130500806F8BB90895CF93DF93EC018FE295E070
S11305100E949C13CE010E949C1390912F05888108
S1130520903329F590913005903399F490913105E9
S1130530903331F491E020913205281329C029C069
S1130540981326C091E0209132058981281320C098
S113055020C098131DC0909131058981981318C04B
S113056091E0209132058A81281312C012C0981399
S11305700FC090913005898198130AC0909131057C
S11305808A81981305C091E0209132058B8128134C
S113059090E0892FDF91CF9108958F929F92AF922F
S11305A0BF92CF92DF92EF92FF920F931F93CF935C
S11305B0DF93CDB7DEB7A8970FB6F894DEBF0FBEB2
S11305C0CDBF21E2298320913A052A8320913B055E
S11305D02B8320913C052C83BC01FE01359600E061
S11305E010E05F01DC010D900020E9F79D01281B5C
S11305F0390B2E5F3F4FA8014F5F5F4F7A010217FF
S1130600130730F4DB012D91BD0121938701EACF5B
S1130610BA01CE0101966C0180DD4C0140E16FE22C
S113062075E00E94A6138FE295E00E949C1390E16E
S11306308916910498F480912F05F501E00FF11FBC
S1130640808380E3FE01E00FF11F8483FE01E00F4D
S1130650F11F8383F601EE0DFF1D8083C4014097D3
S1130660803F9105A8F480913005F501E00FF11F5A
S1130670808380912F05FE01E00FF11F848380E3C6
S1130680FE01E00FF11F8383F601EE0DFF1D808351
S1130690C4019A9581159F40C0F4F501E00FF11F44
S11306A0809131058083FE01E00FF11F80913005B8
S11306B08483FE01E00FF11F80912F058383F601EF
S11306C0EE0DFF1D80E380831CC08114B0E19B0606
S11306D0C0F0F601EE0DFF1D80912F058083FE0111
S11306E0E00FF11F809130058383FE01E00FF11FBD
S11306F0809131058483F501E00FF11F809132056B
S113070080830B5F1F4FF601E00FF11F8DE08083A4
S1130710F6019191F894209158058091570528137A
S113072005C08091C10080628093C100809157050B
S1130730A0915A05B0915B05A80FB11D9C938091BF
S11307405705482F50E02091590530E021503109D8
S11307504217530711F08F5F01C080E08093570563
S11307607894CF018C199D090817190794F6A89657
S11307700FB6F894DEBF0FBECDBFDF91CF911F91AE
S11307800F91FF90EF90DF90CF90BF90AF909F902C
S11307908F9008951F920F920FB60F9211242F93EA
S11307A03F934F935F938F939F93EF93FF93909116
S11307B05805809157059817E9F080915805E09104
S11307C05A05F0915B05E80FF11D90818091580561
S11307D0482F50E02091590530E02150310942174B
S11307E0530711F08F5F01C080E080935805909308
S11307F0C60005C08091C1008F7D8093C100FF9128
S1130800EF919F918F915F914F913F912F910F9015
S11308100FBE0F901F9018951F920F920FB60F9254
S113082011242F933F934F935F938F939F93EF9351
S1130830FF938091C60090913405E0913705F091C3
S11308403805E90FF11D808380913405482F50E06D
S11308502091360530E0215031094217530711F039
S11308608F5F01C080E080933405FF91EF919F91E9
S11308708F915F914F913F912F910F900FBE0F90E9
S11308801F9018951F920F920FB60F9211242F9359
S11308903F938F939F938091240390912503019616
S11308A090932503809324032091240330912503FE
S11308B080912603909127032817390734F48091F7
S11308C02803882319F0409A01C04098809124039A
S11308D0909125038436910524F0109225031092FB
S11308E024038091C1029091C20201969093C202A6
S11308F08093C1022091C1023091C2028091C3024F
S11309009091C4022817390734F48091C5028823D2
S113091019F0419A01C041988091C1029091C2029C
S11309208436910524F01092C2021092C102809183
S11309305E0290915F02019690935F0280935E0243
S113094020915E0230915F02809160029091610279
S11309502817390734F480916202882319F0429AE7
S113096001C0429880915E0290915F0284369105A5
S113097024F010925F0210925E028091FB0190912C
S1130980FC0101969093FC018093FB012091FB01F3
S11309903091FC018091FD019091FE0128173907E7
S11309A034F48091FF01882319F0439A01C04398DD
S11309B08091FB019091FC018436910524F0109202
S11309C0FC011092FB019F918F913F912F910F9009
S11309D00FBE0F901F9018951F920F920FB60F9293
S11309E011242F933F934F935F936F937F938F9330
S11309F09F93AF93BF93EF93FF93809194018230C1
S1130A0009F4CCC034F4882359F0813009F45CC073
S1130A103FC1843009F4FAC0853009F427C138C1D4
S1130A20809190019091910101969093910180930E
S1130A3090018091900190919101813591050CF480
S1130A4027C110929101109290012091920130914E
S1130A50930180918E0190918F01281739073CF5FD
S1130A60E0919201F09193014091000150910101B4
S1130A70EE0FFF1FE55BFE4F20813181429FC001D5
S1130A80439F900D529F900D112490938700809363
S1130A9086008091860090918700809192019091C8
S1130AA0930101969093930180939201F1C081E0A8
S1130AB08093940180919201909193010197909376
S1130AC0930180939201E4C0409195015091960165
S1130AD060919701709198018091990190919A0188
S1130AE0A0919B01B0919C0120918E0130918F01C6
S1130AF0481B590B6A0B7B0BE0E5E29FC001E39FA7
S1130B00900D1124092E000CAA0BBB0B4817590792
S1130B106A077B070CF0BCC0809190019091910111
S1130B20019690939101809390018091900190910E
S1130B309101813591050CF4ABC010929101109292
S1130B409001809192019091930197FDA1C0E09151
S1130B509201F09193014091000150910101EE0F37
S1130B60FF1FE55BFE4F20813181429FC001439FFF
S1130B70900D529F900D11249093870080938600CE
S1130B8080918600909187008091920190919301C9
S1130B90019790939301809392017AC0189922C08F
S1130BA088EE93E09093870080938600809186007E
S1130BB0909187008091990190919A01A0919B0155
S1130BC0B0919C018C529140A109B1098093950187
S1130BD090939601A0939701B093980184E0809339
S1130BE0940156C08091950190919601A09197012E
S1130BF0B09198010296A11DB11D80939501909327
S1130C009601A0939701B093980142C080919901F5
S1130C1090919A01A0919B01B0919C014091950102
S1130C20509196016091970170919801841B950BE6
S1130C30A60BB70B0197A105B10551F585E080938B
S1130C4094018091990190919A01A0919B01B09196
S1130C509C0180579E4FAF4FBF4F80939501909357
S1130C609601A0939701B093980112C0189910C0EF
S1130C701092990110929A0110929B0110929C017A
S1130C80109295011092960110929701109298017A
S1130C904091990150919A0160919B0170919C013E
S1130CA08091950190919601A0919701B09198013E
S1130CB0481759076A077B07C4F42A9A95B182E05A
S1130CC0892785B98091990190919A01A0919B01FE
S1130CD0B0919C010196A11DB11D8093990190933F
S1130CE09A01A0939B01B0939C014091990150916A
S1130CF09A0160919B0170919C0180919501909162
S1130D009601A0919701B091980184179507A607C1
S1130D10B707C4F42A9895B182E0892785B98091F0
S1130D20990190919A01A0919B01B0919C01019726
S1130D30A109B1098093990190939A01A0939B0111
S1130D40B0939C014091990150919A0160919B014B
S1130D5070919C018091950190919601A0919701C9
S1130D60B0919801481759076A077B0751F42998ED
S1130D7080916F00825080936F00109293011092C3
S1130D809201FF91EF91BF91AF919F918F917F91CC
S1130D906F915F914F913F912F910F900FBE0F90E4
S1130DA01F9018951F920F920FB60F9211242F9334
S1130DB03F934F935F936F937F938F939F93AF93DF
S1130DC0BF93EF93FF9378945B9A61E070E086ECB5
S1130DD092E0D2D962E070E083E692E0CDD963E09C
S1130DE070E080E092E0C8D964E070E08DE991E0C1
S1130DF0C3D98091290390912A03019690932A03E1
S1130E00809329038091290390912A030B9724F05E
S1130E1010922A03109229038091290390912A03A6
S1130E2001969093030180930201809102019091B5
S1130E3003010B9724F010920301109202015B98B6
S1130E40FF91EF91BF91AF919F918F917F916F919E
S1130E505F914F913F912F910F900FBE0F901F9074
S1130E6018958F929F92AF92BF92CF92DF92EF929A
S1130E70FF920F931F93CF93DF93CDB7DEB76497A1
S1130E800FB6F894DEBF0FBECDBF4B015C018A01E3
S1130E900E9499116B017C0184E1F80111928A95F9
S1130EA0E9F74AE0B801C6010E94A61368E171E0BF
S1130EB0C8010E947213B601DD0C880B990B0E94C5
S1130EC0CC119B01AC01C501B4010E94301120E09A
S1130ED030E04AE754E40E9480120E9499119B0179
S1130EE077FF04C022273327261B370B4AE0CE01A5
S1130EF001967C01BC01C9010E94A613C12CD12C0E
S1130F0083E0A82EB12CF70101900020E9F7319776
S1130F10EE19FF09C5018E1B9F0BC816D90648F4AC
S1130F206AE171E0C8010E9472139FEFC91AD90ADD
S1130F30EACFB701C8010E94721364960FB6F89401
S1130F40DEBF0FBECDBFDF91CF911F910F91FF90F8
S1130F50EF90DF90CF90BF90AF909F908F900895C7
S1130F60CF93DF93CDB7DEB7C554D1090FB6F8944C
S1130F70DEBF0FBECDBF80E1E4E0F1E0DE015596B7
S1130F8001900D928A95E1F71DA21EA21FA218A638
S1130F90F8941092C50082E28093C4008091C0004E
S1130FA082608093C00088E98093C10086E08093CA
S1130FB0C20019821A821FEF1B838EE293E09D8385
S1130FC08C8385E0FE013196DE01D39601900D926B
S1130FD08A95E1F785E0FE01F396DE01D89601904B
S1130FE00D928A95E1F785E0FE01F896A7E5B5E054
S1130FF001900D928A95E1F719821A821B838DE282
S113100094E09D838C8385E0FE013196DE01999600
S113101001900D928A95E1F785E0FE01B996DE0113
S11310209E9601900D928A95E1F785E0FE01BE96A9
S1131030A4E3B5E001900D928A95E1F778942498A1
S11310408CE284B98DE58CBD81E090E09093270318
S1131050809326039093C4028093C3029093610209
S1131060809360029093FE018093FD0188EF8AB91A
S11310708FE087B9219A8BB1806F8BB980E090E0C3
S11310800E949A156093C6027093C7028093C802A7
S11310909093C90284E090E00E949A156093E20262
S11310A07093E3028093E4029093E50288E090E079
S11310B00E949A156093E6027093E7028093E80217
S11310C09093E9028CE090E00E949A156093EA0202
S11310D07093EB028093EC029093ED0280E190E038
S11310E00E949A1560931A0370931B0380931C0348
S11310F090931D0384E190E00E949F159093210337
S11311008093200388E190E00E949A156093630223
S11311107093640280936502909366028CE190E080
S11311200E949A1560937F027093800280938102DB
S11311309093820280E290E00E949A156093830269
S113114070938402809385029093860284E290E0F7
S11311500E949A1560938702709388028093890293
S113116090938A0288E290E00E949A156093B702F5
S11311707093B8028093B9029093BA028CE290E023
S11311800E949F159093BE028093BD0280E390E07D
S11311900E949A15609300027093010280930202E8
S11311A09093030284E390E00E949A1560931C02DA
S11311B070931D0280931E0290931F0288E390E0B7
S11311C00E949A1560932002709321028093220258
S11311D0909323028CE390E00E949A15609324027A
S11311E070932502809326029093270280E490E076
S11311F00E949A156093540270935502809356028C
S11312009093570284E490E00E949F1590935B02B0
S113121080935A0288E490E00E949A1560939D019D
S113122070939E0180939F019093A0018CE490E0C1
S11312300E949A156093B9017093BA018093BB011F
S11312409093BC0180E590E00E949A156093BD01E3
S11312507093BE018093BF019093C00184E590E038
S11312600E949A156093C1017093C2018093C301D7
S11312709093C40188E590E00E949A156093F1016F
S11312807093F2018093F3019093F4018CE590E064
S11312900E949F159093F8018093F70181E013D980
S11312A082E011D983E00FD984E00DD982E08093E4
S11312B06E0084BD95E095BD90E197BD80936F006D
S11312C09AE1909381002CE231E0309387002093DF
S11312D0860020918600309187008093700080936F
S11312E0B00087E08093B1001093B300789409E3D1
S11312F015E09EE1D92EF8012D2D11922A95E9F7DA
S113130040913705509138058091360590E001975A
S1131310E9E3F5E030913505209134053217D1F336
S113132020913505DA01A20FB11D3C9120913505BC
S1131330622F70E06817790711F02F5F01C020E079
S11313402093350531933D3021F025E0E735F20750
S113135009F780913905833271F66FE370E089E310
S113136095E00E947D137C01009709F409C3FC01F8
S1131370818180932B03828180932C036CE171E043
S11313808BE293E00E948813892B61F5F701838136
S113139080932F0584818093300585818093310566
S11313A08681809332056EE170E089E395E00E94C6
S11313B09113BC016550710989E395E00E948D0089
S11313C040E1BE01635C7F4F0E94A613CE01CD961F
S11313D09AD8882321F0CE014596DFD803C08FE147
S11313E091E0DBD869E271E08BE293E00E9488131C
S11313F0892B09F0C5C2F701838123968FAF239708
S1131400848124968FAF2497858125968FAF259765
S1131410868180932F058781809330058085809312
S113142031058185809332056EE170E089E395E0B2
S11314300E949113BC016550710989E395E00E94F3
S11314408D0040E1BE01635C7F4F0E94A613CE0174
S1131450CD9659D8882309F48FC2CE018E5B9F4F55
S11314600E944C136C32F1E07F0709F4DAC10CF0EE
S11314709CC06E36710509F489C10CF04BC0683606
S1131480710509F45FC11CF56536710509F440C1A5
S11314906CF46436710509F06AC26091CA027091F5
S11314A0CB028091CC029091CD023AC1663671058F
S11314B009F43FC16736710509F059C26091D6023B
S11314C07091D7028091D8029091D90229C16B36CC
S11314D0710509F449C18CF46936710509F43BC1FD
S11314E06A36710509F043C26091E6027091E70221
S11314F08091E8029091E90213C16C36710509F4F8
S11315003CC16D36710509F032C28091200390917F
S1131510210323C26D3C710509F45BC13CF56A3CAF
S1131520710509F444C18CF4683C710509F436C1B1
S1131530693C710509F01BC260916B0270916C02E9
S113154080916D0290916E02EBC06B3C710509F4C1
S113155037C16C3C710509F00AC260916302709155
S113156064028091650290916602DAC0603D710563
S113157009F441C18CF46E3C710509F433C16F3C2C
S1131580710509F0F4C1609187027091880280911D
S1131590890290918A02C4C0613D710509F434C185
S11315A0623D710509F435C1E2C16139E1E07E07AC
S11315B009F479C10CF05AC0623321E0720709F4CE
S11315C054C154F56F32F1E07F0709F43CC194F43F
S11315D06D32E1E07E0709F42DC16E32714009F0ED
S11315E0C6C160910C0270910D0280910E0290911F
S11315F00F0296C0603321E0720709F42DC16133F4
S1131600714009F0B4C160911C0270911D02809177
S11316101E0290911F0284C06533F1E07F0709F434
S113162036C194F46333E1E07E0709F427C16433DF
S1131630714009F09CC160915402709155028091EF
S11316405602909157026CC0663321E0720709F488
S113165023C16039714009F08AC16091A101709180
S1131660A2018091A3019091A4015AC06739F1E0CD
S11316707F0709F43CC154F56439E1E07E0709F4BD
S113168024C194F4623921E0720709F415C1633965
S1131690714009F06CC16091AD017091AE0180910F
S11316A0AF019091B0013CC06539F1E07F0709F4C6
S11316B015C16639714009F05AC16091BD0170913C
S11316C0BE018091BF019091C0012AC06A39E1E056
S11316D07E0709F41EC174F4683921E0720709F425
S11316E00FC16939714009F042C18091F7019091AD
S11316F0F80133C16935F2E07F0709F41CC16A358A
S1131700724009F034C1809100019091010125C11A
S11317106091CE027091CF028091D0029091D1025B
S1131720AE014F5F5F4F9DDBCE0101960E94CD025B
S113173027C16091D2027091D3028091D40290911A
S1131740D502EECF6091C6027091C7028091C802A3
S11317509091C902E5CF6091E2027091E302809119
S1131760E4029091E502DCCF6091EA027091EB0211
S11317708091EC029091ED02D3CF60911A037091A5
S11317801B0380911C0390911D03CACF80912203F7
S113179090912303009709F0C2C0C8C0609167020A
S11317A0709168028091690290916A02B9CF609148
S11317B06F02709170028091710290917202B0CFA9
S11317C06091730270917402809175029091760217
S11317D0A7CF60917F0270918002809181029091E5
S11317E082029ECF6091830270918402809185026F
S11317F09091860295CF6091B7027091B802809162
S1131800B9029091BA028CCF8091BD029091BE0230
S1131810A4C08091BF029091C002009709F07FC0DC
S113182085C0609104027091050280910602909136
S1131830070276CF609108027091090280910A0232
S113184090910B026DCF6091100270911102809102
S113185012029091130264CF609100027091010210
S113186080910202909103025BCF609120027091FB
S11318702102809122029091230252CF609124028E
S113188070912502809126029091270249CF809180
S11318905A0290915B0261C080915C0290915D025A
S11318A00097E9F543C06091A5017091A60180916C
S11318B0A7019091A80134CF6091A9017091AA0168
S11318C08091AB019091AC012BCF60919D017091FF
S11318D09E0180919F019091A00122CF6091B90156
S11318E07091BA018091BB019091BC0119CF6091B4
S11318F0C1017091C2018091C3019091C40110CFC4
S11319006091F1017091F2018091F3019091F401E1
S113191007CF8091F9019091FA01009739F001976E
S113192079F58CE291E00E94CD022AC08AE191E02F
S11319300E94CD0225C06091990170919A01809115
S11319409B0190919C012AE0AE014F5F5F4F08D745
S1131950CE0101960E94CD0213C04AE0BE016F5F22
S11319607F4FF4D6CE0101960E94CD0209C08EE2CB
S113197091E00E94CD0204C08FE191E00E94CD026B
S113198066E270E089E395E0B8D6FC01892B09F49E
S1131990B2CC818180932C05828180932D05838133
S11319A023968FAF2397848124968FAF24978581C4
S11319B025968FAF259766E371E08CE295E0A8D673
S11319C0892B09F098CC6DE070E089E395E095D619
S11319D0FC013497208120932F0531962081209398
S11319E03005319620812093310531968081809392
S11319F032056EE170E089E395E093D6BC01655051
S1131A00710989E395E00E948D0040E1BE01635CA9
S1131A107F4F9CD6CE01CD960E948302882309F481
S1131A201AC4CE018E5B9F4F37D66F35E1E07E0737
S1131A3009F4D4C20CF081C06A3F710509F458C29C
S1131A400CF03DC06939710509F414C2F4F4673926
S1131A50710509F4E7C10CF0F9C16639710509F0A3
S1131A60F5C3CE0101960E943F02CE010196F4D542
S1131A706093C6027093C7028093C8029093C90210
S1131A8089E191E00E94CD0234CC6B39710509F4EF
S1131A901BC20CF403C26C39710509F0D7C3CE0123
S1131AA001960E943F02CE010196D9D5909321035D
S1131AB08093200389E191E00E94CD021ACC6E3F0D
S1131AC0710509F451C2D4F46C3F710509F424C2C0
S1131AD00CF036C2CE0101960E943F02CE0101965F
S1131AE0BBD560937F0270938002809381029093B0
S1131AF0820289E191E00E94CD02FBCB611521E0D5
S1131B00720709F45BC20CF445C26E35714009F0EA
S1131B109DC3CE0101960E943F02CE0101969CD541
S1131B206093000270930102809302029093030277
S1131B3089E191E00E94CD02DCCB643C21E0720794
S1131B4009F4C6C2E4F56336F1E07F0709F484C200
S1131B50DCF46136E1E07E0709F454C20CF066C29D
S1131B60CE0101960E943F02CE01019675D5609385
S1131B70200270932102809322029093230289E130
S1131B8091E00E94CD02B5CB623C21E0720709F4DA
S1131B9077C20CF089C26436714009F057C3CE0194
S1131BA001960E943F02CE01019659D590935B02A3
S1131BB080935A0289E191E00E94CD029ACB683C5D
S1131BC021E0720709F4C2C2DCF4663CF1E07F074D
S1131BD009F492C20CF0A6C2CE0101960E943F0203
S1131BE0CE01019639D56093C1017093C2018093EF
S1131BF0C3019093C40189E191E00E94CD0279CBA5
S1131C006835E2E07E0709F4B1C20CF001C1643F1B
S1131C10714009F01BC34091C6025091C702609104
S1131C20C8027091C90280E090E08ED74091E20230
S1131C305091E3026091E4027091E50284E090E047
S1131C4083D74091E6025091E7026091E8027091D7
S1131C50E90288E090E078D74091EA025091EB02E3
S1131C606091EC027091ED028CE090E06DD74091B0
S1131C701A0350911B0360911C0370911D0380E1B2
S1131C8090E062D7609120037091210384E190E099
S1131C9060D7409163025091640260916502709133
S1131CA0660288E190E050D740917F025091800213
S1131CB060918102709182028CE190E045D740915D
S1131CC0830250918402609185027091860280E2C1
S1131CD090E03AD74091870250918802609189023E
S1131CE070918A0284E290E02FD74091B70250911C
S1131CF0B8026091B9027091BA0288E290E024D7E8
S1131D006091BD027091BE028CE290E022D74091B6
S1131D10000250910102609102027091030280E37B
S1131D2090E012D740911C0250911D0260911E0256
S1131D3070911F0284E390E007D7409120025091F4
S1131D402102609122027091230288E390E0FCD684
S1131D50409124025091250260912602709127023D
S1131D608CE390E0F1D64091540250915502609179
S1131D7056027091570280E490E0E6D660915A02D0
S1131D8070915B0284E490E0E4D640919D0150910F
S1131D909E0160919F017091A00188E490E0D4D6E7
S1131DA04091B9015091BA016091BB017091BC019D
S1131DB08CE490E0C9D64091BD015091BE01609180
S1131DC0BF017091C00180E590E0BED64091C10191
S1131DD05091C2016091C3017091C40184E590E007
S1131DE0B3D64091F1015091F2016091F3017091E9
S1131DF0F40188E590E0A8D66091F7017091F801AC
S1131E008CE590E0A6D689E191E00E94CD0271CAEA
S1131E106935E2E07E0709F4BDC16A35724009F410
S1131E20C9C114C2CE0101960E943F02CE0101969F
S1131E3013D46093E2027093E3028093E4029093DC
S1131E40E50289E191E00E94CD0253CACE010196D8
S1131E500E943F02CE010196FFD36093E602709385
S1131E60E7028093E8029093E90289E191E00E94FD
S1131E70CD023FCACE0101960E943F02CE010196D7
S1131E80EBD36093EA027093EB028093EC0290939D
S1131E90ED0289E191E00E94CD022BCA80914305B5
S1131EA0813341F481E08093280389E391E00E9427
S1131EB0CD021FCA803309F01CCA109228038CE398
S1131EC091E00E94CD0215CACE0101960E943F0204
S1131ED0CE010196C1D360931A0370931B038093C0
S1131EE01C0390931D0389E191E00E94CD0201CA75
S1131EF0CE0101960E943F02CE010196ADD36093BC
S1131F00630270936402809365029093660289E190
S1131F1091E00E94CD02EDC9CE0101960E943F02DC
S1131F20CE01019699D360938302709384028093C7
S1131F3085029093860289E191E00E94CD02D9C97D
S1131F40CE0101960E943F02CE01019685D3609393
S1131F508702709388028093890290938A0289E1B0
S1131F6091E00E94CD02C5C980914305813341F4BB
S1131F7081E08093C50289E391E00E94CD02B9C952
S1131F80803309F0B6C91092C5028CE391E00E9437
S1131F90CD02AFC9CE0101960E943F02CE01019647
S1131FA05BD36093B7027093B8028093B9029093A5
S1131FB0BA0289E191E00E94CD029BC9CE0101964B
S1131FC00E943F02CE0101964AD39093BE028093B1
S1131FD0BD0289E191E00E94CD028BC9CE01019638
S1131FE00E943F02CE01019637D360931C02709386
S1131FF01D0280931E0290931F0289E191E00E94CA
S1132000CD0277C9CE0101960E943F02CE0101960E
S113201023D3609324027093250280932602909325
S1132020270289E191E00E94CD0263C980914305B2
S1132030813341F481E08093620289E391E00E945C
S1132040CD0257C9803309F054C9109262028CE35F
S113205091E00E94CD024DC9CE0101960E943F023B
S1132060CE010196F9D26093540270935502809385
S113207056029093570289E191E00E94CD0239C93A
S1132080CE0101960E943F02CE010196E5D26093F3
S11320909D0170939E0180939F019093A00189E11B
S11320A091E00E94CD0225C9CE0101960E943F0213
S11320B0CE010196D1D26093B9017093BA01809395
S11320C0BB019093BC0189E191E00E94CD0211C94A
S11320D0CE0101960E943F02CE010196BDD26093CB
S11320E0BD017093BE018093BF019093C00189E14B
S11320F091E00E94CD02FDC880914305813341F4F3
S113210081E08093FF0189E391E00E94CD02F1C850
S1132110803309F0EEC81092FF018CE391E00E9435
S1132120CD02E7C8CE0101960E943F02CE0101967E
S113213093D26093F1017093F2018093F301909331
S1132140F40189E191E00E94CD02D3C8CE01019649
S11321500E943F02CE01019682D29093F8018093AF
S1132160F70189E191E00E94CD02C3C8CE01019636
S11321700E943F0260E471E0CE010196C9D2892B2E
S1132180A1F482E08093940180916F008260809337
S11321906F000BC0CE0101960E943F02CE01019652
S11321A05ED2909301018093000189E191E00E9445
S11321B0CD029FC8CE0101960E943F021092940165
S11321C0CE01019669D29B0177FF04C022273327F1
S11321D0261B370BA9015595479541152AE052074F
S11321E0B4F4E0E5F0E021E030E04E175F073CF4A2
S11321F02150310930938F0120938E010EC02F5F3F
S11322003F4FE05BFF4F2032310579F706C020E2F3
S113221030E030938F0120938E01C0909901D090CB
S11322209A01E0909B01F0909C01CB01770FAA0BDF
S1132230BB0B8C0D9D1DAE1DBF1D8093950190930E
S11322409601A0939701B09398019ECF83E491E007
S11322500E94CD024EC88FE191E00E94CD0249C890
S11322605058BB27AA270ED00DC1FED030F003D1A1
S113227020F031F49F3F11F41EF4F3C00EF4E09506
S1132280E7FBE9C0E92F0FD180F3BA1762077307A0
S11322908407950718F071F49EF527C10EF4E095B4
S11322A00B2EBA2FA02D0B01B90190010C01CA010C
S11322B0A0011124FF27591B99F0593F50F4503EB7
S11322C068F11A16F040A22F232F342F4427585FA9
S11322D0F3CF469537952795A795F0405395C9F7C1
S11322E07EF41F16BA0B620B730B840BBAF0915079
S11322F0A1F0FF0FBB1F661F771F881FC2F70EC018
S1132300BA0F621F731F841F48F4879577956795EA
S1132310B795F7959E3F08F0B3CF9395880F08F0D3
S11323209927EE0F97958795089571D008F481E069
S1132330089504D06894B111D9C00895BCD088F030
S11323409F5790F0B92F9927B751A0F0D1F0660F9D
S1132350771F881F991F1AF0BA95C9F712C0B130B8
S113236081F0C3D0B1E00895C0C0672F782F8827CB
S1132370B85F39F0B93FCCF3869577956795B395F7
S1132380D9F73EF490958095709561957F4F8F4F66
S11323909F4F0895E89409C097FB3EF4909580956B
S11323A0709561957F4F8F4F9F4F9923A9F0F92F17
S11323B096E9BB279395F695879577956795B79595
S11323C0F111F8CFFAF4BB0F11F460FF1BC06F5F7B
S11323D07F4F8F4F9F4F16C0882311F096E911C08D
S11323E0772321F09EE8872F762F05C0662371F0AE
S11323F096E8862F70E060E02AF09A95660F771FC2
S1132400881FDAF7880F9695879597F90895990F9D
S11324100008550FAA0BE0E8FEEF16161706E807AA
S1132420F907C0F012161306E407F50798F0621BCB
S1132430730B840B950B39F40A2661F0232B242BA0
S1132440252B21F408950A2609F4A140A6958FEFBF
S1132450811D811D089597F99F6780E870E060E011
S113246008959FEF80EC089500240A941616170629
S113247018060906089500240A9412161306140671
S113248005060895092E0394000C11F4882352F0D4
S1132490BB0F40F4BF2B11F460FF04C06F5F7F4F8C
S11324A08F4F9F4F089557FD9058440F551F59F073
S11324B05F3F71F04795880F97FB991F61F09F3F2D
S11324C079F087950895121613061406551FF2CF56
S11324D04695F1DF08C0161617061806991FF1CFA6
S11324E086957105610508940895E894BB276627CD
S11324F07727CB0197F908958ADF08F48FEF0895C1
S11325000BD0C0CFB1DF28F0B6DF18F0952309F067
S1132510A2CFA7CF1124EACFC6DFA0F3959FD1F3B2
S1132520950F50E0551F629FF001729FBB27F00D7D
S1132530B11D639FAA27F00DB11DAA1F649F6627D2
S1132540B00DA11D661F829F2227B00DA11D621F21
S1132550739FB00DA11D621F839FA00D611D221FDB
S1132560749F3327A00D611D231F849F600D211DBF
S1132570822F762F6A2F11249F5750408AF0E1F062
S113258088234AF0EE0FFF1FBB1F661F771F881FAB
S113259091505040A9F79E3F510570F05CCFA6CFF3
S11325A05F3FECF3983EDCF3869577956795B79596
S11325B0F795E7959F5FC1F7FE2B880F911D9695C0
S11325C0879597F9089577DFE0F09E37D8F096392C
S11325D0B8F49E3848F4672F782F8827985FF9CF8E
S11325E086957795679593959539D0F3B62FB17005
S11325F06B0F711D811D20F48795779567959395D1
S113260002C01CC073CF882371F4772321F0985043
S1132610872B762F07C0662311F499270DC090519C
S1132620862B70E060E02AF09A95660F771F881F6A
S1132630DAF7880F9695879597F908959F3F31F0BB
S1132640915020F4879577956795B795880F911DDC
S11326509695879597F9089566277727E6C0FC0134
S113266088279927E89421912032E9F3293010F042
S11326702E30C8F32B3239F02D3231F4689403C074
S113268092D0820F911D219120532A30C8F31EF459
S1132690909581959F4F08951F93FC019927882752
S11326A0BC01E89411911032E9F3193010F01E3096
S11326B0C8F31B3249F01D3241F4689405C05ED062
S11326C0610F711D811D911D119110531A30B8F3C2
S11326D03EF490958095709561957F4F8F4F9F4FF5
S11326E01F910895FB01DC010D900020E9F711977B
S11326F001900D920020E1F70895FC018191861765
S113270021F08823D9F7992708953197CF010895A7
S1132710FB01DC018D91019080190110D9F3990B13
S11327200895FC016150704001900110D8F7809524
S113273090958E0F9F1F0895DC016C9161566A314C
S113274008F0605E6F5B6D93C1F70895BB274A3054
S113275031F4992322F4BDE2909581959F4F4DC0A9
S1132760BB272A3051F4992342F4BDE29095809519
S1132770709561957F4F8F4F9F4F1EC0592F482FE3
S1132780372F262F660F771F881F991F660F771F15
S1132790881F991F620F731F841F951F660F771F71
S11327A0881F991F08957AE0979F902D879F802D09
S11327B0910D11240895BB27FA01A62F6217710504
S11327C081059105330B30FB66F0AA27660F771F4E
S11327D0881F991FAA1FA21710F0A21B63953850D7
S11327E0A9F7A05DAA3308F0A95DA19336F7B1114A
S11327F0B1931082CA018BC1BB27FB015527AA27BD
S1132800880F991FAA1FA41710F0A41B8395505179
S1132810B9F7A05DAA3308F0A95DA193009779F7F1
S1132820B111B1931192CB0172C1A0E0B0E0EAE121
S1132830F4E1BEC1EC017B016115710519F0DB0106
S11328408D939C938E010F5F1F4F7880872D90E0AE
S11328503ED1892B11F0E801F5CFBDE27B1205C012
S11328600F5F1F4F7980C1E008C0EBE27E1204C005
S11328708E010E5F1F4F7980C0E06801F1E0CF1A2E
S1132880D10843E050E060E770E0C60128D1892B0D
S1132890E9F4680122E0C20ED11C45E050E06BE689
S11328A070E0C6011CD1892B21F4680187E0C80EB1
S11328B0D11CE114F10419F0D701CD92DC92C111BD
S11328C0F9C060E070E080E89FE7FDC043E050E0BD
S11328D068E670E0C60103D1892B51F4E114F104D8
S11328E009F4EDC00E5F1F4FF70111830083E7C0A9
S11328F0680160E070E0CB0100E010E0F601D0ED8B
S1132900D70DDA3050F52C2F2260622E2C2F287030
S1132910C2FF05C0211127C00F5F1F4F24C022230F
S113292011F001501109A5E0B0E09B01AC0132D1D6
S11329304B015C01880C991CAA1CBB1CC501B40189
S11329406D0F711D811D911D6839A9E97A078A07E8
S1132950A9E19A0740F0C66005C0DE3F51F4C3FD0B
S113296044C0C8606C2EBFEFCB1ADB0A7080C62D42
S1132970C5CF2D2F2F7D2531C1F540814D3211F466
S1132980C06106C04B3221F0319621E030E006C030
S11329903296D60111964C9122E030E0A0EDA40FBE
S11329A0AA3018F0E21BF30B20C040E050E040389E
S11329B0BCE05B075CF49A01220F331F220F331F24
S11329C0420F531F440F551F4A0F511D3196DF010B
S11329D011972C91A0EDA20FAA3048F3C4FF03C0B5
S11329E0519541955109040F151FC1FF07C0E1140A
S11329F0F10421F03197D701ED93FC93CBDCC37044
S1132A00C33019F06B017C0106C06B017C01F7FA3D
S1132A10F094F7F8F09420E030E0A901C701B60182
S1132A2084DC882309F443C017FF06C0119501957F
S1132A301109C7E8D0E002C0CFE9D0E05E01B8E1F7
S1132A40AB1AB1084601BE2DAF2D90E2E92EF12C50
S1132A500E151F057CF0FE01259135914591549189
S1132A60B4018B2F9A2F4CDD4B01B82FA92F0E19CF
S1132A701F09EECF2497F594E794CA15DB0541F7B7
S1132A806401EB2EFA2E8E2D880F8F2D881F8F3F19
S1132A9041F020E030E0A901C701B60146DC811114
S1132AA006C082E290E090935D0580935C05C701C7
S1132AB0B60109C060E070E080E89FEF04C060E008
S1132AC070E080EC9FE7CDB7DEB7EEE08DC09111EA
S1132AD02EC0803219F089508550D0F70895FB013B
S1132AE0DC014150504088F08D9181341CF08B35CD
S1132AF00CF4805E659161341CF06B350CF4605EFF
S1132B00861B611171F3990B0895881BFCCFDC01BE
S1132B10FC01672F71917723E1F7329704C07C9110
S1132B206D9370836291AE17BF07C8F30895992718
S1132B3088270895A6E1B0E044E050E00FC0A8E182
S1132B40B0E042E050E00AC0242F17D0252F15D062
S1132B5000C012D0272F11C0DC01CB01FC01F99970
S1132B60FECF06C0F2BDE1BDF89A319600B40D92D5
S1132B7041505040B8F70895262FF999FECF1FBA57
S1132B8092BD81BD20BD0FB6F894FA9AF99A0FBE92
S1132B900196089540D0A59F900DB49F900DA49FD9
S1132BA0800D911D112408952F923F924F925F92B0
S1132BB06F927F928F929F92AF92BF92CF92DF9249
S1132BC0EF92FF920F931F93CF93DF93CDB7DEB7AE
S1132BD0CA1BDB0B0FB6F894DEBF0FBECDBF099442
S1132BE02A88398848885F846E847D848C849B8499
S1132BF0AA84B984C884DF80EE80FD800C811B81A7
S1132C00AA81B981CE0FD11D0FB6F894DEBF0FBED5
S1132C10CDBFED010895A29FB001B39FC001A39F52
S1132C20700D811D1124911DB29F700D811D112401
S10B2C30911D0895F894FFCFF3
S1132C380A000100433243412053412041445020BB
S1132C48312E3000000000002E00300049460043B9
S1132C585243206572726F72005652003100565208
S1132C686572726F72005653004F4E004F4646000D
S1132C7843570056536572726F72000A03050300C6
S1132C8803F902F102E802DD02D102C202B1029D97
S1132C980287026E02520234021402F201CF01AA20
S1132CA80186016301410121010301E700CE00B857
S1112CB800A4009300840078006D0064000006
S9030000FC
