S00C0000433243412E737265631F
S113000088C10000A3C10000A1C100009FC100007D
S11300109DC100009BC1000099C100008BC5000078
S113002095C1000093C1000091C100008FC1000080
S11300308DC100008BC10000DFC4000087C1000037
S113004085C1000083C10000A3C4000061C4000096
S11300507DC100007BC1000079C1000077C10000B0
S113006075C1000073C10000C70FD80FE90FFA0F64
S11300700B101C102D103E104F1060106F10A712A3
S1130080A712A712A712A712A712A712A712A712A4
S1130090A712A712A712A712A712A712A712A71294
S11300A0A712A712A712A712A712A712A712A71284
S11300B0A712A712A712A712A712A712A712A71274
S11300C0A712A712A712A712A712A712A712A71264
S11300D0A712A712A712A712A712A712A712A71254
S11300E0A712A712A712A712A712A712A712A71244
S11300F0A712A712A712A712A712A712A712A71234
S1130100A712A712A712A712A712A712A712A71223
S1130110A712A712A712A712A712A712A712A71213
S1130120A712A712A712A712A712A712A712A71203
S113013082109310A410B510C610D710E810F9104F
S11301400A111B112A11A712A712A712A712A7128C
S1130150A712A712A712A712A712A712A712A712D3
S1130160A712A712A712A712A712A712A712A712C3
S1130170A712A712A712A712A712A712A712A712B3
S1130180A712A712A712A712A712A712A712A712A3
S1130190A712A712A712A712A712A712A712A71293
S11301A0A712A712A712A712A712A712A712A71283
S11301B0A712A712A712A712A712A712A712A71273
S11301C0A712A712A712A712A712A712A712A71263
S11301D0A712A712A712A712A712A712A712A71253
S11301E0A712A712A712A712A712A712A712A71243
S11301F0A712A712A712A71239114A115B116C1189
S11302007D118E119F11B011C111D211E111A712EC
S1130210A712A712A712A712A712A712A712A71212
S1130220A712A712A712A712A712A712A712A71202
S1130230A712A712A712A712A712A712A712A712F2
S1130240A712A712A712A712A712A712A712A712E2
S1130250A712A712A712A712A712A712A712A712D2
S1130260A712A712A712A712A712A712A712A712C2
S1130270A712A712A712A712A712A712A712A712B2
S1130280A712A712A712A712A712A712A712A712A2
S1130290A712A712A712A712A712A712A712A71292
S11302A0A712A712A712A712A712A712A712A71282
S11302B0A712A712A712A712A712A712A712A71272
S11302C0F01101121212231234124512561267123F
S11302D07812891298124E414E494E495459494E4A
S11302E046CDCCCC3D0AD7233C17B7D13877CC2B9D
S11302F0329595E6241FB14F0A000020410000C842
S11303004200401C4620BCBE4CCA1B0E5AAEC59DC2
S1130310740011241FBECFEFD8E0DEBFCDBF11E0C3
S1130320A0E0B1E0E2EBF7E402C005900D92A43442
S1130330B107D9F725E0A4E4B1E001C01D92A530CE
S1130340B207E1F70E941C0D0C94D72359CE6230FA
S113035059F018F4613031F00CC0633039F0643076
S113036039F007C05C9805C05D9803C05E9801C071
S11303705F9890E89EBD0DB407FEFDCF9EB58EBD7F
S11303800DB407FEFDCF8EB58BB1806F8BB9089588
S1130390CF93161617063CF5FC01680F791F80E011
S11303A090E0B8E0A0E04191292F332727FD3A954A
S11303B02427322F22274B2F5A2F33233CF4220F8A
S11303C0331FC1E22C27C0E13C2702C0220F331F98
S11303D04150510991F7982F882782279327E617D0
S11303E0F70709F702C080E090E0CF910895CF931A
S11303F0DF93CAE1D4E0488159816A817B8180E03E
S113040090E00E9461234C8D5D8D6E8D7F8D84E024
S113041090E00E94612348A159A16AA17BA188E0D0
S113042090E00E9461234CA15DA16EA17FA18CE0AC
S113043090E00E94612340916E0450916F0460919A
S113044070047091710480E190E00E9461236091D6
S1130450740470917504072E000C880B990B0E948C
S1130460B71FAB01BC0184E190E00E946123CDE79A
S1130470D4E0488159816A817B8188E190E00E94BF
S113048061234C8D5D8D6E8D7F8D8CE190E00E949B
S1130490612348A159A16AA17BA180E290E00E9456
S11304A061234CA15DA16EA17FA184E290E00E9432
S11304B061234091D1045091D2046091D30470918E
S11304C0D40488E290E00E9461236091D704709183
S11304D0D804072E000C880B990B0E94B71FAB01A0
S11304E0BC018CE290E00E946123CBEAD2E0488117
S11304F059816A817B8180E390E00E9461234C8D65
S11305005D8D6E8D7F8D84E390E00E94612348A110
S113051059A16AA17BA188E390E00E9461234CA1C8
S11305205DA16EA17FA18CE390E00E9461234091C4
S1130530FF0250910003609101037091020380E473
S113054090E00E9461236091050370910603072ED9
S1130550000C880B990B0E94B71FAB01BC0184E40B
S113056090E00E946123C6E4D1E0488159816A8108
S11305707B8188E490E00E9461234C8D5D8D6E8DBB
S11305807F8D8CE490E00E94612348A159A16AA167
S11305907BA180E590E00E9461234CA15DA16EA146
S11305A07FA184E590E00E94612340919A015091DB
S11305B09B0160919C0170919D0188E590E00E94EF
S11305C061236091A0017091A101072E000C880B9A
S11305D0990B0E94B71FAB01BC018CE590E00E940F
S11305E06123DF91CF9108950F931F93CF93DF93EE
S11305F0EC018B010E948D21C8010E948D2188810C
S1130600803319F58981803309F041C08A818033B0
S1130610B9F581E02B81F80190812917E9F180E097
S11306203BC081E02B81F80191812917A9F180E079
S113063033C09A81F801818198131AC081E02B811B
S11306409281291749F180E027C0F801908189132C
S113065011C09981818198130FC09A818281981366
S11306600DC081E02B8193812917B1F080E014C083
S113067080E012C080E010C080E00EC080E00CC0BA
S11306809A81F8018081981761F280E005C0F80131
S11306909081891771F280E0DF91CF911F910F91C2
S11306A00895CF92DF92EF92FF920F931F93CF930F
S11306B0DF93CDB7DEB7A8970FB6F894DEBF0FBEB1
S11306C0CDBFFC0181E28983A0EEB4E011968C9148
S11306D011978A8312968C9112978B8313968C911F
S11306E08C83CF01AE014B5F5F4F00E010E008C088
S11306F0DC012D91CD01DA012D93AD010F5F1F4F68
S1130700DF010D900020E9F79D012E1B3F0B2E5FAA
S11307103F4F0217130760F37801BFEFEB1AFB0A90
S11307201E141F040CF0D7C0FE013196A7014E0F12
S11307305F1F80E090E0B8E0D12C6191292F33272E
S113074027FD3A952627322F22276B2F7D2D332321
S11307503CF4220F331FA1E22A27A0E13A2702C06A
S1130760220F331F6150710991F7982F8827822730
S11307709327E417F50709F76C0140E160E174E0A1
S11307800E94972180E194E00E948D21B0E1CB1674
S1130790D10498F480911004FE01E00FF11F8583C9
S11307A080E3FE01E00FF11F8483FE01E00FF11FDF
S11307B08383FE01EE0DFF1D8183C6014097803FB8
S11307C09105B8F4A0E1B4E011968C911197FE0163
S11307D0E00FF11F85838C91FE01E00FF11F8483EC
S11307E080E3FE01E00FF11F8383FE01EE0DFF1D88
S11307F08183C6019A9581159F40B8F4E0E1F4E045
S11308008281DE01A00FB11F15968C938181DE01D8
S1130810A00FB11F14968C9314978081FD018383DC
S113082080E3FE01EE0DFF1D8183C11480E1D80633
S1130830C0F0DE01AE0DBF1DE0E1F4E08081119651
S11308408C938181DE01A00FB11F13968C9382815A
S1130850DE01A00FB11F14968C9314978381FD01C0
S11308608583C8010596FE01E80FF91F2DE0218359
S113087099230CF43EC0AE014F5F5F4F0A5F1F4FD8
S1130880040F151FEEEFF4E061EC70E030E0DA01E4
S11308908D91AD01F89421819081291304C0DB016D
S11308A09C9190629C939081A381B481A90FB11D06
S11308B08C932081A22FB0E0828190E00197A81749
S11308C0B90711F02F5F01C0232F208378944017BC
S11308D05107E9F60EC040E160E174E080E090E089
S11308E00E94972180E194E00E948D21C12CD12C9B
S11308F051CFA8960FB6F894DEBF0FBECDBFDF91DF
S1130900CF911F910F91FF90EF90DF90CF900895BA
S11309101F920F920FB60F9211242F933F934F9370
S11309205F938F939F93AF93BF93EF93FF93EEEFF8
S1130930F4E0918180819817B9F08181A381B48119
S1130940A80FB11D3C912181422F50E0828190E09B
S113095001974817590711F02F5F01C020E0209339
S1130960FF043093C60005C0E1ECF0E080818F7D88
S11309708083FF91EF91BF91AF919F918F915F9190
S11309804F913F912F910F900FBE0F901F9018958C
S11309901F920F920FB60F9211242F934F935F93D0
S11309A08F939F93AF93BF93EF93FF938091C60070
S11309B0E5E1F4E09081A381B481A90FB11D8C938A
S11309C02081422F50E0828190E001974817590717
S11309D011F02F5F01C020E020931504FF91EF91E7
S11309E0BF91AF919F918F915F914F912F910F90F4
S11309F00FBE0F901F9018951F920F920FB60F9273
S1130A0011242F933F938F939F93EF93FF93E8E7E2
S1130A10F4E08081918101969183808320813181EA
S1130A2080917A0490917B042817390734F48091DB
S1130A307C04882319F0409A01C04098809178047E
S1130A40909179048436910524F0109279041092DF
S1130A507804EBEDF4E080819181019691838083A9
S1130A60208131818091DD049091DE0428173907BB
S1130A7034F48091DF04882319F0419A01C041982D
S1130A808091DB049091DC048436910524F010926B
S1130A90DC041092DB04E9E0F3E0808191810196AB
S1130AA0918380832081318180910B0390910C0389
S1130AB02817390734F480910D03882319F0429ADA
S1130AC001C042988091090390910A0384369105EC
S1130AD024F010920A0310920903E4EAF1E0808101
S1130AE09181019691838083208131818091A60137
S1130AF09091A7012817390734F48091A80188231D
S1130B0019F0439A01C043988091A4019091A501E2
S1130B108436910524F01092A5011092A401FF914E
S1130B20EF919F918F913F912F910F900FBE0F9056
S1130B301F9018951F920F920FB60F921124CF9207
S1130B40DF92EF92FF920F931F932F933F934F9354
S1130B505F936F937F938F939F93AF93BF93CF9341
S1130B60DF93EF93FF9378945B9A5C9881E08EBD5A
S1130B700DB407FEFDCF8EB51EBC0DB407FEFDCF30
S1130B809EB58BB1806F8BB95C9882E08EBD0DB43D
S1130B9007FEFDCF8EB51EBC0DB407FEFDCF6EB5AE
S1130BA08BB1806F8BB970E0792B75956795072EA3
S1130BB0000C880B990B0E94B71F20E030E040E046
S1130BC05DE30E946B2020E030E040E853E40E94A3
S1130BD01B1FEAE1F4E06483758386839783648151
S1130BE075818681978120E030E040EF52E40E94D5
S1130BF0672018162CF410927C0488B1807F88B981
S1130C000091440110914501CAE1D4E068817981E1
S1130C108A819B812C813D814E815F810E941B1FB3
S1130C20000F111F000F111FF801EE5BFB4F6083D3
S1130C30718382839383E0914401F0914501EE0F27
S1130C40FF1FEE0FFF1FEE5BFB4F608171818281FE
S1130C5093812C8D3D8D4E8D5F8D0E946B20688716
S1130C6079878A879B87CC84DD84EE84FF84E09136
S1130C704401F0914501EE0FFF1FEE0FFF1FEE5BE5
S1130C80FB4F608171818281938128A139A14AA19E
S1130C905BA10E946B209B01AC01C701B6010E94BD
S1130CA01C1F6C877D878E879F876C857D858E85CD
S1130CB09F8520E030E040E251E40E94672018164E
S1130CC064F480E090E0A0E2B1E480932604909381
S1130CD02704A0932804B0932904609126047091FA
S1130CE02704809128049091290420E030E040E218
S1130CF051EC0E94801F882364F480E090E0A0E21D
S1130D00B1EC8093260490932704A0932804B09315
S1130D102904E0914401F0914501CAE1D4E0EE0FC9
S1130D20FF1FEE0FFF1FEE5BFB4F6081718182811D
S1130D309381E0910001F0910101EE0FFF1FEE0F8E
S1130D40FF1FEE5BFB4F2081318142815381CCA098
S1130D50DDA0EEA0FFA00E941B1FA70196010E9428
S1130D606B20688B798B8A8B9B8B688579858A85C8
S1130D709B852C853D854E855F85C888D988EA8802
S1130D80FB880E941C1FA70196010E941C1F688FEC
S1130D90798F8A8F9B8FC88CD98CEA8CFB8C688165
S1130DA079818A819B812DE33AE047E55EE30E94E5
S1130DB06B209B01AC01C701B6010E941C1F20E0FF
S1130DC030E040EA50E40E941B1F6C8B7D8B8E8BBD
S1130DD09F8B6C897D898E899F890E94CE200E9479
S1130DE0841F70937B0460937A04E0914401F09132
S1130DF04501EE0FFF1FEE0FFF1FEE5BFB4F8081DF
S1130E009181A281B381BC01CD019F7720E030E0C4
S1130E1040EA50E40E946720181644F41092260415
S1130E20109227041092280410922904E09144019E
S1130E30F0914501EE0FFF1FEE0FFF1FEE5BFB4F1E
S1130E4080819181A281B38120916E0430916F04DD
S1130E504091700450917104BC01CD019F770E94B0
S1130E60801F181614F1E2E7F4E080819181019665
S1130E709183808320813181409174045091750461
S1130E806DE3649FC001659F900D112428173907F5
S1130E90A4F081E090E090937704809376048081BD
S1130EA0918101979183808308C0109273041092FA
S1130EB0720410927704109276045D9881E08EBDDE
S1130EC00DB407FEFDCF8EB51EBC0DB407FEFDCFDD
S1130ED09EB58BB1806F8BB95D9882E08EBD0DB4E9
S1130EE007FEFDCF8EB51EBC0DB407FEFDCF6EB55B
S1130EF08BB1806F8BB970E0792B75956795072E50
S1130F00000C880B990B0E94B71F20E030E040E0F2
S1130F105DE30E946B2020E030E040E853E40E944F
S1130F201B1FEDE7F4E064837583868397836481F4
S1130F3075818681978120E030E040EF52E40E9481
S1130F40672018162CF41092DF0488B1807F88B9CA
S1130F500091440110914501CDE7D4E06881798185
S1130F608A819B812C813D814E815F810E941B1F60
S1130F70000F111F000F111FF801EB55FB4F608389
S1130F80718382839383E0914401F0914501EE0FD4
S1130F90FF1FEE0FFF1FEB55FB4F608171818281B4
S1130FA093812C8D3D8D4E8D5F8D0E946B206887C3
S1130FB079878A879B87CC84DD84EE84FF84E091E3
S1130FC04401F0914501EE0FFF1FEE0FFF1FEB559B
S1130FD0FB4F608171818281938128A139A14AA14B
S1130FE05BA10E946B209B01AC01C701B6010E946A
S1130FF01C1F6C877D878E879F876C857D858E857A
S11310009F8520E030E040E251E40E9467201816FA
S113101064F480E090E0A0E2B1E4809389049093CA
S11310208A04A0938B04B0938C046091890470911A
S11310308A0480918B0490918C0420E030E040E29B
S113104051EC0E94801F882364F480E090E0A0E2C9
S1131050B1EC8093890490938A04A0938B04B09399
S11310608C04E0914401F0914501CDE7D4E0EE0F0A
S1131070FF1FEE0FFF1FEB55FB4F608171818281D3
S11310809381E0910001F0910101EE0FFF1FEE0F3B
S1131090FF1FEB55FB4F2081318142815381CCA04E
S11310A0DDA0EEA0FFA00E941B1FA70196010E94D5
S11310B06B20688B798B8A8B9B8B688579858A8575
S11310C09B852C853D854E855F85C888D988EA88AF
S11310D0FB880E941C1FA70196010E941C1F688F99
S11310E0798F8A8F9B8FC88CD98CEA8CFB8C688112
S11310F079818A819B812DE33AE047E55EE30E9492
S11311006B209B01AC01C701B6010E941C1F20E0AB
S113111030E040EA50E40E941B1F6C8B7D8B8E8B69
S11311209F8B6C897D898E899F890E94CE200E9425
S1131130841F7093DE046093DD04E0914401F09118
S11311404501EE0FFF1FEE0FFF1FEB55FB4F808194
S11311509181A281B381BC01CD019F7720E030E071
S113116040EA50E40E946720181644F4109289045F
S113117010928A0410928B0410928C04E091440122
S1131180F0914501EE0FFF1FEE0FFF1FEB55FB4FD4
S113119080819181A281B3812091D1043091D204C4
S11311A04091D3045091D404BC01CD019F770E9497
S11311B0801F181614F1E5EDF4E080819181019609
S11311C091838083208131814091D7045091D80448
S11311D06DE3649FC001659F900D112428173907A2
S11311E0A4F081E090E09093DA048093D9048081A4
S11311F0918101979183808308C01092D604109244
S1131200D5041092DA041092D9045E9881E08EBD60
S11312100DB407FEFDCF8EB51EBC0DB407FEFDCF89
S11312209EB58BB1806F8BB95E9882E08EBD0DB494
S113123007FEFDCF8EB51EBC0DB407FEFDCF6EB507
S11312408BB1806F8BB970E0792B75956795072EFC
S1131250000C880B990B0E94B71F20E030E040E09F
S11312605DE30E946B2020E030E040E853E40E94FC
S11312701B1FEBEAF2E064837583868397836481A2
S113128075818681978120E030E040EF52E40E942E
S1131290672018162CF410920D0388B1807F88B94A
S11312A00091440110914501CBEAD2E06881798133
S11312B08A819B812C813D814E815F810E941B1F0D
S11312C0000F111F000F111FF801ED52FD4F608335
S11312D0718382839383E0914401F0914501EE0F81
S11312E0FF1FEE0FFF1FED52FD4F60817181828160
S11312F093812C8D3D8D4E8D5F8D0E946B20688770
S113130079878A879B87CC84DD84EE84FF84E0918F
S11313104401F0914501EE0FFF1FEE0FFF1FED5248
S1131320FD4F608171818281938128A139A14AA1F5
S11313305BA10E946B209B01AC01C701B6010E9416
S11313401C1F6C877D878E879F876C857D858E8526
S11313509F8520E030E040E251E40E9467201816A7
S113136064F480E090E0A0E2B1E48093B70290934B
S1131370B802A093B902B093BA026091B702709117
S1131380B8028091B9029091BA0220E030E040E2C4
S113139051EC0E94801F882364F480E090E0A0E276
S11313A0B1EC8093B7029093B802A093B902B093C2
S11313B0BA02E0914401F0914501CBEAD2E0EE0F8C
S11313C0FF1FEE0FFF1FED52FD4F6081718182817F
S11313D09381E0910001F0910101EE0FFF1FEE0FE8
S11313E0FF1FED52FD4F2081318142815381CCA0FA
S11313F0DDA0EEA0FFA00E941B1FA70196010E9482
S11314006B20688B798B8A8B9B8B688579858A8521
S11314109B852C853D854E855F85C888D988EA885B
S1131420FB880E941C1FA70196010E941C1F688F45
S1131430798F8A8F9B8FC88CD98CEA8CFB8C6881BE
S113144079818A819B812DE33AE047E55EE30E943E
S11314506B209B01AC01C701B6010E941C1F20E058
S113146030E040EA50E40E941B1F6C8B7D8B8E8B16
S11314709F8B6C897D898E899F890E94CE200E94D2
S1131480841F70930C0360930B03E0914401F0916B
S11314904501EE0FFF1FEE0FFF1FED52FD4F808140
S11314A09181A281B381BC01CD019F7720E030E01E
S11314B040EA50E40E946720181644F41092B702E0
S11314C01092B8021092B9021092BA02E09144014B
S11314D0F0914501EE0FFF1FEE0FFF1FED52FD4F80
S11314E080819181A281B3812091FF023091000318
S11314F04091010350910203BC01CD019F770E94EA
S1131500801F181614F1E3E0F3E0808191810196C5
S1131510918380832081318140910503509106039A
S11315206DE3649FC001659F900D1124281739074E
S1131530A4F081E090E090930803809307038081F6
S1131540918101979183808308C0109204031092C3
S1131550030310920803109207035F9881E08EBD85
S11315600DB407FEFDCF8EB51EBC0DB407FEFDCF36
S11315709EB58BB1806F8BB95F9882E08EBD0DB440
S113158007FEFDCF8EB51EBC0DB407FEFDCF6EB5B4
S11315908BB1806F8BB970E0792B75956795072EA9
S11315A0000C880B990B0E94B71F20E030E040E04C
S11315B05DE30E946B2020E030E040E853E40E94A9
S11315C01B1FE6E4F1E0648375838683978364815B
S11315D075818681978120E030E040EF52E40E94DB
S11315E0672018162CF41092A80188B1807F88B95E
S11315F00091440110914501C6E4D1E068817981EC
S11316008A819B812C813D814E815F810E941B1FB9
S1131610000F111F000F111FF801E259FE4F6083E4
S1131620718382839383E0914401F0914501EE0F2D
S1131630FF1FEE0FFF1FE259FE4F6081718182810F
S113164093812C8D3D8D4E8D5F8D0E946B2068871C
S113165079878A879B87CC84DD84EE84FF84E0913C
S11316604401F0914501EE0FFF1FEE0FFF1FE259F9
S1131670FE4F608171818281938128A139A14AA1A1
S11316805BA10E946B209B01AC01C701B6010E94C3
S11316901C1F6C877D878E879F876C857D858E85D3
S11316A09F8520E030E040E251E40E946720181654
S11316B064F480E090E0A0E2B1E48093520190935E
S11316C05301A0935401B09355016091520170915C
S11316D05301809154019091550120E030E040E2A3
S11316E051EC0E94801F882364F480E090E0A0E223
S11316F0B1EC8093520190935301A0935401B093A1
S11317005501E0914401F0914501C6E4D1E0EE0FAA
S1131710FF1FEE0FFF1FE259FE4F6081718182812E
S11317209381E0910001F0910101EE0FFF1FEE0F94
S1131730FF1FE259FE4F2081318142815381CCA0A9
S1131740DDA0EEA0FFA00E941B1FA70196010E942E
S11317506B20688B798B8A8B9B8B688579858A85CE
S11317609B852C853D854E855F85C888D988EA8808
S1131770FB880E941C1FA70196010E941C1F688FF2
S1131780798F8A8F9B8FC88CD98CEA8CFB8C68816B
S113179079818A819B812DE33AE047E55EE30E94EB
S11317A06B209B01AC01C701B6010E941C1F20E005
S11317B030E040EA50E40E941B1F6C8B7D8B8E8BC3
S11317C09F8B6C897D898E899F890E94CE200E947F
S11317D0841F7093A7016093A601E0914401F091E6
S11317E04501EE0FFF1FEE0FFF1FE259FE4F8081F0
S11317F09181A281B381BC01CD019F7720E030E0CB
S113180040EA50E40E946720181644F410925201F2
S1131810109253011092540110925501E091440129
S1131820F0914501EE0FFF1FEE0FFF1FE259FE4F2F
S113183080819181A281B38120919A0130919B0191
S113184040919C0150919D01BC01CD019F770E9464
S1131850801F181614F1EEE9F1E080819181019660
S113186091838083208131814091A0015091A10115
S11318706DE3649FC001659F900D112428173907FB
S1131880A4F081E090E09093A3018093A201808171
S1131890918101979183808308C010929F011092D7
S11318A09E011092A3011092A20180914401909193
S11318B04501019690934501809344018091440130
S11318C0909145010B9724F0109245011092440128
S11318D08091440190914501019690930101809378
S11318E0000180910001909101010B9724F0109266
S11318F00101109200015B98FF91EF91DF91CF916C
S1131900BF91AF919F918F917F916F915F914F9113
S11319103F912F911F910F91FF90EF90DF90CF9007
S11319200F900FBE0F901F9018958F929F92AF92B9
S1131930BF92CF92DF92EF92FF920F931F93CF93B8
S1131940DF93CDB7DEB764970FB6F894DEBF0FBE52
S1131950CDBF4B015C018A010E94841F6B017C0195
S113196084E1F80111928A95E9F74AE0B801C601C9
S11319700E949721F80101900020E9F731978EE247
S113198090E091838083B601DD0C880B990B0E9453
S1131990B71F9B01AC01C501B4010E941B1F20E0CD
S11319A030E04AE754E40E946B200E94841F9B01AC
S11319B0772324F422273327261B370B4AE0BE0162
S11319C06F5F7F4FC9010E94972180E090E0DE01A4
S11319D0119623E030E040E350E008C0F8010190A4
S11319E00020E9F73197518340830196FD0101906E
S11319F00020E9F73197EA1BFB0BB9016E1B7F0B43
S1131A008617970758F3BE016F5F7F4FC8010E9486
S1131A10632164960FB6F894DEBF0FBECDBFDF918D
S1131A20CF911F910F91FF90EF90DF90CF90BF90D7
S1131A30AF909F908F900895CF93DF93CDB7DEB78B
S1131A40CD56D1090FB6F894DEBF0FBECDBF80E1ED
S1131A50E2E0F1E0DE01599601900D928A95E1F7FA
S1131A6019A61AA61BA61CA6F8941092C50082E219
S1131A708093C400E0ECF0E080818260808388E998
S1131A808093C10086E08093C2001AAA1BAA9924FD
S1131A909A949CAA8CEA91E09EAB8DAB85E0FE0102
S1131AA0F296DE01169601900D928A95E1F785E093
S1131AB0FE013696DE01119601900D928A95E1F7AA
S1131AC085E0FE013196AEEFB4E001900D928A9567
S1131AD0E1F71AAA1BAA9CAA8EE093E09EAB8DABF9
S1131AE085E0FE01F296DE01509601900D928A95F2
S1131AF0E1F785E0FE017096DE011B9601900D92E0
S1131B008A95E1F785E0FE013B96A5E1B4E00190FA
S1131B100D928A95E1F7789424988CE284B98DE546
S1131B208CBD0F2EFAE1AF2EF4E0BF2EF02D81E034
S1131B3090E090937B0480937A040F2EFDE7CF2EE0
S1131B40F4E0DF2EF02D9093DE048093DD040F2E5D
S1131B50FBEAEF2EF2E0FF2EF02D90930C0380931E
S1131B600B0306E411E09093A7018093A60188EF8C
S1131B708AB98FE087B9219A8BB1806F8BB980E0E5
S1131B8090E00E945C23D5016D937D938D939C938B
S1131B90139784E090E00E945C23F501648F758FB5
S1131BA0868F978F88E090E00E945C23D501909601
S1131BB06D937D938D939C9393978CE090E00E941A
S1131BC05C23F50164A375A386A397A380E190E049
S1131BD00E945C2360936E0470936F04809370047E
S1131BE09093710484E190E00E945C230E94841F1E
S1131BF0709375046093740488E190E00E945C2300
S1131C00D6016D937D938D939C9313978CE190E013
S1131C100E945C23F601648F758F868F978F80E214
S1131C2090E00E945C23D60190966D937D938D93F2
S1131C309C93939784E290E00E945C23F60164A352
S1131C4075A386A397A388E290E00E945C23609327
S1131C50D1047093D2048093D3049093D4048CE27F
S1131C6090E00E945C230E94841F7093D8046093C8
S1131C70D70480E390E00E945C23D7016D937D93A9
S1131C808D939C93139784E390E00E945C23F70167
S1131C90648F758F868F978F88E390E00E945C2312
S1131CA0D70190966D937D938D939C9393978CE33A
S1131CB090E00E945C23F70164A375A386A397A315
S1131CC080E490E00E945C236093FF027093000321
S1131CD0809301039093020384E490E00E945C23C8
S1131CE00E94841F709306036093050388E490E0C8
S1131CF00E945C23D8016D937D938D939C931397DD
S1131D008CE490E00E945C23F801648F758F868FC9
S1131D10978F80E590E00E945C23D80190966D93A4
S1131D207D938D939C93939784E590E00E945C232C
S1131D30F80164A375A386A397A388E590E00E94A5
S1131D405C2360939A0170939B0180939C01909310
S1131D509D018CE590E00E945C230E94841F709397
S1131D60A1016093A00161E083EC0E94A70162E0FD
S1131D7083EC0E94A70163E083EC0E94A70164E066
S1131D8083EC0E94A70182E080936E0084BD95E0FD
S1131D9095BD90E197BD809370008093B00087E07B
S1131DA08093B1009092B30078940F2EF0EEEF2E52
S1131DB0F4E0FF2EF02D05E114E00F2EFEEFCF2E00
S1131DC0F4E0DF2EF02DBE2CAF2C5E2C4F2C712CAA
S1131DD00F2EFEE19F2EF02DD701E92D1D92EA95DD
S1131DE0E9F7D80113964D915C91149712962C91B2
S1131DF030E021503109E52DF42DD80111968C9154
S1131E0011979C919817C9F311968C91DA01A80F38
S1131E10B11D7C91D80111966C91862F90E08217A8
S1131E20930711F06F5F01C0672DD80111966C9371
S1131E3071937D3019F0EC15FD05F9F6F7018081F9
S1131E40833251F66FE370E08B2D9A2D0E946E2140
S1131E504C01009709F484C3E9EAF1E0DC0111962E
S1131E608C911197808312968C91818366E171E045
S1131E70CF010E947921892BB9F5E0E1F4E0D40186
S1131E8013968C911397808314968C911497818365
S1131E9015968C911597828316968C9183836EE1A7
S1131EA070E08B2D9A2D0E948221BC01655071092E
S1131EB08B2D9A2D0E94C80140E1BE01635D7F4FC6
S1131EC00E949721BE01635D7F4F80E194E00E94F0
S1131ED0F402882329F0CE0149960E94510304C0DC
S1131EE089E191E00E94510363E271E089EA91E0A3
S1131EF00E947921892B09F033C3F40183818D8BEE
S1131F0084818E8B85818F8BE0E1F4E0D401169679
S1131F108C911697808317968C91179781831896C6
S1131F208C911897828319968C9183836EE170E06B
S1131F308B2D9A2D0E948221BC01655071098B2D35
S1131F409A2D0E94C80140E1BE01635D7F4F0E944B
S1131F509721BE01635D7F4F80E194E00E94F4020B
S1131F60882309F4F9C2CE0145960E943D21CB0194
S1131F70770FAA0BBB0BFC01E456F109E733B1E080
S1131F80FB0708F0E4C2EC5CFF4F0C94172160914E
S1131F901E0470911F048091200490912104AE01CD
S1131FA04E5C5F4FC2DCCE01C2960E945103D8C280
S1131FB0609122047091230480912404909125045B
S1131FC0AE014E5C5F4FB1DCCE01C2960E9451035C
S1131FD0C7C26091260470912704809128049091CF
S1131FE02904AE014E5C5F4FA0DCCE01C2960E9474
S1131FF05103B6C260912A0470912B0480912C0481
S113200090912D04AE014E5C5F4F8FDCCE01C296E1
S11320100E945103A5C260911A0470911B0480911F
S11320201C0490911D04AE014E5C5F4F7EDCCE011A
S1132030C2960E94510394C2609136047091370491
S11320408091380490913904AE014E5C5F4F6DDC91
S1132050CE01C2960E94510383C260913A047091EA
S11320603B0480913C0490913D04AE014E5C5F4F73
S11320705CDCCE01C2960E94510372C260913E04A0
S113208070913F048091400490914104AE014E5CF4
S11320905F4F4BDCCE01C2960E94510361C2609136
S11320A06E0470916F048091700490917104AE017C
S11320B04E5C5F4F3ADCCE01C2960E94510350C27F
S11320C080917404909175044AE0BE016E5C7F4F68
S11320D00E949721CE01C2960E94510341C2809171
S11320E0760490917704009719F0019731F038C283
S11320F086E291E00E94510333C288E291E00E949B
S113210051032EC2609181047091820480918304F2
S113211090918404AE014E5C5F4F07DCCE01C29601
S11321200E9451031DC260918504709186048091C0
S1132130870490918804AE014E5C5F4FF6DBCE01BC
S1132140C2960E9451030CC26091890470918A0462
S113215080918B0490918C04AE014E5C5F4FE5DB63
S1132160CE01C2960E945103FBC160918D0470910F
S11321708E0480918F0490919004AE014E5C5F4F69
S1132180D4DBCE01C2960E945103EAC160917D0462
S113219070917E0480917F0490918004AE014E5C26
S11321A05F4FC3DBCE01C2960E945103D9C1609137
S11321B0990470919A0480919B0490919C04AE01BF
S11321C04E5C5F4FB2DBCE01C2960E945103C8C180
S11321D060919D0470919E0480919F049091A0044D
S11321E0AE014E5C5F4FA1DBCE01C2960E9451034B
S11321F0B7C16091A1047091A2048091A30490914D
S1132200A404AE014E5C5F4F90DBCE01C2960E94E7
S11322105103A6C16091D1047091D2048091D3047A
S11322209091D404AE014E5C5F4F7FDBCE01C29629
S11322300E94510395C18091D7049091D8044AE03B
S1132240BE016E5C7F4F0E949721CE01C2960E9410
S1132250510386C18091D9049091DA044AE0BE0109
S11322606E5C7F4F0E949721CE01C2960E9451035B
S113227077C16091AF027091B0028091B1029091E8
S1132280B202AE014E5C5F4F50DBCE01C2960E949B
S1132290510366C16091B3027091B4028091B5029A
S11322A09091B602AE014E5C5F4F3FDBCE01C29609
S11322B00E94510355C16091B7027091B802809198
S11322C0B9029091BA02AE014E5C5F4F2EDBCE0193
S11322D0C2960E94510344C16091BB027091BC023A
S11322E08091BD029091BE02AE014E5C5F4F1DDB3A
S11322F0CE01C2960E94510333C16091AB0270912A
S1132300AC028091AD029091AE02AE014E5C5F4F83
S11323100CDBCE01C2960E94510322C16091C70218
S11323207091C8028091C9029091CA02AE014E5CBC
S11323305F4FFBDACE01C2960E94510311C1609136
S1132340CB027091CC028091CD029091CE02AE016D
S11323504E5C5F4FEADACE01C2960E94510300C17F
S11323606091CF027091D0028091D1029091D202FB
S1132370AE014E5C5F4FD9DACE01C2960E94510382
S1132380EFC06091FF02709100038091010390916E
S11323900203AE014E5C5F4FC8DACE01C2960E94C2
S11323A05103DEC080910503909106034AE0BE010B
S11323B06E5C7F4F0E949721CE01C2960E9451030A
S11323C0CFC080910703909108034AE0BE016E5C80
S11323D07F4F0E949721CE01C2960E945103C0C034
S11323E060914A0170914B0180914C0190914D0193
S11323F0AE014E5C5F4F99DACE01C2960E94510342
S1132400AFC060914E0170914F0180915001909145
S11324105101AE014E5C5F4F88DACE01C2960E9434
S113242051039EC0609152017091530180915401F7
S113243090915501AE014E5C5F4F77DACE01C296A2
S11324400E9451038DC06091560170915701809193
S1132450580190915901AE014E5C5F4F66DACE018E
S1132460C2960E9451037CC060914601709147015D
S11324708091480190914901AE014E5C5F4F55DA5D
S1132480CE01C2960E9451036BC0609162017091AB
S113249063018091640190916501AE014E5C5F4FD0
S11324A044DACE01C2960E9451035AC0609166017B
S11324B0709167018091680190916901AE014E5C51
S11324C05F4F33DACE01C2960E94510349C0609136
S11324D06A0170916B0180916C0190916D01AE0164
S11324E04E5C5F4F22DACE01C2960E94510338C07F
S11324F060919A0170919B0180919C0190919D0142
S1132500AE014E5C5F4F11DACE01C2960E945103B8
S113251027C08091A0019091A1014AE0BE016E5CA8
S11325207F4F0E949721CE01C2960E94510318C08A
S11325308091A2019091A3014AE0BE016E5C7F4F9D
S11325400E949721CE01C2960E94510309C08AE2DB
S113255091E00E94510304C089E191E00E9451037B
S113256066E270E08B2D9A2D0E946E21FC01892B6E
S113257009F42ECCADE0B4E081818C938281119674
S11325808C93119783818D8B84818E8B85818F8B26
S113259062E371E0CD010E947921892B09F017CC07
S11325A06DE070E0C7010E946E21E0E1F4E0DC011F
S11325B014972C91208311962C91218311962C91A0
S11325C0228311968C9183836EE170E0C7010E948F
S11325D08221BC0165507109C7010E94C80140E114
S11325E0BE01635D7F4F0E949721BE01635D7F4FF3
S11325F080E194E00E94F402882311F40C94151FE6
S1132600CE0145960E943D216E3F710509F4B1C487
S1132610BCF56B39710509F473C2CCF468397105E2
S113262009F465C154F46639710509F46DC067395C
S1132630710509F490C00C940F1F6939710509F4F0
S113264022C26A39710509F445C20C940F1F6B3F0D
S1132650710509F416C454F46C39710509F477C290
S11326606A3F710509F440C30C940F1F6C3F710558
S113267009F42FC46D3F710509F453C40C940F1F62
S1132680623CE1E07E0711F40C94CA1BE4F460366A
S113269021E0720709F480C55CF46E35B1E07B0774
S11326A009F480C46F35714009F4A4C40C940F1F5D
S11326B06136F1E07F0709F43CC66236714009F4E3
S11326C001C70C940F1F653CA1E07A0711F40C9428
S11326D0251E6CF4633CE1E07E0711F40C94931C1A
S11326E0643C714011F40C945C1D0C940F1F663C07
S11326F021E0720711F40C94EE1E643F714011F452
S11327000C94071F0C940F1F6EE170E0C7010E9428
S1132710822105978B30910564F0EAEEF4E0DE0146
S1132720A65ABF4F80529B4F21912D93E817F9076A
S1132730D9F7CE01865A9F4F0E941D2160931A0437
S113274070931B0480931C0490931D0487E291E012
S11327500E9451033CCB6EE170E0C7010E948221CC
S113276005978B30910564F0EAEEF4E0DE01A65A99
S1132770BF4F80529B4F21912D93E817F907D9F74A
S1132780CE01865A9F4F0E941D2160933604709398
S11327903704809338049093390481E28AABF701BB
S11327A081818BAB82818CAB83818DAB1EAA1FAAE6
S11327B018AE4E01F2E38F0E911CBE016A5C7F4F8E
S11327C0F40180E090E0A8E0712C4191292F332797
S11327D027FD3A952427322F22274A2F572D3323BA
S11327E03CF4220F331FB1E22B27B0E13B2702C098
S11327F0220F331F4150510991F7982F88278227C0
S11328009327E617F70709F73C0140E160E174E01C
S11328100E94972180E194E00E948D21E0E16E16F0
S1132820710438F48091100489AF80E388AF8FABD2
S11328308EABC3014097803F910548F4E0E1F4E09A
S1132840818189AF808188AF80E38FAB8EABC30178
S11328509A9581159F4050F4E0E1F4E0828189AFBC
S1132860818188AF80818FAB80E38EAB611420E1DE
S1132870720650F0E0E1F4E080818EAB81818FAB91
S1132880828188AF838189AF8DE08AAF9E01255C08
S11328903F4FEEEFF4E00F2EF1EC6F2E712CF02D84
S11328A060E0D4014D914D01F89491818081981399
S11328B004C0D3018C9180628C9350818381948174
S11328C0850F911DDC014C937081472F50E082816C
S11328D090E001974817590719F081E0870F01C06C
S11328E0862F8083789482169306D9F670CA6EE197
S11328F070E0C7010E94822105978B30910564F036
S1132900EAEEF4E0DE01A65ABF4F80529B4F2191BC
S11329102D93E817F907D9F7CE01865A9F4F0E94E5
S11329201D2160933A0470933B0480933C0490937C
S11329303D0481E28AABF70181818BAB82818CAB50
S113294083818DAB1EAA1FAA18AE4E01F2E38F0E2F
S1132950911CBE016A5C7F4FF40180E090E0A8E026
S1132960712C4191292F332727FD3A952427322FA3
S113297022274A2F572D33233CF4220F331FB1E271
S11329802B27B0E13B2702C0220F331F41505109CE
S113299091F7982F882782279327E617F70709F7D7
S11329A03C0140E160E174E00E94972180E194E001
S11329B00E948D21E0E16E16710438F480911004B8
S11329C089AF80E388AF8FAB8EABC3014097803F64
S11329D0910548F4E0E1F4E0818189AF808188AF1A
S11329E080E38FAB8EABC3019A9581159F4050F461
S11329F0E0E1F4E0828189AF818188AF80818FAB8F
S1132A0080E38EAB611420E1720650F0E0E1F4E063
S1132A1080818EAB81818FAB828188AF838189AFC6
S1132A208DE08AAF9E01255C3F4FEEEFF4E00F2E60
S1132A30F1EC6F2E712CF02D60E0D4014D914D011D
S1132A40F89491818081981304C0D3018C918062A1
S1132A508C93508183819481850F911DDC014C936B
S1132A607081472F50E0828190E001974817590701
S1132A7019F081E0870F01C0862F80837894821635
S1132A809306D9F6A4C96EE170E0C7010E948221C1
S1132A9005978B30910564F0EAEEF4E0DE01A65A66
S1132AA0BF4F80529B4F21912D93E817F907D9F717
S1132AB0CE01865A9F4F0E941D2160933E0470935D
S1132AC03F04809340049093410487E291E00E9484
S1132AD051037DC9F7018285813341F481E08093FC
S1132AE07C0485E391E00E94510371C9803309F0AD
S1132AF06EC910927C0488E391E00E94510367C977
S1132B006EE170E0C7010E94822105978B30910528
S1132B1064F0EAEEF4E0DE01A65ABF4F80529B4F08
S1132B2021912D93E817F907D9F7CE01865A9F4FC3
S1132B300E941D2160936E0470936F04809370044F
S1132B409093710487E291E00E94510340C96EE1C1
S1132B5070E0C7010E94822105978B30910564F0D3
S1132B60EAEEF4E0DE01A65ABF4F80529B4F21915A
S1132B702D93E817F907D9F7CE01865A9F4F0E9483
S1132B802021909375048093740481E28AABD70169
S1132B9011968C9111978BAB12968C9112978CABEA
S1132BA013968C918DAB1EAA1FAA18AE4E01B2E3E8
S1132BB08B0E911CBE016A5C7F4FF40180E090E0B3
S1132BC0A8E0712C4191292F332727FD3A9524271A
S1132BD0322F22274A2F572D33233CF4220F331F41
S1132BE0B1E22B27B0E13B2702C0220F331F415033
S1132BF0510991F7982F882782279327E617F7071B
S1132C0009F73C0140E160E174E00E94972180E112
S1132C1094E00E948D21E0E16E16710438F48091F5
S1132C20100489AF80E388AF8FAB8EABC3014097AC
S1132C30803F910548F4E0E1F4E0818189AF80812F
S1132C4088AF80E38FAB8EABC3019A9581159F400B
S1132C5050F4E0E1F4E0828189AF818188AF808122
S1132C608FAB80E38EAB611420E1720650F0E0E19B
S1132C70F4E080818EAB81818FAB828188AF8381C8
S1132C8089AF8DE08AAF9E01255C3F4FEEEFF4E003
S1132C900F2EF1EC6F2E712CF02D60E0D4014D91CC
S1132CA04D01F89491818081981304C0D3018C91D3
S1132CB080628C93508183819481850F911DDC0106
S1132CC04C937081472F50E0828190E00197481720
S1132CD0590719F081E0870F01C0862F808378940B
S1132CE082169306D9F673C86EE170E0C7010E949C
S1132CF0822105978B30910564F0EAEEF4E0DE0161
S1132D00A65ABF4F80529B4F21912D93E817F90784
S1132D10D9F7CE01865A9F4F0E941D2160937D04EE
S1132D2070937E0480937F049093800481E28AAB45
S1132D30F70181818BAB82818CAB83818DAB1EAA21
S1132D401FAA18AE4E01F2E38F0E911CBE016A5CFD
S1132D507F4FF40180E090E0A8E0712C4191292F8D
S1132D60332727FD3A952427322F22274A2F572D20
S1132D7033233CF4220F331FB1E22B27B0E13B276E
S1132D8002C0220F331F4150510991F7982F882711
S1132D9082279327E617F70709F73C0140E160E132
S1132DA074E00E94972180E194E00E948D21E0E18B
S1132DB06E16710438F48091100489AF80E388AFF3
S1132DC08FAB8EABC3014097803F910548F4E0E19F
S1132DD0F4E0818189AF808188AF80E38FAB8EABD3
S1132DE0C3019A9581159F4050F4E0E1F4E082819B
S1132DF089AF818188AF80818FAB80E38EAB611412
S1132E0020E1720650F0E0E1F4E080818EAB818134
S1132E108FAB828188AF838189AF8DE08AAF9E01B9
S1132E20255C3F4FEEEFF4E00F2EF1EC6F2E712C8A
S1132E30F02D60E0D4014D914D01F8949181808191
S1132E40981304C0D3018C9180628C935081838148
S1132E509481850F911DDC014C937081472F50E0C4
S1132E60828190E001974817590719F081E0870F94
S1132E7001C0862F8083789482169306D9F60C9429
S1132E80E70E6EE170E0C7010E94822105978B3046
S1132E90910564F0EAEEF4E0DE01A65ABF4F8052D9
S1132EA09B4F21912D93E817F907D9F7CE01865A44
S1132EB09F4F0E941D216093990470939A048093FC
S1132EC09B0490939C0487E291E00E9451030C942C
S1132ED0E70E6EE170E0C7010E94822105978B30F6
S1132EE0910564F0EAEEF4E0DE01A65ABF4F805289
S1132EF09B4F21912D93E817F907D9F7CE01865AF4
S1132F009F4F0E941D2160939D0470939E048093A3
S1132F109F049093A00487E291E00E9451030C94D3
S1132F20E70E6EE170E0C7010E94822105978B30A5
S1132F30910564F0EAEEF4E0DE01A65ABF4F805238
S1132F409B4F21912D93E817F907D9F7CE01865AA3
S1132F509F4F0E941D216093A1047093A20480934B
S1132F60A3049093A40487E291E00E9451030C947B
S1132F70E70EF7018285813349F481E08093DF0411
S1132F8085E391E00E9451030C94E70E803311F025
S1132F900C94E70E1092DF0488E391E00E94510341
S1132FA00C94E70E6EE170E0C7010E948221059740
S1132FB08B30910564F0EAEEF4E0DE01A65ABF4FCF
S1132FC080529B4F21912D93E817F907D9F7CE0131
S1132FD0865A9F4F0E941D216093AB027093AC02EE
S1132FE08093AD029093AE0287E291E00E94510378
S1132FF00C94E70E6EE170E0C7010E9482210597F0
S11330008B30910564F0EAEEF4E0DE01A65ABF4F7E
S113301080529B4F21912D93E817F907D9F7CE01E0
S1133020865A9F4F0E941D216093C7027093C80265
S11330308093C9029093CA0281E28AABD7011196A8
S11330408C9111978BAB12968C9112978CAB139633
S11330508C918DAB1EAA1FAA18AE4E01B2E38B0E43
S1133060911CBE016A5C7F4FF40180E090E0A8E00F
S1133070712C4191292F332727FD3A952427322F8C
S113308022274A2F572D33233CF4220F331FB1E25A
S11330902B27B0E13B2702C0220F331F41505109B7
S11330A091F7982F882782279327E617F70709F7C0
S11330B03C0140E160E174E00E94972180E194E0EA
S11330C00E948D21E0E16E16710438F480911004A1
S11330D089AF80E388AF8FAB8EABC3014097803F4D
S11330E0910548F4E0E1F4E0818189AF808188AF03
S11330F080E38FAB8EABC3019A9581159F4050F44A
S1133100E0E1F4E0828189AF818188AF80818FAB77
S113311080E38EAB611420E1720650F0E0E1F4E04C
S113312080818EAB81818FAB828188AF838189AFAF
S11331308DE08AAF9E01255C3F4FEEEFF4E00F2E49
S1133140F1EC6F2E712CF02D60E0D4014D914D0106
S1133150F89491818081981304C0D3018C9180628A
S11331608C93508183819481850F911DDC014C9354
S11331707081472F50E0828190E0019748175907EA
S113318019F081E0870F01C0862F8083789482161E
S11331909306D9F60C94E70E6EE170E0C7010E9425
S11331A0822105978B30910564F0EAEEF4E0DE01AC
S11331B0A65ABF4F80529B4F21912D93E817F907D0
S11331C0D9F7CE01865A9F4F0E941D216093CB02EE
S11331D07093CC028093CD029093CE0281E28AABAD
S11331E0F70181818BAB82818CAB83818DAB1EAA6D
S11331F01FAA18AE4E01F2E38F0E911CBE016A5C49
S11332007F4FF40180E090E0A8E0712C4191292FD8
S1133210332727FD3A952427322F22274A2F572D6B
S113322033233CF4220F331FB1E22B27B0E13B27B9
S113323002C0220F331F4150510991F7982F88275C
S113324082279327E617F70709F73C0140E160E17D
S113325074E00E94972180E194E00E948D21E0E1D6
S11332606E16710438F48091100489AF80E388AF3E
S11332708FAB8EABC3014097803F910548F4E0E1EA
S1133280F4E0818189AF808188AF80E38FAB8EAB1E
S1133290C3019A9581159F4050F4E0E1F4E08281E6
S11332A089AF818188AF80818FAB80E38EAB61145D
S11332B020E1720650F0E0E1F4E080818EAB818180
S11332C08FAB828188AF838189AF8DE08AAF9E0105
S11332D0255C3F4FEEEFF4E00F2EF1EC6F2E712CD6
S11332E0F02D60E0D4014D914D01F89491818081DD
S11332F0981304C0D3018C9180628C935081838194
S11333009481850F911DDC014C937081472F50E00F
S1133310828190E001974817590719F081E0870FDF
S113332001C0862F8083789482169306D9F60C9474
S1133330E70E6EE170E0C701E5D705978B30910584
S113334064F0EAEEF4E0DE01A65ABF4F80529B4FD0
S113335021912D93E817F907D9F7CE01865A9F4F8B
S11333606CD76093CF027093D0028093D102909374
S1133370D20281E28AABF70181818BAB82818CAB73
S113338083818DAB1EAA1FAA18AE4E01F2E38F0EE5
S1133390911CBE016A5C7F4FF40180E090E0A8E0DC
S11333A0712C4191292F332727FD3A952427322F59
S11333B022274A2F572D33233CF4220F331FB1E227
S11333C02B27B0E13B2702C0220F331F4150510984
S11333D091F7982F882782279327E617F70709F78D
S11333E03C0140E160E174E0A2D780E194E095D72C
S11333F0E0E16E16710438F48091100489AF80E323
S113340088AF8FAB8EABC3014097803F910548F4E2
S1133410E0E1F4E0818189AF808188AF80E38FAB04
S11334208EABC3019A9581159F4050F4E0E1F4E01E
S1133430828189AF818188AF80818FAB80E38EAB3D
S1133440611420E1720650F0E0E1F4E080818EAB7B
S113345081818FAB828188AF838189AF8DE08AAF10
S11334609E01255C3F4FEEEFF4E00F2EF1EC6F2E42
S1133470712CF02D60E0D4014D914D01F8949181AF
S11334808081981304C0D3018C9180628C93508105
S113349083819481850F911DDC014C937081472FAA
S11334A050E0828190E001974817590719F081E0B4
S11334B0870F01C0862F8083789482169306D9F6ED
S11334C00C94E70EF7018285813309F0AFC081E0E7
S11334D080930D0381E28AAB81818BAB82818CABBB
S11334E083818DAB8FE48EAB8EE48FAB18AE19AEB7
S11334F01AAE4E01F2E38F0E911CBE01685C7F4F41
S1133500F40180E090E0A8E0712C4191292F332749
S113351027FD3A952427322F22274A2F572D33236C
S11335203CF4220F331FB1E22B27B0E13B2702C04A
S1133530220F331F4150510991F7982F8827822772
S11335409327E617F70709F73C0140E160E174E0CF
S1133550EED680E194E0E1D6E0E16E16710438F431
S1133560809110048BAF80E38AAF89AF88AFC30129
S11335704097803F910548F4E0E1F4E081818BAF0E
S113358080818AAF80E389AF88AFC3019A958115A2
S11335909F4050F4E0E1F4E082818BAF81818AAFF7
S11335A0808189AF80E388AF611420E1720650F016
S11335B0E0E1F4E0808188AF818189AF82818AAFC4
S11335C083818BAF8DE08CAF9E01235C3F4FEEEF88
S11335D0F4E00F2EF1EC6F2E712CF02D60E0D4018D
S11335E04D914D01F89491818081981304C0D301C9
S11335F08C9180628C93508183819481850F911D7D
S1133600DC014C937081472F50E0828190E0019758
S11336104817590719F081E0870F01C0862F80836E
S1133620789482169306D9F60C94E70E803311F041
S11336300C94E70E10920D0381E28AABF7018181AD
S11336408BAB82818CAB83818DAB8FE48EAB86E4B4
S11336508FAB88AF19AE1AAE1BAE4E01F2E38F0EDC
S1133660911CBE01675C7F4FF40180E090E0A8E00C
S1133670712C4191292F332727FD3A952427322F86
S113368022274A2F572D33233CF4220F331FB1E254
S11336902B27B0E13B2702C0220F331F41505109B1
S11336A091F7982F882782279327E617F70709F7BA
S11336B03C0140E160E174E03AD680E194E02DD62B
S11336C0E0E16E16710438F4809110048CAF80E34D
S11336D08BAF8AAF89AFC3014097803F910548F40F
S11336E0E0E1F4E081818CAF80818BAF80E38AAF2D
S11336F089AFC3019A9581159F4050F4E0E1F4E04D
S113370082818CAF81818BAF80818AAF80E389AF66
S1133710611420E1720650F0E0E1F4E0808189AFA9
S113372081818AAF82818BAF83818CAF8DE08DAF35
S11337309E01225C3F4FEEEFF4E00F2EF1EC6F2E72
S1133740712CF02D60E0D4014D914D01F8949181DC
S11337508081981304C0D3018C9180628C93508132
S113376083819481850F911DDC014C937081472FD7
S113377050E0828190E001974817590719F081E0E1
S1133780870F01C0862F8083789482169306D9F61A
S11337900C94E70E6EE170E0C701B4D505978B3049
S11337A0910564F0EAEEF4E0DE01A65ABF4F8052C0
S11337B09B4F21912D93E817F907D9F7CE01865A2B
S11337C09F4F3BD560934601709347018093480116
S11337D09093490181E28AABF70181818BAB8281AD
S11337E08CAB83818DAB1EAA1FAA18AE4E01F2E3E7
S11337F08F0E911CBE016A5C7F4FF40180E090E063
S1133800A8E0712C4191292F332727FD3A952427CD
S1133810322F22274A2F572D33233CF4220F331FF4
S1133820B1E22B27B0E13B2702C0220F331F4150E6
S1133830510991F7982F882782279327E617F707CE
S113384009F73C0140E160E174E071D580E194E066
S113385064D5E0E16E16710438F48091100489AFE8
S113386080E388AF8FAB8EABC3014097803F910557
S113387048F4E0E1F4E0818189AF808188AF80E39E
S11338808FAB8EABC3019A9581159F4050F4E0E154
S1133890F4E0828189AF818188AF80818FAB80E33E
S11338A08EAB611420E1720650F0E0E1F4E0808117
S11338B08EAB81818FAB828188AF838189AF8DE0AC
S11338C08AAF9E01255C3F4FEEEFF4E00F2EF1EC42
S11338D06F2E712CF02D60E0D4014D914D01F894C0
S11338E091818081981304C0D3018C9180628C9360
S11338F0508183819481850F911DDC014C937081EB
S1133900472F50E0828190E001974817590719F03A
S113391081E0870F01C0862F8083789482169306F6
S1133920D9F60C94E70E6EE170E0C701EBD405976D
S11339308B30910564F0EAEEF4E0DE01A65ABF4F45
S113394080529B4F21912D93E817F907D9F7CE01A7
S1133950865A9F4F72D4609362017093630180937F
S113396064019093650181E28AABF70181818BAB9D
S113397082818CAB83818DAB1EAA1FAA18AE4E0127
S1133980F2E38F0E911CBE016A5C7F4FF40180E06C
S113399090E0A8E0712C4191292F332727FD3A9517
S11339A02427322F22274A2F572D33233CF4220F6A
S11339B0331FB1E22B27B0E13B2702C0220F331F94
S11339C04150510991F7982F882782279327E617AA
S11339D0F70709F73C0140E160E174E0A8D480E115
S11339E094E09BD4E0E16E16710438F480911004E5
S11339F089AF80E388AF8FAB8EABC3014097803F24
S1133A00910548F4E0E1F4E0818189AF808188AFD9
S1133A1080E38FAB8EABC3019A9581159F4050F420
S1133A20E0E1F4E0828189AF818188AF80818FAB4E
S1133A3080E38EAB611420E1720650F0E0E1F4E023
S1133A4080818EAB81818FAB828188AF838189AF86
S1133A508DE08AAF9E01255C3F4FEEEFF4E00F2E20
S1133A60F1EC6F2E712CF02D60E0D4014D914D01DD
S1133A70F89491818081981304C0D3018C91806261
S1133A808C93508183819481850F911DDC014C932B
S1133A907081472F50E0828190E0019748175907C1
S1133AA019F081E0870F01C0862F808378948216F5
S1133AB09306D9F60C94E70E6EE170E0C70122D4A8
S1133AC005978B30910564F0EAEEF4E0DE01A65A26
S1133AD0BF4F80529B4F21912D93E817F907D9F7D7
S1133AE0CE01865A9F4FA9D36093660170936701F4
S1133AF0809368019093690181E28AABF701818127
S1133B008BAB82818CAB83818DAB1EAA1FAA18AEAE
S1133B104E01F2E38F0E911CBE016A5C7F4FF401EB
S1133B2080E090E0A8E0712C4191292F332727FDF4
S1133B303A952427322F22274A2F572D33233CF43A
S1133B40220F331FB1E22B27B0E13B2702C0220F23
S1133B50331F4150510991F7982F882782279327C3
S1133B60E617F70709F73C0140E160E174E0DFD3B1
S1133B7080E194E0D2D3E0E16E16710438F48091D0
S1133B80100489AF80E388AF8FAB8EABC30140973D
S1133B90803F910548F4E0E1F4E0818189AF8081C0
S1133BA088AF80E38FAB8EABC3019A9581159F409C
S1133BB050F4E0E1F4E0828189AF818188AF8081B3
S1133BC08FAB80E38EAB611420E1720650F0E0E12C
S1133BD0F4E080818EAB81818FAB828188AF838159
S1133BE089AF8DE08AAF9E01255C3F4FEEEFF4E094
S1133BF00F2EF1EC6F2E712CF02D60E0D4014D915D
S1133C004D01F89491818081981304C0D3018C9163
S1133C1080628C93508183819481850F911DDC0196
S1133C204C937081472F50E0828190E001974817B0
S1133C30590719F081E0870F01C0862F808378949B
S1133C4082169306D9F60C94E70E6EE170E0C70174
S1133C5059D305978B30910564F0EAEEF4E0DE0168
S1133C60A65ABF4F80529B4F21912D93E817F90715
S1133C70D9F7CE01865A9F4FE0D260936A017093C0
S1133C806B0180936C0190936D0181E28AABF70123
S1133C9081818BAB82818CAB83818DAB1EAA1FAAE1
S1133CA018AE4E01F2E38F0E911CBE016A5C7F4F89
S1133CB0F40180E090E0A8E0712C4191292F332792
S1133CC027FD3A952427322F22274A2F572D3323B5
S1133CD03CF4220F331FB1E22B27B0E13B2702C093
S1133CE0220F331F4150510991F7982F88278227BB
S1133CF09327E617F70709F73C0140E160E174E018
S1133D0016D380E194E009D3E0E16E16710438F42F
S1133D108091100489AF80E388AF8FAB8EABC30171
S1133D204097803F910548F4E0E1F4E0818189AF58
S1133D30808188AF80E38FAB8EABC3019A958115E8
S1133D409F4050F4E0E1F4E0828189AF818188AF43
S1133D5080818FAB80E38EAB611420E1720650F05A
S1133D60E0E1F4E080818EAB81818FAB828188AF0A
S1133D70838189AF8DE08AAF9E01255C3F4FEEEFD2
S1133D80F4E00F2EF1EC6F2E712CF02D60E0D401D5
S1133D904D914D01F89491818081981304C0D30111
S1133DA08C9180628C93508183819481850F911DC5
S1133DB0DC014C937081472F50E0828190E00197A1
S1133DC04817590719F081E0870F01C0862F8083B7
S1133DD0789482169306D9F60C94E70EF70182853F
S1133DE0813349F481E08093A80185E391E00E9446
S1133DF051030C94E70E803311F00C94E70E1092EB
S1133E00A80188E391E00E9451030C94E70E0E94FC
S1133E10F70187E291E00E9451030C94E70E8CE3D2
S1133E2091E00E9451030C94E70E89E191E00E9415
S1133E3051030C94E70E5058BB27AA270ED00DC18E
S1133E40FED030F003D120F031F49F3F11F41EF482
S1133E50F3C00EF4E095E7FBE9C0E92F0FD180F33E
S1133E60BA17620773078407950718F071F49EF573
S1133E7027C10EF4E0950B2EBA2FA02D0B01B9012A
S1133E8090010C01CA01A0011124FF27591B99F0CC
S1133E90593F50F4503E68F11A16F040A22F232FD8
S1133EA0342F4427585FF3CF469537952795A79528
S1133EB0F0405395C9F77EF41F16BA0B620B730BCF
S1133EC0840BBAF09150A1F0FF0FBB1F661F771F40
S1133ED0881FC2F70EC0BA0F621F731F841F48F4F5
S1133EE0879577956795B795F7959E3F08F0B3CF7B
S1133EF09395880F08F09927EE0F97958795089565
S1133F0071D008F481E0089504D06894B111D9C047
S1133F100895BCD088F09F5790F0B92F9927B751D6
S1133F20A0F0D1F0660F771F881F991F1AF0BA9579
S1133F30C9F712C0B13081F0C3D0B1E00895C0C058
S1133F40672F782F8827B85F39F0B93FCCF386956F
S1133F5077956795B395D9F73EF4909580957095CC
S1133F6061957F4F8F4F9F4F0895E89409C097FB49
S1133F703EF490958095709561957F4F8F4F9F4F3C
S1133F809923A9F0F92F96E9BB279395F695879580
S1133F9077956795B795F111F8CFFAF4BB0F11F443
S1133FA060FF1BC06F5F7F4F8F4F9F4F16C08823EA
S1133FB011F096E911C0772321F09EE8872F762F20
S1133FC005C0662371F096E8862F70E060E02AF061
S1133FD09A95660F771F881FDAF7880F969587954D
S1133FE097F90895990F0008550FAA0BE0E8FEEF22
S1133FF016161706E807F907C0F012161306E407A9
S1134000F50798F0621B730B840B950B39F40A26A1
S113401061F0232B242B252B21F408950A2609F47F
S1134020A140A6958FEF811D811D089597F99F6783
S113403080E870E060E008959FEF80EC089500242C
S11340400A941616170618060906089500240A94F9
S113405012161306140605060895092E0394000C7F
S113406011F4882352F0BB0F40F4BF2B11F460FF0E
S113407004C06F5F7F4F8F4F9F4F089557FD905837
S1134080440F551F59F05F3F71F04795880F97FB18
S1134090991F61F09F3F79F08795089512161306D2
S11340A01406551FF2CF4695F1DF08C01616170601
S11340B01806991FF1CF8695710561050894089536
S11340C0E894BB2766277727CB0197F908958ADF01
S11340D008F48FEF08950BD0C0CFB1DF28F0B6DF1E
S11340E018F0952309F0A2CFA7CF1124EACFC6DF99
S11340F0A0F3959FD1F3950F50E0551F629FF001F7
S1134100729FBB27F00DB11D639FAA27F00DB11D4F
S1134110AA1F649F6627B00DA11D661F829F2227D8
S1134120B00DA11D621F739FB00DA11D621F839F5F
S1134130A00D611D221F749F3327A00D611D231F35
S1134140849F600D211D822F762F6A2F11249F5783
S113415050408AF0E1F088234AF0EE0FFF1FBB1FA6
S1134160661F771F881F91505040A9F79E3F510545
S113417070F05CCFA6CF5F3FECF3983EDCF38695FE
S113418077956795B795F795E7959F5FC1F7FE2BF0
S1134190880F911D9695879597F9089577DFE0F03C
S11341A09E37D8F09639B8F49E3848F4672F782FA4
S11341B08827985FF9CF8695779567959395953974
S11341C0D0F3B62FB1706B0F711D811D20F487954C
S11341D077956795939502C01CC073CF882371F4BB
S11341E0772321F09850872B762F07C0662311F48C
S11341F099270DC09051862B70E060E02AF09A95C3
S1134200660F771F881FDAF7880F9695879597F9B9
S113421008959F3F31F0915020F4879577956795E5
S1134220B795880F911D9695879597F90895EE0F88
S1134230FF1F0590F491E02D099466277727B7C0F6
S1134240FC0188279927E89421912032E9F3293049
S113425010F02E30C8F32B3239F02D3231F468943B
S113426003C084D0820F911D219120532A30C8F3BA
S11342701EF4909581959F4F08951F93FC019927F3
S11342808827BC01E89411911032E9F3193010F039
S11342901E30C8F31B3249F01D3241F4689405C046
S11342A050D0610F711D811D911D119110531A3051
S11342B0B8F33EF490958095709561957F4F8F4F3C
S11342C09F4F1F910895FB01DC010D900020E9F739
S11342D0119701900D920020E1F70895FC0181915E
S11342E0861721F08823D9F7992708953197CF01AC
S11342F00895FB01DC018D91019080190110D9F31F
S1134300990B0895FC016150704001900110D8F799
S1134310809590958E0F9F1F0895DC016C916156D6
S11343206A3108F0605E6F5B6D93C1F70895BB2737
S11343304A3031F4992322F4BDE2909581959F4F40
S11343401EC0592F482F372F262F660F771F881F1F
S1134350991F660F771F881F991F620F731F841F91
S1134360951F660F771F881F991F08957AE0979FFE
S1134370902D879F802D910D11240895BB27FB015B
S11343805527AA27880F991FAA1FA41710F0A41B4A
S113439083955051B9F7A05DAA3308F0A95DA193A4
S11343A0009779F7B111B1931192CB0172C1A0E0DA
S11343B0B0E0ECEDF1E2B9C1EC017B0161157105EE
S11343C019F0DB018D939C938E010F5F1F4F788052
S11343D0872D90E03ED1892B11F0E801F5CFBDE2A5
S11343E07B1205C00F5F1F4F7980C1E008C0EBE26C
S11343F07E1204C08E010E5F1F4F7980C0E06801F9
S1134400F1E0CF1AD10843E050E06EED72E0C6014E
S113441028D1892BE9F4680122E0C20ED11C45E0C1
S113442050E069ED72E0C6011CD1892B21F46801CA
S113443087E0C80ED11CE114F10419F0D701CD9224
S1134440DC92C111F9C060E070E080E89FE7FDC034
S113445043E050E066ED72E0C60103D1892B51F4CC
S1134460E114F10409F4EDC00E5F1F4FF70111834D
S11344700083E7C0680160E070E0CB0100E010E079
S1134480F601D0EDD70DDA3050F52C2F2260622ED4
S11344902C2F2870C2FF05C0211127C00F5F1F4FAA
S11344A024C0222311F001501109A5E0B0E09B01C2
S11344B0AC012DD14B015C01880C991CAA1CBB1CBE
S11344C0C501B4016D0F711D811D911D6839A9E9E4
S11344D07A078A07A9E19A0740F0C66005C0DE3F63
S11344E051F4C3FD44C0C8606C2EBFEFCB1ADB0A85
S11344F07080C62DC5CF2D2F2F7D2531C1F540816C
S11345004D3211F4C06106C04B3221F0319621E0E6
S113451030E006C03296D60111964C9122E030E08C
S1134520A0EDA40FAA3018F0E21BF30B20C040E06A
S113453050E04038BCE05B075CF49A01220F331F63
S1134540220F331F420F531F440F551F4A0F511D93
S11345503196DF0111972C91A0EDA20FAA3048F3F8
S1134560C4FF03C0519541955109040F151FC1FFA4
S113457007C0E114F10421F03197D701ED93FC93C6
S1134580F4DCC370C33019F06B017C0106C06B010D
S11345907C01F7FAF094F7F8F09420E030E0A901F8
S11345A0C701B601ADDC882309F443C017FF06C078
S11345B0119501951109C5EFD2E002C0CDE0D3E019
S11345C05E01B8E1AB1AB1084601BE2DAF2D90E2F1
S11345D0E92EF12C0E151F057CF0FE012591359175
S11345E045915491B4018B2F9A2F75DD4B01B82F4F
S11345F0A92F0E191F09EECF2497F594E794CA1535
S1134600DB0541F76401EB2EFA2E8E2D880F8F2DDA
S1134610881F8F3F41F020E030E0A901C701B601B7
S11346206FDC811106C082E290E0909304058093D0
S11346300305C701B60109C060E070E080E89FEFA0
S113464004C060E070E080EC9FE7CDB7DEB7EEE039
S113465088C091112EC0803219F089508550D0F74E
S11346600895FB01DC014150504088F08D91813464
S11346701CF08B350CF4805E659161341CF06B3555
S11346800CF4605E861B611171F3990B0895881B0D
S1134690FCCFDC01FC01672F71917723E1F732979E
S11346A004C07C916D9370836291AE17BF07C8F309
S11346B00895992788270895A6E1B0E044E050E0E2
S11346C00AC0242F17D0252F15D000C012D0272FB1
S11346D011C0DC01CB01FC01F999FECF06C0F2BD8B
S11346E0E1BDF89A319600B40D9241505040B8F7AC
S11346F00895262FF999FECF1FBA92BD81BD20BD22
S11347000FB6F894FA9AF99A0FBE0196089540D01C
S1134710A59F900DB49F900DA49F800D911D112411
S113472008952F923F924F925F926F927F928F9251
S11347309F92AF92BF92CF92DF92EF92FF920F932C
S11347401F93CF93DF93CDB7DEB7CA1BDB0B0FB636
S1134750F894DEBF0FBECDBF09942A8839884888F3
S11347605F846E847D848C849B84AA84B984C88489
S1134770DF80EE80FD800C811B81AA81B981CE0F80
S1134780D11D0FB6F894DEBF0FBECDBFED01089565
S1134790A29FB001B39FC001A39F700D811D11247E
S11347A0911DB29F700D811D1124911D0895F894DF
S10547B0FFCF35
S11347B20100433243412053412041445020312ED1
S11347C230000000000049460043524320657272E3
S11347D26F72005652003000310056526572726F89
S11347E272005653004F4E004F46460056536572B0
S10747F2726F72006C
S9030000FC
