:1000000059C0000074C0000072C0000070C0000041
:100010006EC000006CC000006AC000000C94841721
:1000200066C0000064C0000062C000000C9412159D
:100030005EC000005CC000000C94741458C0000046
:1000400056C0000054C000000C9440140C940014DE
:100050004EC000004CC000004AC0000048C0000074
:1000600046C0000044C0000037158915FC15321643
:1000700063167616AC16DC164E414E494E4954595D
:10008000494E46CDCCCC3D0AD7233C17B7D1387763
:10009000CC2B329595E6241FB14F0A000020410079
:1000A00000C84200401C4620BCBE4CCA1B0E5AAEC3
:1000B000C59D740011241FBECFEFD8E0DEBFCDBFB9
:1000C00011E0A0E0B1E0E4EFFAE702C005900D9284
:1000D000AC38B107D9F725E0ACE8B1E001C01D921A
:1000E000AE35B207E1F70E94AD350C94783D88CF6C
:1000F000623059F018F4613031F00CC0633039F0DF
:10010000643039F007C05C9805C05D9803C05E9804
:1001100001C05F9890E89EBD0DB407FEFDCF9EB56F
:100120008EBD0DB407FEFDCF8EB58BB1806F8BB940
:100130000895CF93161617063CF5FC01680F791F3A
:1001400080E090E0B8E0A0E04191292F332727FD1F
:100150003A952427322F22274B2F5A2F33233CF452
:10016000220F331FC1E22C27C0E13C2702C0220F1F
:10017000331F4150510991F7982F882782279327E1
:10018000E617F70709F702C080E090E0CF910895E5
:100190000F931F93CF93DF93EC018B010E94FA3AE8
:1001A000C8010E94FA3A8881803319F58981803329
:1001B00009F041C08A818033B9F581E02B81F801D3
:1001C00090812917E9F180E03BC081E02B81F801A3
:1001D00091812917A9F180E033C09A81F8018181CA
:1001E00098131AC081E02B819281291749F180E090
:1001F00027C0F8019081891311C0998181819813DA
:100200000FC09A81828198130DC081E02B81938168
:100210002917B1F080E014C080E012C080E010C067
:1002200080E00EC080E00CC09A81F80180819817B0
:1002300061F280E005C0F8019081891771F280E0D9
:10024000DF91CF911F910F910895CF92DF92EF929E
:10025000FF920F931F93CF93DF93CDB7DEB7A8978D
:100260000FB6F894DEBF0FBECDBFFC0181E28983DB
:10027000A9E3B5E011968C9111978A8312968C911F
:1002800012978B8313968C918C83CF01AE014B5FB9
:100290005F4F00E010E008C0DC012D91CD01DA01D4
:1002A0002D93AD010F5F1F4FDF010D900020E9F787
:1002B0009D012E1B3F0B2E5F3F4F0217130760F36C
:1002C0007801BFEFEB1AFB0A1E141F040CF0D7C015
:1002D000FE013196A7014E0F5F1F80E090E0B8E06D
:1002E000D12C6191292F332727FD3A952627322FCC
:1002F00022276B2F7D2D33233CF4220F331FA1E2E5
:100300002A27A0E13A2702C0220F331F615071094A
:1003100091F7982F882782279327E417F50709F785
:100320006C0140E16FE275E00E94043B8FE295E0D2
:100330000E94FA3AB0E1CB16D10498F480912F05CF
:10034000FE01E00FF11F858380E3FE01E00FF11F46
:100350008483FE01E00FF11F8383FE01EE0DFF1D7C
:100360008183C6014097803F9105B8F4AFE2B5E0C4
:1003700011968C911197FE01E00FF11F85838C91EE
:10038000FE01E00FF11F848380E3FE01E00FF11F07
:100390008383FE01EE0DFF1D8183C6019A958115B1
:1003A0009F40B8F4EFE2F5E08281DE01A00FB11FBB
:1003B00015968C938181DE01A00FB11F14968C934A
:1003C00014978081FD01838380E3FE01EE0DFF1D04
:1003D0008183C11480E1D806C0F0DE01AE0DBF1DDF
:1003E000EFE2F5E0808111968C938181DE01A00F10
:1003F000B11F13968C938281DE01A00FB11F14965A
:100400008C9314978381FD018583C8010596FE01B5
:10041000E80FF91F2DE0218399230CF43EC0AE01B3
:100420004F5F5F4F0A5F1F4F040F151FE7E5F5E0B1
:1004300061EC70E030E0DA018D91AD01F89421813A
:100440009081291304C0DB019C9190629C93908160
:10045000A381B481A90FB11D8C932081A22FB0E09C
:10046000828190E00197A817B90711F02F5F01C0B2
:10047000232F2083789440175107E9F60EC040E1FE
:100480006FE275E080E090E00E94043B8FE295E02F
:100490000E94FA3AC12CD12C51CFA8960FB6F894ED
:1004A000DEBF0FBECDBFDF91CF911F910F91FF90A7
:1004B000EF90DF90CF9008958F929F92AF92BF926E
:1004C000CF92DF92EF92FF920F931F93CF93DF9320
:1004D000CDB7DEB7EC970FB6F894DEBF0FBECDBF39
:1004E000803621E0920711F40C949A0B0CF045C071
:1004F0008A3F910509F4E1C6ECF48939910509F4C4
:100500000AC364F48739910509F463C10CF032C25F
:100510008639910509F48CC00C94BD138B39910573
:1005200009F42DC50CF4C8C38C39910509F4F8C53C
:100530000C94BD138E3F910511F40C94C10A3CF448
:100540008C3F910509F4BBC70CF488C7E9C7811536
:10055000A1E09A0711F40C940B0B14F40C94DA0A32
:100560008E35E1E09E0711F40C94380B8F359140E5
:1005700011F40C94690B0C94BD13853C21E0920797
:1005800011F40C94FD0C14F58436A1E09A0711F4D3
:100590000C94410C5CF48236E1E09E0711F40C945B
:1005A000FB0B14F40C94CB0B0C94110C833C21E04A
:1005B000920711F40C949D0C14F00C94CD0C823C19
:1005C000914011F40C946D0C0C94BD13843FB1E078
:1005D0009B0711F40C94241084F4873CF1E09F07EE
:1005E00011F40C94880E14F40C94CD0D883C9140B9
:1005F00011F40C94580F0C94BD138935A2E09A079E
:1006000011F40C9416123CF48835924011F40C94B9
:1006100021110C94BD138A35F2E09F0711F40C945C
:1006200042128B35924011F40C949E120C94BD131F
:100630006EE170E089E395E00E94EF3A0597AC0126
:10064000DE0111969E012B5E3F4FFD011192E217D4
:10065000F307E1F74B30510554F0E3E4F5E09C017A
:10066000275C3A4F91919D93E217F307D9F7CE019A
:1006700001960E948A3A6093C6027093C7028093E3
:10068000C8029093C90281E28D8BE9E3F5E0818194
:100690008E8B82818F8B8381888F198E1A8E1B8E11
:1006A0008E010B5E1F4FBE01675E7F4FF80180E039
:1006B00090E0B8E0F12C4191292F332727FD3A959E
:1006C0002427322F22274B2F5F2D33233CF4220F78
:1006D000331FA1E22A27A0E13A2702C0220F331FCD
:1006E0004150510991F7982F882782279327E617C1
:1006F000F70709F77C0140E16FE275E00E94043BD7
:100700008FE295E00E94FA3AB0E1EB16F10438F47A
:1007100080912F058C8F80E38B8F8A8F898FC70103
:100720004097803F910548F4EFE2F5E081818C8F9E
:1007300080818B8F80E38A8F898FC7019A9581157D
:100740009F4050F4EFE2F5E082818C8F81818B8FA6
:1007500080818A8F80E3898FE114F0E1FF0650F0F9
:10076000EFE2F5E08081898F81818A8F82818B8F92
:1007700083818C8F8DE08D8FAE01425E5F4FE7E508
:10078000F5E061EC70E030E0D8018D918D01F894D6
:1007900021819081291304C0DB019C9190629C937C
:1007A0009081A381B481A90FB11D8C932081A22FC8
:1007B000B0E0828190E00197A817B90711F02F5F90
:1007C00001C0232F2083789404171507E9F60C94B1
:1007D000ED136EE170E089E395E00E94EF3A059732
:1007E000AC01DE0111969E012B5E3F4FFD0111927F
:1007F000E217F307E1F74B30510554F0E3E4F5E07D
:100800009C01275C3A4F91919D93E217F307D9F72A
:10081000CE0101960E948A3A6093E2027093E3024D
:100820008093E4029093E50281E28D8BE9E3F5E0A9
:1008300081818E8B82818F8B8381888F198E1A8E16
:100840001B8E8E010B5E1F4FBE01675E7F4FF8014E
:1008500080E090E0B8E0F12C4191292F332727FD6B
:100860003A952427322F22274B2F5F2D33233CF438
:10087000220F331FA1E22A27A0E13A2702C0220F4C
:10088000331F4150510991F7982F882782279327CA
:10089000E617F70709F77C0140E16FE275E00E9477
:1008A000043B8FE295E00E94FA3AB0E1EB16F104C6
:1008B00038F480912F058C8F80E38B8F8A8F898FFE
:1008C000C7014097803F910548F4EFE2F5E0818150
:1008D0008C8F80818B8F80E38A8F898FC7019A9557
:1008E00081159F4050F4EFE2F5E082818C8F818189
:1008F0008B8F80818A8F80E3898FE114F0E1FF067E
:1009000050F0EFE2F5E08081898F81818A8F8281CA
:100910008B8F83818C8F8DE08D8FAE01425E5F4F18
:10092000E7E5F5E061EC70E030E0D8018D918D01F4
:10093000F89421819081291304C0DB019C9190627D
:100940009C939081A381B481A90FB11D8C932081C8
:10095000A22FB0E0828190E00197A817B90711F0AB
:100960002F5F01C0232F2083789404171507E9F621
:100970000C94ED136EE170E089E395E00E94EF3A8C
:100980000597AC01DE0111969E012B5E3F4FFD01E4
:100990001192E217F307E1F74B30510554F0E3E40D
:1009A000F5E09C01275C3A4F91919D93E217F30784
:1009B000D9F7CE0101960E948A3A6093E6027093BD
:1009C000E7028093E8029093E90281E28D8BE9E3EC
:1009D000F5E081818E8B82818F8B8381888F198E48
:1009E0001A8E1B8E8E010B5E1F4FBE01675E7F4FFE
:1009F000F80180E090E0B8E0F12C4191292F3327F5
:100A000027FD3A952427322F22274B2F5F2D3323A2
:100A10003CF4220F331FA1E22A27A0E13A2702C0AB
:100A2000220F331F4150510991F7982F88278227B1
:100A30009327E617F70709F77C0140E16FE275E0BD
:100A40000E94043B8FE295E00E94FA3AB0E1EB1677
:100A5000F10438F480912F058C8F80E38B8F8A8F7F
:100A6000898FC7014097803F910548F4EFE2F5E098
:100A700081818C8F80818B8F80E38A8F898FC701E2
:100A80009A9581159F4050F4EFE2F5E082818C8FBA
:100A900081818B8F80818A8F80E3898FE114F0E1DF
:100AA000FF0650F0EFE2F5E08081898F81818A8F27
:100AB00082818B8F83818C8F8DE08D8FAE01425E22
:100AC0005F4FE7E5F5E061EC70E030E0D8018D9133
:100AD0008D01F89421819081291304C0DB019C9140
:100AE00090629C939081A381B481A90FB11D8C93D6
:100AF0002081A22FB0E0828190E00197A817B9076A
:100B000011F02F5F01C0232F20837894041715075D
:100B1000E9F60C94ED136EE170E089E395E00E9434
:100B2000EF3A0597AC01DE0111969E012B5E3F4F17
:100B3000FD011192E217F307E1F74B30510554F034
:100B4000E3E4F5E09C01275C3A4F91919D93E21715
:100B5000F307D9F7CE0101960E948A3A6093EA0220
:100B60007093EB028093EC029093ED0281E28D8B07
:100B7000E9E3F5E081818E8B82818F8B8381888F81
:100B8000198E1A8E1B8E8E010B5E1F4FBE01675E83
:100B90007F4FF80180E090E0B8E0F12C4191292FDF
:100BA000332727FD3A952427322F22274B2F5F2DFD
:100BB00033233CF4220F331FA1E22A27A0E13A2776
:100BC00002C0220F331F4150510991F7982F8827F7
:100BD00082279327E617F70709F77C0140E16FE2C8
:100BE00075E00E94043B8FE295E00E94FA3AB0E182
:100BF000EB16F10438F480912F058C8F80E38B8FF6
:100C00008A8F898FC7014097803F910548F4EFE2B2
:100C1000F5E081818C8F80818B8F80E38A8F898F33
:100C2000C7019A9581159F4050F4EFE2F5E082816B
:100C30008C8F81818B8F80818A8F80E3898FE114F3
:100C4000F0E1FF0650F0EFE2F5E08081898F8181CD
:100C50008A8F82818B8F83818C8F8DE08D8FAE0107
:100C6000425E5F4FE7E5F5E061EC70E030E0D8010F
:100C70008D918D01F89421819081291304C0DB01AD
:100C80009C9190629C939081A381B481A90FB11D26
:100C90008C932081A22FB0E0828190E00197A81769
:100CA000B90711F02F5F01C0232F20837894041718
:100CB0001507E9F60C94ED1380914305813309F093
:100CC000ADC081E08093280381E28D8BE9E3F5E0FC
:100CD00081818E8B82818F8B8381888F8FE4898F36
:100CE0008EE48A8F1B8E1C8E1D8E8E010B5E1F4F15
:100CF000BE01655E7F4FF80180E090E0B8E0F12C26
:100D00004191292F332727FD3A952427322F222777
:100D10004B2F5F2D33233CF4220F331FA1E22A27F0
:100D2000A0E13A2702C0220F331F4150510991F729
:100D3000982F882782279327E617F70709F77C0162
:100D400040E16FE275E00E94043B8FE295E00E9473
:100D5000FA3AB0E1EB16F10438F480912F058E8F4A
:100D600080E38D8F8C8F8B8FC7014097803F9105DB
:100D700048F4EFE2F5E081818E8F80818D8F80E3F2
:100D80008C8F8B8FC7019A9581159F4050F4EFE2AD
:100D9000F5E082818E8F81818D8F80818C8F80E3C1
:100DA0008B8FE114F0E1FF0650F0EFE2F5E0808177
:100DB0008B8F81818C8F82818D8F83818E8F8DE04F
:100DC0008F8FAE01405E5F4FE7E5F5E061EC70E0CC
:100DD00030E0D8018D918D01F89421819081291303
:100DE00004C0DB019C9190629C939081A381B481AB
:100DF000A90FB11D8C932081A22FB0E0828190E0D9
:100E00000197A817B90711F02F5F01C0232F208386
:100E1000789404171507E9F60C94ED13803311F05C
:100E20000C94ED131092280381E28D8BE9E3F5E039
:100E300081818E8B82818F8B8381888F8FE4898FD4
:100E400086E48A8F8B8F1C8E1D8E1E8E8E010B5E0C
:100E50001F4FBE01645E7F4FF80180E090E0B8E074
:100E6000F12C4191292F332727FD3A952427322F42
:100E700022274B2F5F2D33233CF4220F331FA1E297
:100E80002A27A0E13A2702C0220F331F41505109FF
:100E900091F7982F882782279327E617F70709F7F6
:100EA0007C0140E16FE275E00E94043B8FE295E037
:100EB0000E94FA3AB0E1EB16F10438F480912F0564
:100EC0008F8F80E38E8F8D8F8C8FC7014097803FEF
:100ED000910548F4EFE2F5E081818F8F80818E8F5C
:100EE00080E38D8F8C8FC7019A9581159F4050F4B8
:100EF000EFE2F5E082818F8F81818E8F80818D8FEF
:100F000080E38C8FE114F0E1FF0650F0EFE2F5E0B2
:100F100080818C8F81818D8F82818E8F83818F8F55
:100F20008DE088A3AE014F5D5F4FE7E5F5E061EC32
:100F300070E030E0D8018D918D01F894218190818D
:100F4000291304C0DB019C9190629C939081A38142
:100F5000B481A90FB11D8C932081A22FB0E08281B2
:100F600090E00197A817B90711F02F5F01C0232F58
:100F70002083789404171507E9F60C94ED136EE1BD
:100F800070E089E395E00E94EF3A0597AC01DE013D
:100F900011969E012B5E3F4FFD011192E217F30760
:100FA000E1F74B30510554F0E3E4F5E09C01275C98
:100FB0003A4F91919D93E217F307D9F7CE0101962D
:100FC0000E948A3A60931A0370931B0380931C0358
:100FD00090931D0381E28D8BE9E3F5E081818E8B97
:100FE00082818F8B8381888F198E1A8E1B8E8E0142
:100FF0000B5E1F4FBE01675E7F4FF80180E090E0FF
:10100000B8E0F12C4191292F332727FD3A95242769
:10101000322F22274B2F5F2D33233CF4220F331F17
:10102000A1E22A27A0E13A2702C0220F331F415034
:10103000510991F7982F882782279327E617F707FA
:1010400009F77C0140E16FE275E00E94043B8FE20A
:1010500095E00E94FA3AB0E1EB16F10438F4809181
:101060002F058C8F80E38B8F8A8F898FC7014097E4
:10107000803F910548F4EFE2F5E081818C8F80811B
:101080008B8F80E38A8F898FC7019A9581159F4046
:1010900050F4EFE2F5E082818C8F81818B8F80812B
:1010A0008A8F80E3898FE114F0E1FF0650F0EFE2D0
:1010B000F5E08081898F81818A8F82818B8F838106
:1010C0008C8F8DE08D8FAE01425E5F4FE7E5F5E0DE
:1010D00061EC70E030E0D8018D918D01F8942181B0
:1010E0009081291304C0DB019C9190629C939081B4
:1010F000A381B481A90FB11D8C932081A22FB0E0F0
:10110000828190E00197A817B90711F02F5F01C005
:10111000232F2083789404171507E9F60C94ED1318
:101120006EE170E089E395E00E94EF3A0597AC012B
:10113000DE0111969E012B5E3F4FFD011192E217D9
:10114000F307E1F74B30510554F0E3E4F5E09C017F
:10115000275C3A4F91919D93E217F307D9F7CE019F
:1011600001960E948D3A909321038093200381E29F
:101170008D8BE9E3F5E081818E8B82818F8B83817A
:10118000888F198E1A8E1B8E8E010B5E1F4FBE012B
:10119000675E7F4FF80180E090E0B8E0F12C41916C
:1011A000292F332727FD3A952427322F22274B2F2B
:1011B0005F2D33233CF4220F331FA1E22A27A0E145
:1011C0003A2702C0220F331F4150510991F7982F3F
:1011D000882782279327E617F70709F77C0140E164
:1011E0006FE275E00E94043B8FE295E00E94FA3ABC
:1011F000B0E1EB16F10438F480912F058C8F80E379
:101200008B8F8A8F898FC7014097803F910548F463
:10121000EFE2F5E081818C8F80818B8F80E38A8F74
:10122000898FC7019A9581159F4050F4EFE2F5E050
:1012300082818C8F81818B8F80818A8F80E3898FDF
:10124000E114F0E1FF0650F0EFE2F5E08081898FD4
:1012500081818A8F82818B8F83818C8F8DE08D8FAE
:10126000AE01425E5F4FE7E5F5E061EC70E030E033
:10127000D8018D918D01F89421819081291304C0AA
:10128000DB019C9190629C939081A381B481A90F12
:10129000B11D8C932081A22FB0E0828190E0019754
:1012A000A817B90711F02F5F01C0232F208378946E
:1012B00004171507E9F60C94ED136EE170E089E36D
:1012C00095E00E94EF3A0597AC01DE0111969E0170
:1012D0002B5E3F4FFD011192E217F307E1F74B3010
:1012E000510554F0E3E4F5E09C01275C3A4F9191FD
:1012F0009D93E217F307D9F7CE0101960E948A3A2F
:101300006093630270936402809365029093660217
:1013100081E28D8BE9E3F5E081818E8B82818F8B79
:101320008381888F198E1A8E1B8E8E010B5E1F4F44
:10133000BE01675E7F4FF80180E090E0B8E0F12CDD
:101340004191292F332727FD3A952427322F222731
:101350004B2F5F2D33233CF4220F331FA1E22A27AA
:10136000A0E13A2702C0220F331F4150510991F7E3
:10137000982F882782279327E617F70709F77C011C
:1013800040E16FE275E00E94043B8FE295E00E942D
:10139000FA3AB0E1EB16F10438F480912F058C8F06
:1013A00080E38B8F8A8F898FC7014097803F91059B
:1013B00048F4EFE2F5E081818C8F80818B8F80E3B0
:1013C0008A8F898FC7019A9581159F4050F4EFE26B
:1013D000F5E082818C8F81818B8F80818A8F80E381
:1013E000898FE114F0E1FF0650F0EFE2F5E0808133
:1013F000898F81818A8F82818B8F83818C8F8DE011
:101400008D8FAE01425E5F4FE7E5F5E061EC70E085
:1014100030E0D8018D918D01F894218190812913BC
:1014200004C0DB019C9190629C939081A381B48164
:10143000A90FB11D8C932081A22FB0E0828190E092
:101440000197A817B90711F02F5F01C0232F208340
:10145000789404171507E9F60C94ED136EE170E02B
:1014600089E395E00E94EF3A0597AC01DE01119601
:101470009E012B5E3F4FFD011192E217F307E1F74A
:101480004B30510554F0E3E4F5E09C01275C3A4F02
:1014900091919D93E217F307D9F7CE0101960E942F
:1014A0008A3A60937F0270938002809381029093C6
:1014B00082028CE291E00E9425010C94ED136EE112
:1014C00070E089E395E00E94EF3A0597AC01DE01F8
:1014D00011969E012B5E3F4FFD011192E217F3071B
:1014E000E1F74B30510554F0E3E4F5E09C01275C53
:1014F0003A4F91919D93E217F307D9F7CE010196E8
:101500000E948A3A609383027093840280938502DA
:10151000909386028CE291E00E9425010C94ED13D9
:101520006EE170E089E395E00E94EF3A0597AC0127
:10153000DE0111969E012B5E3F4FFD011192E217D5
:10154000F307E1F74B30510554F0E3E4F5E09C017B
:10155000275C3A4F91919D93E217F307D9F7CE019B
:1015600001960E948A3A6093870270938802809362
:10157000890290938A028CE291E00E9425010C94EA
:10158000ED1380914305813349F481E08093C502D6
:1015900088E191E00E9425010C94ED13803311F055
:1015A0000C94ED131092C5028BE191E00E9425018D
:1015B0000C94ED136EE170E089E395E00E94EF3A40
:1015C0000597AC01DE0111969E012B5E3F4FFD0198
:1015D0001192E217F307E1F74B30510554F0E3E4C1
:1015E000F5E09C01275C3A4F91919D93E217F30738
:1015F000D9F7CE0101960E948A3A6093B7027093A0
:10160000B8028093B9029093BA028CE291E00E94F2
:1016100025010C94ED136EE170E089E395E00E94E2
:10162000EF3A0597AC01DE0111969E012B5E3F4F0C
:10163000FD011192E217F307E1F74B30510554F029
:10164000E3E4F5E09C01275C3A4F91919D93E2170A
:10165000F307D9F7CE0101960E948D3A9093BE020E
:101660008093BD028CE291E00E9425010C94ED1361
:101670006EE170E089E395E00E94EF3A0597AC01D6
:10168000DE0111969E012B5E3F4FFD011192E21784
:10169000F307E1F74B30510554F0E3E4F5E09C012A
:1016A000275C3A4F91919D93E217F307D9F7CE014A
:1016B00001960E948A3A609300027093010280931F
:1016C0000202909303028CE291E00E9425010C94A7
:1016D000ED136EE170E089E395E00E94EF3A059723
:1016E000AC01DE0111969E012B5E3F4FFD01119270
:1016F000E217F307E1F74B30510554F0E3E4F5E06E
:101700009C01275C3A4F91919D93E217F307D9F71B
:10171000CE0101960E948A3A60931C0270931D02CA
:1017200080931E0290931F028CE291E00E9425019B
:101730000C94ED136EE170E089E395E00E94EF3ABE
:101740000597AC01DE0111969E012B5E3F4FFD0116
:101750001192E217F307E1F74B30510554F0E3E43F
:10176000F5E09C01275C3A4F91919D93E217F307B6
:10177000D9F7CE0101960E948A3A609320027093B5
:10178000210280932202909323028CE291E00E9436
:1017900025010C94ED136EE170E089E395E00E9461
:1017A000EF3A0597AC01DE0111969E012B5E3F4F8B
:1017B000FD011192E217F307E1F74B30510554F0A8
:1017C000E3E4F5E09C01275C3A4F91919D93E21789
:1017D000F307D9F7CE0101960E948A3A609324025A
:1017E0007093250280932602909327028CE291E069
:1017F0000E942501F2C780914305813341F481E0C5
:101800008093620288E191E00E942501E6C780335F
:1018100009F0E3C7109262028BE191E00E9425017A
:10182000DCC76EE170E089E395E00E94EF3A05972E
:10183000AC01DE0111969E012B5E3F4FFD0111921E
:10184000E217F307E1F74B30510554F0E3E4F5E01C
:101850009C01275C3A4F91919D93E217F307D9F7CA
:10186000CE0101960E948A3A609354027093550209
:1018700080935602909357028CE291E00E942501DA
:10188000ACC76EE170E089E395E00E94EF3A0597FE
:10189000AC01DE0111969E012B5E3F4FFD011192BE
:1018A000E217F307E1F74B30510554F0E3E4F5E0BC
:1018B0009C01275C3A4F91919D93E217F307D9F76A
:1018C000CE0101960E948D3A90935B0280935A025A
:1018D0008CE291E00E94250180C76EE170E089E30F
:1018E00095E00E94EF3A0597AC01DE0111969E014A
:1018F0002B5E3F4FFD011192E217F307E1F74B30EA
:10190000510554F0E3E4F5E09C01275C3A4F9191D6
:101910009D93E217F307D9F7CE0101960E948A3A08
:1019200060939D0170939E0180939F019093A0010D
:101930008CE291E00E94250150C76EE170E089E3DE
:1019400095E00E94EF3A0597AC01DE0111969E01E9
:101950002B5E3F4FFD011192E217F307E1F74B3089
:10196000510554F0E3E4F5E09C01275C3A4F919176
:101970009D93E217F307D9F7CE0101960E948A3AA8
:101980006093B9017093BA018093BB019093BC013D
:101990008CE291E00E94250120C76EE170E089E3AE
:1019A00095E00E94EF3A0597AC01DE0111969E0189
:1019B0002B5E3F4FFD011192E217F307E1F74B3029
:1019C000510554F0E3E4F5E09C01275C3A4F919116
:1019D0009D93E217F307D9F7CE0101960E948A3A48
:1019E0006093BD017093BE018093BF019093C001CD
:1019F0008CE291E00E942501F0C66EE170E089E37F
:101A000095E00E94EF3A0597AC01DE0111969E0128
:101A10002B5E3F4FFD011192E217F307E1F74B30C8
:101A2000510554F0E3E4F5E09C01275C3A4F9191B5
:101A30009D93E217F307D9F7CE0101960E948A3AE7
:101A40006093C1017093C2018093C3019093C4015C
:101A500081E28D8BE9E3F5E081818E8B82818F8B32
:101A60008381888F198E1A8E1B8E8E010B5E1F4FFD
:101A7000BE01675E7F4FF80180E090E0B8E0F12C96
:101A80004191292F332727FD3A952427322F2227EA
:101A90004B2F5F2D33233CF4220F331FA1E22A2763
:101AA000A0E13A2702C0220F331F4150510991F79C
:101AB000982F882782279327E617F70709F77C01D5
:101AC00040E16FE275E00E94043B8FE295E00E94E6
:101AD000FA3AB0E1EB16F10438F480912F058C8FBF
:101AE00080E38B8F8A8F898FC7014097803F910554
:101AF00048F4EFE2F5E081818C8F80818B8F80E369
:101B00008A8F898FC7019A9581159F4050F4EFE223
:101B1000F5E082818C8F81818B8F80818A8F80E339
:101B2000898FE114F0E1FF0650F0EFE2F5E08081EB
:101B3000898F81818A8F82818B8F83818C8F8DE0C9
:101B40008D8FAE01425E5F4FE7E5F5E061EC70E03E
:101B500030E0D8018D918D01F89421819081291375
:101B600004C0DB019C9190629C939081A381B4811D
:101B7000A90FB11D8C932081A22FB0E0828190E04B
:101B80000197A817B90711F02F5F01C0232F2083F9
:101B9000789404171507E9F620C680914305813330
:101BA00009F0ACC081E08093FF0181E28D8BE9E315
:101BB000F5E081818E8B82818F8B8381888F8FE48A
:101BC000898F8EE48A8F1B8E1C8E1D8E8E010B5E7C
:101BD0001F4FBE01655E7F4FF80180E090E0B8E0E6
:101BE000F12C4191292F332727FD3A952427322FB5
:101BF00022274B2F5F2D33233CF4220F331FA1E20A
:101C00002A27A0E13A2702C0220F331F4150510971
:101C100091F7982F882782279327E617F70709F768
:101C20007C0140E16FE275E00E94043B8FE295E0A9
:101C30000E94FA3AB0E1EB16F10438F480912F05D6
:101C40008E8F80E38D8F8C8F8B8FC7014097803F65
:101C5000910548F4EFE2F5E081818E8F80818D8FD0
:101C600080E38C8F8B8FC7019A9581159F4050F42C
:101C7000EFE2F5E082818E8F81818D8F80818C8F64
:101C800080E38B8FE114F0E1FF0650F0EFE2F5E026
:101C900080818B8F81818C8F82818D8F83818E8FCC
:101CA0008DE08F8FAE01405E5F4FE7E5F5E061ECC0
:101CB00070E030E0D8018D918D01F8942181908100
:101CC000291304C0DB019C9190629C939081A381B5
:101CD000B481A90FB11D8C932081A22FB0E0828125
:101CE00090E00197A817B90711F02F5F01C0232FCB
:101CF0002083789404171507E9F66FC5803309F03F
:101D00006CC51092FF018BE191E00E94250165C531
:101D10006EE170E089E395E00E94EF3A0597AC012F
:101D2000DE0111969E012B5E3F4FFD011192E217DD
:101D3000F307E1F74B30510554F0E3E4F5E09C0183
:101D4000275C3A4F91919D93E217F307D9F7CE01A3
:101D500001960E948A3A6093F1017093F201809398
:101D6000F3019093F40181E28D8BE9E3F5E0818149
:101D70008E8B82818F8B8381888F198E1A8E1B8E1A
:101D80008E010B5E1F4FBE01675E7F4FF80180E042
:101D900090E0B8E0F12C4191292F332727FD3A95A7
:101DA0002427322F22274B2F5F2D33233CF4220F81
:101DB000331FA1E22A27A0E13A2702C0220F331FD6
:101DC0004150510991F7982F882782279327E617CA
:101DD000F70709F77C0140E16FE275E00E94043BE0
:101DE0008FE295E00E94FA3AB0E1EB16F10438F484
:101DF00080912F058C8F80E38B8F8A8F898FC7010D
:101E00004097803F910548F4EFE2F5E081818C8FA7
:101E100080818B8F80E38A8F898FC7019A95811586
:101E20009F4050F4EFE2F5E082818C8F81818B8FAF
:101E300080818A8F80E3898FE114F0E1FF0650F002
:101E4000EFE2F5E08081898F81818A8F82818B8F9B
:101E500083818C8F8DE08D8FAE01425E5F4FE7E511
:101E6000F5E061EC70E030E0D8018D918D01F894DF
:101E700021819081291304C0DB019C9190629C9385
:101E80009081A381B481A90FB11D8C932081A22FD1
:101E9000B0E0828190E00197A817B90711F02F5F99
:101EA00001C0232F2083789404171507E9F695C401
:101EB0006EE170E089E395E00E94EF3A0597AC018E
:101EC000DE0111969E012B5E3F4FFD011192E2173C
:101ED000F307E1F74B30510554F0E3E4F5E09C01E2
:101EE000275C3A4F91919D93E217F307D9F7CE0102
:101EF00001960E948D3A9093F8018093F70181E258
:101F00008D8BE9E3F5E081818E8B82818F8B8381DC
:101F1000888F198E1A8E1B8E8E010B5E1F4FBE018D
:101F2000675E7F4FF80180E090E0B8E0F12C4191CE
:101F3000292F332727FD3A952427322F22274B2F8D
:101F40005F2D33233CF4220F331FA1E22A27A0E1A7
:101F50003A2702C0220F331F4150510991F7982FA1
:101F6000882782279327E617F70709F77C0140E1C6
:101F70006FE275E00E94043B8FE295E00E94FA3A1E
:101F8000B0E1EB16F10438F480912F058C8F80E3DB
:101F90008B8F8A8F898FC7014097803F910548F4C6
:101FA000EFE2F5E081818C8F80818B8F80E38A8FD7
:101FB000898FC7019A9581159F4050F4EFE2F5E0B3
:101FC00082818C8F81818B8F80818A8F80E3898F42
:101FD000E114F0E1FF0650F0EFE2F5E08081898F37
:101FE00081818A8F82818B8F83818C8F8DE08D8F11
:101FF000AE01425E5F4FE7E5F5E061EC70E030E096
:10200000D8018D918D01F89421819081291304C00C
:10201000DB019C9190629C939081A381B481A90F74
:10202000B11D8C932081A22FB0E0828190E00197B6
:10203000A817B90711F02F5F01C0232F20837894D0
:1020400004171507E9F6C9C306EC12E0F801408150
:1020500051816281738180E090E00E94023DD8014D
:102060005C964D915D916D917C915F9784E090E0DD
:102070000E94023DF80140A151A162A173A188E034
:1020800090E00E94023DD80194964D915D916D9132
:102090007C9197978CE090E00E94023D40911A035A
:1020A00050911B0360911C0370911D0380E190E02F
:1020B0000E94023D609120037091210384E190E031
:1020C0000E94073D03E612E0F801408151816281E0
:1020D000738188E190E00E94023DD8015C964D91A9
:1020E0005D916D917C915F978CE190E00E94023D43
:1020F000F80140A151A162A173A180E290E00E9489
:10210000023DD80194964D915D916D917C91979788
:1021100084E290E00E94023D4091B7025091B802E3
:102120006091B9027091BA0288E290E00E94023D8B
:102130006091BD027091BE028CE290E00E94073D6A
:1021400000E012E0F801408151816281738180E3F7
:1021500090E00E94023DD8015C964D915D916D9199
:102160007C915F9784E390E00E94023DF80140A1DA
:1021700051A162A173A188E390E00E94023DD801C1
:1021800094964D915D916D917C9197978CE390E041
:102190000E94023D409154025091550260915602B6
:1021A0007091570280E490E00E94023D60915A02D3
:1021B00070915B0284E490E00E94073D0DE911E01C
:1021C000F801408151816281738188E490E00E942E
:1021D000023DD8015C964D915D916D917C915F9728
:1021E0008CE490E00E94023DF80140A151A162A15F
:1021F00073A180E590E00E94023DD80194964D9134
:102200005D916D917C91979784E590E00E94023DED
:102210004091F1015091F2016091F3017091F4014C
:1022200088E590E00E94023D6091F7017091F8010D
:102230008CE590E00E94073D8CE291E00E94250130
:10224000CCC26EE170E089E395E00E94EF3A059719
:10225000AC01DE0111969E012B5E3F4FFD011192F4
:10226000E217F307E1F74B30510554F0E3E4F5E0F2
:102270009C01275C3A4F91919D93E217F307D9F7A0
:1022800060E271E0CE0101960E94E63A892B89F462
:1022900082E080939401E6E8F0E08CE291E09183A3
:1022A000808380819181EFE6F0E08081826080838D
:1022B00018C06FE171E0CE0101960E94E63A892BC9
:1022C00081F485E080939401E6E8F0E08CE291E00F
:1022D0009183808380819181EFE6F0E0808182604C
:1022E000808381E28D8BE9E3F5E081818E8B8281B1
:1022F0008F8B8381888F198E1A8E1B8E8E010B5EB9
:102300001F4FBE01675E7F4FF80180E090E0B8E0AC
:10231000F12C4191292F332727FD3A952427322F7D
:1023200022274B2F5F2D33233CF4220F331FA1E2D2
:102330002A27A0E13A2702C0220F331F415051093A
:1023400091F7982F882782279327E617F70709F731
:102350007C0140E16FE275E00E94043B8FE295E072
:102360000E94FA3AB0E1EB16F10438F480912F059F
:102370008C8F80E38B8F8A8F898FC7014097803F36
:10238000910548F4EFE2F5E081818C8F80818B8F9D
:1023900080E38A8F898FC7019A9581159F4050F4F9
:1023A000EFE2F5E082818C8F81818B8F80818A8F33
:1023B00080E3898FE114F0E1FF0650F0EFE2F5E0F1
:1023C0008081898F81818A8F82818B8F83818C8F9D
:1023D0008DE08D8FAE01425E5F4FE7E5F5E061EC89
:1023E00070E030E0D8018D918D01F89421819081C9
:1023F000291304C0DB019C9190629C939081A3817E
:10240000B481A90FB11D8C932081A22FB0E08281ED
:1024100090E00197A817B90711F02F5F01C0232F93
:102420002083789404171507E9F6D7C16EE170E0B0
:1024300089E395E00E94EF3A0597AC01DE01119621
:102440009E012B5E3F4FFD011192E217F307E1F76A
:102450004B30510554F0E3E4F5E09C01275C3A4F22
:1024600091919D93E217F307D9F7CE0101960E944F
:102470008D3A90930101809300018CE291E00E94DB
:102480002501ABC16EE170E089E395E00E94EF3A6F
:102490000597AC01DE0111969E012B5E3F4FFD01B9
:1024A0001192E217F307E1F74B3051050CF477C1B5
:1024B000E3E4F5E09C01275C3A4F91919D93E2178C
:1024C000F307D9F76CC104171507260737074CF433
:1024D00002C081E090E0019790938D0180938C0180
:1024E0000FC00196405B5F4F6F4F7F4F8032910569
:1024F00051F706C080E290E090938D0180938C01AB
:102500008091990190919A01A0919B01B0919C01B9
:10251000C80ED91EEA1EFB1EC0929501D0929601EC
:10252000E0929701F0929801EFE6F0E080818260FE
:1025300080838CE291E00E9425014FC16EE170E042
:1025400089E395E00E94EF3A0597AC01DE01119610
:102550009E012B5E3F4FFD011192E217F307E1F759
:102560004B30510554F0E3E4F5E09C01275C3A4F11
:1025700091919D93E217F307D9F7CE0101960E943E
:10258000AA3A0091990110919A0120919B013091F2
:102590009C0106171707280739070CF06EC0009139
:1025A000990110919A0120919B0130919C01DC01CD
:1025B000CB01801B910BA20BB30B109294014C0129
:1025C0005D01BB233CF4882499245401881A990A9C
:1025D000AA0ABB0AB594A794979487948114EAE059
:1025E0009E06A104B1044CF5F0E58F169104A104F8
:1025F000B1047CF00F2EF0EACF2ED12CE12CF12C7F
:10260000F02D22E030E08C149D04AE04BF0454F49D
:1026100002C021E030E02150310930938D01209338
:102620008C0111C02F5F3F4F40E5C40ED11CE11C4F
:10263000F11C2032310539F706C020E230E030933A
:102640008D0120938C010091990110919A012091A4
:102650009B0130919C01800F911FA21FB31F80939B
:10266000950190939601A0939701B0939801EFE69E
:10267000F0E08081826080837BC00091990110919D
:102680009A0120919B0130919C016017710782078C
:1026900093070CF06DC00091990110919A0120915F
:1026A0009B0130919C01DC01CB01801B910BA20BA3
:1026B000B30B109294014C015D01BB233CF48824C0
:1026C00099245401881A990AAA0ABB0AB594A794B6
:1026D000979487948114EAE09E06A104B1044CF516
:1026E000F0E58F169104A104B1047CF00F2EF0EAFE
:1026F000CF2ED12CE12CF12CF02D22E030E08C14E7
:102700009D04AE04BF0454F402C021E030E0215027
:10271000310930938D0120938C0111C02F5F3F4F01
:1027200040E5C40ED11CE11CF11C2032310539F703
:1027300006C020E230E030938D0120938C0100919F
:10274000990110919A0120919B0130919C01800F79
:10275000911FA21FB31F8093950190939601A093A0
:102760009701B0939801EFE6F0E08081826080836A
:102770008CE291E00E94250130C083E291E00E944A
:1027800025012BC000351105210531050CF4A1CE22
:1027900040EA50E060E070E082E090E094CE109279
:1027A0009401CE0101960E94AA3A6B017C018B0133
:1027B0009C0199233CF4002711279801061B170B55
:1027C000280B390B359527951795079501158AE044
:1027D000180721053105B4F28DCEEC960FB6F894AA
:1027E000DEBF0FBECDBFDF91CF911F910F91FF9044
:1027F000EF90DF90CF90BF90AF909F908F90089513
:102800001F920F920FB60F9211242F933F934F9365
:102810005F938F939F93AF93BF93EF93FF93E7E5FE
:10282000F5E0918180819817B9F08181A381B4810D
:10283000A80FB11D3C912181422F50E0828190E090
:1028400001974817590711F02F5F01C020E020932E
:1028500058053093C60005C0E1ECF0E080818F7D23
:102860008083FF91EF91BF91AF919F918F915F9185
:102870004F913F912F910F900FBE0F901F90189581
:102880001F920F920FB60F9211242F934F935F93C5
:102890008F939F93AF93BF93EF93FF938091C60065
:1028A000E4E3F5E09081A381B481A90FB11D8C937D
:1028B0002081422F50E0828190E00197481759070C
:1028C00011F02F5F01C020E020933405FF91EF91BC
:1028D000BF91AF919F918F915F914F912F910F90E9
:1028E0000FBE0F901F9018951F920F920FB60F9268
:1028F00011242F933F938F939F93EF93FF93E4E2E1
:10290000F3E08081918101969183808320813181E0
:1029100080912603909127032817390734F480917A
:102920002803882319F0409A01C04098809124031D
:10293000909125038436910524F01092250310927E
:102940002403E1ECF2E08081918101969183808300
:10295000208131818091C3029091C40228173907E8
:1029600034F48091C502882319F0419A01C041983E
:102970008091C1029091C2028436910524F0109298
:10298000C2021092C102EEE5F2E0808191810196CF
:1029900091838083208131818091600290916102D6
:1029A0002817390734F480916202882319F0429A7B
:1029B00001C0429880915E0290915F028436910539
:1029C00024F010925F0210925E02EBEFF1E0808142
:1029D0009181019691838083208131818091FD01D5
:1029E0009091FE012817390734F48091FF01882364
:1029F00019F0439A01C043988091FB019091FC012A
:102A00008436910524F01092FC011092FB01FF9195
:102A1000EF919F918F913F912F910F900FBE0F904B
:102A20001F9018951F920F920FB60F921124CF92FC
:102A3000DF92EF92FF922F933F934F935F936F93A9
:102A40007F938F939F93AF93BF93EF93FF93E09107
:102A500094018E2FEE0F990BAA0BBB0B88309105BA
:102A600008F0BCC1FC01EC5CFF4F0C94843A8091EF
:102A70008E0190918F01019690938F0180938E012A
:102A800080918E0190918F01813591050CF4A6C142
:102A900010928F0110928E014091900150919101FE
:102AA00080918C0190918D01481759072CF5E09188
:102AB0009001F09191016091000170910101EE0F80
:102AC000FF1FE65BFE4F40815181649FC001659FFF
:102AD000900D749F900D1124E6E8F0E091838083BF
:102AE00080819181809190019091910101969093C4
:102AF00091018093900172C181E080939401809153
:102B00009001909191010197909391018093900190
:102B100065C18091950190919601A0919701B09126
:102B20009801C0909901D0909A01E0909B01F0909B
:102B30009C0140918C0150918D018C199D09AE0929
:102B4000BF096C017D013AF4CC24DD247601C81A5A
:102B5000D90AEA0AFB0A60E5649FC001659F900DEF
:102B60001124092E000CAA0BBB0BC816D906EA06C5
:102B7000FB060CF033C180918E0190918F0101967C
:102B800090938F0180938E0180918E0190918F019F
:102B9000813591050CF422C110928F0110928E01A3
:102BA000809190019091910199230CF417C1E091CB
:102BB0009001F09191016091000170910101EE0F7F
:102BC000FF1FE65BFE4F40815181649FC001659FFE
:102BD000900D749F900D1124E6E8F0E091838083BE
:102BE00080819181809190019091910101979093C2
:102BF000910180939001F2C0189920C0E6E8F0E0BE
:102C000088EE93E091838083808191818091990106
:102C100090919A01A0919B01B0919C0180589C4099
:102C2000A109B1098093950190939601A093970112
:102C3000B093980183E080939401D0C08091950176
:102C400090919601A0919701B09198010296A11DD3
:102C5000B11D8093950190939601A0939701B09335
:102C60009801BCC08091990190919A01A0919B011B
:102C7000B0919C014091950150919601609197010E
:102C800070919801841B950BA60BB70B0297A105B9
:102C9000B10509F0A3C084E080939401809199016B
:102CA00090919A01A0919B01B0919C018C51934FFE
:102CB000AF4FBF4F8093950190939601A0939701DA
:102CC000B09398018BC0189989C010929901109205
:102CD0009A0110929B0110929C0110929501109202
:102CE0009601109297011092980178C0189920C00F
:102CF000E6E8F0E088EE93E0918380838081918123
:102D00008091990190919A01A0919B01B0919C01B1
:102D10008058934FAF4FBF4F80939501909396018A
:102D2000A0939701B093980186E08093940156C0D8
:102D30008091950190919601A0919701B091980191
:102D40000297A109B1098093950190939601A093F0
:102D50009701B093980142C080919501909196019E
:102D6000A0919701B09198014091990150919A01D9
:102D700060919B0170919C01841B950BA60BB70B76
:102D80000297A105B10551F587E0809394018091E8
:102D9000990190919A01A0919B01B0919C01845E50
:102DA0009C40A109B1098093950190939601A0934D
:102DB0009701B093980112C0189910C01092990110
:102DC00010929A0110929B0110929C011092950111
:102DD00010929601109297011092980140919901DA
:102DE00050919A0160919B0170919C018091950195
:102DF00090919601A0919701B091980148175907B9
:102E00006A077B07C4F42A9A95B182E0892785B9BD
:102E10008091990190919A01A0919B01B0919C01A0
:102E20000196A11DB11D8093990190939A01A093E1
:102E30009B01B0939C014091990150919A0160913E
:102E40009B0170919C018091950190919601A091B8
:102E50009701B091980184179507A607B707C4F4A6
:102E60002A9895B182E0892785B98091990190913E
:102E70009A01A0919B01B0919C010197A109B10910
:102E80008093990190939A01A0939B01B0939C0128
:102E90004091990150919A0160919B0170919C0120
:102EA0008091950190919601A0919701B091980120
:102EB000481759076A077B0751F42998EFE6F0E0B5
:102EC000808182508083109291011092900183B191
:102ED000282F217030E03093930120939201FF91CD
:102EE000EF91BF91AF919F918F917F916F915F9182
:102EF0004F913F912F91FF90EF90DF90CF900F90E7
:102F00000FBE0F901F9018951F920F920FB60F9241
:102F10001124CF92DF92EF92FF920F931F932F9382
:102F20003F934F935F936F937F938F939F93AF9351
:102F3000BF93CF93DF93EF93FF9378945B9A5C9862
:102F400081E08EBD0DB407FEFDCF8EB51EBC0DB465
:102F500007FEFDCF9EB58BB1806F8BB95C9882E088
:102F60008EBD0DB407FEFDCF8EB51EBC0DB407FEA1
:102F7000FDCF6EB58BB1806F8BB970E0792B7595F5
:102F80006795072E000C880B990B0E94243920E0CE
:102F900030E040E05DE30E94D83920E030E040E8D6
:102FA00053E40E948838E6ECF2E0648375838683FC
:102FB0009783648175818681978120E030E040EFBE
:102FC00052E40E94D43918162CF41092280388B1C8
:102FD000807F88B90091290310912A03C6ECD2E0C2
:102FE000688179818A819B812C813D814E815F81BD
:102FF0000E948838000F111F000F111FF801E251C5
:10300000FD4F6083718382839383E0912903F09164
:103010002A03EE0FFF1FEE0FFF1FE251FD4F6081ED
:103020007181828193812C8D3D8D4E8D5F8D0E94AB
:10303000D839688779878A879B87CC84DD84EE843A
:10304000FF84E0912903F0912A03EE0FFF1FEE0F9A
:10305000FF1FE251FD4F608171818281938128A120
:1030600039A14AA15BA10E94D8399B01AC01C701DB
:10307000B6010E9489386C877D878E879F876C8513
:103080007D858E859F8520E030E040E251E40E94FE
:10309000D439181664F480E090E0A0E2B1E48093A3
:1030A000D2029093D302A093D402B093D502609140
:1030B000D2027091D3028091D4029091D50220E087
:1030C00030E040E251EC0E94ED38882364F480E067
:1030D00090E0A0E2B1EC8093D2029093D302A0934F
:1030E000D402B093D502E0912903F0912A03C6ECF3
:1030F000D2E0EE0FFF1FEE0FFF1FE251FD4F608188
:10310000718182819381E0910201F0910301EE0FC0
:10311000FF1FEE0FFF1FE251FD4F208131814281E1
:103120005381CCA0DDA0EEA0FFA00E948838A701AB
:1031300096010E94D839688B798B8A8B9B8B688526
:1031400079858A859B852C853D854E855F85C888D8
:10315000D988EA88FB880E948938A70196010E94D5
:103160008938688F798F8A8F9B8F888D998DAA8DEA
:10317000BB8D8C8B9D8BAE8BBF8B6C897D898E8933
:103180009F890E943B3A0E94F13870932703609315
:103190002603E0912903F0912A03EE0FFF1FEE0FA3
:1031A000FF1FE251FD4F80819181A281B381BC015B
:1031B000CD019F7720E030E040EA50E40E94D4390E
:1031C000181644F41092D2021092D3021092D40234
:1031D0001092D502E0912903F0912A03EE0FFF1F10
:1031E000EE0FFF1FE251FD4F80819181A281B381DB
:1031F00020911A0330911B0340911C0350911D0331
:10320000BC01CD019F770E94ED38181614F1EEE154
:10321000F3E08081918101969183808320813181C7
:1032200040912003509121036DE3649FC001659F8D
:10323000900D112428173907A4F081E090E09093B5
:10324000230380932203808191810197918380835E
:1032500008C010921F0310921E03109223031092B5
:1032600022035D9881E08EBD0DB407FEFDCF8EB5C3
:103270001EBC0DB407FEFDCF9EB58BB1806F8BB920
:103280005D9882E08EBD0DB407FEFDCF8EB51EBCED
:103290000DB407FEFDCF6EB58BB1806F8BB970E0BA
:1032A000792B75956795072E000C880B990B0E945A
:1032B000243920E030E040E05DE30E94D83920E08E
:1032C00030E040E853E40E948838E3E6F2E06483AB
:1032D000758386839783648175818681978120E0D9
:1032E00030E040EF52E40E94D43918162CF41092CA
:1032F000C50288B1807F88B90091290310912A0303
:10330000C3E6D2E0688179818A819B812C813D81ED
:103310004E815F810E948838000F111F000F111F1E
:10332000F801E557FD4F6083718382839383E091B9
:103330002903F0912A03EE0FFF1FEE0FFF1FE55741
:10334000FD4F60817181828193812C8D3D8D4E8DE9
:103350005F8D0E94D839688779878A879B87CC845C
:10336000DD84EE84FF84E0912903F0912A03EE0FBF
:10337000FF1FEE0FFF1FE557FD4F608171818281B6
:10338000938128A139A14AA15BA10E94D8399B0150
:10339000AC01C701B6010E9489386C877D878E8792
:1033A0009F876C857D858E859F8520E030E040E29B
:1033B00051E40E94D439181664F480E090E0A0E251
:1033C000B1E480936F0290937002A0937102B09366
:1033D000720260916F0270917002809171029091FF
:1033E000720220E030E040E251EC0E94ED38882388
:1033F00064F480E090E0A0E2B1EC80936F029093DF
:103400007002A0937102B0937202E0912903F091CF
:103410002A03C3E6D2E0EE0FFF1FEE0FFF1FE557B2
:10342000FD4F6081718182819381E0910201F09171
:103430000301EE0FFF1FEE0FFF1FE557FD4F208129
:10344000318142815381CCA0DDA0EEA0FFA00E947B
:103450008838A70196010E94D839688B798B8A8BAE
:103460009B8B688579858A859B852C853D854E85D6
:103470005F85C888D988EA88FB880E948938A701B7
:1034800096010E948938688F798F8A8F9B8F888DEB
:10349000998DAA8DBB8D8C8B9D8BAE8BBF8B6C89D0
:1034A0007D898E899F890E943B3A0E94F1387093F2
:1034B000C4026093C302E0912903F0912A03EE0F46
:1034C000FF1FEE0FFF1FE557FD4F80819181A28105
:1034D000B381BC01CD019F7720E030E040EA50E4A9
:1034E0000E94D439181644F410926F0210927002A0
:1034F0001092710210927202E0912903F0912A0356
:10350000EE0FFF1FEE0FFF1FE557FD4F80819181EA
:10351000A281B3812091B7023091B8024091B902E3
:103520005091BA02BC01CD019F770E94ED38181668
:1035300014F1EBEBF2E0808191810196918380831D
:10354000208131814091BD025091BE026DE3649FA4
:10355000C001659F900D112428173907A4F081E060
:1035600090E09093C0028093BF0280819181019787
:103570009183808308C01092BC021092BB0210920B
:10358000C0021092BF025E9881E08EBD0DB407FEAE
:10359000FDCF8EB51EBC0DB407FEFDCF9EB58BB121
:1035A000806F8BB95E9882E08EBD0DB407FEFDCFB3
:1035B0008EB51EBC0DB407FEFDCF6EB58BB1806F0E
:1035C0008BB970E0792B75956795072E000C880BE9
:1035D000990B0E94243920E030E040E05DE30E9436
:1035E000D83920E030E040E853E40E948838E0E039
:1035F000F2E0648375838683978364817581868115
:10360000978120E030E040EF52E40E94D439181650
:103610002CF41092620288B1807F88B9009129034E
:1036200010912A03C0E0D2E0688179818A819B8170
:103630002C813D814E815F810E948838000F111FCF
:10364000000F111FF801E85DFD4F608371838283D5
:103650009383E0912903F0912A03EE0FFF1FEE0FF1
:10366000FF1FE85DFD4F60817181828193812C8D08
:103670003D8D4E8D5F8D0E94D839688779878A8706
:103680009B87CC84DD84EE84FF84E0912903F09154
:103690002A03EE0FFF1FEE0FFF1FE85DFD4F608155
:1036A00071818281938128A139A14AA15BA10E94E5
:1036B000D8399B01AC01C701B6010E9489386C87DB
:1036C0007D878E879F876C857D858E859F8520E091
:1036D00030E040E251E40E94D439181664F480E0EE
:1036E00090E0A0E2B1E480930C0290930D02A093CD
:1036F0000E02B0930F0260910C0270910D02809146
:103700000E0290910F0220E030E040E251EC0E9466
:10371000ED38882364F480E090E0A0E2B1EC80937F
:103720000C0290930D02A0930E02B0930F02E09151
:103730002903F0912A03C0E0D2E0EE0FFF1FEE0F45
:10374000FF1FE85DFD4F6081718182819381E0916F
:103750000201F0910301EE0FFF1FEE0FFF1FE85D66
:10376000FD4F2081318142815381CCA0DDA0EEA0AC
:10377000FFA00E948838A70196010E94D839688B63
:10378000798B8A8B9B8B688579858A859B852C852F
:103790003D854E855F85C888D988EA88FB880E9468
:1037A0008938A70196010E948938688F798F8A8F9E
:1037B0009B8F888D998DAA8DBB8D8C8B9D8BAE8BAD
:1037C000BF8B6C897D898E899F890E943B3A0E94BC
:1037D000F1387093610260936002E0912903F091E7
:1037E0002A03EE0FFF1FEE0FFF1FE85DFD4F8081E4
:1037F0009181A281B381BC01CD019F7720E030E0AF
:1038000040EA50E40E94D439181644F410920C0295
:1038100010920D0210920E0210920F02E0912903F5
:10382000F0912A03EE0FFF1FEE0FFF1FE85DFD4F23
:1038300080819181A281B3812091540230915502FF
:103840004091560250915702BC01CD019F770E94D2
:10385000ED38181614F1E8E5F2E0808191810196C7
:10386000918380832081318140915A0250915B0283
:103870006DE3649FC001659F900D112428173907DF
:10388000A4F081E090E090935D0280935C028081DF
:10389000918101979183808308C010925902109200
:1038A000580210925D0210925C025F9881E08EBD1A
:1038B0000DB407FEFDCF8EB51EBC0DB407FEFDCFC7
:1038C0009EB58BB1806F8BB95F9882E08EBD0DB4D1
:1038D00007FEFDCF8EB51EBC0DB407FEFDCF6EB545
:1038E0008BB1806F8BB970E0792B75956795072E3A
:1038F000000C880B990B0E94243920E030E040E056
:103900005DE30E94D83920E030E040E853E40E94B3
:103910008838EDE9F1E06483758386839783648159
:1039200075818681978120E030E040EF52E40E946B
:10393000D43918162CF41092FF0188B1807F88B911
:103940000091290310912A03CDE9D1E068817981A2
:103950008A819B812C813D814E815F810E948838C4
:10396000000F111F000F111FF801EB53FE4F608372
:10397000718382839383E0912903F0912A03EE0FF0
:10398000FF1FEE0FFF1FEB53FE4F6081718182819D
:1039900093812C8D3D8D4E8D5F8D0E94D839688727
:1039A00079878A879B87CC84DD84EE84FF84E091CD
:1039B0002903F0912A03EE0FFF1FEE0FFF1FEB53B9
:1039C000FE4F608171818281938128A139A14AA132
:1039D0005BA10E94D8399B01AC01C701B6010E94CE
:1039E00089386C877D878E879F876C857D858E85DE
:1039F0009F8520E030E040E251E40E94D43918165F
:103A000064F480E090E0A0E2B1E48093A901909397
:103A1000AA01A093AB01B093AC016091A901709190
:103A2000AA018091AB019091AC0120E030E040E22E
:103A300051EC0E94ED38882364F480E090E0A0E22D
:103A4000B1EC8093A9019093AA01A093AB01B0932C
:103A5000AC01E0912903F0912A03CDE9D1E0EE0F0A
:103A6000FF1FEE0FFF1FEB53FE4F608171818281BC
:103A70009381E0910201F0910301EE0FFF1FEE0F21
:103A8000FF1FEB53FE4F2081318142815381CCA037
:103A9000DDA0EEA0FFA00E948838A70196010E9439
:103AA000D839688B798B8A8B9B8B688579858A85D9
:103AB0009B852C853D854E855F85C888D988EA8899
:103AC000FB880E948938A70196010E948938688F77
:103AD000798F8A8F9B8F888D998DAA8DBB8D8C8BCA
:103AE0009D8BAE8BBF8B6C897D898E899F890E944F
:103AF0003B3A0E94F1387093FE016093FD01E09122
:103B00002903F0912A03EE0FFF1FEE0FFF1FEB5367
:103B1000FE4F80819181A281B381BC01CD019F774D
:103B200020E030E040EA50E40E94D439181644F412
:103B30001092A9011092AA011092AB011092AC014F
:103B4000E0912903F0912A03EE0FFF1FEE0FFF1FF4
:103B5000EB53FE4F80819181A281B3812091F101CD
:103B60003091F2014091F3015091F401BC01CD017B
:103B70009F770E94ED38181614F1E5EFF1E080818F
:103B80009181019691838083208131814091F70159
:103B90005091F8016DE3649FC001659F900D112461
:103BA00028173907A4F081E090E09093FA01809300
:103BB000F9018081918101979183808308C01092DF
:103BC000F6011092F5011092FA011092F90180911C
:103BD000290390912A03019690932A038093290345
:103BE0008091290390912A030B9724F010922A03C5
:103BF000109229038091290390912A0301969093B2
:103C000003018093020180910201909103010B97BF
:103C100024F010920301109202015B98FF91EF9142
:103C2000DF91CF91BF91AF919F918F917F916F91D4
:103C30005F914F913F912F911F910F91FF90EF90C6
:103C4000DF90CF900F900FBE0F901F9018958F921E
:103C50009F92AF92BF92CF92DF92EF92FF920F931B
:103C60001F93CF93DF93CDB7DEB764970FB6F89469
:103C7000DEBF0FBECDBF4B015C018A010E94F1384F
:103C80006B017C0184E1F80111928A95E9F74AE021
:103C9000B801C6010E94043BF80101900020E9F739
:103CA00031978EE290E091838083B601DD0C880B22
:103CB000990B0E9424399B01AC01C501B4010E94FB
:103CC000883820E030E04AE754E40E94D8390E9466
:103CD000F1389B01772324F422273327261B370B47
:103CE0004AE0BE016F5F7F4FC9010E94043B80E044
:103CF00090E0DE01119623E030E040E350E008C0A0
:103D0000F80101900020E9F7319751834083019633
:103D1000FD0101900020E9F73197EA1BFB0BB90187
:103D20006E1B7F0B8617970758F3BE016F5F7F4F9F
:103D3000C8010E94D03A64960FB6F894DEBF0FBE59
:103D4000CDBFDF91CF911F910F91FF90EF90DF904A
:103D5000CF90BF90AF909F908F900895CF92DF92B9
:103D6000EF92FF920F931F93CF93DF93CDB7DEB700
:103D7000EC970FB6F894DEBF0FBECDBF8D3221E0B9
:103D8000920711F40C9488270CF073C0883C9105BD
:103D900009F4D4C2BCF58936910509F461C2CCF4AA
:103DA0008636910509F423C154F48436910509F44B
:103DB000FAC08536910509F408C10C94DB348736C6
:103DC000910509F429C28836910509F437C20C948B
:103DD000DB348C36910509F479C254F48A369105A6
:103DE00009F450C28B36910509F45EC20C94DB34A1
:103DF0008D36910509F47CC28E36910509F488C28E
:103E00000C94DB348E3C910509F40AC5CCF48B3C50
:103E1000910509F4CCC354F4893C910509F4A0C27E
:103E20008A3C910509F4AEC20C94DB348C3C9105BC
:103E300009F4CFC38D3C910509F4DDC30C94DB3448
:103E4000813D910509F425C654F48F3C910509F490
:103E5000F9C4803D910509F407C50C94DB34823D1B
:103E6000910509F429C78C32914009F43BC70C94A1
:103E7000DB348239E1E09E0711F40C940E290CF03A
:103E800049C0833321E0920711F40C94FA270CF512
:103E90008033B1E09B0711F40C94C1276CF48E328F
:103EA000F1E09F0711F40C949B278F32914011F49D
:103EB0000C94AE270C94DB348133A1E09A0711F403
:103EC0000C94D4278233914011F40C94E7270C947E
:103ED000DB348633E1E09E0711F40C9430286CF457
:103EE000843321E0920711F40C940D28853391401E
:103EF00011F40C9420280C94DB348039B1E09B073A
:103F000011F40C94E8288139914011F40C94FB28A9
:103F10000C94DB348839F1E09F0711F40C948C2F5A
:103F20000CF58539A1E09A0711F40C94502C6CF42F
:103F30008339E1E09E0711F40C94242A84399140DE
:103F400011F40C943A2B0C94DB34863921E092075F
:103F500011F40C94662D8739914011F40C94792E4C
:103F60000C94DB348835B2E09B0711F40C940632D4
:103F70006CF48939F1E09F0711F40C949F308A3971
:103F8000914011F40C94AE300C94DB348935A2E0EE
:103F90009A0711F40C94BC328A35924011F40C94B7
:103FA000CE330C94DB346091CA027091CB028091C5
:103FB000CC029091CD02AE014F5F5F4F48DECE0143
:103FC00001960E9425010C949E356091CE0270915D
:103FD000CF028091D0029091D102AE014F5F5F4F2E
:103FE00036DECE0101960E9425010C949E3560912B
:103FF000D2027091D3028091D4029091D502AE0189
:104000004F5F5F4F24DE81E28D8BE9E3F5E0818134
:104010008E8B82818F8B8381888FAE014F5F5F4F44
:104020009E01275E3F4F00E010E0DA0108C0FA0170
:104030008191AF01F90181939F010F5F1F4FFD0136
:1040400001900020E9F7CF018A1B9B0B029608170D
:10405000190768F37801FFEFEF1AFF0A1E141F0417
:1040600014F00C94E034FE017596A7014E0F5F1F0B
:1040700080E090E0B8E0D12C6191292F332727FD13
:104080003A952627322F22276B2F7D2D33233CF4A0
:10409000220F331FA1E22A27A0E13A2702C0220FF4
:1040A000331F6150710991F7982F88278227932732
:1040B000E417F50709F76C0140E16FE275E00E9433
:1040C000043B8FE295E00E94FA3AB0E1CB16D104AE
:1040D00098F480912F05FE01E00FF11F818F80E39E
:1040E000FE01E00FF11F808FFE01E00FF11F878BB3
:1040F000FE01EE0DFF1D858BC6014097803F9105A7
:10410000B8F4AFE2B5E011968C911197FE01E00F83
:10411000F11F818F8C91FE01E00FF11F808F80E3F2
:10412000FE01E00FF11F878BFE01EE0DFF1D858B59
:10413000C6019A9581159F40B8F4EFE2F5E08281BF
:10414000DE01A00FB11F59968C938181DE01A00F73
:10415000B11F58968C9358978081FD01878B80E31F
:10416000FE01EE0DFF1D858BC114F0E1DF06C0F0EE
:10417000DE01AE0DBF1DEFE2F5E0808155968C9318
:104180008181DE01A00FB11F57968C938281DE01E1
:10419000A00FB11F58968C9358978381FD01818F92
:1041A000C8010596FE01E80FF91F2DE0258B992324
:1041B00014F40C949E35AE014B5E5F4F0A5F1F4FA7
:1041C000040F151FE7E5F5E061EC70E030E0DA017F
:1041D0008D91AD01F89421819081291304C0DB01F8
:1041E0009C9190629C939081A381B481A90FB11D91
:1041F0008C932081A22FB0E0828190E00197A817D4
:10420000B90711F02F5F01C0232F20837894401746
:104210005107E9F60C949E356091D6027091D70251
:104220008091D8029091D902AE014F5F5F4F0FDDB0
:10423000CE0101960E9425010C949E356091C60224
:104240007091C7028091C8029091C902AE014F5F80
:104250005F4FFDDCCE0101960E9425010C949E3536
:104260006091E2027091E3028091E4029091E50294
:10427000AE014F5F5F4FEBDCCE0101960E9425013E
:104280000C949E356091E6027091E7028091E802FD
:104290009091E902AE014F5F5F4FD9DCCE010196EC
:1042A0000E9425010C949E356091EA027091EB0208
:1042B0008091EC029091ED02AE014F5F5F4FC7DC41
:1042C000CE0101960E9425010C949E3560911A033F
:1042D00070911B0380911C0390911D03AE014F5FF1
:1042E0005F4FB5DCCE0101960E9425010C949E35EE
:1042F00080912003909121034AE0BE016F5F7F4FC0
:104300000E94043BCE0101960E9425010C949E352B
:104310008091220390912303009721F0019741F0AF
:104320000C949E358BE291E00E9425010C949E3501
:104330008DE291E00E9425010C949E356091670208
:10434000709168028091690290916A02AE014F5F9C
:104350005F4F7DDCCE0101960E9425010C949E35B5
:1043600060916B0270916C0280916D0290916E026F
:10437000AE014F5F5F4F6BDCCE0101960E942501BD
:104380000C949E3560916F02709170028091710261
:1043900090917202AE014F5F5F4F59DC81E28D8BCD
:1043A000E9E3F5E081818E8B82818F8B8381888F19
:1043B000AE014F5F5F4F9E01275E3F4F00E010E070
:1043C000DA0108C0FA018191AF01F90181939F01DF
:1043D0000F5F1F4FFD0101900020E9F7CF018A1BFD
:1043E0009B0B02960817190768F37801FFEFEF1A85
:1043F000FF0A1E141F0414F00C94ED34FE01759690
:10440000A7014E0F5F1F80E090E0B8E0D12C6191D2
:10441000292F332727FD3A952627322F22276B2F66
:104420007D2D33233CF4220F331FA1E22A27A0E184
:104430003A2702C0220F331F6150710991F7982F5C
:10444000882782279327E417F50709F76C0140E1D5
:104450006FE275E00E94043B8FE295E00E94FA3A19
:10446000B0E1CB16D10498F480912F05FE01E00F46
:10447000F11F818F80E3FE01E00FF11F808FFE01AD
:10448000E00FF11F878BFE01EE0DFF1D858BC6012E
:104490004097803F9105B8F4AFE2B5E011968C915A
:1044A0001197FE01E00FF11F818F8C91FE01E00F4B
:1044B000F11F808F80E3FE01E00FF11F878BFE016B
:1044C000EE0DFF1D858BC6019A9581159F40B8F4AE
:1044D000EFE2F5E08281DE01A00FB11F59968C93C7
:1044E0008181DE01A00FB11F58968C93589780816F
:1044F000FD01878B80E3FE01EE0DFF1D858BC1144E
:10450000F0E1DF06C0F0DE01AE0DBF1DEFE2F5E029
:10451000808155968C938181DE01A00FB11F579643
:104520008C938281DE01A00FB11F58968C9358970F
:104530008381FD01818FC8010596FE01E80FF91FF7
:104540002DE0258B992314F40C949E35AE014B5E1F
:104550005F4F0A5F1F4F040F151FE7E5F5E061ECA1
:1045600070E030E0DA018D91AD01F8942181908105
:10457000291304C0DB019C9190629C939081A381DC
:10458000B481A90FB11D8C932081A22FB0E082814C
:1045900090E00197A817B90711F02F5F01C0232FF2
:1045A0002083789440175107E9F60C949E3560916A
:1045B0007302709174028091750290917602AE013F
:1045C0004F5F5F4F44DBCE0101960E9425010C94A2
:1045D0009E356091630270916402809165029091B2
:1045E0006602AE014F5F5F4F32DBCE0101960E9443
:1045F00025010C949E3560917F027091800280911C
:10460000810290918202AE014F5F5F4F20DB81E219
:104610008D8BE9E3F5E081818E8B82818F8B8381A5
:10462000888FAE014F5F5F4F9E01275E3F4F00E0D6
:1046300010E0DA0108C0FA018191AF01F90181931C
:104640009F010F5F1F4FFD0101900020E9F7CF018F
:104650008A1B9B0B02960817190768F37801FFEF76
:10466000EF1AFF0A1E141F0414F00C94FA34FE0112
:104670007596A7014E0F5F1F80E090E0B8E0D12C47
:104680006191292F332727FD3A952627322F22279C
:104690006B2F7D2D33233CF4220F331FA1E22A27F9
:1046A000A0E13A2702C0220F331F6150710991F730
:1046B000982F882782279327E417F50709F76C01BD
:1046C00040E16FE275E00E94043B8FE295E00E94BA
:1046D000FA3AB0E1CB16D10498F480912F05FE018F
:1046E000E00FF11F818F80E3FE01E00FF11F808F4B
:1046F000FE01E00FF11F878BFE01EE0DFF1D858B84
:10470000C6014097803F9105B8F4AFE2B5E011963D
:104710008C911197FE01E00FF11F818F8C91FE01AA
:10472000E00FF11F808F80E3FE01E00FF11F878B08
:10473000FE01EE0DFF1D858BC6019A9581159F40E8
:10474000B8F4EFE2F5E08281DE01A00FB11F5996C7
:104750008C938181DE01A00FB11F58968C935897DE
:104760008081FD01878B80E3FE01EE0DFF1D858BAF
:10477000C114F0E1DF06C0F0DE01AE0DBF1DEFE2B7
:10478000F5E0808155968C938181DE01A00FB11FE9
:1047900057968C938281DE01A00FB11F58968C939F
:1047A00058978381FD01818FC8010596FE01E80FAE
:1047B000F91F2DE0258B992314F40C949E35AE013E
:1047C0004B5E5F4F0A5F1F4F040F151FE7E5F5E0D3
:1047D00061EC70E030E0DA018D91AD01F894218157
:1047E0009081291304C0DB019C9190629C9390817D
:1047F000A381B481A90FB11D8C932081A22FB0E0B9
:10480000828190E00197A817B90711F02F5F01C0CE
:10481000232F2083789440175107E9F60C949E3596
:10482000609183027091840280918502909186024A
:10483000AE014F5F5F4F0BDACE0101960E9425015A
:104840000C949E3560918702709188028091890254
:1048500090918A02AE014F5F5F4FF9D9CE01019668
:104860000E9425010C949E356091B7027091B802A8
:104870008091B9029091BA02AE014F5F5F4FE7D9C4
:1048800081E28D8BE9E3F5E081818E8B82818F8BD4
:104890008381888FAE014F5F5F4F9E01275E3F4F40
:1048A00000E010E0DA0108C0FA018191AF01F901DE
:1048B00081939F010F5F1F4FFD0101900020E9F7D9
:1048C000CF018A1B9B0B02960817190768F3780122
:1048D000FFEFEF1AFF0A1E141F0414F00C940735A3
:1048E000FE017596A7014E0F5F1F80E090E0B8E0D3
:1048F000D12C6191292F332727FD3A952627322F76
:1049000022276B2F7D2D33233CF4220F331FA1E28E
:104910002A27A0E13A2702C0220F331F61507109F4
:1049200091F7982F882782279327E417F50709F72F
:104930006C0140E16FE275E00E94043B8FE295E07C
:104940000E94FA3AB0E1CB16D10498F480912F0579
:10495000FE01E00FF11F818F80E3FE01E00FF11FE8
:10496000808FFE01E00FF11F878BFE01EE0DFF1D12
:10497000858BC6014097803F9105B8F4AFE2B5E062
:1049800011968C911197FE01E00FF11F818F8C9190
:10499000FE01E00FF11F808F80E3FE01E00FF11FA9
:1049A000878BFE01EE0DFF1D858BC6019A95811543
:1049B0009F40B8F4EFE2F5E08281DE01A00FB11F65
:1049C00059968C938181DE01A00FB11F58968C936C
:1049D00058978081FD01878B80E3FE01EE0DFF1D5E
:1049E000858BC114F0E1DF06C0F0DE01AE0DBF1D06
:1049F000EFE2F5E0808155968C938181DE01A00F76
:104A0000B11F57968C938281DE01A00FB11F58967B
:104A10008C9358978381FD01818FC8010596FE0113
:104A2000E80FF91F2DE0258B992314F40C949E3583
:104A3000AE014B5E5F4F0A5F1F4F040F151FE7E586
:104A4000F5E061EC70E030E0DA018D91AD01F894B1
:104A500021819081291304C0DB019C9190629C9379
:104A60009081A381B481A90FB11D8C932081A22FC5
:104A7000B0E0828190E00197A817B90711F02F5F8D
:104A800001C0232F2083789440175107E9F60C9436
:104A90009E358091BD029091BE024AE0BE016F5FDB
:104AA0007F4F0E94043B81E28D8BE9E3F5E0818139
:104AB0008E8B82818F8B8381888FAE014F5F5F4F9A
:104AC0009E01275E3F4F00E010E0DA0108C0FA01C6
:104AD0008191AF01F90181939F010F5F1F4FFD018C
:104AE00001900020E9F7CF018A1B9B0B0296081763
:104AF000190768F37801FFEFEF1AFF0A1E141F046D
:104B000014F00C941435FE017596A7014E0F5F1F2B
:104B100080E090E0B8E0D12C6191292F332727FD68
:104B20003A952627322F22276B2F7D2D33233CF4F5
:104B3000220F331FA1E22A27A0E13A2702C0220F49
:104B4000331F6150710991F7982F88278227932787
:104B5000E417F50709F76C0140E16FE275E00E9488
:104B6000043B8FE295E00E94FA3AB0E1CB16D10403
:104B700098F480912F05FE01E00FF11F818F80E3F3
:104B8000FE01E00FF11F808FFE01E00FF11F878B08
:104B9000FE01EE0DFF1D858BC6014097803F9105FC
:104BA000B8F4AFE2B5E011968C911197FE01E00FD9
:104BB000F11F818F8C91FE01E00FF11F808F80E348
:104BC000FE01E00FF11F878BFE01EE0DFF1D858BAF
:104BD000C6019A9581159F40B8F4EFE2F5E0828115
:104BE000DE01A00FB11F59968C938181DE01A00FC9
:104BF000B11F58968C9358978081FD01878B80E375
:104C0000FE01EE0DFF1D858BC114F0E1DF06C0F043
:104C1000DE01AE0DBF1DEFE2F5E0808155968C936D
:104C20008181DE01A00FB11F57968C938281DE0136
:104C3000A00FB11F58968C9358978381FD01818FE7
:104C4000C8010596FE01E80FF91F2DE0258B992379
:104C500014F40C949E35AE014B5E5F4F0A5F1F4FFC
:104C6000040F151FE7E5F5E061EC70E030E0DA01D4
:104C70008D91AD01F89421819081291304C0DB014D
:104C80009C9190629C939081A381B481A90FB11DE6
:104C90008C932081A22FB0E0828190E00197A81729
:104CA000B90711F02F5F01C0232F2083789440179C
:104CB0005107E9F60C949E358091BF029091C00295
:104CC000009721F0019741F00C949E358BE291E022
:104CD0000E9425010C949E358DE291E00E942501F1
:104CE0000C949E3560910402709105028091060239
:104CF00090910702AE014F5F5F4F0E94271E81E235
:104D00008D8BE9E3F5E081818E8B82818F8B8381AE
:104D1000888FAE014F5F5F4F9E01275E3F4F00E0DF
:104D200010E0DA0108C0FA018191AF01F901819325
:104D30009F010F5F1F4FFD0101900020E9F7CF0198
:104D40008A1B9B0B02960817190768F37801FFEF7F
:104D5000EF1AFF0A1E141F0414F00C942135FE01F3
:104D60007596A7014E0F5F1F80E090E0B8E0D12C50
:104D70006191292F332727FD3A952627322F2227A5
:104D80006B2F7D2D33233CF4220F331FA1E22A2702
:104D9000A0E13A2702C0220F331F6150710991F739
:104DA000982F882782279327E417F50709F76C01C6
:104DB00040E16FE275E00E94043B8FE295E00E94C3
:104DC000FA3AB0E1CB16D10498F480912F05FE0198
:104DD000E00FF11F818F80E3FE01E00FF11F808F54
:104DE000FE01E00FF11F878BFE01EE0DFF1D858B8D
:104DF000C6014097803F9105B8F4AFE2B5E0119647
:104E00008C911197FE01E00FF11F818F8C91FE01B3
:104E1000E00FF11F808F80E3FE01E00FF11F878B11
:104E2000FE01EE0DFF1D858BC6019A9581159F40F1
:104E3000B8F4EFE2F5E08281DE01A00FB11F5996D0
:104E40008C938181DE01A00FB11F58968C935897E7
:104E50008081FD01878B80E3FE01EE0DFF1D858BB8
:104E6000C114F0E1DF06C0F0DE01AE0DBF1DEFE2C0
:104E7000F5E0808155968C938181DE01A00FB11FF2
:104E800057968C938281DE01A00FB11F58968C93A8
:104E900058978381FD01818FC8010596FE01E80FB7
:104EA000F91F2DE0258B992314F40C949E35AE0147
:104EB0004B5E5F4F0A5F1F4F040F151FE7E5F5E0DC
:104EC00061EC70E030E0DA018D91AD01F894218160
:104ED0009081291304C0DB019C9190629C93908186
:104EE000A381B481A90FB11D8C932081A22FB0E0C2
:104EF000828190E00197A817B90711F02F5F01C0D8
:104F0000232F2083789440175107E9F60C949E359F
:104F1000609108027091090280910A0290910B023F
:104F2000AE014F5F5F4F0E94271ECE0101960E9487
:104F300025010C949E3560910C0270910D028091B8
:104F40000E0290910F02AE014F5F5F4F0E94271E2D
:104F5000CE0101960E9425010C949E3560911002AD
:104F6000709111028091120290911302AE014F5F75
:104F70005F4F0E94271ECE0101960E9425010C94CE
:104F80009E35609100027091010280910202909121
:104F90000302AE014F5F5F4F0E94271ECE010196B4
:104FA0000E9425010C949E3560911C0270911D0297
:104FB00080911E0290911F02AE014F5F5F4F0E94D1
:104FC000271ECE0101960E9425010C949E3560910A
:104FD0002002709121028091220290912302AE0161
:104FE0004F5F5F4F0E94271ECE0101960E94250150
:104FF0000C949E35609124027091250280912602C6
:1050000090912702AE014F5F5F4F0E94271ECE0195
:1050100001960E9425010C949E3560915402709176
:1050200055028091560290915702AE014F5F5F4F3B
:105030000E94271ECE0101960E9425010C949E35E8
:1050400080915A0290915B024AE0BE016F5F7F4FF0
:105050000E94043BCE0101960E9425010C949E35CE
:1050600080915C0290915D02009721F0019741F0E0
:105070000C949E358BE291E00E9425010C949E35A4
:1050800081E28D8BE9E3F5E081818E8B82818F8BCC
:105090008381888F81E3898F1A8E1B8E1C8E8E01EF
:1050A0000B5E1F4FBE01665E7F4FF80180E090E00F
:1050B000B8E0F12C4191292F332727FD3A95242779
:1050C000322F22274B2F5F2D33233CF4220F331F27
:1050D000A1E22A27A0E13A2702C0220F331F415044
:1050E000510991F7982F882782279327E617F7070A
:1050F00009F77C0140E16FE275E00E94043B8FE21A
:1051000095E00E94FA3AB0E1EB16F10438F4809190
:105110002F058D8F80E38C8F8B8F8A8FC7014097EF
:10512000803F910548F4EFE2F5E081818D8F808129
:105130008C8F80E38B8F8A8FC7019A9581159F4052
:1051400050F4EFE2F5E082818D8F81818C8F808138
:105150008B8F80E38A8FE114F0E1FF0650F0EFE2DD
:10516000F5E080818A8F81818B8F82818C8F838112
:105170008D8F8DE08E8FAE01415E5F4FE7E5F5E0EC
:1051800061EC70E030E0D8018D918D01F8942181BF
:105190009081291304C0DB019C9190629C939081C3
:1051A000A381B481A90FB11D8C932081A22FB0E0FF
:1051B000828190E00197A817B90711F02F5F01C015
:1051C000232F2083789404171507E9F60C949E3555
:1051D0006091A1017091A2018091A3019091A4011D
:1051E000AE014F5F5F4F0E94271ECE0101960E94C5
:1051F00025010C949E356091A5017091A6018091C6
:10520000A7019091A801AE014F5F5F4F0E94271E3A
:10521000CE0101960E9425010C949E356091A90152
:105220007091AA018091AB019091AC01AE014F5FEA
:105230005F4F0E94271E81E28D8BE9E3F5E08181BB
:105240008E8B82818F8B8381888FAE014F5F5F4F02
:105250009E01275E3F4F00E010E0DA0108C0FA012E
:105260008191AF01F90181939F010F5F1F4FFD01F4
:1052700001900020E9F7CF018A1B9B0B02960817CB
:10528000190768F37801FFEFEF1AFF0A1E141F04D5
:1052900014F00C942E35FE017596A7014E0F5F1F7A
:1052A00080E090E0B8E0D12C6191292F332727FDD1
:1052B0003A952627322F22276B2F7D2D33233CF45E
:1052C000220F331FA1E22A27A0E13A2702C0220FB2
:1052D000331F6150710991F7982F882782279327F0
:1052E000E417F50709F76C0140E16FE275E00E94F1
:1052F000043B8FE295E00E94FA3AB0E1CB16D1046C
:1053000098F480912F05FE01E00FF11F818F80E35B
:10531000FE01E00FF11F808FFE01E00FF11F878B70
:10532000FE01EE0DFF1D858BC6014097803F910564
:10533000B8F4AFE2B5E011968C911197FE01E00F41
:10534000F11F818F8C91FE01E00FF11F808F80E3B0
:10535000FE01E00FF11F878BFE01EE0DFF1D858B17
:10536000C6019A9581159F40B8F4EFE2F5E082817D
:10537000DE01A00FB11F59968C938181DE01A00F31
:10538000B11F58968C9358978081FD01878B80E3DD
:10539000FE01EE0DFF1D858BC114F0E1DF06C0F0AC
:1053A000DE01AE0DBF1DEFE2F5E0808155968C93D6
:1053B0008181DE01A00FB11F57968C938281DE019F
:1053C000A00FB11F58968C9358978381FD01818F50
:1053D000C8010596FE01E80FF91F2DE0258B9923E2
:1053E00014F40C949E35AE014B5E5F4F0A5F1F4F65
:1053F000040F151FE7E5F5E061EC70E030E0DA013D
:105400008D91AD01F89421819081291304C0DB01B5
:105410009C9190629C939081A381B481A90FB11D4E
:105420008C932081A22FB0E0828190E00197A81791
:10543000B90711F02F5F01C0232F20837894401704
:105440005107E9F60C949E356091AD017091AE0163
:105450008091AF019091B001AE014F5F5F4F0E940C
:10546000271E81E28D8BE9E3F5E081818E8B8281BD
:105470008F8B8381888FAE014F5F5F4F9E01275EC8
:105480003F4F00E010E0DA0108C0FA018191AF015E
:10549000F90181939F010F5F1F4FFD0101900020D3
:1054A000E9F7CF018A1B9B0B02960817190768F3CF
:1054B0007801FFEFEF1AFF0A1E141F0414F00C947A
:1054C0003B35FE017596A7014E0F5F1F80E090E00F
:1054D000B8E0D12C6191292F332727FD3A95262753
:1054E000322F22276B2F7D2D33233CF4220F331FC5
:1054F000A1E22A27A0E13A2702C0220F331F615000
:10550000710991F7982F882782279327E417F507C9
:1055100009F76C0140E16FE275E00E94043B8FE205
:1055200095E00E94FA3AB0E1CB16D10498F480914C
:105530002F05FE01E00FF11F818F80E3FE01E00FD8
:10554000F11F808FFE01E00FF11F878BFE01EE0D32
:10555000FF1D858BC6014097803F9105B8F4AFE2EF
:10556000B5E011968C911197FE01E00FF11F818F2C
:105570008C91FE01E00FF11F808F80E3FE01E00FB0
:10558000F11F878BFE01EE0DFF1D858BC6019A95DD
:1055900081159F40B8F4EFE2F5E08281DE01A00FB3
:1055A000B11F59968C938181DE01A00FB11F5896CF
:1055B0008C9358978081FD01878B80E3FE01EE0D6F
:1055C000FF1D858BC114F0E1DF06C0F0DE01AE0DDA
:1055D000BF1DEFE2F5E0808155968C938181DE015D
:1055E000A00FB11F57968C938281DE01A00FB11FCF
:1055F00058968C9358978381FD01818FC801059639
:10560000FE01E80FF91F2DE0258B992314F40C946B
:105610009E35AE014B5E5F4F0A5F1F4F040F151F93
:10562000E7E5F5E061EC70E030E0DA018D91AD0185
:10563000F89421819081291304C0DB019C91906230
:105640009C939081A381B481A90FB11D8C9320817B
:10565000A22FB0E0828190E00197A817B90711F05E
:105660002F5F01C0232F2083789440175107E9F65C
:105670000C949E3560919D0170919E0180919F01D7
:105680009091A001AE014F5F5F4F0E94271E81E203
:105690008D8BE9E3F5E081818E8B82818F8B838115
:1056A000888FAE014F5F5F4F9E01275E3F4F00E046
:1056B00010E0DA0108C0FA018191AF01F90181938C
:1056C0009F010F5F1F4FFD0101900020E9F7CF01FF
:1056D0008A1B9B0B02960817190768F37801FFEFE6
:1056E000EF1AFF0A1E141F0414F00C944835FE0133
:1056F0007596A7014E0F5F1F80E090E0B8E0D12CB7
:105700006191292F332727FD3A952627322F22270B
:105710006B2F7D2D33233CF4220F331FA1E22A2768
:10572000A0E13A2702C0220F331F6150710991F79F
:10573000982F882782279327E417F50709F76C012C
:1057400040E16FE275E00E94043B8FE295E00E9429
:10575000FA3AB0E1CB16D10498F480912F05FE01FE
:10576000E00FF11F818F80E3FE01E00FF11F808FBA
:10577000FE01E00FF11F878BFE01EE0DFF1D858BF3
:10578000C6014097803F9105B8F4AFE2B5E01196AD
:105790008C911197FE01E00FF11F818F8C91FE011A
:1057A000E00FF11F808F80E3FE01E00FF11F878B78
:1057B000FE01EE0DFF1D858BC6019A9581159F4058
:1057C000B8F4EFE2F5E08281DE01A00FB11F599637
:1057D0008C938181DE01A00FB11F58968C9358974E
:1057E0008081FD01878B80E3FE01EE0DFF1D858B1F
:1057F000C114F0E1DF06C0F0DE01AE0DBF1DEFE227
:10580000F5E0808155968C938181DE01A00FB11F58
:1058100057968C938281DE01A00FB11F58968C930E
:1058200058978381FD01818FC8010596FE01E80F1D
:10583000F91F2DE0258B992314F40C949E35AE01AD
:105840004B5E5F4F0A5F1F4F040F151FE7E5F5E042
:1058500061EC70E030E0DA018D91AD01F8942181C6
:105860009081291304C0DB019C9190629C939081EC
:10587000A381B481A90FB11D8C932081A22FB0E028
:10588000828190E00197A817B90711F02F5F01C03E
:10589000232F2083789440175107E9F60C949E3506
:1058A0006091B9017091BA018091BB019091BC01E6
:1058B000AE014F5F5F4F0E94271E81E28D8BE9E3AF
:1058C000F5E081818E8B82818F8B8381888FAE0101
:1058D0004F5F5F4F9E01275E3F4F00E010E0DA010F
:1058E00008C0FA018191AF01F90181939F010F5F17
:1058F0001F4FFD0101900020E9F7CF018A1B9B0B90
:1059000002960817190768F37801FFEFEF1AFF0AEC
:105910001E141F0414F00C945535FE017596A70152
:105920004E0F5F1F80E090E0B8E0D12C6191292FED
:10593000332727FD3A952627322F22276B2F7D2DDF
:1059400033233CF4220F331FA1E22A27A0E13A2798
:1059500002C0220F331F6150710991F7982F8827D9
:1059600082279327E417F50709F76C0140E16FE2FE
:1059700075E00E94043B8FE295E00E94FA3AB0E1A4
:10598000CB16D10498F480912F05FE01E00FF11F92
:10599000818F80E3FE01E00FF11F808FFE01E00F99
:1059A000F11F878BFE01EE0DFF1D858BC601409711
:1059B000803F9105B8F4AFE2B5E011968C91119754
:1059C000FE01E00FF11F818F8C91FE01E00FF11FAE
:1059D000808F80E3FE01E00FF11F878BFE01EE0D4B
:1059E000FF1D858BC6019A9581159F40B8F4EFE2A3
:1059F000F5E08281DE01A00FB11F59968C93818161
:105A0000DE01A00FB11F58968C9358978081FD013D
:105A1000878B80E3FE01EE0DFF1D858BC114F0E145
:105A2000DF06C0F0DE01AE0DBF1DEFE2F5E08081C4
:105A300055968C938181DE01A00FB11F57968C93F0
:105A40008281DE01A00FB11F58968C9358978381F5
:105A5000FD01818FC8010596FE01E80FF91F2DE0B9
:105A6000258B992314F40C949E35AE014B5E5F4F49
:105A70000A5F1F4F040F151FE7E5F5E061EC70E0CA
:105A800030E0DA018D91AD01F894218190812913E4
:105A900004C0DB019C9190629C939081A381B481AE
:105AA000A90FB11D8C932081A22FB0E0828190E0DC
:105AB0000197A817B90711F02F5F01C0232F20838A
:105AC000789440175107E9F60C949E356091BD011A
:105AD0007091BE018091BF019091C001AE014F5FF6
