S00C0000433243412E737265631F
S113000085C10000A0C100009EC100009CC1000089
S11300109AC1000098C1000096C1000013C50000F9
S113002092C1000090C100008EC100008CC100008C
S11300308AC1000088C1000067C4000084C10000B8
S113004082C1000080C100002BC40000E9C300008D
S11300507AC1000078C1000076C1000074C10000BC
S113006072C1000070C10000BB0ED60FF1100C125B
S11300702713421453146414181718171817181751
S113008018171817181718171817181718171817F4
S113009018171817181718171817181718171817E4
S11300A018171817181718171817181718171817D4
S11300B018171817181718171817181718171817C4
S11300C018171817181718171817181718171817B4
S11300D018171817181718171817181718171817A4
S11300E01817181718171817181718171817181794
S11300F01817181718171817181718171817181784
S11301001817181718171817181718171817181773
S11301101817181718171817181718171817181763
S11301201817181718171817181718171817181753
S1130130751486149714A814B914CA14DB14EC1497
S11301401817181718171817181718171817181733
S11301501817181718171817181718171817181723
S11301601817181718171817181718171817181713
S11301701817181718171817181718171817181703
S113018018171817181718171817181718171817F3
S113019018171817181718171817181718171817E3
S11301A018171817181718171817181718171817D3
S11301B018171817181718171817181718171817C3
S11301C018171817181718171817181718171817B3
S11301D018171817181718171817181718171817A3
S11301E01817181718171817181718171817181793
S11301F01817181718171817FD140E151F15301592
S1130200411552156E167F16181718171817181758
S11302101817181718171817181718171817181762
S11302201817181718171817181718171817181752
S11302301817181718171817181718171817181742
S11302401817181718171817181718171817181732
S11302501817181718171817181718171817181722
S11302601817181718171817181718171817181712
S11302701817181718171817181718171817181702
S113028018171817181718171817181718171817F2
S113029018171817181718171817181718171817E2
S11302A018171817181718171817181718171817D2
S11302B018171817181718171817181718171817C2
S11302C09016A116B216C316D416E516F61607171D
S11302D04E414E494E495459494E46CDCCCC3D0A27
S11302E0D7233C17B7D13877CC2B329595E6241F0A
S11302F0B14F0A000020410000C84200401C4620C3
S1130300BCBE4CCA1B0E5AAEC59D740011241FBE40
S1130310CFEFD8E0DEBFCDBF11E0A0E0B1E0ECEC60
S1130320FBE402C005900D92A034B107D9F725E093
S1130330A0E4B1E001C01D92A130B207E1F70E9430
S1130340800C0C94E4255CCECF93DF93CDB7DEB75D
S113035069970FB6F894DEBF0FBECDBF1092C500EB
S113036082E28093C400E0ECF0E0808182608083CC
S113037088E98093C10086E08093C2001D8A1E8AAA
S11303808FEF8F8B28EA31E0398F288F95E0FE01BB
S11303907596DE011B9601900D929A95E1F795E012
S11303A0FE013B96DE01509601900D929A95E1F77D
S11303B095E0FE017096AAEFB4E001900D929A9533
S11303C0E1F71D8A1E8A8F8B8AE093E0998F888FCC
S11303D085E0FE017596DE01119601900D928A95D5
S11303E0E1F785E0FE013196DE01169601900D924B
S11303F08A95E1F785E0FE013696A1E1B4E001902B
S11304000D928A95E1F769960FB6F894DEBF0FBE98
S1130410CDBFDF91CF910895623059F018F4613067
S113042031F00CC0633039F0643039F007C05C98A7
S113043005C05D9803C05E9801C05F9890E89EBDBA
S11304400DB407FEFDCF9EB58EBD0DB407FEFDCFE6
S11304508EB58BB1806F8BB90895CF93161617069E
S11304603CF5FC01680F791F80E090E0B8E0A0E063
S11304704191292F332727FD3A952427322F22270C
S11304804B2F5A2F33233CF4220F331FC1E22C2766
S1130490C0E13C2702C0220F331F4150510991F79C
S11304A0982F882782279327E617F70709F702C0B2
S11304B080E090E0CF9108950F931F93CF93DF9343
S11304C0EC01062F172F6EE170E00E949723059729
S11304D08B30910564F0FE013A96A02FB12F9E0156
S11304E0280F391F91919D93E217F307D9F7DF91F4
S11304F0CF911F910F9108950F931F93CF93DF9383
S1130500EC018B010E94A223C8010E94A2238881CE
S1130510803319F58981803309F041C08A818033A1
S1130520B9F581E02B81F80190812917E9F180E088
S11305303BC081E02B81F80191812917A9F180E06A
S113054033C09A81F801818198131AC081E02B810C
S11305509281291749F180E027C0F801908189131D
S113056011C09981818198130FC09A818281981357
S11305700DC081E02B8193812917B1F080E014C074
S113058080E012C080E010C080E00EC080E00CC0AB
S11305909A81F8018081981761F280E005C0F80122
S11305A09081891771F280E0DF91CF911F910F91B3
S11305B00895CF92DF92EF92FF920F931F93CF9300
S11305C0DF93CDB7DEB7A8970FB6F894DEBF0FBEA2
S11305D0CDBFFC0181E28983ACEDB4E011968C912E
S11305E011978A8312968C9112978B8313968C9110
S11305F08C83CF01AE014B5F5F4F00E010E008C079
S1130600DC012D91CD01DA012D93AD010F5F1F4F58
S1130610DF010D900020E9F79D012E1B3F0B2E5F9B
S11306203F4F0217130760F37801BFEFEB1AFB0A81
S11306301E141F040CF0D7C0FE013196A7014E0F03
S11306405F1F80E090E0B8E0D12C6191292F33271F
S113065027FD3A952627322F22276B2F7D2D332312
S11306603CF4220F331FA1E22A27A0E13A2702C05B
S1130670220F331F6150710991F7982F8827822721
S11306809327E417F50709F76C0140E16CE074E087
S11306900E94AC238CE094E00E94A223B0E1CB162C
S11306A0D10498F480910C04FE01E00FF11F8583BE
S11306B080E3FE01E00FF11F8483FE01E00FF11FD0
S11306C08383FE01EE0DFF1D8183C6014097803FA9
S11306D09105B8F4ACE0B4E011968C911197FE0149
S11306E0E00FF11F85838C91FE01E00FF11F8483DD
S11306F080E3FE01E00FF11F8383FE01EE0DFF1D79
S11307008183C6019A9581159F40B8F4ECE0F4E02A
S11307108281DE01A00FB11F15968C938181DE01C9
S1130720A00FB11F14968C9314978081FD018383CD
S113073080E3FE01EE0DFF1D8183C11480E1D80624
S1130740C0F0DE01AE0DBF1DECE0F4E08081119637
S11307508C938181DE01A00FB11F13968C9382814B
S1130760DE01A00FB11F14968C9314978381FD01B1
S11307708583C8010596FE01E80FF91F2DE021834A
S113078099230CF43EC0AE014F5F5F4F0A5F1F4FC9
S1130790040F151FEAEFF4E061EC70E030E0DA01D9
S11307A08D91AD01F89421819081291304C0DB015E
S11307B09C9190629C939081A381B481A90FB11DF7
S11307C08C932081A22FB0E0828190E00197A8173A
S11307D0B90711F02F5F01C0232F208378944017AD
S11307E05107E9F60EC040E16CE074E080E090E06F
S11307F00E94AC238CE094E00E94A223C12CD12C53
S113080051CFA8960FB6F894DEBF0FBECDBFDF91CF
S1130810CF911F910F91FF90EF90DF90CF900895AB
S11308201F920F920FB60F9211242F933F934F9361
S11308305F938F939F93AF93BF93EF93FF93EAEFED
S1130840F4E0918180819817B9F08181A381B4810A
S1130850A80FB11D3C912181422F50E0828190E08C
S113086001974817590711F02F5F01C020E020932A
S1130870FB043093C60005C0E1ECF0E080818F7D7D
S11308808083FF91EF91BF91AF919F918F915F9181
S11308904F913F912F910F900FBE0F901F9018957D
S11308A01F920F920FB60F9211242F934F935F93C1
S11308B08F939F93AF93BF93EF93FF938091C60061
S11308C0E1E1F4E09081A381B481A90FB11D8C937F
S11308D02081422F50E0828190E001974817590708
S11308E011F02F5F01C020E020931104FF91EF91DC
S11308F0BF91AF919F918F915F914F912F910F90E5
S11309000FBE0F901F9018951F920F920FB60F9263
S113091011242F933F938F939F93EF93FF93E4E7D7
S1130920F4E08081918101969183808320813181DB
S113093080917604909177042817390734F48091D4
S11309407804882319F0409A01C040988091740477
S1130950909175048436910524F0109275041092D8
S11309607404E7EDF4E080819181019691838083A2
S1130970208131818091D9049091DA0428173907B4
S113098034F48091DB04882319F0419A01C0419822
S11309908091D7049091D8048436910524F0109264
S11309A0D8041092D704E5E0F3E0808191810196A8
S11309B09183808320813181809107039091080382
S11309C02817390734F480910903882319F0429ACF
S11309D001C04298809105039091060384369105E5
S11309E024F01092060310920503E0EAF1E08081FE
S11309F09181019691838083208131818091A2012C
S1130A009091A3012817390734F48091A401882315
S1130A1019F0439A01C043988091A0019091A101DB
S1130A208436910524F01092A1011092A001FF9147
S1130A30EF919F918F913F912F910F900FBE0F9047
S1130A401F9018951F920F920FB60F921124CF92F8
S1130A50DF92EF92FF920F931F932F933F934F9345
S1130A605F936F937F938F939F93AF93BF93CF9332
S1130A70DF93EF93FF9378945B9A5C9881E08EBD4B
S1130A800DB407FEFDCF8EB51EBC0DB407FEFDCF21
S1130A909EB58BB1806F8BB95C9882E08EBD0DB42E
S1130AA007FEFDCF8EB51EBC0DB407FEFDCF6EB59F
S1130AB08BB1806F8BB970E0792B75956795072E94
S1130AC0000C880B990B0E94E92120E030E040E003
S1130AD05DE30E949D2220E030E040E853E40E9460
S1130AE04D21E6E1F4E06483758386839783648112
S1130AF075818681978120E030E040EF52E40E94C6
S1130B00992218162CF41092780488B1807F88B941
S1130B100091400110914101C6E1D4E068817981DE
S1130B208A819B812C813D814E815F810E944D2170
S1130B30000F111F000F111FF801E25CFB4F6083CF
S1130B40718382839383E0914001F0914101EE0F20
S1130B50FF1FEE0FFF1FE25CFB4F608171818281FA
S1130B6093812C8D3D8D4E8D5F8D0E949D226887D3
S1130B7079878A879B87CC84DD84EE84FF84E09127
S1130B804001F0914101EE0FFF1FEE0FFF1FE25CE9
S1130B90FB4F608171818281938128A139A14AA18F
S1130BA05BA10E949D229B01AC01C701B6010E947A
S1130BB04E216C877D878E879F876C857D858E858A
S1130BC09F8520E030E040E251E40E94992218160B
S1130BD064F480E090E0A0E2B1E480932204909376
S1130BE02304A0932404B0932504609122047091FB
S1130BF02304809124049091250420E030E040E215
S1130C0051EC0E94B221882364F480E090E0A0E2D9
S1130C10B1EC8093220490932304A0932404B09312
S1130C202504E0914001F0914101C6E1D4E0EE0FCA
S1130C30FF1FEE0FFF1FE25CFB4F60817181828119
S1130C409381E0910001F0910101EE0FFF1FEE0F7F
S1130C50FF1FE25CFB4F2081318142815381CCA094
S1130C60DDA0EEA0FFA00E944D21A70196010E94E5
S1130C709D22688B798B8A8B9B8B688579858A8585
S1130C809B852C853D854E855F85C888D988EA88F3
S1130C90FB880E944E21A70196010E944E21688F75
S1130CA0798F8A8F9B8FC88CD98CEA8CFB8C688156
S1130CB079818A819B812DE33AE047E55EE30E94D6
S1130CC09D229B01AC01C701B6010E944E2120E088
S1130CD030E040EA50E40E944D216C8B7D8B8E8B7A
S1130CE09F8B6C897D898E899F890E9400230E9435
S1130CF0B621709377046093760468A579A58AA5D4
S1130D009BA50E94B6219B01772324F42227332735
S1130D10261B370B2630310544F010922204109222
S1130D202304109224041092250460913E047091CF
S1130D303F048091400490914104C0906A04D09093
S1130D406B04E0906C04F0906D040E94B6219B014A
S1130D50772324F422273327261B370BB901330FBB
S1130D60880B990B0E94E921A70196010E94B221E8
S1130D70181644F0EEE6F4E08081918101969183A7
S1130D80808304C010926F0410926E0420916E044C
S1130D9030916F0480917004909171042817390781
S1130DA03CF081E090E0909373048093720404C05B
S1130DB010927304109272045D9881E08EBD0DB49C
S1130DC007FEFDCF8EB51EBC0DB407FEFDCF9EB54C
S1130DD08BB1806F8BB95D9882E08EBD0DB407FE38
S1130DE0FDCF8EB51EBC0DB407FEFDCF6EB58BB125
S1130DF0806F8BB970E0792B75956795072E000C81
S1130E00880B990B0E94E92120E030E040E05DE38B
S1130E100E949D2220E030E040E853E40E944D21EE
S1130E20E9E7F4E06483758386839783648175813D
S1130E308681978120E030E040EF52E40E949922BD
S1130E4018162CF41092DB0488B1807F88B90091C5
S1130E50400110914101C9E7D4E0688179818A8118
S1130E609B812C813D814E815F810E944D21000F29
S1130E70111F000F111FF801EF55FB4F60837183A1
S1130E8082839383E0914001F0914101EE0FFF1FB3
S1130E90EE0FFF1FEF55FB4F6081718182819381BB
S1130EA02C8D3D8D4E8D5F8D0E949D2268877987A4
S1130EB08A879B87CC84DD84EE84FF84E0914001A3
S1130EC0F0914101EE0FFF1FEE0FFF1FEF55FB4F97
S1130ED0608171818281938128A139A14AA15BA19A
S1130EE00E949D229B01AC01C701B6010E944E21C4
S1130EF06C877D878E879F876C857D858E859F8592
S1130F0020E030E040E251E40E949922181664F493
S1130F1080E090E0A0E2B1E480938504909386049D
S1130F20A0938704B093880460918504709186042B
S1130F30809187049091880420E030E040E251ECF5
S1130F400E94B221882364F480E090E0A0E2B1EC36
S1130F508093850490938604A0938704B0938804B7
S1130F60E0914001F0914101C9E7D4E0EE0FFF1F89
S1130F70EE0FFF1FEF55FB4F6081718182819381DA
S1130F80E0910001F0910101EE0FFF1FEE0FFF1F32
S1130F90EF55FB4F2081318142815381CCA0DDA0EC
S1130FA0EEA0FFA00E944D21A70196010E949D2260
S1130FB0688B798B8A8B9B8B688579858A859B85E1
S1130FC02C853D854E855F85C888D988EA88FB884D
S1130FD00E944E21A70196010E944E21688F798FAD
S1130FE08A8F9B8FC88CD98CEA8CFB8C6881798121
S1130FF08A819B812DE33AE047E55EE30E949D22CE
S11310009B01AC01C701B6010E944E2120E030E0F3
S113101040EA50E40E944D216C8B7D8B8E8B9F8B1C
S11310206C897D898E899F890E9400230E94B62144
S11310307093DA046093D90468A579A58AA59BA561
S11310400E94B6219B01772324F422273327261BF1
S1131050370B2630310544F0109285041092860433
S113106010928704109288046091A1047091A204E4
S11310708091A3049091A404C090CD04D090CE0498
S1131080E090CF04F090D0040E94B6219B01772316
S113109024F422273327261B370BB901330F880B7F
S11310A0990B0E94E921A70196010E94B22118160A
S11310B044F0E1EDF4E08081918101969183808395
S11310C004C01092D2041092D1042091D104309122
S11310D0D2048091D3049091D404281739073CF0AA
S11310E081E090E09093D6048093D50404C01092DC
S11310F0D6041092D5045E9881E08EBD0DB407FE2F
S1131100FDCF8EB51EBC0DB407FEFDCF9EB58BB1D1
S1131110806F8BB95E9882E08EBD0DB407FEFDCF63
S11311208EB51EBC0DB407FEFDCF6EB58BB1806FBE
S11311308BB970E0792B75956795072E000C880B99
S1131140990B0E94E92120E030E040E05DE30E9439
S11311509D2220E030E040E853E40E944D21E7EA7C
S1131160F2E06483758386839783648175818681C5
S1131170978120E030E040EF52E40E949922181653
S11311802CF41092090388B1807F88B90091400142
S113119010914101C7EAD2E0688179818A819B81FB
S11311A02C813D814E815F810E944D21000F111FD2
S11311B0000F111FF801E153FD4F60837183828397
S11311C09383E0914001F0914101EE0FFF1FEE0F78
S11311D0FF1FE153FD4F60817181828193812C8DCA
S11311E03D8D4E8D5F8D0E949D22688779878A8709
S11311F09B87CC84DD84EE84FF84E0914001F091F0
S11312004101EE0FFF1FEE0FFF1FE153FD4F608101
S113121071818281938128A139A14AA15BA10E9495
S11312209D229B01AC01C701B6010E944E216C872F
S11312307D878E879F876C857D858E859F8520E041
S113124030E040E251E40E949922181664F480E0F0
S113125090E0A0E2B1E48093B3029093B402A0932F
S1131260B502B093B6026091B3027091B40280915A
S1131270B5029091B60220E030E040E251EC0E94C9
S1131280B221882364F480E090E0A0E2B1EC809382
S1131290B3029093B402A093B502B093B602E09166
S11312A04001F0914101C7EAD2E0EE0FFF1FEE0FBB
S11312B0FF1FE153FD4F6081718182819381E09131
S11312C00001F0910101EE0FFF1FEE0FFF1FE1532C
S11312D0FD4F2081318142815381CCA0DDA0EEA05D
S11312E0FFA00E944D21A70196010E949D22688BB8
S11312F0798B8A8B9B8B688579858A859B852C85E0
S11313003D854E855F85C888D988EA88FB880E9418
S11313104E21A70196010E944E21688F798F8A8FF2
S11313209B8FC88CD98CEA8CFB8C688179818A81EB
S11313309B812DE33AE047E55EE30E949D229B01F9
S1131340AC01C701B6010E944E2120E030E040EA22
S113135050E40E944D216C8B7D8B8E8B9F8B6C890E
S11313607D898E899F890E9400230E94B6217093F3
S113137008036093070368A579A58AA59BA50E9425
S1131380B6219B01772324F422273327261B370B0E
S11313902630310544F01092B3021092B402109238
S11313A0B5021092B6026091CF027091D002809182
S11313B0D1029091D202C090FB02D090FC02E09046
S11313C0FD02F090FE020E94B6219B01772324F4D3
S11313D022273327261B370BB901330F880B990BB0
S11313E00E94E921A70196010E94B221181644F037
S11313F0EFEFF2E08081918101969183808304C0B4
S1131400109200031092FF022091FF02309100031A
S11314108091010390910203281739073CF081E081
S113142090E0909304038093030304C01092040398
S1131430109203035F9881E08EBD0DB407FEFDCFCB
S11314408EB51EBC0DB407FEFDCF9EB58BB1806F6B
S11314508BB95F9882E08EBD0DB407FEFDCF8EB5CB
S11314601EBC0DB407FEFDCF6EB58BB1806F8BB97A
S113147070E0792B75956795072E000C880B990BF6
S11314800E94E92120E030E040E05DE30E949D22DB
S113149020E030E040E853E40E944D21E2E4F1E032
S11314A0648375838683978364817581868197813C
S11314B020E030E040EF52E40E94992218162CF408
S11314C01092A40188B1807F88B9009140011091E5
S11314D04101C2E4D1E0688179818A819B812C81B8
S11314E03D814E815F810E944D21000F111F000F2D
S11314F0111FF801E659FE4F608371838283938341
S1131500E0914001F0914101EE0FFF1FEE0FFF1F2C
S1131510E659FE4F60817181828193812C8D3D8DCE
S11315204E8D5F8D0E949D22688779878A879B876D
S1131530CC84DD84EE84FF84E0914001F09141018C
S1131540EE0FFF1FEE0FFF1FE659FE4F6081718102
S11315508281938128A139A14AA15BA10E949D2285
S11315609B01AC01C701B6010E944E216C877D87A7
S11315708E879F876C857D858E859F8520E030E0F2
S113158040E251E40E949922181664F480E090E04D
S1131590A0E2B1E480934E0190934F01A0935001D7
S11315A0B093510160914E0170914F0180915001AF
S11315B09091510120E030E040E251EC0E94B221D0
S11315C0882364F480E090E0A0E2B1EC80934E01C3
S11315D090934F01A0935001B0935101E0914001C9
S11315E0F0914101C2E4D1E0EE0FFF1FEE0FFF1FA7
S11315F0E659FE4F6081718182819381E0910001FF
S1131600F0910101EE0FFF1FEE0FFF1FE659FE4F91
S11316102081318142815381CCA0DDA0EEA0FFA0C6
S11316200E944D21A70196010E949D22688B798B0F
S11316308A8B9B8B688579858A859B852C853D85DE
S11316404E855F85C888D988EA88FB880E944E2128
S1131650A70196010E944E21688F798F8A8F9B8FF4
S1131660C88CD98CEA8CFB8C688179818A819B81B6
S11316702DE33AE047E55EE30E949D229B01AC0125
S1131680C701B6010E944E2120E030E040EA50E458
S11316900E944D216C8B7D8B8E8B9F8B6C897D89F9
S11316A08E899F890E9400230E94B6217093A30112
S11316B06093A20168A579A58AA59BA50E94B6217D
S11316C09B01772324F422273327261B370B26304C
S11316D0310544F010924E0110924F0110925001C6
S11316E01092510160916A0170916B0180916C01BB
S11316F090916D01C0909601D0909701E09098016F
S1131700F09099010E94B6219B01772324F42227AB
S11317103327261B370BB901330F880B990B0E9413
S1131720E921A70196010E94B221181644F0EAE9C2
S1131730F1E08081918101969183808304C01092AD
S11317409B0110929A0120919A0130919B01809102
S11317509C0190919D01281739073CF081E090E0AD
S113176090939F0180939E0104C010929F01109258
S11317709E01809140019091410101969093410115
S11317808093400180914001909141010B9724F096
S113179010924101109240018091400190914101C9
S11317A00196909301018093000180910001909132
S11317B001010B9724F010920101109200015B9833
S11317C0FF91EF91DF91CF91BF91AF919F918F9155
S11317D07F916F915F914F913F912F911F910F9145
S11317E0FF90EF90DF90CF900F900FBE0F901F905F
S11317F018958F929F92AF92BF92CF92DF92EF9201
S1131800FF920F931F93CF93DF93CDB7DEB7649707
S11318100FB6F894DEBF0FBECDBF4B015C018A0149
S11318200E94B6216B017C0184E1F80111928A9532
S1131830E9F74AE0B801C6010E94AC23F80101901F
S11318400020E9F731978EE290E091838083B6011E
S1131850DD0C880B990B0E94E9219B01AC01C501A9
S1131860B4010E944D2120E030E04AE754E40E9494
S11318709D220E94B6219B01772324F4222733273B
S1131880261B370B4AE0BE016F5F7F4FC9010E94E0
S1131890AC2380E090E0DE01119623E030E040E3E9
S11318A050E008C0F80101900020E9F73197518316
S11318B040830196FD0101900020E9F73197EA1B6E
S11318C0FB0BB9016E1B7F0B8617970758F3BE01FC
S11318D06F5F7F4FC8010E94782364960FB6F89417
S11318E0DEBF0FBECDBFDF91CF911F910F91FF904F
S11318F0EF90DF90CF90BF90AF909F908F9008951E
S1131900CF93DF93CDB7DEB7CF55D1090FB6F89497
S1131910DEBF0FBECDBF80E1E2E0F1E0DE0115964F
S113192001900D928A95E1F71D8A1E8A1F8A188EEE
S1131930F8940E94A401789424988CE284B98DE5EB
S11319408CBD0F2EF6E1AF2EF4E0BF2EF02D81E01A
S113195090E090937704809376040F2EF9E7CF2ECE
S1131960F4E0DF2EF02D9093DA048093D9040F2E47
S1131970F7EAEF2EF2E0FF2EF02D90930803809308
S1131980070302E411E09093A3018093A20188EF7E
S11319908AB98FE087B9219A8BB1806F8BB980E0C7
S11319A090E00E946925D5016D937D938D939C935E
S11319B0139784E090E00E946925F501648F758F88
S11319C0868F978F88E090E00E946925D5019096D4
S11319D06D937D938D939C9393978CE090E00E94FC
S11319E06925F50164A375A386A397A380E190E01C
S11319F00E946925D6016D937D938D939C931397D3
S1131A0084E190E00E946925F601648F758F868FCA
S1131A10978F88E190E00E946925D60190966D9396
S1131A207D938D939C9393978CE190E00E9469251C
S1131A30F60164A375A386A397A380E290E00E94B5
S1131A406925D7016D937D938D939C93139784E2BD
S1131A5090E00E946925F701648F758F868F978FB8
S1131A6088E290E00E946925D70190966D937D935A
S1131A708D939C9393978CE290E00E946925F701E3
S1131A8064A375A386A397A380E390E00E946925CD
S1131A90D8016D937D938D939C93139784E390E089
S1131AA00E946925F801648F758F868F978F88E36C
S1131AB090E00E946925D80190966D937D938D9353
S1131AC09C9393978CE390E00E946925F80164A3AA
S1131AD075A386A397A361E083EC0E940C0262E0E5
S1131AE083EC0E940C0263E083EC0E940C0264E02D
S1131AF083EC0E940C0282E080936E0084BD95E02A
S1131B0095BD90E197BD809370008093B00087E00D
S1131B108093B1008FEF8093B30078940F2EFCED87
S1131B20AF2EF4E0BF2EF02D0F2EF1E14F2EF4E096
S1131B305F2EF02D0F2EFAEF2F2EF4E03F2EF02D16
S1131B409E012A5B3F4F6C963FAF2EAF6C976D960C
S1131B50AFAE6D976E96BFAE6E976F96AFAE6F9742
S1131B60A096BFAEA0976B96CFAC6B976C96DFAC8C
S1131B706C976C2C7D2C0F2EFAEF8F2EF4E09F2E99
S1131B80F02D0EE110E0D501E02F1D92EA95E9F762
S1131B90D20113964D915C91149712962C9130E0DA
S1131BA0215031096F96EFAD6F97A096FFADA097C6
S1131BB0D20111968C9111979C919817C9F31196A3
S1131BC08C91DA01A80FB11D9C91D20111968C91D0
S1131BD0682F70E06217730711F08F5F01C0812FC7
S1131BE0D20111968C9391939D3019F0E215F3056F
S1131BF0F9F6F5018081833231F66FE370E06D967A
S1131C008FAD6D976E969FAD6E970E9483238C0166
S1131C10009711F40C942117E5EAF1E0DC01119628
S1131C208C911197808312968C91818366E171E087
S1131C30CF010E948E23892B09F03FC0ECE0F4E031
S1131C40D80113968C911397808314968C911497D2
S1131C50818315968C911597828316968C91838334
S1131C606EE170E06D968FAD6D976E969FAD6E9739
S1131C700E949723BC01655071096D968FAD6D97D5
S1131C806E969FAD6E970E942D0240E1BE01675E85
S1131C907F4F0E94AC23BE01675E7F4F8CE094E0CF
S1131CA00E947C02882329F0CE0105960E94D90265
S1131CB004C089E191E00E94D90263E271E085EAFF
S1131CC091E00E948E23892B11F00C942117F801C6
S1131CD08381898384818A8385818B83ECE0F4E02A
S1131CE0D80116968C911697808317968C91179726
S1131CF0818318968C911897828319968C9183838B
S1131D006EE170E06D968FAD6D976E969FAD6E9798
S1131D100E949723BC01655071096D968FAD6D9734
S1131D206E969FAD6E970E942D0240E1BE01675EE4
S1131D307F4F0E94AC23BE01675E7F4F8CE094E02E
S1131D400E947C02882311F40C941D17CE01019685
S1131D500E945223CB01770FAA0BBB0BFC01E45664
S1131D60F109E433B1E0FB0710F00C941817EC5CB4
S1131D70FF4F0C94492360911A0470911B048091C5
S1131D801C0490911D04462D572D33DD81E28E8F66
S1131D90F50181818F8F828188A3838189A3E62DB8
S1131DA0F72DDE01929600E010E0AF0106C0FA01C3
S1131DB08191AF018D930F5F1F4F6C96EEADFFAD18
S1131DC06C9701900020E9F7CF016C962EAD3FADE2
S1131DD06C97821B930B02960817190740F378013E
S1131DE03FEFE31AF30A1E141F0414F00C94FF20AF
S1131DF0DE015E966701CA0EDB1EE0E0F0E098E0CB
S1131E0080E04D912F2F332727FD3A952427322F39
S1131E102227492F582F33233CF4220F331F61E22A
S1131E20262760E1362702C0220F331F4150510993
S1131E3091F7FE2FEE27E227F327AC15BD0509F72E
S1131E406F0140E16CE074E0CF010E94AC238CE0B0
S1131E5094E00E94A22380E1C816D10498F48091F2
S1131E600C04FE01E00FF11F82A380E3FE01E00FEA
S1131E70F11F81A3FE01E00FF11F80A3FE01EE0D0F
S1131E80FF1D868FC6014097803F9105B8F4ACE0F2
S1131E90B4E011968C911197FE01E00FF11F82A31B
S1131EA08C91FE01E00FF11F81A380E3FE01E00F9E
S1131EB0F11F80A3FE01EE0DFF1D868FC6019A95CA
S1131EC081159F40B8F4ECE0F4E08281DE01A00FBC
S1131ED0B11F92968C938181DE01A00FB11F919660
S1131EE08C9391978081FD0180A380E3FE01EE0D28
S1131EF0FF1D868FC114B0E1DB06C0F0DE01AE0D1C
S1131F00BF1DECE0F4E080815E968C938181DE015C
S1131F10A00FB11F90968C938281DE01A00FB11F98
S1131F2091968C9391978381FD0182A3C8010596B4
S1131F30FE01E80FF91F2DE0268F99230CF481C7C9
S1131F40FE017E96A8014A5F5F4F4E0F5F1F90E02F
S1131F502191F894D40111963C9111978C913813E6
S1131F6005C0A1ECB0E08C9180628C93D4018C917B
S1131F7013966D917C911497DB01A80FB11D2C93DE
S1131F80D4018C91682F70E012962C9130E021508E
S1131F9031096217730711F08F5F01C0892FD401D3
S1131FA08C937894E417F50799F64BC760911E0457
S1131FB070911F048091200490912104462D572D87
S1131FC018DC81E28E8FF50181818F8F828188A355
S1131FD0838189A3E62DF72DDE01929600E010E0BF
S1131FE0AF0106C0FA018191AF018D930F5F1F4FBE
S1131FF06C96EEADFFAD6C9701900020E9F7CF0130
S11320006C962EAD3FAD6C97821B930B029608170E
S1132010190740F378013FEFE31AF30A1E141F0473
S113202014F00C940C21DE015E966701CA0EDB1ECF
S1132030E0E0F0E098E080E04D912F2F332727FD7A
S11320403A952427322F2227492F582F33233CF443
S1132050220F331F61E2262760E1362702C0220FD8
S1132060331F4150510991F7FE2FEE27E227F32742
S1132070AC15BD0509F76F0140E16CE074E0CF01D8
S11320800E94AC238CE094E00E94A22380E1C81655
S1132090D10498F480910C04FE01E00FF11F82A397
S11320A080E3FE01E00FF11F81A3FE01E00FF11FA9
S11320B080A3FE01EE0DFF1D868FC6014097803F71
S11320C09105B8F4ACE0B4E011968C911197FE013F
S11320D0E00FF11F82A38C91FE01E00FF11F81A399
S11320E080E3FE01E00FF11F80A3FE01EE0DFF1D52
S11320F0868FC6019A9581159F40B8F4ECE0F4E010
S11321008281DE01A00FB11F92968C938181DE0142
S1132110A00FB11F91968C9391978081FD0180A3AC
S113212080E3FE01EE0DFF1D868FC114B0E1DB06D6
S1132130C0F0DE01AE0DBF1DECE0F4E080815E96E0
S11321408C938181DE01A00FB11F90968C938281C4
S1132150DE01A00FB11F91968C9391978381FD01AD
S113216082A3C8010596FE01E80FF91F2DE0268F12
S113217099230CF466C6FE017E96A8014A5F5F4F60
S11321804E0F5F1F90E02191F894D40111963C9179
S113219011978C91381305C0A1ECB0E08C9180624A
S11321A08C93D4018C9113966D917C911497DB01DF
S11321B0A80FB11D2C93D4018C91682F70E0129656
S11321C02C9130E0215031096217730711F08F5FB1
S11321D001C0892FD4018C937894E417F50799F6FC
S11321E030C660912204709123048091240490915C
S11321F02504462D572DFDDA81E28E8FF50181816C
S11322008F8F828188A3838189A3E62DF72DDE0138
S1132210929600E010E0AF0106C0FA018191AF018F
S11322208D930F5F1F4F6C96EEADFFAD6C970190D1
S11322300020E9F7CF016C962EAD3FAD6C97821B61
S1132240930B02960817190740F378013FEFE31A3E
S1132250F30A1E141F0414F00C941921DE015E9677
S11322606701CA0EDB1EE0E0F0E098E080E04D91EB
S11322702F2F332727FD3A952427322F2227492F42
S1132280582F33233CF4220F331F61E2262760E1E9
S1132290362702C0220F331F4150510991F7FE2FF8
S11322A0EE27E227F327AC15BD0509F76F0140E1DE
S11322B06CE074E0CF010E94AC238CE094E00E94B7
S11322C0A22380E1C816D10498F480910C04FE0185
S11322D0E00FF11F82A380E3FE01E00FF11F81A351
S11322E0FE01E00FF11F80A3FE01EE0DFF1D868F9E
S11322F0C6014097803F9105B8F4ACE0B4E0119674
S11323008C911197FE01E00FF11F82A38C91FE01C5
S1132310E00FF11F81A380E3FE01E00FF11F80A312
S1132320FE01EE0DFF1D868FC6019A9581159F4013
S1132330B8F4ECE0F4E08281DE01A00FB11F9296C4
S11323408C938181DE01A00FB11F91968C9391979C
S11323508081FD0180A380E3FE01EE0DFF1D868FC9
S1132360C114B0E1DB06C0F0DE01AE0DBF1DECE030
S1132370F4E080815E968C938181DE01A00FB11F11
S113238090968C938281DE01A00FB11F91968C935D
S113239091978381FD0182A3C8010596FE01E80F90
S11323A0F91F2DE0268F99230CF44BC5FE017E9670
S11323B0A8014A5F5F4F4E0F5F1F90E02191F89490
S11323C0D40111963C9111978C91381305C0A1EC5E
S11323D0B0E08C9180628C93D4018C9113966D91B2
S11323E07C911497DB01A80FB11D2C93D4018C911F
S11323F0682F70E012962C9130E021503109621759
S1132400730711F08F5F01C0892FD4018C937894E6
S1132410E417F50799F615C5609126047091270411
S11324208091280490912904462D572DE2D981E208
S11324308E8FF50181818F8F828188A3838189A307
S1132440E62DF72DDE01929600E010E0AF0106C004
S1132450FA018191AF018D930F5F1F4F6C96EEAD22
S1132460FFAD6C9701900020E9F7CF016C962EAD7B
S11324703FAD6C97821B930B02960817190740F324
S113248078013FEFE31AF30A1E141F0414F00C94AE
S11324902621DE015E966701CA0EDB1EE0E0F0E055
S11324A098E080E04D912F2F332727FD3A9524277C
S11324B0322F2227492F582F33233CF4220F331F66
S11324C061E2262760E1362702C0220F331F415004
S11324D0510991F7FE2FEE27E227F327AC15BD052E
S11324E009F76F0140E16CE074E0CF010E94AC2376
S11324F08CE094E00E94A22380E1C816D10498F4F1
S113250080910C04FE01E00FF11F82A380E3FE0121
S1132510E00FF11F81A3FE01E00FF11F80A3FE0174
S1132520EE0DFF1D868FC6014097803F9105B8F4DC
S1132530ACE0B4E011968C911197FE01E00FF11F0D
S113254082A38C91FE01E00FF11F81A380E3FE01C1
S1132550E00FF11F80A3FE01EE0DFF1D868FC60163
S11325609A9581159F40B8F4ECE0F4E08281DE0195
S1132570A00FB11F92968C938181DE01A00FB11F31
S113258091968C9391978081FD0180A380E3FE0155
S1132590EE0DFF1D868FC114B0E1DB06C0F0DE0135
S11325A0AE0DBF1DECE0F4E080815E968C938181DA
S11325B0DE01A00FB11F90968C938281DE01A00FE3
S11325C0B11F91968C9391978381FD0182A3C801D9
S11325D00596FE01E80FF91F2DE0268F99230CF4D0
S11325E030C4FE017E96A8014A5F5F4F4E0F5F1F05
S11325F090E02191F894D40111963C9111978C911B
S1132600381305C0A1ECB0E08C9180628C93D401A6
S11326108C9113966D917C911497DB01A80FB11DD9
S11326202C93D4018C91682F70E012962C9130E099
S1132630215031096217730711F08F5F01C0892F90
S1132640D4018C937894E417F50799F6FAC3609152
S11326501604709117048091180490911904462D62
S1132660572DC7D881E28E8FF50181818F8F8281AA
S113267088A3838189A3E62DF72DDE01929600E0DD
S113268010E0AF0106C0FA018191AF018D930F5F95
S11326901F4F6C96EEADFFAD6C9701900020E9F7EB
S11326A0CF016C962EAD3FAD6C97821B930B0296B7
S11326B00817190740F378013FEFE31AF30A1E14D1
S11326C01F0414F00C943321DE015E966701CA0ED8
S11326D0DB1EE0E0F0E098E080E04D912F2F3327FF
S11326E027FD3A952427322F2227492F582F3323A9
S11326F03CF4220F331F61E2262760E1362702C033
S1132700220F331F4150510991F7FE2FEE27E22784
S1132710F327AC15BD0509F76F0140E16CE074E0E7
S1132720CF010E94AC238CE094E00E94A22380E1BC
S1132730C816D10498F480910C04FE01E00FF11F37
S113274082A380E3FE01E00FF11F81A3FE01E00FED
S1132750F11F80A3FE01EE0DFF1D868FC601409779
S1132760803F9105B8F4ACE0B4E011968C911197D8
S1132770FE01E00FF11F82A38C91FE01E00FF11F17
S113278081A380E3FE01E00FF11F80A3FE01EE0DA3
S1132790FF1D868FC6019A9581159F40B8F4ECE021
S11327A0F4E08281DE01A00FB11F92968C938181A7
S11327B0DE01A00FB11F91968C9391978081FD014A
S11327C080A380E3FE01EE0DFF1D868FC114B0E1EE
S11327D0DB06C0F0DE01AE0DBF1DECE0F4E080814D
S11327E05E968C938181DE01A00FB11F90968C932D
S11327F08281DE01A00FB11F91968C939197838102
S1132800FD0182A3C8010596FE01E80FF91F2DE022
S1132810268F99230CF415C3FE017E96A8014A5F06
S11328205F4F4E0F5F1F90E02191F894D4011196F1
S11328303C9111978C91381305C0A1ECB0E08C91B8
S113284080628C93D4018C9113966D917C91149732
S1132850DB01A80FB11D2C93D4018C91682F70E07B
S113286012962C9130E0215031096217730711F050
S11328708F5F01C0892FD4018C937894E417F507F6
S113288099F6DFC26091320470913304809134046C
S113289090913504462D572D0E94F90B862D972DC6
S11328A00E94D902CEC2609136047091370480919F
S11328B0380490913904462D572D0E94F90B862D2A
S11328C0972D0E94D902BDC260913A0470913B04D5
S11328D080913C0490913D04462D572D0E94F90BA4
S11328E0862D972D0E94D902ACC260917D0470910F
S11328F07E0480917F0490918004462D572D0E9480
S1132900F90B862D972D0E94D9029BC260918104F8
S1132910709182048091830490918404462D572DF4
S11329200E94F90B862D972D0E94D9028AC26091CC
S11329308504709186048091870490918804462DC3
S1132940572D0E94F90B862D972D0E94D90279C22A
S11329506091890470918A0480918B0490918C0415
S1132960462D572D0E94F90B862D972D0E94D902D2
S113297068C26091790470917A0480917B0490918B
S11329807C04462D572D0E94F90B862D972D0E940D
S1132990D90257C26091950470919604809197046E
S11329A090919804462D572D0E94F90B862D972D52
S11329B00E94D90246C26091990470919A04809150
S11329C09B0490919C04462D572D0E94F90B862D53
S11329D0972D0E94D90235C260919D0470919E0486
S11329E080919F049091A004462D572D0E94F90BCD
S11329F0862D972D0E94D90224C26091AB0270915A
S1132A00AC028091AD029091AE02462D572D0E94EA
S1132A10F90B862D972D0E94D90213C26091AF0243
S1132A207091B0028091B1029091B202462D572D5F
S1132A300E94F90B862D972D0E94D90202C2609143
S1132A40B3027091B4028091B5029091B602462D02
S1132A50572D0E94F90B862D972D0E94D902F1C1A2
S1132A606091B7027091B8028091B9029091BA0254
S1132A70462D572D0E94F90B862D972D0E94D902C1
S1132A80E0C16091A7027091A8028091A90290917F
S1132A90AA02462D572D0E94F90B862D972D0E94D0
S1132AA0D902CFC16091C3027091C4028091C50262
S1132AB09091C602462D572D0E94F90B81E28E8F0C
S1132AC0F50181818F8F828188A3838189A3E62D7B
S1132AD0F72DDE01929600E010E0AF0106C0FA0186
S1132AE08191AF018D930F5F1F4F6C96EEADFFADDB
S1132AF06C9701900020E9F7CF016C962EAD3FADA5
S1132B006C97821B930B02960817190740F3780100
S1132B103FEFE31AF30A1E141F0414F00C9440212F
S1132B20DE015E966701CA0EDB1EE0E0F0E098E08D
S1132B3080E04D912F2F332727FD3A952427322FFC
S1132B402227492F582F33233CF4220F331F61E2ED
S1132B50262760E1362702C0220F331F4150510956
S1132B6091F7FE2FEE27E227F327AC15BD0509F7F1
S1132B706F0140E16CE074E0CF010E94AC238CE073
S1132B8094E00E94A22380E1C816D10498F48091B5
S1132B900C04FE01E00FF11F82A380E3FE01E00FAD
S1132BA0F11F81A3FE01E00FF11F80A3FE01EE0DD2
S1132BB0FF1D868FC6014097803F9105B8F4ACE0B5
S1132BC0B4E011968C911197FE01E00FF11F82A3DE
S1132BD08C91FE01E00FF11F81A380E3FE01E00F61
S1132BE0F11F80A3FE01EE0DFF1D868FC6019A958D
S1132BF081159F40B8F4ECE0F4E08281DE01A00F7F
S1132C00B11F92968C938181DE01A00FB11F919622
S1132C108C9391978081FD0180A380E3FE01EE0DEA
S1132C20FF1D868FC114B0E1DB06C0F0DE01AE0DDE
S1132C30BF1DECE0F4E080815E968C938181DE011F
S1132C40A00FB11F90968C938281DE01A00FB11F5B
S1132C5091968C9391978381FD0182A3C801059677
S1132C60FE01E80FF91F2DE0268F99230CF4E9C02B
S1132C70FE017E96A8014A5F5F4F4E0F5F1F90E0F2
S1132C802191F894D40111963C9111978C913813A9
S1132C9005C0A1ECB0E08C9180628C93D4018C913E
S1132CA013966D917C911497DB01A80FB11D2C93A1
S1132CB0D4018C91682F70E012962C9130E0215051
S1132CC031096217730711F08F5F01C0892FD40196
S1132CD08C937894E417F50799F6B3C06091C70212
S1132CE07091C8028091C9029091CA02462D572D55
S1132CF00E94F90B862D972D0E94D902A2C06091E3
S1132D00CB027091CC028091CD029091CE02462DDF
S1132D10572D0E94F90B862D972D0E94D90291C040
S1132D206091460170914701809148019091490159
S1132D30462D572D0E94F90B862D972D0E94D902FE
S1132D4080C060914A0170914B0180914C01909137
S1132D504D01462D572D0E94F90B862D972D0E946B
S1132D60D9026FC060914E0170914F018091500162
S1132D7090915101462D572D0E94F90B862D972DC8
S1132D800E94D9025EC060915201709153018091FA
S1132D90540190915501462D572D0E94F90B862D13
S1132DA0972D0E94D9024DC0609142017091430158
S1132DB08091440190914501462D572D0E94F90BB5
S1132DC0862D972D0E94D9023CC060915E017091BE
S1132DD05F018091600190916101462D572D0E9401
S1132DE0F90B862D972D0E94D9022BC060916201A8
S1132DF0709163018091640190916501462D572D76
S1132E000E94F90B862D972D0E94D9021AC0609159
S1132E106601709167018091680190916901462D66
S1132E20572D0E94F90B862D972D0E94D90209C0B7
S1132E3086E291E00E94D90204C089E191E00E94F7
S1132E40D90266E270E06D968FAD6D976E969FAD78
S1132E506E970E948323009711F40C94C10DFC011A
S1132E60A9E0B4E081818C93828111968C931197AF
S1132E708381898384818A8385818B836EE271E077
S1132E80CD010E948E23892B11F00C94BB0D6DE0B3
S1132E9070E0C5010E948323ECE0F4E0DC011497A8
S1132EA02C91208311962C91218311962C912283AD
S1132EB011968C9183836EE170E0C5010E94972383
S1132EC0BC0165507109C5010E942D0240E1BE019B
S1132ED0675E7F4F0E94AC23BE01675E7F4F8CE02C
S1132EE094E00E947C02882311F40C94F920CE0112
S1132EF001960E9452236E35B1E07B0709F45CC44D
S1132F009CF56A39710509F454C2ACF4673971054A
S1132F1009F487C034F46639710509F459C00C9476
S1132F2049206839710509F4A5C06939710509F4A6
S1132F3073C10C9449206C3F710509F4D5C354F452
S1132F406A3F710509F49FC36B3F710509F4B4C36B
S1132F500C9449206D3F710509F4EEC36E3F710571
S1132F6009F411C40C944920623CF1E07F0709F490
S1132F70D9C494F4603631E0730709F46BC40CF4DB
S1132F8042C46136B1E07B0709F48BC462367140F8
S1132F9009F4AEC40C944920653CF1E07F0709F4C0
S1132FA018C55CF4633C31E0730709F4E2C4643C83
S1132FB0714009F4F6C40C944920663CB1E07B07E7
S1132FC009F4C1C5643F714009F423C70C94492036
S1132FD06EE170E0C5010E94972305978B3091053F
S1132FE06CF0E6EEF4E0DE01AA5BBF4F84529B4F27
S1132FF09C0191919D93E217F307D9F7CE018A5B67
S11330009F4F0E944F23609316047093170480937C
S113301018049093190487E391E00E94D9020C9458
S1133020B30D6EE170E0C5010E94972305978B30C4
S113303091056CF0E6EEF4E0DE01AA5BBF4F84522A
S11330409B4F9C0191919D93E217F307D9F7CE0111
S11330508A5B9F4F0E944F23609332047093330422
S1133060809334049093350487E391E00E94D9025D
S11330700C94B30D6EE170E0C5010E94972305978F
S11330808B3091056CF0E6EEF4E0DE01AA5BBF4FF5
S113309084529B4F9C0191919D93E217F307D9F7BA
S11330A0CE018A5B9F4F0E944F2360933604709336
S11330B03704809338049093390481E28E8FD501CC
S11330C011968C9111978F8F12968C91129788A3D9
S11330D013968C9189A31AA21BA21CA28E01025ED4
S11330E01F4FAE014E5D5F4FF80180E090E0B8E005
S11330F0F12C6191292F332727FD3A952627322F6A
S113310022276B2F7F2D33233CF4220F331FA1E2A0
S11331102A27A0E13A2702C0220F331F6150710908
S113312091F7982F882782279327E417F50709F743
S11331307C0140E16CE074E00E94AC238CE094E0FC
S11331400E94A223B0E1EB16F10438F480910C0440
S11331508DA380E38CA38BA38AA3C7014097803FF0
S1133160910548F4ECE0F4E081818DA380818CA387
S113317080E38BA38AA3C7019A9581159F4050F4DD
S1133180ECE0F4E082818DA381818CA380818BA308
S113319080E38AA3E114F0E1FF0650F0ECE0F4E0F0
S11331A080818AA381818BA382818CA383818DA357
S11331B08DE08EA3AE01495D5F4FEAEFF4E00F2E80
S11331C0F1ECCF2ED12CF02DF12CD8012D918D01C5
S11331D0F89491818081981304C0D6018C91806207
S11331E08C93308183819481830F911DDC012C9316
S11331F08081682F70E0228130E02150310962170C
S1133200730711F08F5F01C08F2D808378940417AA
S11332101507D9F60C94B30D6EE170E0C5010E9458
S1133220972305978B3091056CF0E6EEF4E0DE0110
S1133230AA5BBF4F84529B4F9C0191919D93E217CF
S1133240F307D9F7CE018A5B9F4F0E944F23609307
S11332503A0470933B0480933C0490933D0481E2D0
S11332608E8FF50181818F8F828188A3838189A3C9
S11332701AA21BA21CA28E01025E1F4FAE014E5D5C
S11332805F4FF80180E090E0B8E0F12C6191292FC4
S1133290332727FD3A952627322F22276B2F7F2DA0
S11332A033233CF4220F331FA1E22A27A0E13A275B
S11332B002C0220F331F6150710991F7982F88279C
S11332C082279327E417F50709F77C0140E16CE0B6
S11332D074E00E94AC238CE094E00E94A223B0E14D
S11332E0EB16F10438F480910C048DA380E38CA3D5
S11332F08BA38AA3C7014097803F910548F4ECE073
S1133300F4E081818DA380818CA380E38BA38AA3C5
S1133310C7019A9581159F4050F4ECE0F4E0828156
S11333208DA381818CA380818BA380E38AA3E11484
S1133330F0E1FF0650F0ECE0F4E080818AA38181A3
S11333408BA382818CA383818DA38DE08EA3AE0198
S1133350495D5F4FEAEFF4E00F2EF1ECCF2ED12C54
S1133360F02DF12CD8012D918D01F894918180815B
S1133370981304C0D6018C9180628C933081838130
S11333809481830F911DDC012C938081682F70E060
S1133390228130E0215031096217730711F08F5FE9
S11333A001C08F2D8083789404171507D9F60C94E7
S11333B0B30DF5018285813309F0B0C081E08093BB
S11333C0780481E28E8F81818F8F828188A38381AB
S11333D089A38FE48AA38EE48BA31CA21DA21EA240
S11333E08E01025E1F4FAE014C5D5F4FF80180E01D
S11333F090E0B8E0F12C6191292F332727FD3A950D
S11334002627322F22276B2F7F2D33233CF4220FC4
S1133410331FA1E22A27A0E13A2702C0220F331F5B
S11334206150710991F7982F882782279327E41711
S1133430F50709F77C0140E16CE074E00E94AC23DD
S11334408CE094E00E94A223B0E1EB16F10438F47E
S113345080910C048FA380E38EA38DA38CA3C7015A
S11334604097803F910548F4ECE0F4E081818FA31C
S113347080818EA380E38DA38CA3C7019A958115C7
S11334809F4050F4ECE0F4E082818FA381818EA30D
S113349080818DA380E38CA3E114F0E1FF0650F05A
S11334A0ECE0F4E080818CA381818DA382818EA3E2
S11334B083818FA38DE088A7AE01475D5F4FEAEF5C
S11334C0F4E00F2EF1ECCF2ED12CF02DF12CD801FD
S11334D02D918D01F89491818081981304C0D601B7
S11334E08C9180628C93308183819481830F911DB0
S11334F0DC012C938081682F70E0228130E0215020
S113350031096217730711F08F5F01C08F2D80831B
S1133510789404171507D9F60C94B30D803311F081
S11335200C94B30D1092780481E28E8FF5018181A1
S11335308F8F828188A3838189A38FE48AA386E401
S11335408BA38CA31DA21EA21FA28E01025E1F4F7D
S1133550AE014B5D5F4FF80180E090E0B8E0F12CE4
S11335606191292F332727FD3A952627322F2227C9
S11335706B2F7F2D33233CF4220F331FA1E22A2724
S1133580A0E13A2702C0220F331F6150710991F75D
S1133590982F882782279327E417F50709F77C01DA
S11335A040E16CE074E00E94AC238CE094E00E9463
S11335B0A223B0E1EB16F10438F480910C0488A73F
S11335C080E38FA38EA38DA3C7014097803F91050D
S11335D048F4ECE0F4E0818188A780818FA380E344
S11335E08EA38DA3C7019A9581159F4050F4ECE0FA
S11335F0F4E0828188A781818FA380818EA380E3F8
S11336008DA3E114F0E1FF0650F0ECE0F4E08081DA
S11336108DA381818EA382818FA3838188A78DE06E
S113362089A7AE01465D5F4FEAEFF4E00F2EF1EC9F
S1133630CF2ED12CF02DF12CD8012D918D01F894A1
S113364091818081981304C0D6018C9180628C93FF
S1133650308183819481830F911DDC012C938081BF
S1133660682F70E0228130E021503109621773071E
S113367011F08F5F01C08F2D808378940417150794
S1133680D9F60C94B30DBE016A5B7F4FC5010E944D
S11336905C02CE018A5B9F4F0E944F2360937904A2
S11336A070937A0480937B0490937C0487E391E085
S11336B00E94D9020C94B30DBE016A5B7F4FC50111
S11336C00E945C02CE018A5B9F4FE9D76093950408
S11336D070939604809397049093980487E391E001
S11336E00E94D9020C94B30D6EE170E0C5010E94F2
S11336F0972305978B3091056CF0E6EEF4E0DE013C
S1133700AA5BBF4F84529B4F9C0191919D93E217FA
S1133710F307D9F7CE018A5B9F4FC1D76093990411
S113372070939A0480939B0490939C0487E391E0A4
S11337300E94D9020C94B30D6EE170E0C501F7D775
S113374005978B3091056CF0E6EEF4E0DE01AA5BA0
S1133750BF4F84529B4F9C0191919D93E217F307B5
S1133760D9F7CE018A5B9F4F9AD760939D047093DB
S11337709E0480939F049093A00487E391E00E94A9
S1133780D9020C94B30DF5018285813349F481E0AB
S11337908093DB0481E391E00E94D9020C94B30D81
S11337A0803311F00C94B30D1092DB0484E391E0A8
S11337B00E94D9020C94B30D6EE170E0C501B7D735
S11337C005978B3091056CF0E6EEF4E0DE01AA5B20
S11337D0BF4F84529B4F9C0191919D93E217F30735
S11337E0D9F7CE018A5B9F4F5AD76093A702709393
S11337F0A8028093A9029093AA0287E391E00E9411
S1133800D9020C94B30D6EE170E0C50190D7059711
S11338108B3091056CF0E6EEF4E0DE01AA5BBF4F5D
S113382084529B4F9C0191919D93E217F307D9F722
S1133830CE018A5B9F4F33D76093C3027093C40257
S11338408093C5029093C60287E391E00E94D90257
S11338500C94B30D6EE170E0C50169D705978B3008
S113386091056CF0E6EEF4E0DE01AA5BBF4F8452F2
S11338709B4F9C0191919D93E217F307D9F7CE01D9
S11338808A5B9F4F0CD76093C7027093C8028093E2
S1133890C9029093CA0287E391E00E94D9020C9472
S11338A0B30D6EE170E0C50142D705978B309105E9
S11338B06CF0E6EEF4E0DE01AA5BBF4F84529B4F4E
S11338C09C0191919D93E217F307D9F7CE018A5B8E
S11338D09F4FE5D66093CB027093CC028093CD02C8
S11338E09093CE0287E391E00E94D9020C94B30D29
S11338F0D5011A968C91813349F481E080930903B0
S113390081E391E00E94D9020C94B30D803311F04D
S11339100C94B30D1092090384E391E00E94D90240
S11339200C94B30D6EE170E0C50101D705978B309F
S113393091056CF0E6EEF4E0DE01AA5BBF4F845221
S11339409B4F9C0191919D93E217F307D9F7CE0108
S11339508A5B9F4FA4D66093420170934301809386
S113396044019093450187E391E00E94D9020C94AD
S1133970B30DBE016A5B7F4FC5010E945C02CE019C
S11339808A5B9F4F8CD660935E0170935F01809336
S113399060019093610187E391E00E94D9020C9445
S11339A0B30DBE016A5B7F4FC5010E945C02CE016C
S11339B08A5B9F4F74D66093620170936301809316
S11339C064019093650187E391E00E94D9020C940D
S11339D0B30DBE016A5B7F4FC5010E945C02CE013C
S11339E08A5B9F4F5CD660936601709367018093F6
S11339F068019093690181E28E8FF50181818F8F37
S1133A00828188A3838189A31AA21BA21CA28E018E
S1133A10025E1F4FAE014E5D5F4FF80180E090E003
S1133A20B8E0F12C6191292F332727FD3A952627F9
S1133A30322F22276B2F7F2D33233CF4220F331F89
S1133A40A1E22A27A0E13A2702C0220F331F6150C6
S1133A50710991F7982F882782279327E417F50790
S1133A6009F77C0140E16CE074E076D68CE094E0E8
S1133A7069D6B0E1EB16F10438F480910C048DA3FF
S1133A8080E38CA38BA38AA3C7014097803F910551
S1133A9048F4ECE0F4E081818DA380818CA380E381
S1133AA08BA38AA3C7019A9581159F4050F4ECE03B
S1133AB0F4E082818DA381818CA380818BA380E338
S1133AC08AA3E114F0E1FF0650F0ECE0F4E0808119
S1133AD08AA381818BA382818CA383818DA38DE0B2
S1133AE08EA3AE01495D5F4FEAEFF4E00F2EF1ECD7
S1133AF0CF2ED12CF02DF12CD8012D918D01F894DD
S1133B0091818081981304C0D6018C9180628C933A
S1133B10308183819481830F911DDC012C938081FA
S1133B20682F70E0228130E0215031096217730759
S1133B3011F08F5F01C08F2D8083789404171507CF
S1133B40D9F60C94B30DF5018285813309F0AEC02A
S1133B5081E08093A40181E28E8F81818F8F8281A5
S1133B6088A3838189A38FE48AA38EE48BA31CA2F8
S1133B701DA21EA28E01025E1F4FAE014C5D5F4F5F
S1133B80F80180E090E0B8E0F12C6191292F33270F
S1133B9027FD3A952627322F22276B2F7F2D33239B
S1133BA03CF4220F331FA1E22A27A0E13A2702C0E6
S1133BB0220F331F6150710991F7982F88278227AC
S1133BC09327E417F50709F77C0140E16CE074E002
S1133BD0C3D58CE094E0B6D5B0E1EB16F10438F42B
S1133BE080910C048FA380E38EA38DA38CA3C701C3
S1133BF04097803F910548F4ECE0F4E081818FA385
S1133C0080818EA380E38DA38CA3C7019A9581152F
S1133C109F4050F4ECE0F4E082818FA381818EA375
S1133C2080818DA380E38CA3E114F0E1FF0650F0C2
S1133C30ECE0F4E080818CA381818DA382818EA34A
S1133C4083818FA38DE088A7AE01475D5F4FEAEFC4
S1133C50F4E00F2EF1ECCF2ED12CF02DF12CD80165
S1133C602D918D01F89491818081981304C0D6011F
S1133C708C9180628C93308183819481830F911D18
S1133C80DC012C938081682F70E0228130E0215088
S1133C9031096217730711F08F5F01C08F2D808384
S1133CA0789404171507D9F60C94B30D803311F0EA
S1133CB00C94B30D1092A40181E28E8FF5018181E1
S1133CC08F8F828188A3838189A38FE48AA386E46A
S1133CD08BA38CA31DA21EA21FA28E01025E1F4FE6
S1133CE0AE014B5D5F4FF80180E090E0B8E0F12C4D
S1133CF06191292F332727FD3A952627322F222732
S1133D006B2F7F2D33233CF4220F331FA1E22A278C
S1133D10A0E13A2702C0220F331F6150710991F7C5
S1133D20982F882782279327E417F50709F77C0142
S1133D3040E16CE074E010D58CE094E003D5B0E190
S1133D40EB16F10438F480910C0488A780E38FA368
S1133D508EA38DA3C7014097803F910548F4ECE002
S1133D60F4E0818188A780818FA380E38EA38DA353
S1133D70C7019A9581159F4050F4ECE0F4E08281EC
S1133D8088A781818FA380818EA380E38DA3E11412
S1133D90F0E1FF0650F0ECE0F4E080818DA3818136
S1133DA08EA382818FA3838188A78DE089A7AE012A
S1133DB0465D5F4FEAEFF4E00F2EF1ECCF2ED12CED
S1133DC0F02DF12CD8012D918D01F89491818081F1
S1133DD0981304C0D6018C9180628C9330818381C6
S1133DE09481830F911DDC012C938081682F70E0F6
S1133DF0228130E0215031096217730711F08F5F7F
S1133E0001C08F2D8083789404171507D9F60C947C
S1133E10B30D06E114E0F8014081518162817381A0
S1133E2080E090E05BD6D8015C964D915D916D91F8
S1133E307C915F9784E090E051D6F80140A151A1B4
S1133E4062A173A188E090E049D6D80194964D917F
S1133E505D916D917C9197978CE090E03FD609E756
S1133E6014E0F801408151816281738180E190E026
S1133E7035D6D8015C964D915D916D917C915F979B
S1133E8084E190E02BD6F80140A151A162A173A175
S1133E9088E190E023D6D80194964D915D916D917F
S1133EA07C9197978CE190E019D607EA12E0F8012B
S1133EB0408151816281738180E290E00FD6D80104
S1133EC05C964D915D916D917C915F9784E290E059
S1133ED005D6F80140A151A162A173A188E290E046
S1133EE0FDD5D80194964D915D916D917C919797F4
S1133EF08CE290E0F3D502E411E0F80140815181B5
S1133F006281738180E390E0E9D5D8015C964D919C
S1133F105D916D917C915F9784E390E0DFD5F8012A
S1133F2040A151A162A173A188E390E0D7D5D80143
S1133F3094964D915D916D917C9197978CE390E06F
S1133F40CDD581E28E8FF50181818F8F828188A307
S1133F50838189A31AA21BA21CA28E01025E1F4F99
S1133F60AE014E5D5F4FF80180E090E0B8E0F12CC7
S1133F706191292F332727FD3A952627322F2227AF
S1133F806B2F7F2D33233CF4220F331FA1E22A270A
S1133F90A0E13A2702C0220F331F6150710991F743
S1133FA0982F882782279327E417F50709F77C01C0
S1133FB040E16CE074E0D0D38CE094E0C3D3B0E192
S1133FC0EB16F10438F480910C048DA380E38CA3E8
S1133FD08BA38AA3C7014097803F910548F4ECE086
S1133FE0F4E081818DA380818CA380E38BA38AA3D9
S1133FF0C7019A9581159F4050F4ECE0F4E082816A
S11340008DA381818CA380818BA380E38AA3E11497
S1134010F0E1FF0650F0ECE0F4E080818AA38181B6
S11340208BA382818CA383818DA38DE08EA3AE01AB
S1134030495D5F4FEAEFF4E00F2EF1ECCF2ED12C67
S1134040F02DF12CD8012D918D01F894918180816E
S1134050981304C0D6018C9180628C933081838143
S11340609481830F911DDC012C938081682F70E073
S1134070228130E0215031096217730711F08F5FFC
S113408001C08F2D8083789404171507D9F60C94FA
S1134090B30D81E28E8FF50181818F8F828188A398
S11340A0838189A3E8E3F1E0DE01929682E491E062
S11340B021912D93E817F907D9F78E01025E1F4F5E
S11340C0AE01475D5F4FF80180E090E0B8E0F12C6D
S11340D06191292F332727FD3A952627322F22274E
S11340E06B2F7F2D33233CF4220F331FA1E22A27A9
S11340F0A0E13A2702C0220F331F6150710991F7E2
S1134100982F882782279327E417F50709F77C015E
S113411040E16CE074E020D38CE094E013D3B0E190
S1134120EB16F10438F480910C048CA780E38BA780
S11341308AA789A7C7014097803F910548F4ECE01E
S1134140F4E081818CA780818BA780E38AA789A76B
S1134150C7019A9581159F4050F4ECE0F4E0828108
S11341608CA781818BA780818AA780E389A7E1142A
S1134170F0E1FF0650F0ECE0F4E0808189A7818152
S11341808AA782818BA783818CA78DE08DA7AE013E
S1134190425D5F4FEAEFF4E00F2EF1ECCF2ED12C0D
S11341A0F02DF12CD8012D918D01F894918180810D
S11341B0981304C0D6018C9180628C9330818381E2
S11341C09481830F911DDC012C938081682F70E012
S11341D0228130E0215031096217730711F08F5F9B
S11341E001C08F2D8083789404171507D9F60C9499
S11341F0B30D89E191E00E94D9020C94B30D40E122
S11342006CE074E080E090E0A7D28CE094E09AD275
S1134210C12CD12C0C942F0F40E16CE074E080E0B1
S113422090E09AD28CE094E08DD2C12CD12C0C94E5
S11342304A1040E16CE074E080E090E08DD28CE0C4
S113424094E080D2C12CD12C0C94651140E16CE037
S113425074E080E090E080D28CE094E073D2C12CD2
S1134260D12C0C94801240E16CE074E080E090E08A
S113427073D28CE094E066D2C12CD12C0C949B13A5
S113428040E16CE074E080E090E066D28CE094E081
S113429059D2C12CD12C0C94C7155058BB27AA272E
S11342A00ED00DC1FED030F003D120F031F49F3F89
S11342B011F41EF4F3C00EF4E095E7FBE9C0E92F16
S11342C00FD180F3BA17620773078407950718F0B4
S11342D071F49EF527C10EF4E0950B2EBA2FA02D94
S11342E00B01B90190010C01CA01A0011124FF279F
S11342F0591B99F0593F50F4503E68F11A16F0409A
S1134300A22F232F342F4427585FF3CF4695379598
S11343102795A795F0405395C9F77EF41F16BA0B5D
S1134320620B730B840BBAF09150A1F0FF0FBB1F0B
S1134330661F771F881FC2F70EC0BA0F621F731F54
S1134340841F48F4879577956795B795F7959E3FB1
S113435008F0B3CF9395880F08F09927EE0F97953F
S11343608795089571D008F481E0089504D0689485
S1134370B111D9C00895BCD088F09F5790F0B92FDF
S11343809927B751A0F0D1F0660F771F881F991FA6
S11343901AF0BA95C9F712C0B13081F0C3D0B1E0B8
S11343A00895C0C0672F782F8827B85F39F0B93FC8
S11343B0CCF3869577956795B395D9F73EF49095A8
S11343C08095709561957F4F8F4F9F4F0895E89426
S11343D009C097FB3EF490958095709561957F4F49
S11343E08F4F9F4F9923A9F0F92F96E9BB279395F7
S11343F0F695879577956795B795F111F8CFFAF407
S1134400BB0F11F460FF1BC06F5F7F4F8F4F9F4F37
S113441016C0882311F096E911C0772321F09EE895
S1134420872F762F05C0662371F096E8862F70E0FB
S113443060E02AF09A95660F771F881FDAF7880FD5
S11344409695879597F90895990F0008550FAA0B2B
S1134450E0E8FEEF16161706E807F907C0F0121693
S11344601306E407F50798F0621B730B840B950B96
S113447039F40A2661F0232B242B252B21F40895EB
S11344800A2609F4A140A6958FEF811D811D089588
S113449097F99F6780E870E060E008959FEF80ECF3
S11344A0089500240A941616170618060906089596
S11344B000240A9412161306140605060895092EFC
S11344C00394000C11F4882352F0BB0F40F4BF2B6B
S11344D011F460FF04C06F5F7F4F8F4F9F4F0895AB
S11344E057FD9058440F551F59F05F3F71F04795A1
S11344F0880F97FB991F61F09F3F79F08795089586
S1134500121613061406551FF2CF4695F1DF08C0A4
S1134510161617061806991FF1CF869571056105C1
S113452008940895E894BB2766277727CB0197F969
S113453008958ADF08F48FEF08950BD0C0CFB1DF60
S113454028F0B6DF18F0952309F0A2CFA7CF1124E5
S1134550EACFC6DFA0F3959FD1F3950F50E0551F26
S1134560629FF001729FBB27F00DB11D639FAA27C4
S1134570F00DB11DAA1F649F6627B00DA11D661F13
S1134580829F2227B00DA11D621F739FB00DA11D34
S1134590621F839FA00D611D221F749F3327A00DEE
S11345A0611D231F849F600D211D822F762F6A2F8A
S11345B011249F5750408AF0E1F088234AF0EE0F0F
S11345C0FF1FBB1F661F771F881F91505040A9F71C
S11345D09E3F510570F05CCFA6CF5F3FECF3983E51
S11345E0DCF3869577956795B795F795E7959F5F83
S11345F0C1F7FE2B880F911D9695879597F908951D
S113460077DFE0F09E37D8F09639B8F49E3848F456
S1134610672F782F8827985FF9CF869577956795C8
S113462093959539D0F3B62FB1706B0F711D811D21
S113463020F4879577956795939502C01CC073CF36
S1134640882371F4772321F09850872B762F07C0A5
S1134650662311F499270DC09051862B70E060E019
S11346602AF09A95660F771F881FDAF7880F9695B8
S1134670879597F908959F3F31F0915020F48795DD
S113468077956795B795880F911D9695879597F9B6
S11346900895EE0FFF1F0590F491E02D099466270D
S11346A0772792C01F93FC0199278827BC01E894BF
S11346B011911032E9F3193010F01E30C8F31B3297
S11346C049F01D3241F4689405C050D0610F711D4A
S11346D0811D911D119110531A30B8F33EF4909539
S11346E08095709561957F4F8F4F9F4F1F910895CF
S11346F0FB01DC010D900020E9F7119701900D9268
S11347000020E1F70895FC018191861721F08823A8
S1134710D9F7992708953197CF010895FB01DC015A
S11347208D91019080190110D9F3990B0895FC0122
S11347306150704001900110D8F7809590958E0FCC
S11347409F1F0895DC016C9161566A3108F0605E28
S11347506F5B6D93C1F70895BB274A3031F49923F9
S113476022F4BDE2909581959F4F16C0592F482F92
S1134770372F262F660F771F881F991F660F771F05
S1134780881F991F620F731F841F951F660F771F61
S1134790881F991F0895BB27FB015527AA27880F57
S11347A0991FAA1FA41710F0A41B83955051B9F7A1
S11347B0A05DAA3308F0A95DA193009779F7B11120
S11347C0B1931192CB0172C1A0E0B0E0E9EEF3E243
S11347D0B9C1EC017B016115710519F0DB018D9301
S11347E09C938E010F5F1F4F7880872D90E03ED100
S11347F0892B11F0E801F5CFBDE27B1205C00F5FF4
S11348001F4F7980C1E008C0EBE27E1204C08E0124
S11348100E5F1F4F7980C0E06801F1E0CF1AD10824
S113482043E050E068ED72E0C60128D1892BE9F439
S1134830680122E0C20ED11C45E050E063ED72E055
S1134840C6011CD1892B21F4680187E0C80ED11C54
S1134850E114F10419F0D701CD92DC92C111F9C031
S113486060E070E080E89FE7FDC043E050E060ED69
S113487072E0C60103D1892B51F4E114F10409F467
S1134880EDC00E5F1F4FF70111830083E7C068017D
S113489060E070E0CB0100E010E0F601D0EDD70D50
S11348A0DA3050F52C2F2260622E2C2F2870C2FF94
S11348B005C0211127C00F5F1F4F24C0222311F010
S11348C001501109A5E0B0E09B01AC012DD14B01D1
S11348D05C01880C991CAA1CBB1CC501B4016D0F9A
S11348E0711D811D911D6839A9E97A078A07A9E11B
S11348F09A0740F0C66005C0DE3F51F4C3FD44C0D2
S1134900C8606C2EBFEFCB1ADB0A7080C62DC5CFF2
S11349102D2F2F7D2531C1F540814D3211F4C06119
S113492006C04B3221F0319621E030E006C03296C9
S1134930D60111964C9122E030E0A0EDA40FAA30EC
S113494018F0E21BF30B20C040E050E04038BCE01C
S11349505B075CF49A01220F331F220F331F420FAF
S1134960531F440F551F4A0F511D3196DF011197F4
S11349702C91A0EDA20FAA3048F3C4FF03C05195B7
S113498041955109040F151FC1FF07C0E114F1043B
S113499021F03197D701ED93FC9319DDC370C33037
S11349A019F06B017C0106C06B017C01F7FAF094ED
S11349B0F7F8F09420E030E0A901C701B601D2DC99
S11349C0882309F443C017FF06C011950195110906
S11349D0CFEED2E002C0C7E0D3E05E01B8E1AB1A8B
S11349E0B1084601BE2DAF2D90E2E92EF12C0E1533
S11349F01F057CF0FE012591359145915491B40138
S1134A008B2F9A2F9ADD4B01B82FA92F0E191F094E
S1134A10EECF2497F594E794CA15DB0541F76401BA
S1134A20EB2EFA2E8E2D880F8F2D881F8F3F41F08D
S1134A3020E030E0A901C701B60194DC811106C071
S1134A4082E290E0909300058093FF04C701B601D1
S1134A5009C060E070E080E89FEF04C060E070E0AF
S1134A6080EC9FE7CDB7DEB7EEE088C091112EC091
S1134A70803219F089508550D0F70895FB01DC018C
S1134A804150504088F08D9181341CF08B350CF4EA
S1134A90805E659161341CF06B350CF4605E861B9E
S1134AA0611171F3990B0895881BFCCFDC01FC01A3
S1134AB0672F71917723E1F7329704C07C916D934E
S1134AC070836291AE17BF07C8F3089599278827AA
S1134AD00895A6E1B0E044E050E00AC0242F17D0C6
S1134AE0252F15D000C012D0272F11C0DC01CB0117
S1134AF0FC01F999FECF06C0F2BDE1BDF89A3196EA
S1134B0000B40D9241505040B8F70895262FF999FA
S1134B10FECF1FBA92BD81BD20BD0FB6F894FA9A9C
S1134B20F99A0FBE0196089540D0A59F900DB49FA9
S1134B30900DA49F800D911D112408952F923F92F2
S1134B404F925F926F927F928F929F92AF92BF9299
S1134B50CF92DF92EF92FF920F931F93CF93DF9345
S1134B60CDB7DEB7CA1BDB0B0FB6F894DEBF0FBEA2
S1134B70CDBF09942A88398848885F846E847D84EF
S1134B808C849B84AA84B984C884DF80EE80FD80F1
S1134B900C811B81AA81B981CE0FD11D0FB6F89467
S1134BA0DEBF0FBECDBFED010895A29FB001B39F3C
S1134BB0C001A39F700D811D1124911DB29F700D22
S10F4BC0811D1124911D0895F894FFCF6D
S1134BCC0100433243412053412041445020312EB3
S1134BDC30000000000049460043524320657272C5
S1134BEC6F720056520056526572726F72005653B1
S1134BFC004F4E004F46460056536572726F72005A
S9030000FC
