:1000000085C10000A0C100009EC100009CC100008D
:100010009AC1000098C1000096C100001FC50000F1
:1000200092C1000090C100008EC100008CC1000090
:100030008AC1000088C1000067C4000084C10000BC
:1000400082C1000080C100002BC40000E9C3000091
:100050007AC1000078C1000076C1000074C10000C0
:1000600072C1000070C10000D70EE70E02101D1112
:1000700038125313631373131E161E161E161E1604
:100080001E161E161E161E161E161E161E161E16D0
:100090001E161E161E161E161E161E161E161E16C0
:1000A0001E161E161E161E161E161E161E161E16B0
:1000B0001E161E161E161E161E161E161E161E16A0
:1000C0001E161E161E161E161E161E161E161E1690
:1000D0001E161E161E161E161E161E161E161E1680
:1000E0001E161E161E161E161E161E161E161E1670
:1000F0001E161E161E161E161E161E161E161E1660
:100100001E161E161E161E161E161E161E161E164F
:100110001E161E161E161E161E161E161E161E163F
:100120001E161E161E161E161E161E161E161E162F
:1001300083139313A313B313C313D313E313F3134F
:100140001E161E161E161E161E161E161E161E160F
:100150001E161E161E161E161E161E161E161E16FF
:100160001E161E161E161E161E161E161E161E16EF
:100170001E161E161E161E161E161E161E161E16DF
:100180001E161E161E161E161E161E161E161E16CF
:100190001E161E161E161E161E161E161E161E16BF
:1001A0001E161E161E161E161E161E161E161E16AF
:1001B0001E161E161E161E161E161E161E161E169F
:1001C0001E161E161E161E161E161E161E161E168F
:1001D0001E161E161E161E161E161E161E161E167F
:1001E0001E161E161E161E161E161E161E161E166F
:1001F0001E161E161E161E1603141414251436146D
:1002000047146315741585151E161E161E161E1628
:100210001E161E161E161E161E161E161E161E163E
:100220001E161E161E161E161E161E161E161E162E
:100230001E161E161E161E161E161E161E161E161E
:100240001E161E161E161E161E161E161E161E160E
:100250001E161E161E161E161E161E161E161E16FE
:100260001E161E161E161E161E161E161E161E16EE
:100270001E161E161E161E161E161E161E161E16DE
:100280001E161E161E161E161E161E161E161E16CE
:100290001E161E161E161E161E161E161E161E16BE
:1002A0001E161E161E161E161E161E161E161E16AE
:1002B0001E161E161E161E161E161E161E161E169E
:1002C0009615A715B815C915DA15EB15FC150D16F9
:1002D0004E414E494E495459494E46CDCCCC3D0A2B
:1002E000D7233C17B7D13877CC2B329595E6241F0E
:1002F000B14F0A000020410000C84200401C4620C7
:10030000BCBE4CCA1B0E5AAEC59D740011241FBE44
:10031000CFEFD8E0DEBFCDBF11E0A0E0B1E0E8E371
:10032000FBE402C005900D92A634B107D9F724E092
:10033000A6E4B1E001C01D92A93DB207E1F70E9419
:10034000900C0C949A255CCECF93DF93CDB7DEB79B
:1003500069970FB6F894DEBF0FBECDBF1092C500EF
:1003600082E28093C400E0ECF0E0808182608083D0
:1003700088E98093C10086E08093C2001D8A1E8AAE
:100380008FEF8F8B21E032E0398F288F95E0FE01CF
:100390007596DE011B9601900D929A95E1F795E016
:1003A000FE013B96DE01509601900D929A95E1F781
:1003B00095E0FE017096A2EDB4E001900D929A9541
:1003C000E1F71D8A1E8A8F8B88E093E0998F888FD2
:1003D00085E0FE017596DE01119601900D928A95D9
:1003E000E1F785E0FE013196DE01169601900D924F
:1003F0008A95E1F785E0FE013696A3EAB4E0019024
:100400000D928A95E1F769960FB6F894DEBF0FBE9C
:10041000CDBFDF91CF910895623059F018F461306B
:1004200031F00CC0633039F0643039F007C05C98AB
:1004300005C05D9803C05E9801C05F9890E89EBDBE
:100440000DB407FEFDCF9EB58EBD0DB407FEFDCFEA
:100450008EB58BB1806F8BB90895CF9316161706A2
:100460003CF5FC01680F791F80E090E0B8E0A0E067
:100470004191292F332727FD3A952427322F222710
:100480004B2F5A2F33233CF4220F331FC1E22C276A
:10049000C0E13C2702C0220F331F4150510991F7A0
:1004A000982F882782279327E617F70709F702C0B6
:1004B00080E090E0CF9108950F931F93CF93DF9347
:1004C000EC01062F172F6EE170E00E944D23059777
:1004D0008B30910564F0FE013A96A02FB12F9E015A
:1004E000280F391F91919D93E217F307D9F7DF91F8
:1004F000CF911F910F9108950F931F93CF93DF9387
:10050000EC018B010E945823C8010E945823888166
:10051000803319F58981803309F041C08A818033A5
:10052000B9F581E02B81F80190812917E9F180E08C
:100530003BC081E02B81F80191812917A9F180E06E
:1005400033C09A81F801818198131AC081E02B8110
:100550009281291749F180E027C0F8019081891321
:1005600011C09981818198130FC09A81828198135B
:100570000DC081E02B8193812917B1F080E014C078
:1005800080E012C080E010C080E00EC080E00CC0AF
:100590009A81F8018081981761F280E005C0F80126
:1005A0009081891771F280E0DF91CF911F910F91B7
:1005B0000895CF92DF92EF92FF920F931F93CF9304
:1005C000DF93CDB7DEB7A8970FB6F894DEBF0FBEA6
:1005D000CDBFFC0181E28983A4EBB4E011968C913C
:1005E00011978A8312968C9112978B8313968C9114
:1005F0008C83CF01AE014B5F5F4F00E010E008C07D
:10060000DC012D91CD01DA012D93AD010F5F1F4F5C
:10061000DF010D900020E9F79D012E1B3F0B2E5F9F
:100620003F4F0217130760F37801BFEFEB1AFB0A85
:100630001E141F040CF0D7C0FE013196A7014E0F07
:100640005F1F80E090E0B8E0D12C6191292F332723
:1006500027FD3A952627322F22276B2F7D2D332316
:100660003CF4220F331FA1E22A27A0E13A2702C05F
:10067000220F331F6150710991F7982F8827822725
:100680009327E417F50709F76C0140E162E674E08F
:100690000E94622382E694E00E945823B0E1CB16C8
:1006A000D10498F480916204FE01E00FF11F85836C
:1006B00080E3FE01E00FF11F8483FE01E00FF11FD4
:1006C0008383FE01EE0DFF1D8183C6014097803FAD
:1006D0009105B8F4A2E6B4E011968C911197FE0151
:1006E000E00FF11F85838C91FE01E00FF11F8483E1
:1006F00080E3FE01E00FF11F8383FE01EE0DFF1D7D
:100700008183C6019A9581159F40B8F4E2E6F4E032
:100710008281DE01A00FB11F15968C938181DE01CD
:10072000A00FB11F14968C9314978081FD018383D1
:1007300080E3FE01EE0DFF1D8183C11480E1D80628
:10074000C0F0DE01AE0DBF1DE2E6F4E0808111963F
:100750008C938181DE01A00FB11F13968C9382814F
:10076000DE01A00FB11F14968C9314978381FD01B5
:100770008583C8010596FE01E80FF91F2DE021834E
:1007800099230CF43EC0AE014F5F5F4F0A5F1F4FCD
:10079000040F151FE2EDF4E061EC70E030E0DA01E7
:1007A0008D91AD01F89421819081291304C0DB0162
:1007B0009C9190629C939081A381B481A90FB11DFB
:1007C0008C932081A22FB0E0828190E00197A8173E
:1007D000B90711F02F5F01C0232F208378944017B1
:1007E0005107E9F60EC040E162E674E080E090E077
:1007F0000E94622382E694E00E945823C12CD12CEF
:1008000051CFA8960FB6F894DEBF0FBECDBFDF91D3
:10081000CF911F910F91FF90EF90DF90CF900895AF
:100820001F920F920FB60F9211242F933F934F9365
:100830005F938F939F93AF93BF93EF93FF93E2EDFB
:10084000F4E0918180819817B9F08181A381B4810E
:10085000A80FB11D3C912181422F50E0828190E090
:1008600001974817590711F02F5F01C020E020932E
:10087000D3043093C60005C0E1ECF0E080818F7DA9
:100880008083FF91EF91BF91AF919F918F915F9185
:100890004F913F912F910F900FBE0F901F90189581
:1008A0001F920F920FB60F9211242F934F935F93C5
:1008B0008F939F93AF93BF93EF93FF938091C60065
:1008C000E3EAF4E09081A381B481A90FB11D8C9378
:1008D0002081422F50E0828190E00197481759070C
:1008E00011F02F5F01C020E02093A304FF91EF914E
:1008F000BF91AF919F918F915F914F912F910F90E9
:100900000FBE0F901F9018951F920F920FB60F9267
:1009100011242F933F938F939F938091C4019091C3
:10092000C50101969093C5018093C4012091C40133
:100930003091C5018091C2019091C30128173907F8
:1009400034F48091BB01882319F0409A01C040988B
:100950008091C4019091C5018436910524F01092D4
:10096000C5011092C4018091060190910701019682
:1009700090930701809306012091060130910701B1
:100980008091C0019091C1012817390734F48091FA
:10099000BA01882319F0419A01C04198809106015B
:1009A000909107018436910524F01092070110926E
:1009B0000601809104019091050101969093050133
:1009C0008093040120910401309105018091BE01C2
:1009D0009091BF012817390734F48091B901882319
:1009E00019F0429A01C0429880910401909105014A
:1009F0008436910524F01092050110920401809133
:100A000002019091030101969093030180930201EA
:100A100020910201309103018091BC019091BD01B0
:100A20002817390734F48091B801882319F0439AC4
:100A300001C0439880910201909103018436910591
:100A400024F010920301109202019F918F913F9127
:100A50002F910F900FBE0F901F9018951F920F921D
:100A60000FB60F921124CF92DF92EF92FF922F9345
:100A70003F934F935F936F937F938F939F93AF9326
:100A8000BF93CF93DF93EF93FF9378945B9A5C9837
:100A900081E08EBD0DB407FEFDCF8EB51EBC0DB43A
:100AA00007FEFDCF9EB58BB1806F8BB95C9882E05D
:100AB0008EBD0DB407FEFDCF8EB51EBC0DB407FE76
:100AC000FDCF6EB58BB1806F8BB970E0792B7595CA
:100AD0006795072E000C880B990B0E949F2120E040
:100AE00030E040E05DE30E94532220E030E040E847
:100AF00053E40E9403216093B4017093B501809385
:100B0000B6019093B7016091B4017091B5018091E5
:100B1000B6019091B70120E030E040EF52E40E942E
:100B20004F2218162CF41092BB0188B1807F88B92F
:100B3000C091A601D091A7016091A2017091A3017B
:100B40008091A4019091A5012091B4013091B5014B
:100B50004091B6015091B7010E940321CC0FDD1FD7
:100B6000CC0FDD1FC353DE4F688379838A839B8359
:100B7000E091A601F091A701EE0FFF1FEE0FFF1FFE
:100B8000E353FE4F60817181828193812091000344
:100B90003091010340910203509103030E945322BC
:100BA00060939E0170939F018093A0019093A10197
:100BB000E091A601F091A701EE0FFF1FEE0FFF1FBE
:100BC000E353FE4F60817181828193812091B00453
:100BD0003091B1044091B2045091B304C0909A0195
:100BE000D0909B01E0909C01F0909D010E945322C7
:100BF000A70196010E94042160939A0170939B01C2
:100C000080939C0190939D0160919A0170919B014A
:100C100080919C0190919D0120E030E040E251E400
:100C20000E944F22181664F480E090E0A0E2B1E444
:100C300080939A0190939B01A0939C01B0939D0196
:100C400060919A0170919B0180919C0190919D010E
:100C500020E030E040E251EC0E946821882364F4F7
:100C600080E090E0A0E2B1EC80939A0190939B0128
:100C7000A0939C01B0939D01E091A601F091A70182
:100C8000EE0FFF1FEE0FFF1FE353FE4F60817181D8
:100C900082819381E0910001F0910101EE0FFF1F2D
:100CA000EE0FFF1FE353FE4F2081318142815381BC
:100CB000C090FD01D090FE01E090FF01F090000295
:100CC0000E940321A70196010E945322609396017E
:100CD00070939701809398019093990160919E0180
:100CE00070919F018091A0019091A10120919A01A2
:100CF00030919B0140919C0150919D01C0909601C3
:100D0000D0909701E0909801F09099010E94042101
:100D1000A70196010E94042160938E0170938F01B8
:100D200080939001909391016091A2017091A30131
:100D30008091A4019091A501C0908E01D0908F0167
:100D4000E0909001F09091012DE33AE047E55EE3F9
:100D50000E945322A70196010E94042120E030E066
:100D600040EA50E40E940321609392017093930142
:100D700080939401909395016091920170919301F9
:100D800080919401909195010E94B6220E946C215D
:100D90007093C3016093C2016091CD017091CE0147
:100DA0008091CF019091D0010E946C219B0177230B
:100DB00024F422273327261B370B2630310544F035
:100DC00010929A0110929B0110929C0110929D0129
:100DD0005D9881E08EBD0DB407FEFDCF8EB51EBCC3
:100DE0000DB407FEFDCF9EB58BB1806F8BB95D98BA
:100DF00082E08EBD0DB407FEFDCF8EB51EBC0DB4D6
:100E000007FEFDCF6EB58BB1806F8BB970E0792B8B
:100E100075956795072E000C880B990B0E949F21F2
:100E200020E030E040E05DE30E94532220E030E02B
:100E300040E853E40E9403216093B0017093B10134
:100E40008093B2019093B3016091B0017091B101B0
:100E50008091B2019091B30120E030E040EF52E484
:100E60000E944F2218162CF41092BA0188B1807F8C
:100E700088B9C091A601D091A70160918A017091B3
:100E80008B0180918C0190918D012091B001309166
:100E9000B1014091B2015091B3010E940321CC0FE6
:100EA000DD1FCC0FDD1FC95FDB4F688379838A8329
:100EB0009B83E091A601F091A701EE0FFF1FEE0FBB
:100EC000FF1FE95FFB4F60817181828193812091D7
:100ED0006B0430916C0440916D0450916E040E943B
:100EE00053226093860170938701809388019093C9
:100EF0008901E091A601F091A701EE0FFF1FEE0F0F
:100F0000FF1FE95FFB4F6081718182819381209196
:100F1000C6013091C7014091C8015091C901C090EC
:100F20008201D0908301E0908401F09085010E94BD
:100F30005322A70196010E940421609382017093BD
:100F40008301809384019093850160918201709167
:100F50008301809184019091850120E030E040E29E
:100F600051E40E944F22181664F480E090E0A0E261
:100F7000B1E48093820190938301A0938401B093A4
:100F8000850160918201709183018091840190912B
:100F9000850120E030E040E251EC0E946821882386
:100FA00064F480E090E0A0E2B1EC80938201909341
:100FB0008301A0938401B0938501E091A601F09193
:100FC000A701EE0FFF1FEE0FFF1FE95FFB4F6081D0
:100FD000718182819381E0910001F0910101EE0F16
:100FE000FF1FEE0FFF1FE95FFB4F20813181428120
:100FF0005381C090AC04D090AD04E090AE04F0906A
:10100000AF040E940321A70196010E94532260931E
:101010007E0170937F0180938001909381016091A4
:1010200086017091870180918801909189012091BA
:101030008201309183014091840150918501C090DB
:101040007E01D0907F01E0908001F09081010E94AC
:101050000421A70196010E940421609376017093F8
:101060007701809378019093790160918A01709162
:101070008B0180918C0190918D01C0907601D09070
:101080007701E0907801F09079012DE33AE047E5AF
:101090005EE30E945322A70196010E94042120E0F2
:1010A00030E040EA50E40E94032160937A0170939B
:1010B0007B0180937C0190937D0160917A01709116
:1010C0007B0180917C0190917D010E94B6220E945B
:1010D0006C217093C1016093C0016091070470910D
:1010E00008048091090490910A040E946C219B01DC
:1010F000772324F422273327261B370B263031058C
:1011000044F0109282011092830110928401109297
:1011100085015E9881E08EBD0DB407FEFDCF8EB5D2
:101120001EBC0DB407FEFDCF9EB58BB1806F8BB991
:101130005E9882E08EBD0DB407FEFDCF8EB51EBC5D
:101140000DB407FEFDCF6EB58BB1806F8BB970E02B
:10115000792B75956795072E000C880B990B0E94CB
:101160009F2120E030E040E05DE30E94532220E038
:1011700030E040E853E40E9403216093AC01709397
:10118000AD018093AE019093AF016091AC0170917D
:10119000AD018091AE019091AF0120E030E040EFD1
:1011A00052E40E944F2218162CF41092B90188B113
:1011B000807F88B9C091A601D091A701609172018A
:1011C0007091730180917401909175012091AC012F
:1011D0003091AD014091AE015091AF010E940321C9
:1011E000CC0FDD1FCC0FDD1FC958DB4F688379831F
:1011F0008A839B83E091A601F091A701EE0FFF1F68
:10120000EE0FFF1FE958FB4F60817181828193814E
:1012100020916704309168044091690450916A04F8
:101220000E94532260936E0170936F01809370014E
:1012300090937101E091A601F091A701EE0FFF1FBD
:10124000EE0FFF1FE958FB4F60817181828193810E
:1012500020916F0430917004409171045091720498
:10126000C0906A01D0906B01E0906C01F0906D012C
:101270000E945322A70196010E94042160936A01F3
:1012800070936B0180936C0190936D0160916A0182
:1012900070916B0180916C0190916D0120E030E0C4
:1012A00040E251E40E944F22181664F480E090E07E
:1012B000A0E2B1E480936A0190936B01A0936C016A
:1012C000B0936D0160916A0170916B0180916C0126
:1012D00090916D0120E030E040E251EC0E946821E5
:1012E000882364F480E090E0A0E2B1EC80936A018E
:1012F00090936B01A0936C01B0936D01E091A601F6
:10130000F091A701EE0FFF1FEE0FFF1FE958FB4FF3
:101310006081718182819381E0910001F0910101EE
:10132000EE0FFF1FEE0FFF1FE958FB4F20813181A9
:1013300042815381C090A804D090A904E090AA04EF
:10134000F090AB040E940321A70196010E94532252
:1013500060936601709367018093680190936901BF
:1013600060916E0170916F01809170019091710197
:1013700020916A0130916B0140916C0150916D0197
:10138000C0906601D0906701E0906801F09069011B
:101390000E940421A70196010E94042160935E012E
:1013A00070935F018093600190936101609172017D
:1013B000709173018091740190917501C0905E01EC
:1013C000D0905F01E0906001F09061012DE33AE080
:1013D00047E55EE30E945322A70196010E94042183
:1013E00020E030E040EA50E40E9403216093620173
:1013F0007093630180936401909365016091620131
:101400007091630180916401909165010E94B62200
:101410000E946C217093BF016093BE0160917704BC
:10142000709178048091790490917A040E946C21E3
:101430009B01772324F422273327261B370B2630E2
:10144000310544F010926A0110926B0110926C0108
:1014500010926D015F9881E08EBD0DB407FEFDCF47
:101460008EB51EBC0DB407FEFDCF9EB58BB1806F4F
:101470008BB95F9882E08EBD0DB407FEFDCF8EB5AF
:101480001EBC0DB407FEFDCF6EB58BB1806F8BB95E
:1014900070E0792B75956795072E000C880B990BDA
:1014A0000E949F2120E030E040E05DE30E94532253
:1014B00020E030E040E853E40E9403216093A8015B
:1014C0007093A9018093AA019093AB016091A80148
:1014D0007091A9018091AA019091AB0120E030E0C8
:1014E00040EF52E40E944F2218162CF41092B801DB
:1014F00088B1807F88B9C091A601D091A701609181
:101500005A0170915B0180915C0190915D01209185
:10151000A8013091A9014091AA015091AB010E940C
:101520000321CC0FDD1FCC0FDD1FCD5CDB4F6883AB
:1015300079838A839B83E091A601F091A701EE0F46
:10154000FF1FEE0FFF1FED5CFB4F608171818281F9
:10155000938120910403309105034091060350913B
:1015600007030E94532260935601709357018093A2
:10157000580190935901E091A601F091A701EE0F57
:10158000FF1FEE0FFF1FED5CFB4F608171818281B9
:1015900093812091F9013091FA014091FB01509122
:1015A000FC01C0905201D0905301E0905401F090A2
:1015B00055010E945322A70196010E9404216093C5
:1015C000520170935301809354019093550160919F
:1015D000520170915301809154019091550120E086
:1015E00030E040E251E40E944F22181664F480E09B
:1015F00090E0A0E2B1E48093520190935301A09354
:101600005401B09355016091520170915301809142
:1016100054019091550120E030E040E251EC0E94ED
:101620006821882364F480E090E0A0E2B1EC80932C
:10163000520190935301A0935401B0935501E0914E
:10164000A601F091A701EE0FFF1FEE0FFF1FED5C4B
:10165000FB4F6081718182819381E0910001F09163
:101660000101EE0FFF1FEE0FFF1FED5CFB4F20810E
:10167000318142815381C0907304D0907404E09012
:101680007504F09076040E940321A70196010E9440
:10169000532260934E0170934F01809350019093B9
:1016A00051016091560170915701809158019091BC
:1016B00059012091520130915301409154015091B0
:1016C0005501C0904E01D0904F01E0905001F09034
:1016D00051010E940421A70196010E9404216093F8
:1016E00046017093470180934801909349016091AE
:1016F0005A0170915B0180915C0190915D01C090F5
:101700004601D0904701E0904801F09049012DE357
:101710003AE047E55EE30E945322A70196010E944A
:10172000042120E030E040EA50E40E94032160936D
:101730004A0170934B0180934C0190934D0160914D
:101740004A0170914B0180914C0190914D010E9492
:10175000B6220E946C217093BD016093BC01609120
:1017600033047091340480913504909136040E94C2
:101770006C219B01772324F422273327261B370B68
:101780002630310544F0109252011092530110920C
:101790005401109255018091A6019091A7010196E4
:1017A0009093A7018093A6018091A6019091A70133
:1017B0000B9724F01092A7011092A6018091A60128
:1017C0009091A7010196909301018093000180916F
:1017D0000001909101010B9724F0109201011092E9
:1017E00000015B98FF91EF91DF91CF91BF91AF9195
:1017F0009F918F917F916F915F914F913F912F9129
:10180000FF90EF90DF90CF900F900FBE0F901F9042
:1018100018958F929F92AF92BF92CF92DF92EF92E4
:10182000FF920F931F93CF93DF93CDB7DEB76497EB
:101830000FB6F894DEBF0FBECDBF4B015C018A012D
:101840000E946C216B017C0184E1F80111928A9560
:10185000E9F74AE0B801C6010E946223F80101904D
:101860000020E9F731978EE290E091838083B60102
:10187000DD0C880B990B0E949F219B01AC01C501D7
:10188000B4010E94032120E030E04AE754E40E94C2
:1018900053220E946C219B01772324F422273327B3
:1018A000261B370B4AE0BE016F5F7F4FC9010E94C4
:1018B000622380E090E0DE01119623E030E040E317
:1018C00050E008C0F80101900020E9F731975183FA
:1018D00040830196FD0101900020E9F73197EA1B52
:1018E000FB0BB9016E1B7F0B8617970758F3BE01E0
:1018F0006F5F7F4FC8010E942E2364960FB6F89445
:10190000DEBF0FBECDBFDF91CF911F910F91FF9032
:10191000EF90DF90CF90BF90AF909F908F90089501
:10192000CF93DF93CDB7DEB7CF55D1090FB6F8947B
:10193000DEBF0FBECDBF80E1E8E0F1E0DE0115962D
:1019400001900D928A95E1F71D8A1E8A1F8A188ED2
:10195000F8940E94A401789424988CE284B98DE5CF
:101960008CBD81E090E09093C3018093C20190937D
:10197000C1018093C0019093BF018093BE019093F9
:10198000BD018093BC0188EF8AB98FE087B9219AA5
:101990008BB1806F8BB980E090E00E941F2560932F
:1019A000A2017093A3018093A4019093A50184E008
:1019B00090E00E941F2560930003709301038093C1
:1019C00002039093030388E090E00E941F25609338
:1019D000B0047093B1048093B2049093B3048CE08C
:1019E00090E00E941F256093FD017093FE0180939B
:1019F000FF019093000280E190E00E941F25609318
:101A00008A0170938B0180938C0190938D0184E106
:101A100090E00E941F2560936B0470936C04809388
:101A20006D0490936E0488E190E00E941F256093FE
:101A3000C6017093C7018093C8019093C9018CE1DE
:101A400090E00E941F256093AC047093AD048093D6
:101A5000AE049093AF0480E290E00E941F25609353
:101A6000720170937301809374019093750184E205
:101A700090E00E941F256093670470936804809330
:101A8000690490936A0488E290E00E941F256093A5
:101A90006F047093700480937104909372048CE2CD
:101AA00090E00E941F256093A8047093A90480937E
:101AB000AA049093AB0480E390E00E941F256093FA
:101AC0005A0170935B0180935C0190935D0184E304
:101AD00090E00E941F256093040370930503809398
:101AE00006039093070388E390E00E941F2560930C
:101AF000F9017093FA018093FB019093FC018CE350
:101B000090E00E941F256093730470937404809387
:101B100075049093760461E083EC0E940C0262E00D
:101B200083EC0E940C0263E083EC0E940C0264E0F0
:101B300083EC0E940C0282E080936E0084BD95E0ED
:101B400095BD90E197BD809370008093B00087E0D1
:101B50008093B1008FEF8093B30078940F2EF4EB55
:101B6000AF2EF4E0BF2EF02D0F2EF3EA4F2EF4E04F
:101B70005F2EF02D0F2EF2ED2F2EF4E03F2EF02DE4
:101B80009E012A5B3F4F6C963FAF2EAF6C976D96D0
:101B9000AFAE6D976E96BFAE6E976F96AFAE6F9706
:101BA000A096BFAEA0976B968FAC6B976C969FACD0
:101BB0006C97682C792C0F2EF2ED8F2EF4E09F2E6F
:101BC000F02D0EE110E0D501E02F1D92EA95E9F726
:101BD000D20113964D915C91149712962C9130E09E
:101BE000215031096F96EFAD6F97A096FFADA0978A
:101BF000D20111968C9111979C919817C9F3119667
:101C00008C91DA01A80FB11D9C91D20111968C9193
:101C1000682F70E06217730711F08F5F01C0812F8A
:101C2000D20111968C9391939D3019F0E215F30532
:101C3000F9F6F5018081833231F66FE370E06D963D
:101C40008FAD6D976E969FAD6E970E9439238C0174
:101C5000009709F4FCC7EAECF1E0DC0111968C91E5
:101C60001197808312968C9181836CE171E0CF0192
:101C70000E944423892B09F03FC0E2E6F4E0D8013A
:101C800013968C911397808314968C91149781836B
:101C900015968C911597828316968C9183836EE1AD
:101CA00070E06D968FAD6D976E969FAD6E970E94AA
:101CB0004D23BC01655071096D968FAD6D976E9681
:101CC0009FAD6E970E942D0240E1BE01675E7F4F7F
:101CD0000E946223BE01675E7F4F82E694E00E940D
:101CE0007C02882329F0CE0105960E94D90204C007
:101CF0008FE191E00E94D90269E271E08AEC91E003
:101D00000E944423892B09F0A2C7F80183818983AB
:101D100084818A8385818B83E2E6F4E0D80116967C
:101D20008C911697808317968C91179781831896BC
:101D30008C911897828319968C9183836EE170E061
:101D40006D968FAD6D976E969FAD6E970E944D23E9
:101D5000BC01655071096D968FAD6D976E969FAD04
:101D60006E970E942D0240E1BE01675E7F4F0E9488
:101D70006223BE01675E7F4F82E694E00E947C0290
:101D8000882309F460C7CE0101960E940823CB0185
:101D9000770FAA0BBB0BFC01E456F109E433B1E069
:101DA000FB0708F04BC7EC5CFF4F0C94FF226091DF
:101DB000B4017091B5018091B6019091B701462DA3
:101DC000572D27DD862D972D0E94D90240C760919F
:101DD0009E0170919F018091A0019091A101462DDB
:101DE000572D17DD81E28E8FF50181818F8F8281E2
:101DF00088A3838189A3E62DF72DDE01929600E06A
:101E000010E0AF0106C0FA018191AF018D930F5F21
:101E10001F4F6C96EEADFFAD6C9701900020E9F777
:101E2000CF016C962EAD3FAD6C97821B930B029643
:101E30000817190740F378013FEFE31AF30A1E145D
:101E40001F0414F00C94C220DE015E966701CA0ED6
:101E5000DB1EE0E0F0E098E080E04D912F2F33278B
:101E600027FD3A952427322F2227492F582F332335
:101E70003CF4220F331F61E2262760E1362702C0BF
:101E8000220F331F4150510991F7FE2FEE27E22711
:101E9000F327AC15BD0509F76F0140E162E674E078
:101EA000CF010E94622382E694E00E94582380E1E1
:101EB000C816D10498F480916204FE01E00FF11F6E
:101EC00082A380E3FE01E00FF11F81A3FE01E00F7A
:101ED000F11F80A3FE01EE0DFF1D868FC601409706
:101EE000803F9105B8F4A2E6B4E011968C91119769
:101EF000FE01E00FF11F82A38C91FE01E00FF11FA4
:101F000081A380E3FE01E00FF11F80A3FE01EE0D2F
:101F1000FF1D868FC6019A9581159F40B8F4E2E6B1
:101F2000F4E08281DE01A00FB11F92968C93818133
:101F3000DE01A00FB11F91968C9391978081FD01D6
:101F400080A380E3FE01EE0DFF1D868FC114B0E17A
:101F5000DB06C0F0DE01AE0DBF1DE2E6F4E08081DD
:101F60005E968C938181DE01A00FB11F90968C93B9
:101F70008281DE01A00FB11F91968C93919783818E
:101F8000FD0182A3C8010596FE01E80FF91F2DE0AF
:101F9000268F99230CF45BC6FE017E96A8014A5F4A
:101FA0005F4F4E0F5F1F90E02191F894D40111967E
:101FB0003C9111978C91381305C0A1ECB0E08C9145
:101FC00080628C93D4018C9113966D917C911497BF
:101FD000DB01A80FB11D2C93D4018C91682F70E008
:101FE00012962C9130E0215031096217730711F0DD
:101FF0008F5F01C0892FD4018C937894E417F50783
:1020000099F625C660919A0170919B0180919C017F
:1020100090919D01462D572DFCDB81E28E8FF501BD
:1020200081818F8F828188A3838189A3E62DF72DFB
:10203000DE01929600E010E0AF0106C0FA01819146
:10204000AF018D930F5F1F4F6C96EEADFFAD6C9798
:1020500001900020E9F7CF016C962EAD3FAD6C9753
:10206000821B930B02960817190740F378013FEF84
:10207000E31AF30A1E141F0414F00C94CF20DE019F
:102080005E966701CA0EDB1EE0E0F0E098E080E0BB
:102090004D912F2F332727FD3A952427322F2227C2
:1020A000492F582F33233CF4220F331F61E2262798
:1020B00060E1362702C0220F331F4150510991F7CA
:1020C000FE2FEE27E227F327AC15BD0509F76F01B8
:1020D00040E162E674E0CF010E94622382E694E070
:1020E0000E94582380E1C816D10498F480916204BC
:1020F000FE01E00FF11F82A380E3FE01E00FF11F5C
:1021000081A3FE01E00FF11F80A3FE01EE0DFF1D74
:10211000868FC6014097803F9105B8F4A2E6B4E0EF
:1021200011968C911197FE01E00FF11F82A38C9103
:10213000FE01E00FF11F81A380E3FE01E00FF11F1C
:1021400080A3FE01EE0DFF1D868FC6019A958115B5
:102150009F40B8F4E2E6F4E08281DE01A00FB11FF7
:1021600092968C938181DE01A00FB11F91968C9382
:1021700091978081FD0180A380E3FE01EE0DFF1D9C
:10218000868FC114B0E1DB06C0F0DE01AE0DBF1DCD
:10219000E2E6F4E080815E968C938181DE01A00FFF
:1021A000B11F90968C938281DE01A00FB11F919692
:1021B0008C9391978381FD0182A3C8010596FE014E
:1021C000E80FF91F2DE0268F99230CF440C5FE017E
:1021D0007E96A8014A5F5F4F4E0F5F1F90E02191EE
:1021E000F894D40111963C9111978C91381305C045
:1021F000A1ECB0E08C9180628C93D4018C91139609
:102200006D917C911497DB01A80FB11D2C93D40123
:102210008C91682F70E012962C9130E0215031099A
:102220006217730711F08F5F01C0892FD4018C935F
:102230007894E417F50799F60AC5609196017091B4
:1022400097018091980190919901462D572DE1DADF
:1022500081E28E8FF50181818F8F828188A38381B6
:1022600089A3E62DF72DDE01929600E010E0AF0184
:1022700006C0FA018191AF018D930F5F1F4F6C96DD
:10228000EEADFFAD6C9701900020E9F7CF016C96A1
:102290002EAD3FAD6C97821B930B02960817190762
:1022A00040F378013FEFE31AF30A1E141F0414F001
:1022B0000C94DC20DE015E966701CA0EDB1EE0E0B6
:1022C000F0E098E080E04D912F2F332727FD3A95DD
:1022D0002427322F2227492F582F33233CF4220F53
:1022E000331F61E2262760E1362702C0220F331F29
:1022F0004150510991F7FE2FEE27E227F327AC1545
:10230000BD0509F76F0140E162E674E0CF010E946C
:10231000622382E694E00E94582380E1C816D1042B
:1023200098F480916204FE01E00FF11F82A380E324
:10233000FE01E00FF11F81A3FE01E00FF11F80A35A
:10234000FE01EE0DFF1D868FC6014097803F91056F
:10235000B8F4A2E6B4E011968C911197FE01E00F5B
:10236000F11F82A38C91FE01E00FF11F81A380E396
:10237000FE01E00FF11F80A3FE01EE0DFF1D868F11
:10238000C6019A9581159F40B8F4E2E6F4E0828197
:10239000DE01A00FB11F92968C938181DE01A00F08
:1023A000B11F91968C9391978081FD0180A380E36A
:1023B000FE01EE0DFF1D868FC114B0E1DB06C0F0FB
:1023C000DE01AE0DBF1DE2E6F4E080815E968C93E7
:1023D0008181DE01A00FB11F90968C938281DE0176
:1023E000A00FB11F91968C9391978381FD0182A3D9
:1023F000C8010596FE01E80FF91F2DE0268F9923ED
:102400000CF425C4FE017E96A8014A5F5F4F4E0F73
:102410005F1F90E02191F894D40111963C9111979F
:102420008C91381305C0A1ECB0E08C9180628C9344
:10243000D4018C9113966D917C911497DB01A80FB8
:10244000B11D2C93D4018C91682F70E012962C91C1
:1024500030E0215031096217730711F08F5F01C01E
:10246000892FD4018C937894E417F50799F6EFC37C
:102470006091A2017091A3018091A4019091A501A6
:10248000462D572DC6D981E28E8FF50181818F8F20
:10249000828188A3838189A3E62DF72DDE019296A0
:1024A00000E010E0AF0106C0FA018191AF018D9309
:1024B0000F5F1F4F6C96EEADFFAD6C970190002043
:1024C000E9F7CF016C962EAD3FAD6C97821B930B55
:1024D00002960817190740F378013FEFE31AF30A51
:1024E0001E141F0414F00C94E920DE015E966701AF
:1024F000CA0EDB1EE0E0F0E098E080E04D912F2F67
:10250000332727FD3A952427322F2227492F582F8A
:1025100033233CF4220F331F61E2262760E1362784
:1025200002C0220F331F4150510991F7FE2FEE27B1
:10253000E227F327AC15BD0509F76F0140E162E61C
:1025400074E0CF010E94622382E694E00E94582347
:1025500080E1C816D10498F480916204FE01E00F76
:10256000F11F82A380E3FE01E00FF11F81A3FE01B2
:10257000E00FF11F80A3FE01EE0DFF1D868FC60147
:102580004097803F9105B8F4A2E6B4E011968C9193
:102590001197FE01E00FF11F82A38C91FE01E00F65
:1025A000F11F81A380E3FE01E00FF11F80A3FE0174
:1025B000EE0DFF1D868FC6019A9581159F40B8F4D8
:1025C000E2E6F4E08281DE01A00FB11F92968C93C7
:1025D0008181DE01A00FB11F91968C93919780812C
:1025E000FD0180A380E3FE01EE0DFF1D868FC11467
:1025F000B0E1DB06C0F0DE01AE0DBF1DE2E6F4E0A7
:1026000080815E968C938181DE01A00FB11F909630
:102610008C938281DE01A00FB11F91968C939197CC
:102620008381FD0182A3C8010596FE01E80FF91F11
:102630002DE0268F99230CF40AC3FE017E96A80193
:102640004A5F5F4F4E0F5F1F90E02191F894D401D5
:1026500011963C9111978C91381305C0A1ECB0E014
:102660008C9180628C93D4018C9113966D917C91A6
:102670001497DB01A80FB11D2C93D4018C91682F06
:1026800070E012962C9130E02150310962177307E7
:1026900011F08F5F01C0892FD4018C937894E417D7
:1026A000F50799F6D4C260910003709101038091FF
:1026B000020390910303462D572DABD8862D972DFD
:1026C0000E94D902C4C26091B0047091B10480919B
:1026D000B2049091B304462D572D9BD8862D972D8B
:1026E0000E94D902B4C26091FD017091FE018091F7
:1026F000FF0190910002462D572D8BD8862D972DE6
:102700000E94D902A4C26091B0017091B101809180
:10271000B2019091B301462D572D7BD8862D972D70
:102720000E94D90294C260918601709187018091C4
:10273000880190918901462D572D6BD8862D972DB4
:102740000E94D90284C260918201709183018091BC
:10275000840190918501462D572D5BD8862D972DAC
:102760000E94D90274C260917E0170917F018091B4
:10277000800190918101462D572D4BD8862D972DA4
:102780000E94D90264C260918A0170918B0180918C
:102790008C0190918D01462D572D3BD8862D972D7C
:1027A0000E94D90254C260916B0470916C048091B4
:1027B0006D0490916E04462D572D2BD8862D972DA4
:1027C0000E94D90244C26091C6017091C7018091F4
:1027D000C8019091C901462D572D1BD8862D972DE4
:1027E0000E94D90234C26091AC047091AD04809112
:1027F000AE049091AF04462D572D0BD8862D972D02
:102800000E94D90224C26091AC017091AD01809107
:10281000AE019091AF01462D572D0E94090C862DD7
:10282000972D0E94D90213C260916E0170916F01C1
:102830008091700190917101462D572D0E94090CD5
:10284000862D972D0E94D90202C260916A01709173
:102850006B0180916C0190916D01462D572D0E9466
:10286000090C862D972D0E94D902F1C16091660155
:10287000709167018091680190916901462D572DF3
:102880000E94090C862D972D0E94D902E0C160910B
:102890007201709173018091740190917501462DC0
:1028A000572D0E94090C81E28E8FF50181818F8F57
:1028B000828188A3838189A3E62DF72DDE0192967C
:1028C00000E010E0AF0106C0FA018191AF018D93E5
:1028D0000F5F1F4F6C96EEADFFAD6C97019000201F
:1028E000E9F7CF016C962EAD3FAD6C97821B930B31
:1028F00002960817190740F378013FEFE31AF30A2D
:102900001E141F0414F00C94F620DE015E9667017D
:10291000CA0EDB1EE0E0F0E098E080E04D912F2F42
:10292000332727FD3A952427322F2227492F582F66
:1029300033233CF4220F331F61E2262760E1362760
:1029400002C0220F331F4150510991F7FE2FEE278D
:10295000E227F327AC15BD0509F76F0140E162E6F8
:1029600074E0CF010E94622382E694E00E94582323
:1029700080E1C816D10498F480916204FE01E00F52
:10298000F11F82A380E3FE01E00FF11F81A3FE018E
:10299000E00FF11F80A3FE01EE0DFF1D868FC60123
:1029A0004097803F9105B8F4A2E6B4E011968C916F
:1029B0001197FE01E00FF11F82A38C91FE01E00F41
:1029C000F11F81A380E3FE01E00FF11F80A3FE0150
:1029D000EE0DFF1D868FC6019A9581159F40B8F4B4
:1029E000E2E6F4E08281DE01A00FB11F92968C93A3
:1029F0008181DE01A00FB11F91968C939197808108
:102A0000FD0180A380E3FE01EE0DFF1D868FC11442
:102A1000B0E1DB06C0F0DE01AE0DBF1DE2E6F4E082
:102A200080815E968C938181DE01A00FB11F90960C
:102A30008C938281DE01A00FB11F91968C939197A8
:102A40008381FD0182A3C8010596FE01E80FF91FED
:102A50002DE0268F99230CF4FAC0FE017E96A80182
:102A60004A5F5F4F4E0F5F1F90E02191F894D401B1
:102A700011963C9111978C91381305C0A1ECB0E0F0
:102A80008C9180628C93D4018C9113966D917C9182
:102A90001497DB01A80FB11D2C93D4018C91682FE2
:102AA00070E012962C9130E02150310962177307C3
:102AB00011F08F5F01C0892FD4018C937894E417B3
:102AC000F50799F6C4C0609167047091680480911D
:102AD000690490916A04462D572D0E94090C862D99
:102AE000972D0E94D902B3C060916F047091700459
:102AF0008091710490917204462D572D0E94090C0B
:102B0000862D972D0E94D902A2C06091A8047091D1
:102B1000A9048091AA049091AB04462D572D0E94E0
:102B2000090C862D972D0E94D90291C06091A801B1
:102B30007091A9018091AA019091AB01462D572D6A
:102B40000E94090C862D972D0E94D90280C06091A9
:102B50005601709157018091580190915901462D6D
:102B6000572D0E94090C862D972D0E94D9026FC007
:102B700060915201709153018091540190915501DF
:102B8000462D572D0E94090C862D972D0E94D902A3
:102B90005EC060914E0170914F0180915001909103
:102BA0005101462D572D0E94090C862D972D0E940C
:102BB000D9024DC060915A0170915B0180915C0116
:102BC00090915D01462D572D0E94090C862D972D61
:102BD0000E94D9023CC0609104037091050380916A
:102BE000060390910703462D572D0E94090C862D50
:102BF000972D0E94D9022BC06091F9017091FA01C2
:102C00008091FB019091FC01462D572D0E94090CEB
:102C1000862D972D0E94D9021AC06091730470917D
:102C200074048091750490917604462D572D0E946E
:102C3000090C862D972D0E94D90209C08CE291E0E3
:102C40000E94D90204C08FE191E00E94D90266E29D
:102C500070E06D968FAD6D976E969FAD6E970E94EA
:102C60003923009711F40C94E10DFC01AFE5B4E0B9
:102C700081818C93828111968C93119783818983B2
:102C800084818A8385818B8364E371E0CD010E9416
:102C90004423892B11F00C94DB0D6DE070E0C5012D
:102CA0000E943923E2E6F4E0DC0114972C912083A2
:102CB00011962C91218311962C91228311968C913F
:102CC00083836EE170E0C5010E944D23BC01655015
:102CD0007109C5010E942D0240E1BE01675E7F4F70
:102CE0000E946223BE01675E7F4F82E694E00E94ED
:102CF0007C02882311F40C94BC20CE0101960E9422
:102D000008236E35B1E07B0709F401C59CF56A39EB
:102D1000710509F454C2ACF46739710509F487C030
:102D200034F46639710509F459C00C940C206839E3
:102D3000710509F4A5C06939710509F473C10C94D2
:102D40000C206C3F710509F499C454F46A3F710575
:102D500009F49FC36B3F710509F468C40C940C20FF
:102D60006D3F710509F4A2C46E3F710509F4B6C444
:102D70000C940C20623CF1E07F0709F47EC594F4CA
:102D8000603631E0730709F410C50CF4E7C461360E
:102D9000B1E07B0709F430C56236714009F453C5D0
:102DA0000C940C20653CF1E07F0709F4AEC55CF49F
:102DB000633C31E0730709F478C5643C714009F461
:102DC0008CC50C940C20663CB1E07B0709F466C608
:102DD000643F714009F4C8C70C940C206EE170E0A8
:102DE000C5010E944D2305978B3091056CF0EEEBE9
:102DF000F4E0DE01AA5BBF4F8C549B4F9C01919184
:102E00009D93E217F307D9F7CE018A5B9F4F0E948B
:102E100005236093A2017093A3018093A401909372
:102E2000A5018DE391E00E94D9020C94D30D6EE1CF
:102E300070E0C5010E944D2305978B3091056CF021
:102E4000EEEBF4E0DE01AA5BBF4F8C549B4F9C017C
:102E500091919D93E217F307D9F7CE018A5B9F4FBB
:102E60000E94052360930003709301038093020383
:102E7000909303038DE391E00E94D9020C94D30D4B
:102E80006EE170E0C5010E944D2305978B309105DE
:102E90006CF0EEEBF4E0DE01AA5BBF4F8C549B4F6D
:102EA0009C0191919D93E217F307D9F7CE018A5BBC
:102EB0009F4F0E9405236093B0047093B1048093E8
:102EC000B2049093B30481E28E8FD50111968C9158
:102ED00011978F8F12968C91129788A313968C91CD
:102EE00089A31AA21BA21CA28E01025E1F4FAE0173
:102EF0004E5D5F4FF80180E090E0B8E0F12C619109
:102F0000292F332727FD3A952627322F22276B2F8B
:102F10007F2D33233CF4220F331FA1E22A27A0E1A7
:102F20003A2702C0220F331F6150710991F7982F81
:102F3000882782279327E417F50709F77C0140E1EA
:102F400062E674E00E94622382E694E00E945823C5
:102F5000B0E1EB16F10438F4809162048DA380E3B4
:102F60008CA38BA38AA3C7014097803F910548F4A7
:102F7000E2E6F4E081818DA380818CA380E38BA3C2
:102F80008AA3C7019A9581159F4050F4E2E6F4E0C8
:102F900082818DA381818CA380818BA380E38AA30E
:102FA000E114F0E1FF0650F0E2E6F4E080818AA34C
:102FB00081818BA382818CA383818DA38DE08EA3DD
:102FC000AE01495D5F4FE2EDF4E00F2EF1ECCF2E44
:102FD000D12CF02DF12CD8012D918D01F8949181F7
:102FE0008081981304C0D6018C9180628C933081CB
:102FF00083819481830F911DDC012C938081682F44
:1030000070E0228130E0215031096217730711F01E
:103010008F5F01C08F2D8083789404171507D9F630
:103020000C94D30D6EE170E0C5010E944D2305970D
:103030008B3091056CF0EEEBF4E0DE01AA5BBF4F44
:103040008C549B4F9C0191919D93E217F307D9F704
:10305000CE018A5B9F4F0E9405236093FD01709310
:10306000FE018093FF019093000281E28E8FF501B3
:1030700081818F8F828188A3838189A31AA21BA259
:103080001CA28E01025E1F4FAE014E5D5F4FF80124
:1030900080E090E0B8E0F12C6191292F332727FDE3
:1030A0003A952627322F22276B2F7F2D33233CF48E
:1030B000220F331FA1E22A27A0E13A2702C0220FE4
:1030C000331F6150710991F7982F88278227932722
:1030D000E417F50709F77C0140E162E674E00E941D
:1030E000622382E694E00E945823B0E1EB16F104DB
:1030F00038F4809162048DA380E38CA38BA38AA310
:10310000C7014097803F910548F4E2E6F4E08181F1
:103110008DA380818CA380E38BA38AA3C7019A959A
:1031200081159F4050F4E2E6F4E082818DA3818115
:103130008CA380818BA380E38AA3E114F0E1FF06D6
:1031400050F0E2E6F4E080818AA381818BA3828142
:103150008CA383818DA38DE08EA3AE01495D5F4F6B
:10316000E2EDF4E00F2EF1ECCF2ED12CF02DF12C6E
:10317000D8012D918D01F89491818081981304C01C
:10318000D6018C9180628C93308183819481830FEE
:10319000911DDC012C938081682F70E0228130E04A
:1031A000215031096217730711F08F5F01C08F2D15
:1031B0008083789404171507D9F60C94D30DF50184
:1031C0008285813309F0B0C081E08093BB0181E248
:1031D0008E8F81818F8F828188A3838189A38FE4E1
:1031E0008AA38EE48BA31CA21DA21EA28E01025EE6
:1031F0001F4FAE014C5D5F4FF80180E090E0B8E0FA
:10320000F12C6191292F332727FD3A952627322F5C
:1032100022276B2F7F2D33233CF4220F331FA1E293
:103220002A27A0E13A2702C0220F331F61507109FB
:1032300091F7982F882782279327E417F50709F736
:103240007C0140E162E674E00E94622382E694E041
:103250000E945823B0E1EB16F10438F48091620427
:103260008FA380E38EA38DA38CA3C7014097803FDB
:10327000910548F4E2E6F4E081818FA380818EA37A
:1032800080E38DA38CA3C7019A9581159F4050F4CC
:10329000E2E6F4E082818FA381818EA380818DA3F9
:1032A00080E38CA3E114F0E1FF0650F0E2E6F4E0E5
:1032B00080818CA381818DA382818EA383818FA342
:1032C0008DE088A7AE01475D5F4FE2EDF4E00F2E81
:1032D000F1ECCF2ED12CF02DF12CD8012D918D01B8
:1032E000F89491818081981304C0D6018C918062FA
:1032F0008C93308183819481830F911DDC012C9309
:103300008081682F70E0228130E0215031096217FE
:10331000730711F08F5F01C08F2D8083789404179D
:103320001507D9F60C94D30D803311F00C94D30DFE
:103330001092BB0181E28E8FF50181818F8F828196
:1033400088A3838189A38FE48AA386E48BA38CA3BB
:103350001DA21EA21FA28E01025E1F4FAE014B5D79
:103360005F4FF80180E090E0B8E0F12C6191292FE7
:10337000332727FD3A952627322F22276B2F7F2DC3
:1033800033233CF4220F331FA1E22A27A0E13A277E
:1033900002C0220F331F6150710991F7982F8827BF
:1033A00082279327E417F50709F77C0140E162E6DD
:1033B00074E00E94622382E694E00E945823B0E108
:1033C000EB16F10438F48091620488A780E38FA3A0
:1033D0008EA38DA3C7014097803F910548F4E2E694
:1033E000F4E0818188A780818FA380E38EA38DA3E1
:1033F000C7019A9581159F4050F4E2E6F4E082817E
:1034000088A781818FA380818EA380E38DA3E1149F
:10341000F0E1FF0650F0E2E6F4E080818DA38181C7
:103420008EA382818FA3838188A78DE089A7AE01B7
:10343000465D5F4FE2EDF4E00F2EF1ECCF2ED12C84
:10344000F02DF12CD8012D918D01F894918180817E
:10345000981304C0D6018C9180628C933081838153
:103460009481830F911DDC012C938081682F70E083
:10347000228130E0215031096217730711F08F5F0C
:1034800001C08F2D8083789404171507D9F60C940A
:10349000D30D6EE170E0C5010E944D2305978B307E
:1034A00091056CF0EEEBF4E0DE01AA5BBF4F8C54AB
:1034B0009B4F9C0191919D93E217F307D9F7CE01A1
:1034C0008A5B9F4F0E94052360938A0170938B0152
:1034D00080938C0190938D0181E28E8FF501818123
:1034E0008F8F828188A3838189A31AA21BA21CA229
:1034F0008E01025E1F4FAE014E5D5F4FF80180E00E
:1035000090E0B8E0F12C6191292F332727FD3A95FF
:103510002627322F22276B2F7F2D33233CF4220FB7
:10352000331FA1E22A27A0E13A2702C0220F331F4E
:103530006150710991F7982F882782279327E41704
:10354000F50709F77C0140E162E674E00E9462231E
:1035500082E694E00E945823B0E1EB16F10438F4BF
:10356000809162048DA380E38CA38BA38AA3C701FF
:103570004097803F910548F4E2E6F4E081818DA315
:1035800080818CA380E38BA38AA3C7019A958115C0
:103590009F4050F4E2E6F4E082818DA381818CA308
:1035A00080818BA380E38AA3E114F0E1FF0650F051
:1035B000E2E6F4E080818AA381818BA382818CA3DF
:1035C00083818DA38DE08EA3AE01495D5F4FE2ED57
:1035D000F4E00F2EF1ECCF2ED12CF02DF12CD801F0
:1035E0002D918D01F89491818081981304C0D601AA
:1035F0008C9180628C93308183819481830F911DA3
:10360000DC012C938081682F70E0228130E0215012
:1036100031096217730711F08F5F01C08F2D80830E
:10362000789404171507D9F60C94D30D6EE170E069
:10363000C5010E944D2305978B3091056CF0EEEB90
:10364000F4E0DE01AA5BBF4F8C549B4F9C0191912B
:103650009D93E217F307D9F7CE018A5B9F4FD5D729
:1036600060936B0470936C0480936D0490936E046C
:103670008DE391E00E94D9020C94D30DBE016A5BE8
:103680007F4FC5010E945C02CE018A5B9F4FBDD770
:103690006093C6017093C7018093C8019093C901DC
:1036A0008DE391E00E94D9020C94D30DBE016A5BB8
:1036B0007F4FC5010E945C02CE018A5B9F4FA5D758
:1036C0006093AC047093AD048093AE049093AF0408
:1036D0008DE391E00E94D9020C94D30DF50182850F
:1036E000813349F481E08093BA0187E391E00E943D
:1036F000D9020C94D30D803311F00C94D30D109299
:10370000BA018AE391E00E94D9020C94D30D6EE1D4
:1037100070E0C501C2D705978B3091056CF0EEEBD8
:10372000F4E0DE01AA5BBF4F8C549B4F9C0191914A
:103730009D93E217F307D9F7CE018A5B9F4F65D7B8
:10374000609372017093730180937401909375017B
:103750008DE391E00E94D9020C94D30D6EE170E0EC
:10376000C5019BD705978B3091056CF0EEEBF4E02B
:10377000DE01AA5BBF4F8C549B4F9C0191919D939E
:10378000E217F307D9F7CE018A5B9F4F3ED76093CC
:103790006704709368048093690490936A048DE3CE
:1037A00091E00E94D9020C94D30D6EE170E0C50146
:1037B00074D705978B3091056CF0EEEBF4E0DE01E9
:1037C000AA5BBF4F8C549B4F9C0191919D93E21734
:1037D000F307D9F7CE018A5B9F4F17D760936F0429
:1037E0007093700480937104909372048DE391E060
:1037F0000E94D9020C94D30D6EE170E0C5014DD743
:1038000005978B3091056CF0EEEBF4E0DE01AA5BDE
:10381000BF4F8C549B4F9C0191919D93E217F307EE
:10382000D9F7CE018A5B9F4FF0D66093A8047093BE
:10383000A9048093AA049093AB048DE391E00E94C5
:10384000D9020C94D30DD5011A968C91813349F489
:1038500081E08093B90187E391E00E94D9020C9442
:10386000D30D803311F00C94D30D1092B9018AE37B
:1038700091E00E94D9020C94D30DBE016A5B7F4F88
:10388000C5010E945C02CE018A5B9F4FBED6609349
:103890005A0170935B0180935C0190935D018DE30D
:1038A00091E00E94D9020C94D30DBE016A5B7F4F58
:1038B000C5010E945C02CE018A5B9F4FA6D6609331
:1038C00004037093050380930603909307038DE32D
:1038D00091E00E94D9020C94D30DBE016A5B7F4F28
:1038E000C5010E945C02CE018A5B9F4F8ED6609319
:1038F000F9017093FA018093FB019093FC018DE331
:1039000091E00E94D9020C94D30D6EE170E0C501E4
:10391000C4D605978B3091056CF0EEEBF4E0DE0138
:10392000AA5BBF4F8C549B4F9C0191919D93E217D2
:10393000F307D9F7CE018A5B9F4F67D66093730474
:1039400070937404809375049093760481E28E8F53
:10395000F50181818F8F828188A3838189A31AA237
:103960001BA21CA28E01025E1F4FAE014E5D5F4F77
:10397000F80180E090E0B8E0F12C6191292F332725
:1039800027FD3A952627322F22276B2F7F2D3323B1
:103990003CF4220F331FA1E22A27A0E13A2702C0FC
:1039A000220F331F6150710991F7982F88278227C2
:1039B0009327E417F50709F77C0140E162E674E01C
:1039C00081D682E694E074D6B0E1EB16F10438F4C7
:1039D000809162048DA380E38CA38BA38AA3C7018B
:1039E0004097803F910548F4E2E6F4E081818DA3A1
:1039F00080818CA380E38BA38AA3C7019A9581154C
:103A00009F4050F4E2E6F4E082818DA381818CA393
:103A100080818BA380E38AA3E114F0E1FF0650F0DC
:103A2000E2E6F4E080818AA381818BA382818CA36A
:103A300083818DA38DE08EA3AE01495D5F4FE2EDE2
:103A4000F4E00F2EF1ECCF2ED12CF02DF12CD8017B
:103A50002D918D01F89491818081981304C0D60135
:103A60008C9180628C93308183819481830F911D2E
:103A7000DC012C938081682F70E0228130E021509E
:103A800031096217730711F08F5F01C08F2D80839A
:103A9000789404171507D9F60C94D30DF501828597
:103AA000813309F0AEC081E08093B80181E28E8F4E
:103AB00081818F8F828188A3838189A38FE48AA3E8
:103AC0008EE48BA31CA21DA21EA28E01025E1F4FBC
:103AD000AE014C5D5F4FF80180E090E0B8E0F12C62
:103AE0006191292F332727FD3A952627322F222748
:103AF0006B2F7F2D33233CF4220F331FA1E22A27A3
:103B0000A0E13A2702C0220F331F6150710991F7DB
:103B1000982F882782279327E417F50709F77C0158
:103B200040E162E674E0CED582E694E0C1D5B0E132
:103B3000EB16F10438F4809162048FA380E38EA326
:103B40008DA38CA3C7014097803F910548F4E2E61E
:103B5000F4E081818FA380818EA380E38DA38CA369
:103B6000C7019A9581159F4050F4E2E6F4E0828106
:103B70008FA381818EA380818DA380E38CA3E11428
:103B8000F0E1FF0650F0E2E6F4E080818CA3818151
:103B90008DA382818EA383818FA38DE088A7AE0140
:103BA000475D5F4FE2EDF4E00F2EF1ECCF2ED12C0C
:103BB000F02DF12CD8012D918D01F8949181808107
:103BC000981304C0D6018C9180628C9330818381DC
:103BD0009481830F911DDC012C938081682F70E00C
:103BE000228130E0215031096217730711F08F5F95
:103BF00001C08F2D8083789404171507D9F60C9493
:103C0000D30D803311F00C94D30D1092B80181E2E2
:103C10008E8FF50181818F8F828188A3838189A313
:103C20008FE48AA386E48BA38CA31DA21EA21FA2ED
:103C30008E01025E1F4FAE014B5D5F4FF80180E0C9
:103C400090E0B8E0F12C6191292F332727FD3A95B8
:103C50002627322F22276B2F7F2D33233CF4220F70
:103C6000331FA1E22A27A0E13A2702C0220F331F07
:103C70006150710991F7982F882782279327E417BD
:103C8000F50709F77C0140E162E674E01BD582E6A6
:103C900094E00ED5B0E1EB16F10438F480916204A3
:103CA00088A780E38FA38EA38DA3C7014097803F91
:103CB000910548F4E2E6F4E0818188A780818FA332
:103CC00080E38EA38DA3C7019A9581159F4050F480
:103CD000E2E6F4E0828188A781818FA380818EA3B0
:103CE00080E38DA3E114F0E1FF0650F0E2E6F4E09A
:103CF00080818DA381818EA382818FA3838188A7F8
:103D00008DE089A7AE01465D5F4FE2EDF4E00F2E36
:103D1000F1ECCF2ED12CF02DF12CD8012D918D016D
:103D2000F89491818081981304C0D6018C918062AF
:103D30008C93308183819481830F911DDC012C93BE
:103D40008081682F70E0228130E0215031096217B4
:103D5000730711F08F5F01C08F2D80837894041753
:103D60001507D9F60C94D30D4091A2015091A301EF
:103D70006091A4017091A50180E090E065D640912A
:103D8000000350910103609102037091030384E0EA
:103D900090E05AD64091B0045091B1046091B204C1
:103DA0007091B30488E090E04FD64091FD015091AE
:103DB000FE016091FF01709100028CE090E044D61A
:103DC00040918A0150918B0160918C0170918D011D
:103DD00080E190E039D640916B0450916C04609181
:103DE0006D0470916E0484E190E02ED64091C6017E
:103DF0005091C7016091C8017091C90188E190E0BC
:103E000023D64091AC045091AD046091AE04709102
:103E1000AF048CE190E018D640917201509173018B
:103E2000609174017091750180E290E00DD640912F
:103E30006704509168046091690470916A0484E297
:103E400090E002D640916F0450917004609171042B
:103E50007091720488E290E0F7D54091A8045091E7
:103E6000A9046091AA047091AB048CE290E0ECD5B7
:103E700040915A0150915B0160915C0170915D012C
:103E800080E390E0E1D540910403509105036091F7
:103E900006037091070384E390E0D6D54091F901C1
:103EA0005091FA016091FB017091FC0188E390E070
:103EB000CBD5409173045091740460917504709156
:103EC00076048CE390E0C0D581E28E8FF50181818C
:103ED0008F8F828188A3838189A31AA21BA21CA22F
:103EE0008E01025E1F4FAE014E5D5F4FF80180E014
:103EF00090E0B8E0F12C6191292F332727FD3A9506
:103F00002627322F22276B2F7F2D33233CF4220FBD
:103F1000331FA1E22A27A0E13A2702C0220F331F54
:103F20006150710991F7982F882782279327E4170A
:103F3000F50709F77C0140E162E674E0C3D382E64D
:103F400094E0B6D3B0E1EB16F10438F4809162044A
:103F50008DA380E38CA38BA38AA3C7014097803FE6
:103F6000910548F4E2E6F4E081818DA380818CA381
:103F700080E38BA38AA3C7019A9581159F4050F4D3
:103F8000E2E6F4E082818DA381818CA380818BA302
:103F900080E38AA3E114F0E1FF0650F0E2E6F4E0EA
:103FA00080818AA381818BA382818CA383818DA34D
:103FB0008DE08EA3AE01495D5F4FE2EDF4E00F2E80
:103FC000F1ECCF2ED12CF02DF12CD8012D918D01BB
:103FD000F89491818081981304C0D6018C918062FD
:103FE0008C93308183819481830F911DDC012C930C
:103FF0008081682F70E0228130E021503109621702
:10400000730711F08F5F01C08F2D808378940417A0
:104010001507D9F60C94D30D81E28E8FF5018181BD
:104020008F8F828188A3838189A3EEE3F1E0DE0193
:10403000929688E491E021912D93E817F907D9F73A
:104040008E01025E1F4FAE01475D5F4FF80180E0B9
:1040500090E0B8E0F12C6191292F332727FD3A95A4
:104060002627322F22276B2F7F2D33233CF4220F5C
:10407000331FA1E22A27A0E13A2702C0220F331FF3
:104080006150710991F7982F882782279327E417A9
:10409000F50709F77C0140E162E674E013D382E69C
:1040A00094E006D3B0E1EB16F10438F48091620499
:1040B0008CA780E38BA78AA789A7C7014097803F79
:1040C000910548F4E2E6F4E081818CA780818BA71A
:1040D00080E38AA789A7C7019A9581159F4050F46C
:1040E000E2E6F4E082818CA781818BA780818AA798
:1040F00080E389A7E114F0E1FF0650F0E2E6F4E086
:10410000808189A781818AA782818BA783818CA7DF
:104110008DE08DA7AE01425D5F4FE2EDF4E00F2E22
:10412000F1ECCF2ED12CF02DF12CD8012D918D0159
:10413000F89491818081981304C0D6018C9180629B
:104140008C93308183819481830F911DDC012C93AA
:104150008081682F70E0228130E0215031096217A0
:10416000730711F08F5F01C08F2D8083789404173F
:104170001507D9F60C94D30D8FE191E00E94D90276
:104180000C94D30D40E162E674E080E090E09AD2B6
:1041900082E694E08DD2C12CD12C0C945B0F40E1CF
:1041A00062E674E080E090E08DD282E694E080D216
:1041B000C12CD12C0C94761040E162E674E080E0D2
:1041C00090E080D282E694E073D2C12CD12C0C9482
:1041D000911140E162E674E080E090E073D282E603
:1041E00094E066D2C12CD12C0C94AC1240E162E672
:1041F00074E080E090E066D282E694E059D2C12C6F
:10420000D12C0C94BC145058BB27AA270ED00DC13A
:10421000FED030F003D120F031F49F3F11F41EF4B2
:10422000F3C00EF4E095E7FBE9C0E92F0FD180F36E
:10423000BA17620773078407950718F071F49EF5A3
:1042400027C10EF4E0950B2EBA2FA02D0B01B9015A
:1042500090010C01CA01A0011124FF27591B99F0FC
:10426000593F50F4503E68F11A16F040A22F232F08
:10427000342F4427585FF3CF469537952795A79558
:10428000F0405395C9F77EF41F16BA0B620B730BFF
:10429000840BBAF09150A1F0FF0FBB1F661F771F70
:1042A000881FC2F70EC0BA0F621F731F841F48F425
:1042B000879577956795B795F7959E3F08F0B3CFAB
:1042C0009395880F08F09927EE0F97958795089595
:1042D00071D008F481E0089504D06894B111D9C078
:1042E0000895BCD088F09F5790F0B92F9927B75107
:1042F000A0F0D1F0660F771F881F991F1AF0BA95AA
:10430000C9F712C0B13081F0C3D0B1E00895C0C088
:10431000672F782F8827B85F39F0B93FCCF386959F
:1043200077956795B395D9F73EF4909580957095FC
:1043300061957F4F8F4F9F4F0895E89409C097FB79
:104340003EF490958095709561957F4F8F4F9F4F6C
:104350009923A9F0F92F96E9BB279395F6958795B0
:1043600077956795B795F111F8CFFAF4BB0F11F473
:1043700060FF1BC06F5F7F4F8F4F9F4F16C088231A
:1043800011F096E911C0772321F09EE8872F762F50
:1043900005C0662371F096E8862F70E060E02AF091
:1043A0009A95660F771F881FDAF7880F969587957D
:1043B00097F90895990F0008550FAA0BE0E8FEEF52
:1043C00016161706E807F907C0F012161306E407D9
:1043D000F50798F0621B730B840B950B39F40A26D2
:1043E00061F0232B242B252B21F408950A2609F4B0
:1043F000A140A6958FEF811D811D089597F99F67B4
:1044000080E870E060E008959FEF80EC089500245C
:104410000A941616170618060906089500240A9429
:1044200012161306140605060895092E0394000CAF
:1044300011F4882352F0BB0F40F4BF2B11F460FF3E
:1044400004C06F5F7F4F8F4F9F4F089557FD905867
:10445000440F551F59F05F3F71F04795880F97FB48
:10446000991F61F09F3F79F0879508951216130602
:104470001406551FF2CF4695F1DF08C01616170631
:104480001806991FF1CF8695710561050894089566
:10449000E894BB2766277727CB0197F908958ADF31
:1044A00008F48FEF08950BD0C0CFB1DF28F0B6DF4E
:1044B00018F0952309F0A2CFA7CF1124EACFC6DFC9
:1044C000A0F3959FD1F3950F50E0551F629FF00127
:1044D000729FBB27F00DB11D639FAA27F00DB11D80
:1044E000AA1F649F6627B00DA11D661F829F222709
:1044F000B00DA11D621F739FB00DA11D621F839F90
:10450000A00D611D221F749F3327A00D611D231F65
:10451000849F600D211D822F762F6A2F11249F57B3
:1045200050408AF0E1F088234AF0EE0FFF1FBB1FD6
:10453000661F771F881F91505040A9F79E3F510575
:1045400070F05CCFA6CF5F3FECF3983EDCF386952E
:1045500077956795B795F795E7959F5FC1F7FE2B20
:10456000880F911D9695879597F9089577DFE0F06C
:104570009E37D8F09639B8F49E3848F4672F782FD4
:104580008827985FF9CF86957795679593959539A4
:10459000D0F3B62FB1706B0F711D811D20F487957C
:1045A00077956795939502C01CC073CF882371F4EB
:1045B000772321F09850872B762F07C0662311F4BC
:1045C00099270DC09051862B70E060E02AF09A95F3
:1045D000660F771F881FDAF7880F9695879597F9EA
:1045E00008959F3F31F0915020F487957795679516
:1045F000B795880F911D9695879597F90895EE0FB9
:10460000FF1F0590F491E02D09946627772792C04B
:104610001F93FC0199278827BC01E894119110325F
:10462000E9F3193010F01E30C8F31B3249F01D3287
:1046300041F4689405C050D0610F711D811D911D1A
:10464000119110531A30B8F33EF4909580957095FF
:1046500061957F4F8F4F9F4F1F910895FB01DC01A4
:104660000D900020E9F7119701900D920020E1F7DD
:104670000895FC018191861721F08823D9F79927A5
:1046800008953197CF010895FB01DC018D910190D0
:1046900080190110D9F3990B0895FC016150704005
:1046A00001900110D8F7809590958E0F9F1F089567
:1046B000DC016C9161566A3108F0605E6F5B6D934E
:1046C000C1F70895BB274A3031F4992322F4BDE2A3
:1046D000909581959F4F16C0592F482F372F262F21
:1046E000660F771F881F991F660F771F881F991FF6
:1046F000620F731F841F951F660F771F881F991FF6
:104700000895BB27FB015527AA27880F991FAA1FC9
:10471000A41710F0A41B83955051B9F7A05DAA33DC
:1047200008F0A95DA193009779F7B111B1931192A7
:10473000CB0172C1A0E0B0E0EFE9F3E2B9C1EC0156
:104740007B016115710519F0DB018D939C938E013E
:104750000F5F1F4F7880872D90E03ED1892B11F09D
:10476000E801F5CFBDE27B1205C00F5F1F4F7980D6
:10477000C1E008C0EBE27E1204C08E010E5F1F4F45
:104780007980C0E06801F1E0CF1AD10843E050E041
:1047900068ED72E0C60128D1892BE9F4680122E0B6
:1047A000C20ED11C45E050E063ED72E0C6011CD1A1
:1047B000892B21F4680187E0C80ED11CE114F104B3
:1047C00019F0D701CD92DC92C111F9C060E070E020
:1047D00080E89FE7FDC043E050E060ED72E0C60175
:1047E00003D1892B51F4E114F10409F4EDC00E5FFB
:1047F0001F4FF70111830083E7C0680160E070E09C
:10480000CB0100E010E0F601D0EDD70DDA3050F525
:104810002C2F2260622E2C2F2870C2FF05C0211180
:1048200027C00F5F1F4F24C0222311F00150110930
:10483000A5E0B0E09B01AC012DD14B015C01880CDF
:10484000991CAA1CBB1CC501B4016D0F711D811DF3
:10485000911D6839A9E97A078A07A9E19A0740F00A
:10486000C66005C0DE3F51F4C3FD44C0C8606C2E75
:10487000BFEFCB1ADB0A7080C62DC5CF2D2F2F7D41
:104880002531C1F540814D3211F4C06106C04B3273
:1048900021F0319621E030E006C03296D601119623
:1048A0004C9122E030E0A0EDA40FAA3018F0E21BFA
:1048B000F30B20C040E050E04038BCE05B075CF404
:1048C0009A01220F331F220F331F420F531F440F31
:1048D000551F4A0F511D3196DF0111972C91A0ED04
:1048E000A20FAA3048F3C4FF03C051954195510966
:1048F000040F151FC1FF07C0E114F10421F0319727
:10490000D701ED93FC9319DDC370C33019F06B012F
:104910007C0106C06B017C01F7FAF094F7F8F09483
:1049200020E030E0A901C701B601D2DC882309F4F8
:1049300043C017FF06C0119501951109CFEED2E0D3
:1049400002C0C7E0D3E05E01B8E1AB1AB10846018E
:10495000BE2DAF2D90E2E92EF12C0E151F057CF037
:10496000FE012591359145915491B4018B2F9A2FD9
:104970009ADD4B01B82FA92F0E191F09EECF2497EE
:10498000F594E794CA15DB0541F76401EB2EFA2E86
:104990008E2D880F8F2D881F8F3F41F020E030E053
:1049A000A901C701B60194DC811106C082E290E042
:1049B0009093D8048093D704C701B60109C060E082
:1049C00070E080E89FEF04C060E070E080EC9FE75B
:1049D000CDB7DEB7EEE088C091112EC0803219F05D
:1049E00089508550D0F70895FB01DC0141505040BB
:1049F00088F08D9181341CF08B350CF4805E6591CC
:104A000061341CF06B350CF4605E861B611171F330
:104A1000990B0895881BFCCFDC01FC01672F719175
:104A20007723E1F7329704C07C916D937083629194
:104A3000AE17BF07C8F30895992788270895A6E100
:104A4000B0E044E050E00AC0242F17D0252F15D045
:104A500000C012D0272F11C0DC01CB01FC01F99955
:104A6000FECF06C0F2BDE1BDF89A319600B40D92BA
:104A700041505040B8F70895262FF999FECF1FBA3C
:104A800092BD81BD20BD0FB6F894FA9AF99A0FBE77
:104A90000196089540D0A59F900DB49F900DA49FBE
:104AA000800D911D112408952F923F924F925F9295
:104AB0006F927F928F929F92AF92BF92CF92DF922E
:104AC000EF92FF920F931F93CF93DF93CDB7DEB793
:104AD000CA1BDB0B0FB6F894DEBF0FBECDBF099427
:104AE0002A88398848885F846E847D848C849B847E
:104AF000AA84B984C884DF80EE80FD800C811B818C
:104B0000AA81B981CE0FD11D0FB6F894DEBF0FBEBA
:104B1000CDBFED010895A29FB001B39FC001A39F37
:104B2000700D811D1124911DB29F700D811D1124E6
:084B3000911D0895F894FFCFD8
:104B380001001E0014000A00433243412053412063
:104B480041445020312E3000000000004946004307
:104B58005243206572726F72005652005652657247
:104B6800726F72005653004F4E004F464600565320
:064B78006572726F72000D
:00000001FF
