:1000000088C10000A3C10000A1C100009FC1000081
:100010009DC100009BC1000099C100006BC500009C
:1000200095C1000093C1000091C100008FC1000084
:100030008DC100008BC10000BFC4000087C100005B
:1000400085C1000083C1000083C4000041C40000DA
:100050007DC100007BC1000079C1000077C10000B4
:1000600075C1000073C100007C0F8D0FAE10CD1163
:10007000EC120B142A154A165B166C167A16BB186E
:10008000BB18BB18BB18BB18BB18BB18BB18BB18D8
:10009000BB18BB18BB18BB18BB18BB18BB18BB18C8
:1000A000BB18BB18BB18BB18BB18BB18BB18BB18B8
:1000B000BB18BB18BB18BB18BB18BB18BB18BB18A8
:1000C000BB18BB18BB18BB18BB18BB18BB18BB1898
:1000D000BB18BB18BB18BB18BB18BB18BB18BB1888
:1000E000BB18BB18BB18BB18BB18BB18BB18BB1878
:1000F000BB18BB18BB18BB18BB18BB18BB18BB1868
:10010000BB18BB18BB18BB18BB18BB18BB18BB1857
:10011000BB18BB18BB18BB18BB18BB18BB18BB1847
:10012000BB18BB18BB18BB18BB18BB18BB18BB1837
:100130008D169E16AF16C016D116E216F3160417CA
:10014000151726173417BB18BB18BB18BB18BB18DC
:10015000BB18BB18BB18BB18BB18BB18BB18BB1807
:10016000BB18BB18BB18BB18BB18BB18BB18BB18F7
:10017000BB18BB18BB18BB18BB18BB18BB18BB18E7
:10018000BB18BB18BB18BB18BB18BB18BB18BB18D7
:10019000BB18BB18BB18BB18BB18BB18BB18BB18C7
:1001A000BB18BB18BB18BB18BB18BB18BB18BB18B7
:1001B000BB18BB18BB18BB18BB18BB18BB18BB18A7
:1001C000BB18BB18BB18BB18BB18BB18BB18BB1897
:1001D000BB18BB18BB18BB18BB18BB18BB18BB1887
:1001E000BB18BB18BB18BB18BB18BB18BB18BB1877
:1001F000BB18BB18BB18BB184717581769177A17D5
:100200008B179C17AD17BE17CF17E017EE17BB184B
:10021000BB18BB18BB18BB18BB18BB18BB18BB1846
:10022000BB18BB18BB18BB18BB18BB18BB18BB1836
:10023000BB18BB18BB18BB18BB18BB18BB18BB1826
:10024000BB18BB18BB18BB18BB18BB18BB18BB1816
:10025000BB18BB18BB18BB18BB18BB18BB18BB1806
:10026000BB18BB18BB18BB18BB18BB18BB18BB18F6
:10027000BB18BB18BB18BB18BB18BB18BB18BB18E6
:10028000BB18BB18BB18BB18BB18BB18BB18BB18D6
:10029000BB18BB18BB18BB18BB18BB18BB18BB18C6
:1002A000BB18BB18BB18BB18BB18BB18BB18BB18B6
:1002B000BB18BB18BB18BB18BB18BB18BB18BB18A6
:1002C000011812182318341845185618671878188A
:1002D00089189A18A8184E414E494E495459494E0A
:1002E00046CDCCCC3D0AD7233C17B7D13877CC2BA1
:1002F000329595E6241FB14F0A000020410000C846
:100300004200401C4620BCBE4CCA1B0E5AAEC59DC6
:10031000740011241FBECFEFD8E0DEBFCDBF11E0C7
:10032000A0E0B1E0E0EFFCE402C005900D92A4343F
:10033000B107D9F725E0A4E4B1E001C01D92A530D2
:10034000B207E1F70E94A40C0C94762659CE6230D5
:1003500059F018F4613031F00CC0633039F064307A
:1003600039F007C05C9805C05D9803C05E9801C075
:100370005F9890E89EBD0DB407FEFDCF9EB58EBD83
:100380000DB407FEFDCF8EB58BB1806F8BB908958C
:10039000CF93161617063CF5FC01680F791F80E015
:1003A00090E0B8E0A0E04191292F332727FD3A954E
:1003B0002427322F22274B2F5A2F33233CF4220F8E
:1003C000331FC1E22C27C0E13C2702C0220F331F9C
:1003D0004150510991F7982F882782279327E617D4
:1003E000F70709F702C080E090E0CF910895CF931E
:1003F000DF93CDE6D2E0488159816A817B8180E03C
:1004000090E00E9400264C8D5D8D6E8D7F8D84E086
:1004100090E00E94002648A159A16AA17BA188E032
:1004200090E00E9400264CA15DA16EA17FA18CE00E
:1004300090E00E9400264091C1025091C20260915A
:10044000C3027091C40280E190E00E940026609196
:10045000C7027091C80284E190E00E940526CAE0BC
:10046000D2E0488159816A817B8188E190E00E94D5
:1004700000264C8D5D8D6E8D7F8D8CE190E00E940D
:10048000002648A159A16AA17BA180E290E00E94C8
:1004900000264CA15DA16EA17FA184E290E00E94A4
:1004A000002640915E0250915F026091600270915F
:1004B000610288E290E00E940026609164027091DF
:1004C00065028CE290E00E940526C7EAD1E04881EF
:1004D00059816A817B8180E390E00E9400264C8DE7
:1004E0005D8D6E8D7F8D84E390E00E94002648A193
:1004F00059A16AA17BA188E390E00E9400264CA14B
:100500005DA16EA17FA18CE390E00E940026409146
:10051000FB015091FC016091FD017091FE0180E4AE
:1005200090E00E940026609101027091020284E432
:1005300090E00E940526C4E4D1E0488159816A8197
:100540007B8188E490E00E9400264C8D5D8D6E8D4D
:100550007F8D8CE490E00E94002648A159A16AA1F9
:100560007BA180E590E00E9400264CA15DA16EA1D8
:100570007FA184E590E00E9400264091980150916F
:10058000990160919A0170919B0188E590E00E9429
:10059000002660919E0170919F018CE590E00E9481
:1005A0000526DF91CF9108950F931F93CF93DF938B
:1005B000EC018B010E942724C8010E942724888116
:1005C000803319F58981803309F041C08A818033F5
:1005D000B9F581E02B81F80190812917E9F180E0DC
:1005E0003BC081E02B81F80191812917A9F180E0BE
:1005F00033C09A81F801818198131AC081E02B8160
:100600009281291749F180E027C0F8019081891370
:1006100011C09981818198130FC09A8182819813AA
:100620000DC081E02B8193812917B1F080E014C0C7
:1006300080E012C080E010C080E00EC080E00CC0FE
:100640009A81F8018081981761F280E005C0F80175
:100650009081891771F280E0DF91CF911F910F9106
:100660000895CF92DF92EF92FF920F931F93CF9353
:10067000DF93CDB7DEB7A8970FB6F894DEBF0FBEF5
:10068000CDBFFC0181E28983A0EEB4E011968C918C
:1006900011978A8312968C9112978B8313968C9163
:1006A0008C83CF01AE014B5F5F4F00E010E008C0CC
:1006B000DC012D91CD01DA012D93AD010F5F1F4FAC
:1006C000DF010D900020E9F79D012E1B3F0B2E5FEF
:1006D0003F4F0217130760F37801BFEFEB1AFB0AD5
:1006E0001E141F040CF0D7C0FE013196A7014E0F57
:1006F0005F1F80E090E0B8E0D12C6191292F332773
:1007000027FD3A952627322F22276B2F7D2D332365
:100710003CF4220F331FA1E22A27A0E13A2702C0AE
:10072000220F331F6150710991F7982F8827822774
:100730009327E417F50709F76C0140E166ED74E0D3
:100740000E94312486ED94E00E942724B0E1CB166C
:10075000D10498F48091D604FE01E00FF11F858347
:1007600080E3FE01E00FF11F8483FE01E00FF11F23
:100770008383FE01EE0DFF1D8183C6014097803FFC
:100780009105B8F4A6EDB4E011968C911197FE0195
:10079000E00FF11F85838C91FE01E00FF11F848330
:1007A00080E3FE01E00FF11F8383FE01EE0DFF1DCC
:1007B0008183C6019A9581159F40B8F4E6EDF4E077
:1007C0008281DE01A00FB11F15968C938181DE011D
:1007D000A00FB11F14968C9314978081FD01838321
:1007E00080E3FE01EE0DFF1D8183C11480E1D80678
:1007F000C0F0DE01AE0DBF1DE6EDF4E08081119684
:100800008C938181DE01A00FB11F13968C9382819E
:10081000DE01A00FB11F14968C9314978381FD0104
:100820008583C8010596FE01E80FF91F2DE021839D
:1008300099230CF43EC0AE014F5F5F4F0A5F1F4F1C
:10084000040F151FEEEFF4E061EC70E030E0DA0128
:100850008D91AD01F89421819081291304C0DB01B1
:100860009C9190629C939081A381B481A90FB11D4A
:100870008C932081A22FB0E0828190E00197A8178D
:10088000B90711F02F5F01C0232F20837894401700
:100890005107E9F60EC040E166ED74E080E090E0BB
:1008A0000E94312486ED94E00E942724C12CD12C93
:1008B00051CFA8960FB6F894DEBF0FBECDBFDF9123
:1008C000CF911F910F91FF90EF90DF90CF900895FF
:1008D0001F920F920FB60F9211242F933F934F93B5
:1008E0005F938F939F93AF93BF93EF93FF93EEEF3D
:1008F000F4E0918180819817B9F08181A381B4815E
:10090000A80FB11D3C912181422F50E0828190E0DF
:1009100001974817590711F02F5F01C020E020937D
:10092000FF043093C60005C0E1ECF0E080818F7DCC
:100930008083FF91EF91BF91AF919F918F915F91D4
:100940004F913F912F910F900FBE0F901F901895D0
:100950001F920F920FB60F9211242F934F935F9314
:100960008F939F93AF93BF93EF93FF938091C600B4
:10097000EBEDF4E09081A381B481A90FB11D8C93BC
:100980002081422F50E0828190E00197481759075B
:1009900011F02F5F01C020E02093DB04FF91EF9165
:1009A000BF91AF919F918F915F914F912F910F9038
:1009B0000FBE0F901F9018951F920F920FB60F92B7
:1009C00011242F933F938F939F93EF93FF93EBEC1F
:1009D000F2E0808191810196918380832081318131
:1009E0008091CD029091CE022817390734F480917E
:1009F000CF02882319F0409A01C040988091CB0221
:100A00009091CC028436910524F01092CC02109281
:100A1000CB02E8E6F2E080819181019691838083A8
:100A20002081318180916A0290916B0228173907E9
:100A300034F480916C02882319F0419A01C04198E6
:100A400080916802909169028436910524F0109299
:100A5000690210926802E5E0F2E0808191810196DE
:100A600091838083208131818091070290910802D7
:100A70002817390734F480910902882319F0429A23
:100A800001C042988091050290910602843691053A
:100A900024F01092060210920502E2EAF1E0808151
:100AA0009181019691838083208131818091A4017D
:100AB0009091A5012817390734F48091A601882365
:100AC00019F0439A01C043988091A2019091A3012B
:100AD0008436910524F01092A3011092A201FF9197
:100AE000EF919F918F913F912F910F900FBE0F909B
:100AF0001F9018951F920F920FB60F921124CF924C
:100B0000DF92EF92FF920F931F932F933F934F9398
:100B10005F936F937F938F939F93AF93BF93CF9385
:100B2000DF93EF93FF9378945B9A5C9881E08EBD9E
:100B30000DB407FEFDCF8EB51EBC0DB407FEFDCF74
:100B40009EB58BB1806F8BB95C9882E08EBD0DB481
:100B500007FEFDCF8EB51EBC0DB407FEFDCF6EB5F2
:100B60008BB1806F8BB970E0792B75956795072EE7
:100B7000000C880B990B0E94512220E030E040E0ED
:100B80005DE30E94052320E030E040E853E40E944A
:100B9000B521EDE6F2E064837583868397836481F3
:100BA00075818681978120E030E040EF52E40E9419
:100BB000012318162CF41092CF0288B1807F88B9D7
:100BC0000091D0021091D102CDE6D2E06881798106
:100BD0008A819B812C813D814E815F810E94B5215C
:100BE000000F111F000F111FF801EB56FD4F60831E
:100BF000718382839383E091D002F091D102EE0F52
:100C0000FF1FEE0FFF1FEB56FD4F60817181828148
:100C100093812C8D3D8D4E8D5F8D0E9405236887BD
:100C200079878A879B87CC84DD84EE84FF84E0917A
:100C3000D002F091D102EE0FFF1FEE0FFF1FEB5617
:100C4000FD4F608171818281938128A139A14AA1E0
:100C50005BA10E9405239B01AC01C701B6010E9464
:100C6000B6216C877D878E879F876C857D858E8575
:100C70009F8520E030E040E251E40E9401231816F5
:100C800064F480E090E0A0E2B1E480937902909374
:100C90007A02A0937B02B0937C02609179027091FA
:100CA0007A0280917B0290917C0220E030E040E269
:100CB00051EC0E941A22882364F480E090E0A0E2C4
:100CC000B1EC8093790290937A02A0937B02B09367
:100CD0007C02E091D002F091D102CDE6D2E0EE0F9D
:100CE000FF1FEE0FFF1FEB56FD4F60817181828168
:100CF0009381E0910001F0910101EE0FFF1FEE0FD3
:100D0000FF1FEB56FD4F2081318142815381CCA0E2
:100D1000DDA0EEA0FFA00E94B521A70196010E94D0
:100D20000523688B798B8A8B9B8B688579858A856F
:100D30009B852C853D854E855F85C888D988EA8846
:100D4000FB880E94B621A70196010E94B621688FF8
:100D5000798F8A8F9B8F888D998DAA8DBB8D8C8B77
:100D60009D8BAE8BBF8B6C897D898E899F890E94FC
:100D700068230E941E227093CE026093CD02E09100
:100D8000D002F091D102EE0FFF1FEE0FFF1FEB56C6
:100D9000FD4F80819181A281B381BC01CD019F77FC
:100DA00020E030E040EA50E40E940123181644F4A9
:100DB0001092790210927A0210927B0210927C02B9
:100DC000E091D002F091D102EE0FFF1FEE0FFF1F56
:100DD000EB56FD4F80819181A281B3812091C102A8
:100DE0003091C2024091C3025091C402BC01CD01B6
:100DF0009F770E941A22181614F1E5ECF2E0808128
:100E00009181019691838083208131814091C70235
:100E10005091C8026DE3649FC001659F900D11243D
:100E200028173907A4F081E090E09093CA028093DC
:100E3000C9028081918101979183808308C01092BB
:100E4000C6021092C5021092CA021092C9025D98A1
:100E500081E08EBD0DB407FEFDCF8EB51EBC0DB476
:100E600007FEFDCF9EB58BB1806F8BB95D9882E098
:100E70008EBD0DB407FEFDCF8EB51EBC0DB407FEB2
:100E8000FDCF6EB58BB1806F8BB970E0792B759506
:100E90006795072E000C880B990B0E94512220E0C9
:100EA00030E040E05DE30E94052320E030E040E8D0
:100EB00053E40E94B521EAE0F2E0648375838683FF
:100EC0009783648175818681978120E030E040EFCF
:100ED00052E40E94012318162CF410926C0288B17F
:100EE000807F88B90091D0021091D102CAE0D2E08F
:100EF000688179818A819B812C813D814E815F81CE
:100F00000E94B521000F111F000F111FF801EE5CA8
:100F1000FD4F6083718382839383E091D002F091CF
:100F2000D102EE0FFF1FEE0FFF1FEE5CFD4F608141
:100F30007181828193812C8D3D8D4E8D5F8D0E94BC
:100F40000523688779878A879B87CC84DD84EE8434
:100F5000FF84E091D002F091D102EE0FFF1FEE0F5F
:100F6000FF1FEE5CFD4F608171818281938128A11A
:100F700039A14AA15BA10E9405239B01AC01C701D5
:100F8000B6010E94B6216C877D878E879F876C850E
:100F90007D858E859F8520E030E040E251E40E940F
:100FA0000123181664F480E090E0A0E2B1E480939D
:100FB000160290931702A0931802B0931902609141
:100FC000160270911702809118029091190220E088
:100FD00030E040E251EC0E941A22882364F480E061
:100FE00090E0A0E2B1EC8093160290931702A093D8
:100FF0001802B0931902E091D002F091D102CAE038
:10100000D2E0EE0FFF1FEE0FFF1FEE5CFD4F608181
:10101000718182819381E0910001F0910101EE0FD5
:10102000FF1FEE0FFF1FEE5CFD4F208131814281DB
:101030005381CCA0DDA0EEA0FFA00E94B521A701A6
:1010400096010E940523688B798B8A8B9B8B688520
:1010500079858A859B852C853D854E855F85C888E9
:10106000D988EA88FB880E94B621A70196010E94D0
:10107000B621688F798F8A8F9B8F888D998DAA8DE5
:10108000BB8D8C8B9D8BAE8BBF8B6C897D898E8944
:101090009F890E9468230E941E2270936B026093B6
:1010A0006A02E091D002F091D102EE0FFF1FEE0F25
:1010B000FF1FEE5CFD4F80819181A281B381BC0155
:1010C000CD019F7720E030E040EA50E40E94012308
:1010D000181644F410921602109217021092180279
:1010E00010921902E091D002F091D102EE0FFF1F91
:1010F000EE0FFF1FEE5CFD4F80819181A281B381D5
:1011000020915E0230915F02409160025091610235
:10111000BC01CD019F770E941A22181614F1E2E655
:10112000F2E08081918101969183808320813181D9
:1011300040916402509165026DE3649FC001659F18
:10114000900D112428173907A4F081E090E09093C6
:1011500067028093660280819181019791838083E9
:1011600008C01092630210926202109267021092FD
:1011700066025E9881E08EBD0DB407FEFDCF8EB590
:101180001EBC0DB407FEFDCF9EB58BB1806F8BB931
:101190005E9882E08EBD0DB407FEFDCF8EB51EBCFD
:1011A0000DB407FEFDCF6EB58BB1806F8BB970E0CB
:1011B000792B75956795072E000C880B990B0E946B
:1011C000512220E030E040E05DE30E94052320E072
:1011D00030E040E853E40E94B521E7EAF1E064839F
:1011E000758386839783648175818681978120E0EA
:1011F00030E040EF52E40E94012318162CF41092C4
:10120000090288B1807F88B90091D0021091D10283
:10121000C7EAD1E0688179818A819B812C813D81F7
:101220004E815F810E94B521000F111F000F111F19
:10123000F801E153FE4F6083718382839383E091D1
:10124000D002F091D102EE0FFF1FEE0FFF1FE1530E
:10125000FE4F60817181828193812C8D3D8D4E8DF9
:101260005F8D0E940523688779878A879B87CC8456
:10127000DD84EE84FF84E091D002F091D102EE0F84
:10128000FF1FEE0FFF1FE153FE4F608171818281CE
:10129000938128A139A14AA15BA10E9405239B014A
:1012A000AC01C701B6010E94B6216C877D878E878D
:1012B0009F876C857D858E859F8520E030E040E2AC
:1012C00051E40E940123181664F480E090E0A0E24B
:1012D000B1E48093B3019093B401A093B501B093AE
:1012E000B6016091B3017091B4018091B501909104
:1012F000B60120E030E040E251EC0E941A2288233F
:1013000064F480E090E0A0E2B1EC8093B3019093AC
:10131000B401A093B501B093B601E091D002F09171
:10132000D102C7EAD1E0EE0FFF1FEE0FFF1FE1531E
:10133000FE4F6081718182819381E0910001F09183
:101340000101EE0FFF1FEE0FFF1FE153FE4F208143
:10135000318142815381CCA0DDA0EEA0FFA00E948C
:10136000B521A70196010E940523688B798B8A8B92
:101370009B8B688579858A859B852C853D854E85E7
:101380005F85C888D988EA88FB880E94B621A701B2
:1013900096010E94B621688F798F8A8F9B8F888DE6
:1013A000998DAA8DBB8D8C8B9D8BAE8BBF8B6C89E1
:1013B0007D898E899F890E9468230E941E227093D6
:1013C000080260930702E091D002F091D102EE0F83
:1013D000FF1FEE0FFF1FE153FE4F80819181A2811D
:1013E000B381BC01CD019F7720E030E040EA50E4BA
:1013F0000E940123181644F41092B3011092B40114
:101400001092B5011092B601E091D002F091D10294
:10141000EE0FFF1FEE0FFF1FE153FE4F8081918102
:10142000A281B3812091FB013091FC014091FD012B
:101430005091FE01BC01CD019F770E941A2218161F
:1014400014F1EFEFF1E08081918101969183808327
:101450002081318140910102509102026DE3649F2D
:10146000C001659F900D112428173907A4F081E071
:1014700090E0909304028093030280819181019710
:101480009183808308C0109200021092FF01109295
:101490000402109203025F9881E08EBD0DB407FE36
:1014A000FDCF8EB51EBC0DB407FEFDCF9EB58BB132
:1014B000806F8BB95F9882E08EBD0DB407FEFDCFC3
:1014C0008EB51EBC0DB407FEFDCF6EB58BB1806F1F
:1014D0008BB970E0792B75956795072E000C880BFA
:1014E000990B0E94512220E030E040E05DE30E9431
:1014F000052320E030E040E853E40E94B521E4E415
:10150000F1E0648375838683978364817581868126
:10151000978120E030E040EF52E40E94012318164A
:101520002CF41092A60188B1807F88B90091D00276
:101530001091D102C4E4D1E0688179818A819B81D4
:101540002C813D814E815F810E94B521000F111FCA
:10155000000F111FF801E459FE4F608371838283ED
:101560009383E091D002F091D102EE0FFF1FEE0FB6
:10157000FF1FE459FE4F60817181828193812C8D20
:101580003D8D4E8D5F8D0E940523688779878A8700
:101590009B87CC84DD84EE84FF84E091D002F091BF
:1015A000D102EE0FFF1FEE0FFF1FE459FE4F6081C7
:1015B00071818281938128A139A14AA15BA10E94F6
:1015C00005239B01AC01C701B6010E94B6216C87BF
:1015D0007D878E879F876C857D858E859F8520E0A2
:1015E00030E040E251E40E940123181664F480E0E8
:1015F00090E0A0E2B1E48093500190935101A09358
:101600005201B0935301609150017091510180914A
:1016100052019091530120E030E040E251EC0E94F1
:101620001A22882364F480E090E0A0E2B1EC809379
:10163000500190935101A0935201B0935301E09156
:10164000D002F091D102C4E4D1E0EE0FFF1FEE0F03
:10165000FF1FE459FE4F6081718182819381E09187
:101660000001F0910101EE0FFF1FEE0FFF1FE45983
:10167000FE4F2081318142815381CCA0DDA0EEA0BC
:10168000FFA00E94B521A70196010E940523688B47
:10169000798B8A8B9B8B688579858A859B852C8540
:1016A0003D854E855F85C888D988EA88FB880E9479
:1016B000B621A70196010E94B621688F798F8A8F83
:1016C0009B8F888D998DAA8DBB8D8C8B9D8BAE8BBE
:1016D000BF8B6C897D898E899F890E9468230E94B7
:1016E0001E227093A5016093A401E091D002F091B5
:1016F000D102EE0FFF1FEE0FFF1FE459FE4F808156
:101700009181A281B381BC01CD019F7720E030E0BF
:1017100040EA50E40E940123181644F4109250014C
:10172000109251011092520110925301E091D00297
:10173000F091D102EE0FFF1FEE0FFF1FE459FE4F95
:1017400080819181A281B38120919801309199018A
:1017500040919A0150919B01BC01CD019F770E945D
:101760001A22181614F1ECE9F1E0808191810196BA
:10177000918380832081318140919E0150919F010E
:101780006DE3649FC001659F900D112428173907F0
:10179000A4F081E090E09093A1018093A00180816A
:1017A000918101979183808308C010929D011092CE
:1017B0009C011092A1011092A0018091D002909101
:1017C000D10201969093D1028093D0028091D002F1
:1017D0009091D1020B9724F01092D1021092D00276
:1017E0008091D0029091D102019690930101809353
:1017F000000180910001909101010B9724F010925B
:101800000101109200015B98FF91EF91DF91CF9160
:10181000BF91AF919F918F917F916F915F914F9108
:101820003F912F911F910F91FF90EF90DF90CF90FC
:101830000F900FBE0F901F9018958F929F92AF92AE
:10184000BF92CF92DF92EF92FF920F931F93CF93AD
:10185000DF93CDB7DEB764970FB6F894DEBF0FBE47
:10186000CDBF4B015C018A010E941E226B017C01ED
:1018700084E1F80111928A95E9F74AE0B801C601BE
:101880000E943124F80101900020E9F731978EE29F
:1018900090E091838083B601DD0C880B990B0E9448
:1018A00051229B01AC01C501B4010E94B52120E089
:1018B00030E04AE754E40E9405230E941E229B0167
:1018C000772324F422273327261B370B4AE0BE0157
:1018D0006F5F7F4FC9010E94312480E090E0DE01FC
:1018E000119623E030E040E350E008C0F801019099
:1018F0000020E9F73197518340830196FD01019063
:101900000020E9F73197EA1BFB0BB9016E1B7F0B37
:101910008617970758F3BE016F5F7F4FC8010E947B
:10192000FD2364960FB6F894DEBF0FBECDBFDF91E6
:10193000CF911F910F91FF90EF90DF90CF90BF90CC
:10194000AF909F908F900895CF93DF93CDB7DEB780
:10195000C457D1090FB6F894DEBF0FBECDBF80E1EA
:10196000E2E0F1E0DE01599601900D928A95E1F7EF
:1019700019A61AA61BA61CA6F8941092C50082E20E
:101980008093C400E0ECF0E080818260808388E98D
:101990008093C10086E08093C2001AAA1BAA772414
:1019A0007A947CAA85ED92E09EAB8DAB85E0FE013A
:1019B000F296DE01169601900D928A95E1F785E088
:1019C000FE013696DE01119601900D928A95E1F79F
:1019D00085E0FE013196AEEFB4E001900D928A955C
:1019E000E1F71AAA1BAA7CAA84ED93E09EAB8DAB0B
:1019F00085E0FE01F296DE01509601900D928A95E7
:101A0000E1F785E0FE017096DE011B9601900D92D4
:101A10008A95E1F785E0FE013B96ABEDB4E00190DD
:101A20000D928A95E1F7789424988CE284B98DE53B
:101A30008CBD0F2EFDE6AF2EF2E0BF2EF02D81E023
:101A400090E09093CE028093CD020F2EFAE0CF2E3D
:101A5000F2E0DF2EF02D90936B0280936A020F2E3E
:101A6000F7EAEF2EF1E0FF2EF02D9093080280931D
:101A7000070204E411E09093A5018093A4010F2EC6
:101A8000F4E68F2EF2E09F2EF02D85E090E0D40159
:101A900011969C938E9388EF8AB98FE087B9219A2B
:101AA0008BB1806F8BB980E090E00E94F625F50144
:101AB000608371838283938384E090E00E94F625A3
:101AC000D5015C966D937D938D939C935F9788E091
:101AD00090E00E94F625F50160A371A382A393A371
:101AE0008CE090E00E94F625D50194966D937D934D
:101AF0008D939C93979780E190E00E94F6256093E8
:101B0000C1027093C2028093C3029093C40284E125
:101B100090E00E94FB259093C8028093C70288E161
:101B200090E00E94F625F60160837183828393839F
:101B30008CE190E00E94F625D6015C966D937D9332
:101B40008D939C935F9780E290E00E94F625F601CA
:101B500060A371A382A393A384E290E00E94F62580
:101B6000D60194966D937D938D939C93979788E27D
:101B700090E00E94F62560935E0270935F0280936E
:101B80006002909361028CE290E00E94FB25F401D8
:101B90009183808380E390E00E94F625D7016D93C6
:101BA0007D938D939C93139784E390E00E94F62598
:101BB000F701648F758F868F978F88E390E00E947E
:101BC000F625D70190966D937D938D939C93939773
:101BD0008CE390E00E94F625F70164A375A386A329
:101BE00097A380E490E00E94F6256093FB01709338
:101BF000FC018093FD019093FE0184E490E00E943B
:101C0000FB25909302028093010288E490E00E94F9
:101C1000F625D8016D937D938D939C9313978CE457
:101C200090E00E94F625F801648F758F868F978F5C
:101C300080E590E00E94F625D80190966D937D9303
:101C40008D939C93939784E590E00E94F625F8018C
:101C500064A375A386A397A388E590E00E94F62568
:101C6000609398017093990180939A0190939B01DE
:101C70008CE590E00E94FB2590939F0180939E014C
:101C800061E083EC0E94A70162E083EC0E94A7015F
:101C900063E083EC0E94A70164E083EC0E94A7014B
:101CA00082E080936E0084BD95E095BD90E197BD84
:101CB000809370008093B00087E08093B1007092B1
:101CC000B30078940F2EF0EEAF2EF4E0BF2EF02D7F
:101CD0000F2EFBED4F2EF4E05F2EF02D0F2EFEEFBA
:101CE0006F2EF4E07F2EF02D1E01FAE52F0E311C31
:101CF000E396AFAEE397E496BFAEE497E596AFAE5A
:101D0000E5978B2CD32CE096BFAEAEAEE097E29673
:101D10003FAE2EAEE297322CBD2CE3969FACE397FC
:101D2000E496AFACE4970EE110E0E096AEADBFAD47
:101D3000E097E02F1D92EA95E9F7D20113966D9195
:101D40007C91149712964C9150E041505109E596C0
:101D5000EFADE597F82DD20111968C9111979C91DA
:101D60009817C9F311968C91DB01A80FB11D9C91B6
:101D7000D20111968C91282F30E02417350711F0ED
:101D80008F5F01C0812FD20111968C9391939D306A
:101D900019F0E615F705F9F6E096EEADFFADE09720
:101DA0008081833211F66FE370E0892D9A2D0E94B5
:101DB00008248C01009711F40C94C418E2EDF2E0B1
:101DC000DC0111968C911197808312968C918183FE
:101DD00066E171E0CF010E941324892BB9F5E6ED8D
:101DE000F4E0D80113968C911397808314968C910C
:101DF0001497818315968C911597828316968C91F2
:101E000083836EE170E0892D9A2D0E941C24BC0111
:101E100065507109892D9A2D0E94C80140E1BE01CB
:101E2000635D7F4F0E943124BE01635D7F4F86ED6D
:101E300094E00E94D402882329F0CE0149960E94A2
:101E4000310304C089E191E00E94310363E271E053
:101E500082ED92E00E941324892B11F00C94C41897
:101E6000F80183818D8B84818E8B85818F8BE6ED4C
:101E7000F4E0D80116968C911697808317968C9172
:101E80001797818318968C911897828319968C9155
:101E900083836EE170E0892D9A2D0E941C24BC0181
:101EA00065507109892D9A2D0E94C80140E1BE013B
:101EB000635D7F4F0E943124BE01635D7F4F86EDDD
:101EC00094E00E94D402882311F40C94C018CE012F
:101ED00045960E94D723CB01770FAA0BBB0BFC01C1
:101EE000E456F109E733B1E0FB0710F00C94BB189E
:101EF000EC5CFF4F0C94B1236091710270917202FF
:101F00008091730290917402432D5B2D96DC832D9A
:101F10009B2D0E9431030C94C4186091750270913E
:101F200076028091770290917802432D5B2D85DCBB
:101F300081E28AABE096EEADFFADE09781818BAB9D
:101F400082818CAB83818DABE32DFB2DDE01D69698
:101F500000E010E0AF0106C0FA018191AF018D935E
:101F60000F5F1F4FE296EEADFFADE29701900020AC
:101F7000E9F7CF01E2962EAD3FADE297821B930BBE
:101F800002960817190740F378013FEFE31AF30AA6
:101F90001E141F0414F00C946721FE01F296B70181
:101FA0006E0F7F1F80E090E0B8E0D12C4191292F87
:101FB000332727FD3A952427322F22274B2F5D2DDB
:101FC00033233CF4220F331FA1E22A27A0E13A2752
:101FD00002C0220F331F4150510991F7982F8827D3
:101FE00082279327E617F70709F76C0140E166EDB2
:101FF00074E00E94312486ED94E00E942724B0E131
:10200000CB16D10498F48091D604FE01E00FF11FA5
:1020100086AB80E3FE01E00FF11F85ABFE01E00F10
:10202000F11F84ABFE01EE0DFF1D82ABC601409790
:10203000803F9105B8F4A6EDB4E011968C9111970C
:10204000FE01E00FF11F86AB8C91FE01E00FF11F46
:1020500085AB80E3FE01E00FF11F84ABFE01EE0DC6
:10206000FF1D82ABC6019A9581159F40B8F4E6ED3D
:10207000F4E08281DE01A00FB11FD6968C9381819E
:10208000DE01A00FB11FD5968C93D5978081FD01FD
:1020900084AB80E3FE01EE0DFF1D82ABC114F0E1C5
:1020A000DF06C0F0DE01AE0DBF1DE6EDF4E080817D
:1020B000D2968C938181DE01A00FB11FD4968C93B0
:1020C0008281DE01A00FB11FD5968C93D5978381B5
:1020D000FD0186ABC8010596FE01E80FF91F2DE052
:1020E00022AB992314F40C94C418FE01F296A801B3
:1020F0004A5F5F4F4E0F5F1F90E02191F89430913F
:10210000FF04AEEFB4E08C91381305C0A1ECB0E051
:102110008C9180628C93AEEFB4E08C91A09101051C
:10212000B0910205A80FB11D2C93AEEFB4E08C91D5
:10213000682F70E02091000530E0215031096217CE
:10214000730711F08F5F01C0892FAEEFB4E08C935D
:102150007894E417F50789F60C94C4186091790215
:1021600070917A0280917B0290917C02432D5B2DCD
:1021700064DB81E28AABE096EEADFFADE097818152
:102180008BAB82818CAB83818DABE32DFB2DDE018C
:10219000D69600E010E0AF0106C0FA018191AF01D0
:1021A0008D930F5F1F4FE296EEADFFADE29701906A
:1021B0000020E9F7CF01E2962EAD3FADE297821BFA
:1021C000930B02960817190740F378013FEFE31AC3
:1021D000F30A1E141F0414F00C947421FE01F296ED
:1021E000B7016E0F7F1F80E090E0B8E0D12C4191E5
:1021F000292F332727FD3A952427322F22274B2FCB
:102200005D2D33233CF4220F331FA1E22A27A0E1E6
:102210003A2702C0220F331F4150510991F7982FDE
:10222000882782279327E617F70709F76C0140E113
:1022300066ED74E00E94312486ED94E00E9427242C
:10224000B0E1CB16D10498F48091D604FE01E00FE2
:10225000F11F86AB80E3FE01E00FF11F85ABFE01AD
:10226000E00FF11F84ABFE01EE0DFF1D82ABC60136
:102270004097803F9105B8F4A6EDB4E011968C919B
:102280001197FE01E00FF11F86AB8C91FE01E00F6C
:10229000F11F85AB80E3FE01E00FF11F84ABFE016F
:1022A000EE0DFF1D82ABC6019A9581159F40B8F4D3
:1022B000E6EDF4E08281DE01A00FB11FD6968C938B
:1022C0008181DE01A00FB11FD5968C93D5978081B7
:1022D000FD0184AB80E3FE01EE0DFF1D82ABC11456
:1022E000F0E1DF06C0F0DE01AE0DBF1DE6EDF4E06B
:1022F0008081D2968C938181DE01A00FB11FD4968C
:102300008C938281DE01A00FB11FD5968C93D59757
:102310008381FD0186ABC8010596FE01E80FF91F18
:102320002DE022AB99230CF42FC7FE01F296A801F1
:102330004A5F5F4F4E0F5F1F90E02191F8943091FC
:10234000FF04AEEFB4E08C91381305C0A1ECB0E00F
:102350008C9180628C93AEEFB4E08C91A0910105DA
:10236000B0910205A80FB11D2C93AEEFB4E08C9193
:10237000682F70E02091000530E02150310962178C
:10238000730711F08F5F01C0892FAEEFB4E08C931B
:102390007894E417F50789F6F7C660917D0270918D
:1023A0007E0280917F0290918002432D5B2D45DA61
:1023B00081E28AABE096EEADFFADE09781818BAB19
:1023C00082818CAB83818DABE32DFB2DDE01D69614
:1023D00000E010E0AF0106C0FA018191AF018D93DA
:1023E0000F5F1F4FE296EEADFFADE2970190002028
:1023F000E9F7CF01E2962EAD3FADE297821B930B3A
:1024000002960817190740F378013FEFE31AF30A21
:102410001E141F0414F00C948121FE01F296B701E2
:102420006E0F7F1F80E090E0B8E0D12C4191292F02
:10243000332727FD3A952427322F22274B2F5D2D56
:1024400033233CF4220F331FA1E22A27A0E13A27CD
:1024500002C0220F331F4150510991F7982F88274E
:1024600082279327E617F70709F76C0140E166ED2D
:1024700074E00E94312486ED94E00E942724B0E1AC
:10248000CB16D10498F48091D604FE01E00FF11F21
:1024900086AB80E3FE01E00FF11F85ABFE01E00F8C
:1024A000F11F84ABFE01EE0DFF1D82ABC60140970C
:1024B000803F9105B8F4A6EDB4E011968C91119788
:1024C000FE01E00FF11F86AB8C91FE01E00FF11FC2
:1024D00085AB80E3FE01E00FF11F84ABFE01EE0D42
:1024E000FF1D82ABC6019A9581159F40B8F4E6EDB9
:1024F000F4E08281DE01A00FB11FD6968C9381811A
:10250000DE01A00FB11FD5968C93D5978081FD0178
:1025100084AB80E3FE01EE0DFF1D82ABC114F0E140
:10252000DF06C0F0DE01AE0DBF1DE6EDF4E08081F8
:10253000D2968C938181DE01A00FB11FD4968C932B
:102540008281DE01A00FB11FD5968C93D597838130
:10255000FD0186ABC8010596FE01E80FF91F2DE0CD
:1025600022AB99230CF410C6FE01F296A8014A5F33
:102570005F4F4E0F5F1F90E02191F8943091FF0460
:10258000AEEFB4E08C91381305C0A1ECB0E08C91B3
:1025900080628C93AEEFB4E08C91A0910105B09174
:1025A0000205A80FB11D2C93AEEFB4E08C91682FFB
:1025B00070E02091000530E0215031096217730767
:1025C00011F08F5F01C0892FAEEFB4E08C93789447
:1025D000E417F50789F6D8C560916D0270916E0217
:1025E00080916F0290917002432D5B2D26D981E27C
:1025F0008AABE096EEADFFADE09781818BAB828137
:102600008CAB83818DABE32DFB2DDE01D69600E0F4
:1026100010E0AF0106C0FA018191AF018D930F5F09
:102620001F4FE296EEADFFADE29701900020E9F773
:10263000CF01E2962EAD3FADE297821B930B02963F
:102640000817190740F378013FEFE31AF30A1E1445
:102650001F0414F00C948E21FE01F296B7016E0F48
:102660007F1F80E090E0B8E0D12C4191292F3327E3
:1026700027FD3A952427322F22274B2F5D2D332318
:102680003CF4220F331FA1E22A27A0E13A2702C01F
:10269000220F331F4150510991F7982F8827822725
:1026A0009327E617F70709F76C0140E166ED74E040
:1026B0000E94312486ED94E00E942724B0E1CB16DD
:1026C000D10498F48091D604FE01E00FF11F86AB8F
:1026D00080E3FE01E00FF11F85ABFE01E00FF11F6B
:1026E00084ABFE01EE0DFF1D82ABC6014097803F1B
:1026F0009105B8F4A6EDB4E011968C911197FE0106
:10270000E00FF11F86AB8C91FE01E00FF11F85AB4E
:1027100080E3FE01E00FF11F84ABFE01EE0DFF1D13
:1027200082ABC6019A9581159F40B8F4E6EDF4E0BE
:102730008281DE01A00FB11FD6968C938181DE01CC
:10274000A00FB11FD5968C93D5978081FD0184ABE6
:1027500080E3FE01EE0DFF1D82ABC114F0E1DF0648
:10276000C0F0DE01AE0DBF1DE6EDF4E08081D29633
:102770008C938181DE01A00FB11FD4968C9382814E
:10278000DE01A00FB11FD5968C93D5978381FD01F3
:1027900086ABC8010596FE01E80FF91F2DE022ABBC
:1027A00099230CF4F1C4FE01F296A8014A5F5F4F31
:1027B0004E0F5F1F90E02191F8943091FF04AEEF2F
:1027C000B4E08C91381305C0A1ECB0E08C9180622C
:1027D0008C93AEEFB4E08C91A0910105B09102050D
:1027E000A80FB11D2C93AEEFB4E08C91682F70E070
:1027F0002091000530E0215031096217730711F074
:102800008F5F01C0892FAEEFB4E08C937894E4170A
:10281000F50789F6B9C46091890270918A028091A6
:102820008B0290918C02432D5B2D07D881E28AABFD
:10283000E096EEADFFADE09781818BAB82818CABF2
:1028400083818DABE32DFB2DDE01D69600E010E0F9
:10285000AF0106C0FA018191AF018D930F5F1F4F49
:10286000E296EEADFFADE29701900020E9F7CF01CF
:10287000E2962EAD3FADE297821B930B02960817AE
:10288000190740F378013FEFE31AF30A1E141F04FF
:1028900014F00C949B21FE01F296B7016E0F7F1F7E
:1028A00080E090E0B8E0D12C4191292F332727FD1B
:1028B0003A952427322F22274B2F5D2D33233CF4CA
:1028C000220F331FA1E22A27A0E13A2702C0220FDC
:1028D000331F4150510991F7982F8827822793275A
:1028E000E617F70709F76C0140E166ED74E00E9416
:1028F000312486ED94E00E942724B0E1CB16D10468
:1029000098F48091D604FE01E00FF11F86AB80E3BE
:10291000FE01E00FF11F85ABFE01E00FF11F84AB5C
:10292000FE01EE0DFF1D82ABC6014097803F910571
:10293000B8F4A6EDB4E011968C911197FE01E00F6A
:10294000F11F86AB8C91FE01E00FF11F85AB80E398
:10295000FE01E00FF11F84ABFE01EE0DFF1D82AB07
:10296000C6019A9581159F40B8F4E6EDF4E08281A6
:10297000DE01A00FB11FD6968C938181DE01A00FDE
:10298000B11FD5968C93D5978081FD0184AB80E3F0
:10299000FE01EE0DFF1D82ABC114F0E1DF06C0F0B9
:1029A000DE01AE0DBF1DE6EDF4E08081D2968C9382
:1029B0008181DE01A00FB11FD4968C938281DE014C
:1029C000A00FB11FD5968C93D5978381FD0186AB5F
:1029D000C8010596FE01E80FF91F2DE022AB9923EF
:1029E0000CF4D2C3FE01F296A8014A5F5F4F4E0F6E
:1029F0005F1F90E02191F8943091FF04AEEFB4E0B6
:102A00008C91381305C0A1ECB0E08C9180628C935E
:102A1000AEEFB4E08C91A0910105B0910205A80F32
:102A2000B11D2C93AEEFB4E08C91682F70E0209133
:102A3000000530E0215031096217730711F08F5FF4
:102A400001C0892FAEEFB4E08C937894E417F507BA
:102A500089F69AC360918D0270918E0280918F02E7
:102A600090919002432D5B2D0E941D0C81E28AAB58
:102A7000E096EEADFFADE09781818BAB82818CABB0
:102A800083818DABE32DFB2DDE01D69600E010E0B7
:102A9000AF0106C0FA018191AF018D930F5F1F4F07
:102AA000E296EEADFFADE29701900020E9F7CF018D
:102AB000E2962EAD3FADE297821B930B029608176C
:102AC000190740F378013FEFE31AF30A1E141F04BD
:102AD00014F00C94A821FE01F296B7016E0F7F1F2F
:102AE00080E090E0B8E0D12C4191292F332727FDD9
:102AF0003A952427322F22274B2F5D2D33233CF488
:102B0000220F331FA1E22A27A0E13A2702C0220F99
:102B1000331F4150510991F7982F88278227932717
:102B2000E617F70709F76C0140E166ED74E00E94D3
:102B3000312486ED94E00E942724B0E1CB16D10425
:102B400098F48091D604FE01E00FF11F86AB80E37C
:102B5000FE01E00FF11F85ABFE01E00FF11F84AB1A
:102B6000FE01EE0DFF1D82ABC6014097803F91052F
:102B7000B8F4A6EDB4E011968C911197FE01E00F28
:102B8000F11F86AB8C91FE01E00FF11F85AB80E356
:102B9000FE01E00FF11F84ABFE01EE0DFF1D82ABC5
:102BA000C6019A9581159F40B8F4E6EDF4E0828164
:102BB000DE01A00FB11FD6968C938181DE01A00F9C
:102BC000B11FD5968C93D5978081FD0184AB80E3AE
:102BD000FE01EE0DFF1D82ABC114F0E1DF06C0F077
:102BE000DE01AE0DBF1DE6EDF4E08081D2968C9340
:102BF0008181DE01A00FB11FD4968C938281DE010A
:102C0000A00FB11FD5968C93D5978381FD0186AB1C
:102C1000C8010596FE01E80FF91F2DE022AB9923AC
:102C20000CF4B2C2FE01F296A8014A5F5F4F4E0F4C
:102C30005F1F90E02191F8943091FF04AEEFB4E073
:102C40008C91381305C0A1ECB0E08C9180628C931C
:102C5000AEEFB4E08C91A0910105B0910205A80FF0
:102C6000B11D2C93AEEFB4E08C91682F70E02091F1
:102C7000000530E0215031096217730711F08F5FB2
:102C800001C0892FAEEFB4E08C937894E417F50778
:102C900089F67AC2609191027091920280919302BA
:102CA00090919402432D5B2D0E941D0C832D9B2D32
:102CB0000E94310369C26091C1027091C202809189
:102CC000C3029091C402432D5B2D0E941D0C832DE5
:102CD0009B2D0E94310358C28091C7029091C80277
:102CE0004AE0632D7B2D0E943124832D9B2D0E9471
:102CF00031034AC28091C9029091CA02009719F02B
:102D0000019731F041C286E291E00E9431033CC25A
:102D100088E291E00E94310337C260910E02709107
:102D20000F028091100290911102432D5B2D0E94A1
:102D30001D0C832D9B2D0E94310326C2609112022F
:102D4000709113028091140290911502432D5B2D16
:102D50000E941D0C832D9B2D0E94310315C2609192
:102D60001602709117028091180290911902432D5A
:102D70005B2D0E941D0C832D9B2D0E94310304C2EC
:102D800060911A0270911B0280911C0290911D02A9
:102D9000432D5B2D0E941D0C832D9B2D0E94310322
:102DA000F3C160910A0270910B0280910C02909124
:102DB0000D02432D5B2D0E941D0C832D9B2D0E9427
:102DC0003103E2C1609126027091270280912802AE
:102DD00090912902432D5B2D0E941D0C832D9B2D6C
:102DE0000E943103D1C160912A0270912B0280911F
:102DF0002C0290912D02432D5B2D0E941D0C832DE2
:102E00009B2D0E943103C0C160912E0270912F0250
:102E10008091300290913102432D5B2D0E941D0C58
:102E2000832D9B2D0E943103AFC160915E02709192
:102E30005F028091600290916102432D5B2D0E94A0
:102E40001D0C832D9B2D0E9431039EC18091640235
:102E5000909165024AE0632D7B2D0E943124832DE1
:102E60009B2D0E94310390C1809166029091670270
:102E7000009719F0019731F087C186E291E00E9436
:102E8000310382C188E291E00E9431037DC16091EB
:102E9000AB017091AC018091AD019091AE01432DD9
:102EA0005B2D0E941D0C832D9B2D0E9431036CC154
:102EB0006091AF017091B0018091B1019091B20128
:102EC000432D5B2D0E941D0C832D9B2D0E943103F1
:102ED0005BC16091B3017091B4018091B501909193
:102EE000B601432D5B2D0E941D0C832D9B2D0E944E
:102EF00031034AC16091B7017091B8018091B90165
:102F00009091BA01432D5B2D0E941D0C832D9B2DAA
:102F10000E94310339C16091A7017091A80180918D
:102F2000A9019091AA01432D5B2D0E941D0C832DB8
:102F30009B2D0E94310328C16091C3017091C4018F
:102F40008091C5019091C601432D5B2D0E941D0CFF
:102F5000832D9B2D0E94310317C16091C701709191
:102F6000C8018091C9019091CA01432D5B2D0E9437
:102F70001D0C832D9B2D0E94310306C16091CB0156
:102F80007091CC018091CD019091CE01432D5B2DAC
:102F90000E941D0C832D9B2D0E943103F5C0609172
:102FA000FB017091FC018091FD019091FE01432D88
:102FB0005B2D0E941D0C832D9B2D0E943103E4C0CC
:102FC00080910102909102024AE0632D7B2D0E94C4
:102FD0003124832D9B2D0E943103D6C080910302A2
:102FE00090910402009719F0019731F0CDC086E26C
:102FF00091E00E943103C8C088E291E00E94310351
:10300000C3C0609148017091490180914A0190913B
:103010004B01432D5B2D0E941D0C832D9B2D0E9487
:103020003103B2C060914C0170914D0180914E010D
:1030300090914F01432D5B2D0E941D0C832D9B2DE4
:103040000E943103A1C060915001709151018091A3
:10305000520190915301432D5B2D0E941D0C832D35
:103060009B2D0E94310390C06091540170915501D5
:103070008091560190915701432D5B2D0E941D0CAC
:10308000832D9B2D0E9431037FC06091440170917C
:1030900045018091460190914701432D5B2D0E948F
:1030A0001D0C832D9B2D0E9431036EC06091600129
:1030B000709161018091620190916301432D5B2DBC
:1030C0000E941D0C832D9B2D0E9431035DC06091D9
:1030D0006401709165018091660190916701432DB3
:1030E0005B2D0E941D0C832D9B2D0E9431034CC033
:1030F000609168017091690180916A0190916B0102
:10310000432D5B2D0E941D0C832D9B2D0E943103AE
:103110003BC0609198017091990180919A019091C2
:103120009B01432D5B2D0E941D0C832D9B2D0E9426
:1031300031032AC080919E0190919F014AE0632D46
:103140007B2D0E943124832D9B2D0E9431031CC0B6
:103150008091A0019091A101009719F0019731F0A1
:1031600013C086E291E00E9431030EC088E291E034
:103170000E94310309C08AE291E00E94310304C039
:1031800089E191E00E94310366E270E0892D9A2D79
:103190000E940824009711F40C94930EFC01A3EDF7
:1031A000B4E081818C93828111968C9311978381F5
:1031B0008D8B84818E8B85818F8B62E371E0CD0155
:1031C0000E941324892B11F00C948D0EE096AEAC66
:1031D000BFACE097E2962EAC3FACE2976DE070E0BA
:1031E000C5010E940824E6EDF4E0DC0114972C915F
:1031F000208311962C91218311962C912283119674
:103200008C9183836EE170E0C5010E941C24BC0197
:1032100065507109C5010E94C80140E1BE01635DAE
:103220007F4F0E943124BE01635D7F4F86ED94E0A5
:103230000E94D402882311F40C946121CE0145969A
:103240000E94D7236E35B1E07B0709F465C3BCF556
:103250006C39710509F412C2B4F46839710509F4C6
:103260006AC154F46639710509F465C0673971059E
:1032700009F48FC00C945B216A39710509F4B7C158
:103280000CF487C1CDC16D3F710509F4AAC264F485
:103290006B3F710509F44AC20CF076C26A3F7105B2
:1032A00009F416C20C945B216F3F710509F4E0C26A
:1032B0000CF4C4C26115714009F406C3FCC7623C3A
:1032C00021E0720709F48EC5E4F46136A1E07A07C3
:1032D00009F4A6C354F46F35E1E07E0709F448C34E
:1032E0006036714009F470C3E6C7633621E07207A7
:1032F00009F4DBC30CF4C0C36436714009F4A8C4FC
:10330000DAC7663CB1E07B0709F460C744F4643C6B
:10331000F1E07F0709F402C70CF432C62BC7683C02
:1033200031E0730709F497C70CF469C7643F714033
:1033300009F4B9C7C0C76EE170E0C5010E941C2442
:1033400005979C01D101A1014C5E5F4FF1011192E3
:10335000E417F507E1F72B30310554F0EAEEF4E01D
:1033600080529B4F9C0191919D93E217F307D9F7EF
:10337000C1010E94B72360936D0270936E02809327
:103380006F029093700287E291E00E9431030C94E7
:10339000820E6EE170E0C5010E941C2405979C011D
:1033A000D101A1014C5E5F4FF1011192E417F507C5
:1033B000E1F72B30310554F0EAEEF4E080529B4FF8
:1033C0009C0191919D93E217F307D9F7C1010E94E7
:1033D000B7236093890270938A0280938B02909343
:1033E0008C0281E28AABF50181818BAB82818CAB4F
:1033F00083818DAB1EAA1FAA18AE8E010E5C1F4FD3
:10340000BE016A5C7F4FF80180E090E0B8E0F12CEB
:103410004191292F332727FD3A952427322F222740
:103420004B2F5F2D33233CF4220F331FA1E22A27B9
:10343000A0E13A2702C0220F331F4150510991F7F2
:10344000982F882782279327E617F70709F77C012B
:1034500040E166ED74E00E94312486ED94E00E9424
:103460002724B0E1EB16F10438F48091D60489AF3B
:1034700080E388AF8FAB8EABC7014097803F91054B
:1034800048F4E6EDF4E0818189AF808188AF80E384
:103490008FAB8EABC7019A9581159F4050F4E6ED36
:1034A000F4E0828189AF818188AF80818FAB80E336
:1034B0008EABE114F0E1FF0650F0E6EDF4E0808120
:1034C0008EAB81818FAB828188AF838189AF8DE0A4
:1034D0008AAF9E01255C3F4FEEEFF4E00F2EF1EC3A
:1034E000CF2ED12CF02D70E0D8014D918D01F894A4
:1034F00091818081981304C0D6018C9180628C9355
:10350000508183819481850F911DDC014C938081D2
:10351000E82EF12C428150E041505109E416F506A5
:1035200011F08F5F01C0872F8083789402171307F3
:10353000D9F60C94820E6EE170E0C5010E941C2445
:1035400005979C01D101A1014C5E5F4FF1011192E1
:10355000E417F507E1F72B30310554F0EAEEF4E01B
:1035600080529B4F9C0191919D93E217F307D9F7ED
:10357000C1010E94B72360938D0270938E028093E5
:103580008F029093900287E291E00E9431030C94A5
:10359000820E6EE170E0C5010E941C2405979C011B
:1035A000D101A1014C5E5F4FF1011192E417F507C3
:1035B000E1F72B30310554F0EAEEF4E080529B4FF6
:1035C0009C0191919D93E217F307D9F7C1010E94E5
:1035D000B723609391027093920280939302909329
:1035E000940287E291E00E9431030C94820EF5016F
:1035F0008285813349F481E08093CF0285E391E0B5
:103600000E9431030C94820E803311F00C94820ED0
:103610001092CF0288E391E00E9431030C94820E55
:103620006EE170E0C5010E941C2405979C01D10148
:10363000A1014C5E5F4FF1011192E417F507E1F72C
:103640002B30310554F0EAEEF4E080529B4F9C01A0
:1036500091919D93E217F307D9F7C1010E94B72317
:103660006093C1027093C2028093C3029093C4021C
:1036700087E291E00E9431030C94820E6EE170E0CB
:10368000C5010E941C2405979C01D101A1014C5E3B
:103690005F4FF1011192E417F507E1F72B30310587
:1036A00054F0EAEEF4E080529B4F9C0191919D937F
:1036B000E217F307D9F7C1010E94BA239093C80219
:1036C0008093C70287E291E00E9431030C94820E3E
:1036D0006EE170E0C5010E941C2405979C01D10198
:1036E000A1014C5E5F4FF1011192E417F507E1F77C
:1036F0002B30310554F0EAEEF4E080529B4F9C01F0
:1037000091919D93E217F307D9F7C1010E94B72366
:1037100060930A0270930B0280930C0290930D0247
:1037200087E291E00E9431030C94820E6EE170E01A
:10373000C5010E941C2405979C01D101A1014C5E8A
:103740005F4FF1011192E417F507E1F72B303105D6
:1037500054F0EAEEF4E080529B4F9C0191919D93CE
:10376000E217F307D9F7C1010E94B723609326023D
:1037700070932702809328029093290287E291E0B8
:103780000E9431030C94820E6EE170E0C5010E942C
:103790001C2405979C01D101A1014C5E5F4FF101F2
:1037A0001192E417F507E1F72B30310554F0EAEEFA
:1037B000F4E080529B4F9C0191919D93E217F30797
:1037C000D9F7C101D4D760932A0270932B0280935A
:1037D0002C0290932D0287E291E00E9431030C9419
:1037E000820E6EE170E0C5010E941C2405979C01C9
:1037F000D101A1014C5E5F4FF1011192E417F50771
:10380000E1F72B30310554F0EAEEF4E080529B4FA3
:103810009C0191919D93E217F307D9F7C101A7D7B6
:1038200060932E0270932F028093300290933102A6
:1038300087E291E00E9431030C94820ED5011A9622
:103840008C91813349F481E080936C0285E391E0AF
:103850000E9431030C94820E803311F00C94820E7E
:1038600010926C0288E391E00E9431030C94820E66
:103870006EE170E0C501E0D705979C01D101A1017F
:103880004C5E5F4FF1011192E417F507E1F72B3021
:10389000310554F0EAEEF4E080529B4F9C01919187
:1038A0009D93E217F307D9F7C10161D760935E02D8
:1038B00070935F02809360029093610287E291E0CF
:1038C0000E9431030C94820E6EE170E0C501B4D702
:1038D00005979C01D101A1014C5E5F4FF10111924E
:1038E000E417F507E1F72B30310554F0EAEEF4E088
:1038F00080529B4F9C0191919D93E217F307D9F75A
:10390000C10138D7909365028093640287E291E009
:103910000E9431030C94820E6EE170E0C5018CD7D9
:1039200005979C01D101A1014C5E5F4FF1011192FD
:10393000E417F507E1F72B30310554F0EAEEF4E037
:1039400080529B4F9C0191919D93E217F307D9F709
:10395000C1010DD76093A7017093A8018093A901BD
:103960009093AA0187E291E00E9431030C94820EA9
:103970006EE170E0C50160D705979C01D101A101FE
:103980004C5E5F4FF1011192E417F507E1F72B3020
:10399000310554F0EAEEF4E080529B4F9C01919186
:1039A0009D93E217F307D9F7C101E1D66093C301F4
:1039B0007093C4018093C5019093C60187E291E0A2
:1039C0000E9431030C94820E6EE170E0C50134D781
:1039D00005979C01D101A1014C5E5F4FF10111924D
:1039E000E417F507E1F72B30310554F0EAEEF4E087
:1039F00080529B4F9C0191919D93E217F307D9F759
:103A0000C101B5D66093C7017093C8018093C90105
:103A10009093CA0187E291E00E9431030C94820ED8
:103A20006EE170E0C50108D705979C01D101A101A5
:103A30004C5E5F4FF1011192E417F507E1F72B306F
:103A4000310554F0EAEEF4E080529B4F9C019191D5
:103A50009D93E217F307D9F7C10189D66093CB0193
:103A60007093CC018093CD019093CE0187E291E0D9
:103A70000E9431030C94820EF5018285813349F452
:103A800081E08093090285E391E00E9431030C9468
:103A9000820E803311F00C94820E1092090288E39A
:103AA00091E00E9431030C94820E6EE170E0C5013A
:103AB000C3D605979C01D101A1014C5E5F4FF10176
:103AC0001192E417F507E1F72B30310554F0EAEED7
:103AD000F4E080529B4F9C0191919D93E217F30774
:103AE000D9F7C10144D66093FB017093FC01809328
:103AF000FD019093FE0181E28AABD50111968C9174
:103B000011978BAB12968C9112978CAB13968C916C
:103B10008DAB1EAA1FAA18AE8E010E5C1F4FBE01F0
:103B20006A5C7F4FF80180E090E0B8E0F12C4191B1
:103B3000292F332727FD3A952427322F22274B2F71
:103B40005F2D33233CF4220F331FA1E22A27A0E18B
:103B50003A2702C0220F331F4150510991F7982F85
:103B6000882782279327E617F70709F77C0140E1AA
:103B700066ED74E076D686ED94E069D6B0E1EB169A
:103B8000F10438F48091D60489AF80E388AF8FAB1D
:103B90008EABC7014097803F910548F4E6EDF4E015
:103BA000818189AF808188AF80E38FAB8EABC70105
:103BB0009A9581159F4050F4E6EDF4E0828189AF3B
:103BC000818188AF80818FAB80E38EABE114F0E11F
:103BD000FF0650F0E6EDF4E080818EAB81818FAB83
:103BE000828188AF838189AF8DE08AAF9E01255C99
:103BF0003F4FEEEFF4E00F2EF1ECCF2ED12CF02D55
:103C000070E0D8014D918D01F894918180819813D5
:103C100004C0D6018C9180628C9350818381948101
:103C2000850F911DDC014C938081E82EF12C42819F
:103C300050E041505109E416F50611F08F5F01C0C4
:103C4000872F8083789402171307D9F60C94820E7D
:103C50006EE170E0C501F0D505979C01D101A1018D
:103C60004C5E5F4FF1011192E417F507E1F72B303D
:103C7000310554F0EAEEF4E080529B4F9C019191A3
:103C80009D93E217F307D9F7C10174D5909302020F
:103C90008093010281E28AABF50181818BAB828145
:103CA0008CAB83818DAB1EAA1FAA18AE8E010E5C51
:103CB0001F4FBE016A5C7F4FF80180E090E0B8E0E2
:103CC000F12C4191292F332727FD3A952427322FB4
:103CD00022274B2F5F2D33233CF4220F331FA1E209
:103CE0002A27A0E13A2702C0220F331F4150510971
:103CF00091F7982F882782279327E617F70709F768
:103D00007C0140E166ED74E0ACD586ED94E09FD592
:103D1000B0E1EB16F10438F48091D60489AF80E36A
:103D200088AF8FAB8EABC7014097803F910548F4B9
:103D3000E6EDF4E0818189AF808188AF80E38FABCD
:103D40008EABC7019A9581159F4050F4E6EDF4E0E3
:103D5000828189AF818188AF80818FAB80E38EAB18
:103D6000E114F0E1FF0650F0E6EDF4E080818EAB67
:103D700081818FAB828188AF838189AF8DE08AAFEB
:103D80009E01255C3F4FEEEFF4E00F2EF1ECCF2EBD
:103D9000D12CF02D70E0D8014D918D01F8949181D6
:103DA0008081981304C0D6018C9180628C935081DD
:103DB00083819481850F911DDC014C938081E82ED5
:103DC000F12C428150E041505109E416F50611F002
:103DD0008F5F01C0872F8083789402171307D9F66D
:103DE0000C94820E6EE170E0C50126D505979C010A
:103DF000D101A1014C5E5F4FF1011192E417F5076B
:103E0000E1F72B30310554F0EAEEF4E080529B4F9D
:103E10009C0191919D93E217F307D9F7C101A7D4B3
:103E2000609344017093450180934601909347014C
:103E300081E28AABF50181818BAB82818CAB83817E
:103E40008DAB1EAA1FAA18AE8E010E5C1F4FBE01BD
:103E50006A5C7F4FF80180E090E0B8E0F12C41917E
:103E6000292F332727FD3A952427322F22274B2F3E
:103E70005F2D33233CF4220F331FA1E22A27A0E158
:103E80003A2702C0220F331F4150510991F7982F52
:103E9000882782279327E617F70709F77C0140E177
:103EA00066ED74E0DED486ED94E0D1D4B0E1EB169B
:103EB000F10438F48091D60489AF80E388AF8FABEA
:103EC0008EABC7014097803F910548F4E6EDF4E0E2
:103ED000818189AF808188AF80E38FAB8EABC701D2
:103EE0009A9581159F4050F4E6EDF4E0828189AF08
:103EF000818188AF80818FAB80E38EABE114F0E1EC
:103F0000FF0650F0E6EDF4E080818EAB81818FAB4F
:103F1000828188AF838189AF8DE08AAF9E01255C65
:103F20003F4FEEEFF4E00F2EF1ECCF2ED12CF02D21
:103F300070E0D8014D918D01F894918180819813A2
:103F400004C0D6018C9180628C93508183819481CE
:103F5000850F911DDC014C938081E82EF12C42816C
:103F600050E041505109E416F50611F08F5F01C091
:103F7000872F8083789402171307D9F60C94820E4A
:103F80006EE170E0C50158D405979C01D101A101F3
:103F90004C5E5F4FF1011192E417F507E1F72B300A
:103FA000310554F0EAEEF4E080529B4F9C01919170
:103FB0009D93E217F307D9F7C101D9D3609360014C
:103FC00070936101809362019093630181E28AABF7
:103FD000F50181818BAB82818CAB83818DAB1EAA75
:103FE0001FAA18AE8E010E5C1F4FBE016A5C7F4F88
:103FF000F80180E090E0B8E0F12C4191292F3327BF
:1040000027FD3A952427322F22274B2F5F2D33236C
:104010003CF4220F331FA1E22A27A0E13A2702C075
:10402000220F331F4150510991F7982F882782277B
:104030009327E617F70709F77C0140E166ED74E086
:1040400010D486ED94E003D4B0E1EB16F10438F41B
:104050008091D60489AF80E388AF8FAB8EABC70168
:104060004097803F910548F4E6EDF4E0818189AF07
:10407000808188AF80E38FAB8EABC7019A958115A5
:104080009F4050F4E6EDF4E0828189AF818188AFF2
:1040900080818FAB80E38EABE114F0E1FF0650F03E
:1040A000E6EDF4E080818EAB81818FAB828188AFB9
:1040B000838189AF8DE08AAF9E01255C3F4FEEEF93
:1040C000F4E00F2EF1ECCF2ED12CF02D70E0D801C2
:1040D0004D918D01F89491818081981304C0D6018F
:1040E0008C9180628C93508183819481850F911D86
:1040F000DC014C938081E82EF12C428150E041504C
:104100005109E416F50611F08F5F01C0872F8083F7
:10411000789402171307D9F60C94820E6EE170E0C2
:10412000C5018AD305979C01D101A1014C5E5F4F67
:10413000F1011192E417F507E1F72B30310554F046
:10414000EAEEF4E080529B4F9C0191919D93E2171F
:10415000F307D9F7C1010BD3609364017093650134
:10416000809366019093670187E291E00E9431039A
:104170000C94820E6EE170E0C5015ED305979C0140
:10418000D101A1014C5E5F4FF1011192E417F507D7
:10419000E1F72B30310554F0EAEEF4E080529B4F0A
:1041A0009C0191919D93E217F307D9F7C101DFD2EA
:1041B000609368017093690180936A0190936B0129
:1041C00087E291E00E9431030C94820EF501828512
:1041D000813349F481E08093A60185E391E00E9458
:1041E00031030C94820E803311F00C94820E1092E5
:1041F000A60188E391E00E9431030C94820E6EE1E7
:1042000070E0C50119D305979C01D101A1014C5E55
:104210005F4FF1011192E417F507E1F72B303105FB
:1042200054F0EAEEF4E080529B4F9C0191919D93F3
:10423000E217F307D9F7C1019AD2609398017093FE
:10424000990180939A0190939B0187E291E00E94EB
:1042500031030C94820E6EE170E0C501EDD205973A
:104260009C01D101A1014C5E5F4FF1011192E41755
:10427000F507E1F72B30310554F0EAEEF4E0805217
:104280009B4F9C0191919D93E217F307D9F7C101D0
:1042900071D290939F0180939E0187E291E00E94EA
:1042A00031030C94820E0E94F70187E291E00E9494
:1042B00031030C94820E8CE391E00E9431030C9444
:1042C000820E89E191E00E9431030C94820E40E15C
:1042D00066ED74E080E090E0C4D286ED94E0B7D261
:1042E000C12CD12C0C94031040E166ED74E080E009
:1042F00090E0B7D286ED94E0AAD2C12CD12C0C94D8
:10430000241140E166ED74E080E090E0AAD286EDF1
:1043100094E09DD2C12CD12C0C94431240E166ED67
:1043200074E080E090E09DD286ED94E090D2C12CC4
:10433000D12C0C94621340E166ED74E080E090E0D3
:1043400090D286ED94E083D2C12CD12C0C948114B0
:1043500040E166ED74E080E090E083D286ED94E089
:1043600076D2C12CD12C0C94A1155058BB27AA276A
:104370000ED00DC1FED030F003D120F031F49F3FBC
:1043800011F41EF4F3C00EF4E095E7FBE9C0E92F49
:104390000FD180F3BA17620773078407950718F0E7
:1043A00071F49EF527C10EF4E0950B2EBA2FA02DC7
:1043B0000B01B90190010C01CA01A0011124FF27D2
:1043C000591B99F0593F50F4503E68F11A16F040CD
:1043D000A22F232F342F4427585FF3CF46953795CC
:1043E0002795A795F0405395C9F77EF41F16BA0B91
:1043F000620B730B840BBAF09150A1F0FF0FBB1F3F
:10440000661F771F881FC2F70EC0BA0F621F731F87
:10441000841F48F4879577956795B795F7959E3FE4
:1044200008F0B3CF9395880F08F09927EE0F979572
:104430008795089571D008F481E0089504D06894B8
:10444000B111D9C00895BCD088F09F5790F0B92F12
:104450009927B751A0F0D1F0660F771F881F991FD9
:104460001AF0BA95C9F712C0B13081F0C3D0B1E0EB
:104470000895C0C0672F782F8827B85F39F0B93FFB
:10448000CCF3869577956795B395D9F73EF49095DB
:104490008095709561957F4F8F4F9F4F0895E89459
:1044A00009C097FB3EF490958095709561957F4F7C
:1044B0008F4F9F4F9923A9F0F92F96E9BB2793952A
:1044C000F695879577956795B795F111F8CFFAF43A
:1044D000BB0F11F460FF1BC06F5F7F4F8F4F9F4F6B
:1044E00016C0882311F096E911C0772321F09EE8C9
:1044F000872F762F05C0662371F096E8862F70E02F
:1045000060E02AF09A95660F771F881FDAF7880F08
:104510009695879597F90895990F0008550FAA0B5E
:10452000E0E8FEEF16161706E807F907C0F01216C6
:104530001306E407F50798F0621B730B840B950BC9
:1045400039F40A2661F0232B242B252B21F408951E
:104550000A2609F4A140A6958FEF811D811D0895BB
:1045600097F99F6780E870E060E008959FEF80EC26
:10457000089500240A9416161706180609060895C9
:1045800000240A9412161306140605060895092E2F
:104590000394000C11F4882352F0BB0F40F4BF2B9E
:1045A00011F460FF04C06F5F7F4F8F4F9F4F0895DE
:1045B00057FD9058440F551F59F05F3F71F04795D4
:1045C000880F97FB991F61F09F3F79F087950895B9
:1045D000121613061406551FF2CF4695F1DF08C0D8
:1045E000161617061806991FF1CF869571056105F5
:1045F00008940895E894BB2766277727CB0197F99D
:1046000008958ADF08F48FEF08950BD0C0CFB1DF93
:1046100028F0B6DF18F0952309F0A2CFA7CF112418
:10462000EACFC6DFA0F3959FD1F3950F50E0551F59
:10463000629FF001729FBB27F00DB11D639FAA27F7
:10464000F00DB11DAA1F649F6627B00DA11D661F46
:10465000829F2227B00DA11D621F739FB00DA11D67
:10466000621F839FA00D611D221F749F3327A00D21
:10467000611D231F849F600D211D822F762F6A2FBD
:1046800011249F5750408AF0E1F088234AF0EE0F42
:10469000FF1FBB1F661F771F881F91505040A9F74F
:1046A0009E3F510570F05CCFA6CF5F3FECF3983E84
:1046B000DCF3869577956795B795F795E7959F5FB6
:1046C000C1F7FE2B880F911D9695879597F9089550
:1046D00077DFE0F09E37D8F09639B8F49E3848F48A
:1046E000672F782F8827985FF9CF869577956795FC
:1046F00093959539D0F3B62FB1706B0F711D811D55
:1047000020F4879577956795939502C01CC073CF69
:10471000882371F4772321F09850872B762F07C0D8
:10472000662311F499270DC09051862B70E060E04C
:104730002AF09A95660F771F881FDAF7880F9695EB
:10474000879597F908959F3F31F0915020F4879510
:1047500077956795B795880F911D9695879597F9E9
:104760000895EE0FFF1F0590F491E02D0994662740
:104770007727B7C0FC0188279927E8942191203238
:10478000E9F3293010F02E30C8F32B3239F02D32F6
:1047900031F4689403C084D0820F911D219120537D
:1047A0002A30C8F31EF4909581959F4F08951F936A
:1047B000FC0199278827BC01E89411911032E9F394
:1047C000193010F01E30C8F31B3249F01D3241F48D
:1047D000689405C050D0610F711D811D911D11910C
:1047E00010531A30B8F33EF490958095709561950A
:1047F0007F4F8F4F9F4F1F910895FB01DC010D905C
:104800000020E9F7119701900D920020E1F708953B
:10481000FC018191861721F08823D9F79927089503
:104820003197CF010895FB01DC018D910190801932
:104830000110D9F3990B0895FC016150704001906B
:104840000110D8F7809590958E0F9F1F0895DC0179
:104850006C9161566A3108F0605E6F5B6D93C1F7D1
:104860000895BB274A3031F4992322F4BDE2909594
:1048700081959F4F1EC0592F482F372F262F660F27
:10488000771F881F991F660F771F881F991F620F58
:10489000731F841F951F660F771F881F991F089528
:1048A0007AE0979F902D879F802D910D1124089578
:1048B000BB27FB015527AA27880F991FAA1FA417FA
:1048C00010F0A41B83955051B9F7A05DAA3308F0EE
:1048D000A95DA193009779F7B111B1931192CB0122
:1048E00072C1A0E0B0E0E6E7F4E2BEC1EC017B01FA
:1048F0006115710519F0DB018D939C938E010F5F9B
:104900001F4F7880872D90E03ED1892B11F0E80170
:10491000F5CFBDE27B1205C00F5F1F4F7980C1E06C
:1049200008C0EBE27E1204C08E010E5F1F4F79803B
:10493000C0E06801F1E0CF1AD10843E050E06EED2D
:1049400072E0C60128D1892BE9F4680122E0C20E89
:10495000D11C45E050E069ED72E0C6011CD1892B05
:1049600021F4680187E0C80ED11CE114F10419F0AC
:10497000D701CD92DC92C111F9C060E070E080E80F
:104980009FE7FDC043E050E066ED72E0C60103D151
:10499000892B51F4E114F10409F4EDC00E5F1F4FAF
:1049A000F70111830083E7C0680160E070E0CB018C
:1049B00000E010E0F601D0EDD70DDA3050F52C2FE5
:1049C0002260622E2C2F2870C2FF05C0211127C043
:1049D0000F5F1F4F24C0222311F001501109A5E0E1
:1049E000B0E09B01AC0132D14B015C01880C991CF9
:1049F000AA1CBB1CC501B4016D0F711D811D911D49
:104A00006839A9E97A078A07A9E19A0740F0C660E0
:104A100005C0DE3F51F4C3FD44C0C8606C2EBFEF3B
:104A2000CB1ADB0A7080C62DC5CF2D2F2F7D2531E7
:104A3000C1F540814D3211F4C06106C04B3221F006
:104A4000319621E030E006C03296D60111964C91A5
:104A500022E030E0A0EDA40FAA3018F0E21BF30B27
:104A600020C040E050E04038BCE05B075CF49A01B5
:104A7000220F331F220F331F420F531F440F551FA6
:104A80004A0F511D3196DF0111972C91A0EDA20F15
:104A9000AA3048F3C4FF03C0519541955109040F52
:104AA000151FC1FF07C0E114F10421F03197D701B0
:104AB000ED93FC93F4DCC370C33019F06B017C01FF
:104AC00006C06B017C01F7FAF094F7F8F09420E04F
:104AD00030E0A901C701B601ADDC882309F443C069
:104AE00017FF06C0119501951109C5EFD2E002C06C
:104AF000CDE0D3E05E01B8E1AB1AB1084601BE2DAE
:104B0000AF2D90E2E92EF12C0E151F057CF0FE0171
:104B10002591359145915491B4018B2F9A2F75DDD4
:104B20004B01B82FA92F0E191F09EECF2497F5942A
:104B3000E794CA15DB0541F76401EB2EFA2E8E2DA2
:104B4000880F8F2D881F8F3F41F020E030E0A901B2
:104B5000C701B6016FDC811106C082E290E090933C
:104B6000040580930305C701B60109C060E070E049
:104B700080E89FEF04C060E070E080EC9FE7CDB775
:104B8000DEB7EEE08DC091112EC0803219F0895051
:104B90008550D0F70895FB01DC014150504088F06A
:104BA0008D9181341CF08B350CF4805E65916134FD
:104BB0001CF06B350CF4605E861B611171F3990B70
:104BC0000895881BFCCFDC01FC01672F71917723CE
:104BD000E1F7329704C07C916D9370836291AE17B8
:104BE000BF07C8F30895992788270895A6E1B0E084
:104BF00044E050E00FC0A8E1B0E042E050E00AC05D
:104C0000242F17D0252F15D000C012D0272F11C068
:104C1000DC01CB01FC01F999FECF06C0F2BDE1BD7C
:104C2000F89A319600B40D9241505040B8F708956B
:104C3000262FF999FECF1FBA92BD81BD20BD0FB6B8
:104C4000F894FA9AF99A0FBE0196089540D0A59F5C
:104C5000900DB49F900DA49F800D911D1124089577
:104C60002F923F924F925F926F927F928F929F927C
:104C7000AF92BF92CF92DF92EF92FF920F931F936A
:104C8000CF93DF93CDB7DEB7CA1BDB0B0FB6F8941B
:104C9000DEBF0FBECDBF09942A88398848885F845B
:104CA0006E847D848C849B84AA84B984C884DF80CC
:104CB000EE80FD800C811B81AA81B981CE0FD11DB0
:104CC0000FB6F894DEBF0FBECDBFED010895A29FD1
:104CD000B001B39FC001A39F700D811D1124911DD0
:104CE000B29F700D811D1124911D0895F894FFCF7E
:104CF0000100433243412053412041445020312E92
:104D000030000000000049460043524320657272A3
:104D10006F72005652003000310056526572726F49
:104D200072005653004F4E004F4646005653657270
:044D3000726F72002C
:00000001FF
