:1000000059C0000074C0000072C0000070C0000041
:100010006EC000006CC000006AC000004FC6000047
:1000200066C0000064C0000062C00000E5C30000BC
:100030005EC000005CC0000041C3000058C000006A
:1000400056C0000054C0000005C30000C3C2000039
:100050004EC000004CC000004AC0000048C0000074
:1000600046C0000044C000001D046F04E2041805EF
:1000700049055C059205C2054E414E494E49545909
:10008000494E46CDCCCC3D0AD7233C17B7D1387763
:10009000CC2B329595E6241FB14F0A000020410079
:1000A00000C84200401C4620BCBE4CCA1B0E5AAEC3
:1000B000C59D740011241FBECFEFD8E0DEBFCDBFB9
:1000C00011E0A0E0B1E0EEE1FEE402C005900D9287
:1000D000AC38B107D9F725E0ACE8B1E001C01D921A
:1000E000AC35B207E1F70E94880D0C940D2788CF3C
:1000F000CF93DF93CDB7DEB769970FB6F894DEBF25
:100100000FBECDBF1092C50082E28093C400E0EC28
:10011000F0E080818260808388E98093C10086E07E
:100120008093C2001D8A1E8A8FEF8F8B2CE233E0F2
:10013000398F288F95E0FE017596DE011B960190A0
:100140000D929A95E1F795E0FE013B96DE015096FF
:1001500001900D929A95E1F795E0FE017096A5E564
:10016000B5E001900D929A95E1F71D8A1E8A8F8B5A
:100170008BE294E0998F888F85E0FE017596DE0111
:10018000119601900D928A95E1F785E0FE01319676
:10019000DE01169601900D928A95E1F785E0FE0149
:1001A0003696A2E3B5E001900D928A95E1F7699643
:1001B0000FB6F894DEBF0FBECDBFDF91CF9108958B
:1001C000623059F018F4613031F00CC0633039F00E
:1001D000643039F007C05C9805C05D9803C05E9834
:1001E00001C05F9890E89EBD0DB407FEFDCF9EB59F
:1001F0008EBD0DB407FEFDCF8EB58BB1806F8BB970
:100200000895CF93161617063CF5FC01680F791F69
:1002100080E090E0B8E0A0E04191292F332727FD4E
:100220003A952427322F22274B2F5A2F33233CF481
:10023000220F331FC1E22C27C0E13C2702C0220F4E
:10024000331F4150510991F7982F88278227932710
:10025000E617F70709F702C080E090E0CF91089514
:100260000F931F93CF93DF938C01EB016EE170E04E
:100270000E9484240597AC01DE019E012C5E3F4F55
:10028000FE011192E217F307E1F74B3051054CF0F4
:10029000F8013A96080F191F91919D93E017F10705
:1002A000D9F7DF91CF911F910F9108950F931F936D
:1002B000CF93DF93EC018B010E948F24C8010E9431
:1002C0008F248881803319F58981803309F041C0FA
:1002D0008A818033B9F581E02B81F801908129175B
:1002E000E9F180E03BC081E02B81F8019181291781
:1002F000A9F180E033C09A81F801818198131AC076
:1003000081E02B819281291749F180E027C0F80113
:100310009081891311C09981818198130FC09A81AE
:10032000828198130DC081E02B8193812917B1F050
:1003300080E014C080E012C080E010C080E00EC0F9
:1003400080E00CC09A81F8018081981761F280E00A
:1003500005C0F8019081891771F280E0DF91CF919B
:100360001F910F910895CF92DF92EF92FF920F931A
:100370001F93CF93DF93CDB7DEB7A8970FB6F8944E
:10038000DEBF0FBECDBFFC0181E28983A7E3B5E0EC
:1003900011968C9111978A8312968C9112978B8368
:1003A00013968C918C83CF01AE014B5F5F4F00E0C1
:1003B00010E008C0DC012D91CD01DA012D93AD01D3
:1003C0000F5F1F4FDF010D900020E9F79D012E1BED
:1003D0003F0B2E5F3F4F0217130760F37801BFEF0B
:1003E000EB1AFB0A1E141F040CF0D7C0FE01319655
:1003F000A7014E0F5F1F80E090E0B8E0D12C619123
:10040000292F332727FD3A952627322F22276B2FB6
:100410007D2D33233CF4220F331FA1E22A27A0E1D4
:100420003A2702C0220F331F6150710991F7982FAC
:10043000882782279327E417F50709F76C0140E125
:100440006DE275E00E9499248DE295E00E948F2470
:10045000B0E1CB16D10498F480912D05FE01E00F98
:10046000F11F858380E3FE01E00FF11F8483FE010D
:10047000E00FF11F8383FE01EE0DFF1D8183C60196
:100480004097803F9105B8F4ADE2B5E011968C91AC
:100490001197FE01E00FF11F85838C91FE01E00FA3
:1004A000F11F848380E3FE01E00FF11F8383FE01CF
:1004B000EE0DFF1D8183C6019A9581159F40B8F40A
:1004C000EDE2F5E08281DE01A00FB11F15968C935D
:1004D0008181DE01A00FB11F14968C931497808147
:1004E000FD01838380E3FE01EE0DFF1D8183C114B6
:1004F00080E1D806C0F0DE01AE0DBF1DEDE2F5E0F3
:10050000808111968C938181DE01A00FB11F13961B
:100510008C938281DE01A00FB11F14968C931497E7
:100520008381FD018583C8010596FE01E80FF91F4F
:100530002DE0218399230CF43EC0AE014F5F5F4F45
:100540000A5F1F4F040F151FE5E5F5E061EC70E051
:1005500030E0DA018D91AD01F89421819081291369
:1005600004C0DB019C9190629C939081A381B48133
:10057000A90FB11D8C932081A22FB0E0828190E061
:100580000197A817B90711F02F5F01C0232F20830F
:10059000789440175107E9F60EC040E16DE275E02E
:1005A00080E090E00E9499248DE295E00E948F24E3
:1005B000C12CD12C51CFA8960FB6F894DEBF0FBE38
:1005C000CDBFDF91CF911F910F91FF90EF90DF9002
:1005D000CF9008951F920F920FB60F9211242F9370
:1005E0003F934F935F938F939F93AF93BF93EF93FB
:1005F000FF93E5E5F5E0918180819817B9F081815D
:10060000A381B481A80FB11D3C912181422F50E0FC
:10061000828190E001974817590711F02F5F01C0C0
:1006200020E0209356053093C60005C0E1ECF0E0D1
:1006300080818F7D8083FF91EF91BF91AF919F91DA
:100640008F915F914F913F912F910F900FBE0F901F
:100650001F9018951F920F920FB60F9211242F938F
:100660004F935F938F939F93AF93BF93EF93FF93BA
:100670008091C600E2E3F5E09081A381B481A90FE7
:10068000B11D8C932081422F50E0828190E0019730
:100690004817590711F02F5F01C020E02093320561
:1006A000FF91EF91BF91AF919F918F915F914F918A
:1006B0002F910F900FBE0F901F9018951F920F92C1
:1006C0000FB60F9211242F933F938F939F93EF9325
:1006D000FF93E2E2F3E08081918101969183808330
:1006E00020813181809124039091250328173907B7
:1006F00034F480912603882319F0409A01C0409871
:1007000080912203909123038436910524F0109266
:10071000230310922203EFEBF2E080819181019696
:1007200091838083208131818091C1029091C202A6
:100730002817390734F48091C302882319F0419AAD
:1007400001C041988091BF029091C002843691050A
:1007500024F01092C0021092BF02ECE5F2E080811A
:1007600091810196918380832081318180915E0205
:1007700090915F022817390734F480916002882332
:1007800019F0429A01C0429880915C0290915D02FA
:100790008436910524F010925D0210925C02E9EF1C
:1007A000F1E0808191810196918380832081318164
:1007B0008091FB019091FC012817390734F4809156
:1007C000FD01882319F0439A01C043988091F901F3
:1007D0009091FA018436910524F01092FA0110925A
:1007E000F901FF91EF919F918F913F912F910F9080
:1007F0000FBE0F901F9018951F920F920FB60F9279
:1008000011242F933F934F935F936F937F938F9315
:100810009F93AF93BF93EF93FF93E09192018E2F3D
:10082000EE0F990BAA0BBB0B8830910508F0BCC1E9
:10083000FC01EC5CFF4F0C94192480918E01909187
:100840008F01019690938F0180938E0180918E018C
:1008500090918F01813591050CF4A6C110928F0102
:1008600010928E01209190013091910180918C0124
:1008700090918D01281739072CF5E0919001F091A6
:1008800091014091000150910101EE0FFF1FE65BC5
:10089000FE4F20813181429FC001439F900D529FA6
:1008A000900D1124E6E8F0E09183808380819181AE
:1008B0008091900190919101019690939101809384
:1008C000900172C181E0809392018091900190919A
:1008D00091010197909391018093900165C180915E
:1008E000930190919401A0919501B091960140914E
:1008F0009701509198016091990170919A0120910E
:100900008C0130918D01841B950BA60BB70BAC01AC
:10091000BD013AF444275527BA01481B590B6A0B0D
:100920007B0BE0E5E29FC001E39F900D1124092EAF
:10093000000CAA0BBB0B481759076A077B070CF082
:1009400033C180918E0190918F01019690938F0118
:1009500080938E0180918E0190918F018135910558
:100960000CF422C110928F0110928E01809190019F
:100970009091910199230CF417C1E0919001F091AD
:1009800091014091000150910101EE0FFF1FE65BC4
:10099000FE4F20813181429FC001439F900D529FA5
:1009A000900D1124E6E8F0E09183808380819181AD
:1009B0008091900190919101019790939101809382
:1009C0009001F2C0189920C0E6E8F0E088EE93E0CC
:1009D000918380838081918180919701909198018A
:1009E000A0919901B0919A018C529140A109B1094D
:1009F0008093930190939401A0939501B0939601F5
:100A000083E080939201D0C08091930190919401F2
:100A1000A0919501B09196010296A11DB11D809300
:100A2000930190939401A0939501B0939601BCC05B
:100A30008091970190919801A0919901B0919A01AC
:100A400040919301509194016091950170919601AC
:100A5000841B950BA60BB70B0297A105B10509F0F6
:100A6000A3C084E0809392018091970190919801B6
:100A7000A0919901B0919A0180579E4FAF4FBF4FFF
:100A80008093930190939401A0939501B093960164
:100A90008BC0189989C010929701109298011092FA
:100AA000990110929A011092930110929401109260
:100AB00095011092960178C0189920C0E6E8F0E000
:100AC00088EE93E09183808380819181809197016A
:100AD00090919801A0919901B0919A01845D9E4FE7
:100AE000AF4FBF4F8093930190939401A0939501D2
:100AF000B093960186E08093920156C08091930155
:100B000090919401A0919501B09196010297A1094D
:100B1000B1098093930190939401A0939501B093B0
:100B2000960142C08091930190919401A09195010A
:100B3000B09196014091970150919801609199016F
:100B400070919A01841B950BA60BB70B0297A10518
:100B5000B10551F587E080939201809197019091C2
:100B60009801A0919901B0919A0180599140A109F1
:100B7000B1098093930190939401A0939501B09350
:100B8000960112C0189910C0109297011092980106
:100B90001092990110929A0110929301109294016F
:100BA00010929501109296014091970150919801F1
:100BB0006091990170919A018091930190919401B3
:100BC000A0919501B0919601481759076A077B07D4
:100BD000C4F42A9A95B182E0892785B9809197015A
:100BE00090919801A0919901B0919A010196A11D4F
:100BF000B11D8093970190939801A0939901B093B0
:100C00009A014091970150919801609199017091DA
:100C10009A018091930190919401A0919501B091D6
:100C2000960184179507A607B707C4F42A9895B1CB
:100C300082E0892785B98091970190919801A091D0
:100C40009901B0919A010197A109B1098093970187
:100C500090939801A0939901B0939A0140919701C4
:100C6000509198016091990170919A01809193013E
:100C700090919401A0919501B09196014817590760
:100C80006A077B0751F42998EFE6F0E080818250F3
:100C900080831092910110929001FF91EF91BF918A
:100CA000AF919F918F917F916F915F914F913F9104
:100CB0002F910F900FBE0F901F9018951F920F92BB
:100CC0000FB60F921124CF92DF92EF92FF920F9303
:100CD0001F932F933F934F935F936F937F938F93C4
:100CE0009F93AF93BF93CF93DF93EF93FF9378944A
:100CF0005B9A5C9881E08EBD0DB407FEFDCF8EB58A
:100D00001EBC0DB407FEFDCF9EB58BB1806F8BB9B5
:100D10005C9882E08EBD0DB407FEFDCF8EB51EBC83
:100D20000DB407FEFDCF6EB58BB1806F8BB970E04F
:100D3000792B75956795072E000C880B990B0E94EF
:100D4000B92220E030E040E05DE30E946D2320E026
:100D500030E040E853E40E941D22E4ECF2E06483BA
:100D6000758386839783648175818681978120E06E
:100D700030E040EF52E40E94692318162CF41092E0
:100D8000260388B1807F88B900912703109128033A
:100D9000C4ECD2E0688179818A819B812C813D817C
:100DA0004E815F810E941D22000F111F000F111F35
:100DB000F801E451FD4F6083718382839383E09156
:100DC0002703F0912803EE0FFF1FEE0FFF1FE451E2
:100DD000FD4F60817181828193812C8D3D8D4E8D7F
:100DE0005F8D0E946D23688779878A879B87CC8473
:100DF000DD84EE84FF84E0912703F0912803EE0F59
:100E0000FF1FEE0FFF1FE451FD4F60817181828152
:100E1000938128A139A14AA15BA10E946D239B0166
:100E2000AC01C701B6010E941E226C877D878E87A8
:100E30009F876C857D858E859F8520E030E040E230
:100E400051E40E946923181664F480E090E0A0E267
:100E5000B1E48093D0029093D102A093D202B093D8
:100E6000D3026091D0027091D1028091D202909110
:100E7000D30220E030E040E251EC0E94822288233D
:100E800064F480E090E0A0E2B1EC8093D002909313
:100E9000D102A093D202B093D302E0912703F09144
:100EA0002803C4ECD2E0EE0FFF1FEE0FFF1FE4514A
:100EB000FD4F6081718182819381E0910201F09107
:100EC0000301EE0FFF1FEE0FFF1FE451FD4F2081C6
:100ED000318142815381CCA0DDA0EEA0FFA00E9411
:100EE0001D22A70196010E946D23688B798B8A8B46
:100EF0009B8B688579858A859B852C853D854E856C
:100F00005F85C888D988EA88FB880E941E22A701CD
:100F100096010E941E22688F798F8A8F9B8F888D01
:100F2000998DAA8DBB8D8C8B9D8BAE8BBF8B6C8965
:100F30007D898E899F890E94D0230E94862270938A
:100F4000250360932403E0912703F0912803EE0F1B
:100F5000FF1FEE0FFF1FE451FD4F80819181A281A1
:100F6000B381BC01CD019F7720E030E040EA50E43E
:100F70000E946923181644F41092D0021092D102F4
:100F80001092D2021092D302E0912703F09128032D
:100F9000EE0FFF1FEE0FFF1FE451FD4F8081918187
:100FA000A281B381209118033091190340911A0353
:100FB00050911B03BC01CD019F770E94822218161D
:100FC00014F1ECE1F3E080819181019691838083BB
:100FD0002081318140911E0350911F036DE3649F76
:100FE000C001659F900D112428173907A4F081E0F6
:100FF00090E0909321038093200380819181019759
:101000009183808308C010921D0310921C031092DC
:101010002103109220035D9881E08EBD0DB407FE80
:10102000FDCF8EB51EBC0DB407FEFDCF9EB58BB1B6
:10103000806F8BB95D9882E08EBD0DB407FEFDCF49
:101040008EB51EBC0DB407FEFDCF6EB58BB1806FA3
:101050008BB970E0792B75956795072E000C880B7E
:10106000990B0E94B92220E030E040E05DE30E944D
:101070006D2320E030E040E853E40E941D22E1E6C9
:10108000F2E06483758386839783648175818681AA
:10109000978120E030E040EF52E40E946923181667
:1010A0002CF41092C30288B1807F88B90091270385
:1010B00010912803C1E6D2E0688179818A819B8101
:1010C0002C813D814E815F810E941D22000F111FE6
:1010D000000F111FF801E757FD4F60837183828372
:1010E0009383E0912703F0912803EE0FFF1FEE0F8B
:1010F000FF1FE757FD4F60817181828193812C8DA5
:101100003D8D4E8D5F8D0E946D23688779878A871C
:101110009B87CC84DD84EE84FF84E0912703F091EB
:101120002803EE0FFF1FEE0FFF1FE757FD4F6081F3
:1011300071818281938128A139A14AA15BA10E947A
:101140006D239B01AC01C701B6010E941E226C8772
:101150007D878E879F876C857D858E859F8520E026
:1011600030E040E251E40E946923181664F480E004
:1011700090E0A0E2B1E480936D0290936E02A093A0
:101180006F02B093700260916D0270916E02809157
:101190006F029091700220E030E040E251EC0E943A
:1011A0008222882364F480E090E0A0E2B1EC809396
:1011B0006D0290936E02A0936F02B0937002E09163
:1011C0002703F0912803C1E6D2E0EE0FFF1FEE0FD8
:1011D000FF1FE757FD4F6081718182819381E0910C
:1011E0000201F0910301EE0FFF1FEE0FFF1FE75703
:1011F000FD4F2081318142815381CCA0DDA0EEA042
:10120000FFA00E941D22A70196010E946D23688BFA
:10121000798B8A8B9B8B688579858A859B852C85C4
:101220003D854E855F85C888D988EA88FB880E94FD
:101230001E22A70196010E941E22688F798F8A8F35
:101240009B8F888D998DAA8DBB8D8C8B9D8BAE8B42
:10125000BF8B6C897D898E899F890E94D0230E94D3
:1012600086227093C2026093C102E0912703F0913D
:101270002803EE0FFF1FEE0FFF1FE757FD4F808182
:101280009181A281B381BC01CD019F7720E030E044
:1012900040EA50E40E946923181644F410926D024B
:1012A00010926E0210926F0210927002E09127036A
:1012B000F0912803EE0FFF1FEE0FFF1FE757FD4FC2
:1012C00080819181A281B3812091B5023091B602D3
:1012D0004091B7025091B802BC01CD019F770E94A6
:1012E0008222181614F1E9EBF2E0808191810196D7
:1012F00091838083208131814091BB025091BC0257
:101300006DE3649FC001659F900D11242817390774
:10131000A4F081E090E09093BE028093BD028081B2
:10132000918101979183808308C01092BA02109234
:10133000B9021092BE021092BD025E9881E08EBD8D
:101340000DB407FEFDCF8EB51EBC0DB407FEFDCF5C
:101350009EB58BB1806F8BB95E9882E08EBD0DB467
:1013600007FEFDCF8EB51EBC0DB407FEFDCF6EB5DA
:101370008BB1806F8BB970E0792B75956795072ECF
:10138000000C880B990B0E94B92220E030E040E06D
:101390005DE30E946D2320E030E040E853E40E94CA
:1013A0001D22EEEFF1E06483758386839783648169
:1013B00075818681978120E030E040EF52E40E9401
:1013C000692318162CF41092600288B1807F88B9C6
:1013D0000091270310912803CEEFD1E06881798135
:1013E0008A819B812C813D814E815F810E941D22DB
:1013F000000F111F000F111FF801EA5DFD4F608300
:10140000718382839383E0912703F0912803EE0F89
:10141000FF1FEE0FFF1FEA5DFD4F6081718182812A
:1014200093812C8D3D8D4E8D5F8D0E946D2368873D
:1014300079878A879B87CC84DD84EE84FF84E09162
:101440002703F0912803EE0FFF1FEE0FFF1FEA5D49
:10145000FD4F608171818281938128A139A14AA1C8
:101460005BA10E946D239B01AC01C701B6010E94E4
:101470001E226C877D878E879F876C857D858E85F4
:101480009F8520E030E040E251E40E946923181675
:1014900064F480E090E0A0E2B1E480930A029093CB
:1014A0000B02A0930C02B0930D0260910A0270919E
:1014B0000B0280910C0290910D0220E030E040E29E
:1014C00051EC0E948222882364F480E090E0A0E244
:1014D000B1EC80930A0290930B02A0930C02B0939C
:1014E0000D02E0912703F0912803CEEFD1E0EE0F3B
:1014F000FF1FEE0FFF1FEA5DFD4F6081718182814A
:101500009381E0910201F0910301EE0FFF1FEE0FB6
:10151000FF1FEA5DFD4F2081318142815381CCA0C4
:10152000DDA0EEA0FFA00E941D22A70196010E944F
:101530006D23688B798B8A8B9B8B688579858A85EF
:101540009B852C853D854E855F85C888D988EA882E
:10155000FB880E941E22A70196010E941E22688F0E
:10156000798F8A8F9B8F888D998DAA8DBB8D8C8B5F
:101570009D8BAE8BBF8B6C897D898E899F890E94E4
:10158000D0230E94862270935F0260935E02E091F6
:101590002703F0912803EE0FFF1FEE0FFF1FEA5DF8
:1015A000FD4F80819181A281B381BC01CD019F77E4
:1015B00020E030E040EA50E40E946923181644F429
:1015C00010920A0210920B0210920C0210920D025D
:1015D000E0912703F0912803EE0FFF1FEE0FFF1F8E
:1015E000EA5DFD4F80819181A281B38120915202F9
:1015F000309153024091540250915502BC01CD01EB
:101600009F770E948222181614F1E6E5F2E08081AD
:10161000918101969183808320813181409158028C
:10162000509159026DE3649FC001659F900D112494
:1016300028173907A4F081E090E090935B02809333
:101640005A028081918101979183808308C0109212
:1016500057021092560210925B0210925A025F9843
:1016600081E08EBD0DB407FEFDCF8EB51EBC0DB45E
:1016700007FEFDCF9EB58BB1806F8BB95F9882E07E
:101680008EBD0DB407FEFDCF8EB51EBC0DB407FE9A
:10169000FDCF6EB58BB1806F8BB970E0792B7595EE
:1016A0006795072E000C880B990B0E94B92220E049
:1016B00030E040E05DE30E946D2320E030E040E850
:1016C00053E40E941D22EBE9F1E064837583868375
:1016D0009783648175818681978120E030E040EFB7
:1016E00052E40E94692318162CF41092FD0188B16F
:1016F000807F88B90091270310912803CBE9D1E0BE
:10170000688179818A819B812C813D814E815F81B5
:101710000E941D22000F111F000F111FF801ED5331
:10172000FE4F6083718382839383E0912703F0915E
:101730002803EE0FFF1FEE0FFF1FED53FE4F6081DA
:101740007181828193812C8D3D8D4E8D5F8D0E94A4
:101750006D23688779878A879B87CC84DD84EE84B4
:10176000FF84E0912703F0912803EE0FFF1FEE0F97
:10177000FF1FED53FE4F608171818281938128A10B
:1017800039A14AA15BA10E946D239B01AC01C70155
:10179000B6010E941E226C877D878E879F876C858D
:1017A0007D858E859F8520E030E040E251E40E94F7
:1017B0006923181664F480E090E0A0E2B1E480931D
:1017C000A7019093A801A093A901B093AA016091E9
:1017D000A7017091A8018091A9019091AA0120E030
:1017E00030E040E251EC0E948222882364F480E0E1
:1017F00090E0A0E2B1EC8093A7019093A801A093A0
:10180000A901B093AA01E0912703F0912803CBE945
:10181000D1E0EE0FFF1FEE0FFF1FED53FE4F608173
:10182000718182819381E0910201F0910301EE0FB9
:10183000FF1FEE0FFF1FED53FE4F208131814281CC
:101840005381CCA0DDA0EEA0FFA00E941D22A70125
:1018500096010E946D23688B798B8A8B9B8B6885A0
:1018600079858A859B852C853D854E855F85C888D1
:10187000D988EA88FB880E941E22A70196010E944F
:101880001E22688F798F8A8F9B8F888D998DAA8D64
:10189000BB8D8C8B9D8BAE8BBF8B6C897D898E892C
:1018A0009F890E94D0230E9486227093FC0160933E
:1018B000FB01E0912703F0912803EE0FFF1FEE0FCD
:1018C000FF1FED53FE4F80819181A281B381BC0146
:1018D000CD019F7720E030E040EA50E40E94692388
:1018E000181644F41092A7011092A8011092A901B1
:1018F0001092AA01E0912703F0912803EE0FFF1F39
:10190000EE0FFF1FED53FE4F80819181A281B381C5
:101910002091EF013091F0014091F1015091F201DD
:10192000BC01CD019F770E948222181614F1E3EFCB
:10193000F1E08081918101969183808320813181C2
:101940004091F5015091F6016DE3649FC001659FE0
:10195000900D112428173907A4F081E090E09093AE
:10196000F8018093F70180819181019791838083B1
:1019700008C01092F4011092F3011092F801109235
:10198000F7018091270390912803019690932803F3
:101990008093270380912703909128030B9724F0CD
:1019A0001092280310922703809127039091280317
:1019B000019690930301809302018091020190911E
:1019C00003010B9724F010920301109202015B981F
:1019D000FF91EF91DF91CF91BF91AF919F918F9147
:1019E0007F916F915F914F913F912F911F910F9137
:1019F000FF90EF90DF90CF900F900FBE0F901F9051
:101A000018958F929F92AF92BF92CF92DF92EF92F2
:101A1000FF920F931F93CF93DF93CDB7DEB76497F9
:101A20000FB6F894DEBF0FBECDBF4B015C018A013B
:101A30000E9486226B017C0184E1F80111928A9553
:101A4000E9F74AE0B801C6010E949924F801019023
:101A50000020E9F731978EE290E091838083B60110
:101A6000DD0C880B990B0E94B9229B01AC01C501CA
:101A7000B4010E941D2220E030E04AE754E40E94B5
:101A80006D230E9486229B01772324F4222733278B
:101A9000261B370B4AE0BE016F5F7F4FC9010E94D2
:101AA000992480E090E0DE01119623E030E040E3ED
:101AB00050E008C0F80101900020E9F73197518308
:101AC00040830196FD0101900020E9F73197EA1B60
:101AD000FB0BB9016E1B7F0B8617970758F3BE01EE
:101AE0006F5F7F4FC8010E94652464960FB6F8941B
:101AF000DEBF0FBECDBFDF91CF911F910F91FF9041
:101B0000EF90DF90CF90BF90AF909F908F9008950F
:101B1000CF93DF93CDB7DEB7C056D1090FB6F89497
:101B2000DEBF0FBECDBF80E1E4E0F1E0DE0115963F
:101B300001900D928A95E1F71D8A1E8A1F8A188EE0
:101B4000F8940E947800789424988CE284B98DE50A
:101B50008CBD0F2EF4ECAF2EF2E0BF2EF02D81E005
:101B600090E090932503809324030F2EF1E6CF2E6F
:101B7000F2E0DF2EF02D9093C2028093C1020F2E6F
:101B8000FEEFEF2EF1E0FF2EF02D90935F02809399
:101B90005E020BE911E09093FC018093FB0188EF5A
:101BA0008AB98FE087B9219A8BB1806F8BB980E0B9
:101BB00090E00E948D26D5016D937D938D939C932B
:101BC000139784E090E00E948D26F501648F758F55
:101BD000868F978F88E090E00E948D26D5019096A1
:101BE0006D937D938D939C9393978CE090E00E94EE
:101BF0008D26F50164A375A386A397A380E190E0E9
:101C00000E948D26609318037093190380931A0322
:101C100090931B0384E190E00E94922690931F030F
:101C200080931E0388E190E00E948D26D6016D937B
:101C30007D938D939C9313978CE190E00E948D2669
:101C4000F601648F758F868F978F80E290E00E94F7
:101C50008D26D60190966D937D938D939C9393974B
:101C600084E290E00E948D26F60164A375A386A30A
:101C700097A388E290E00E948D266093B50270934E
:101C8000B6028093B7029093B8028CE290E00E9473
:101C900092269093BC028093BB0280E390E00E9466
:101CA0008D26D7016D937D938D939C93139784E339
:101CB00090E00E948D26F701648F758F868F978F35
:101CC00088E390E00E948D26D70190966D937D93D6
:101CD0008D939C9393978CE390E00E948D26F7015F
:101CE00064A375A386A397A380E490E00E948D2649
:101CF0006093520270935302809354029093550262
:101D000084E490E00E9492269093590280935802B6
:101D100088E490E00E948D26D8016D937D938D9389
:101D20009C9313978CE490E00E948D26F801648FB9
:101D3000758F868F978F80E590E00E948D26D80161
:101D400090966D937D938D939C93939784E590E00B
:101D50000E948D26F80164A375A386A397A388E546
:101D600090E00E948D266093EF017093F0018093C4
:101D7000F1019093F2018CE590E00E9492269093FD
:101D8000F6018093F50161E083EC0E94E00062E0DF
:101D900083EC0E94E00063E083EC0E94E00064E0DA
:101DA00083EC0E94E00082E080936E0084BD95E0A9
:101DB00095BD90E197BD80936F009AE1909381006B
:101DC000E6E8F0E02CE231E03183208320813181AC
:101DD000809370008093B00087E08093B1008FEF14
:101DE0008093B30078940F2EF7E34F2EF5E05F2E2B
:101DF000F02D02E315E00F2EF5E52F2EF5E03F2E36
:101E0000F02D5E01F6E4AF0EB11C6F964FAE6F97EA
:101E1000A0965FAEA097A1964FAEA197652CDB2C44
:101E20006C965FAE4EAE6C976E96BFAEAEAE6E97D2
:101E3000BA2C5D2C6F967FAC6F97A096AFACA09735
:101E40000F2EFEE1EF2EF02DF12C6C96AEADBFAD56
:101E50006C97EE2D1D92EA95E9F7D80113966D91D6
:101E60007C91149712964C9150E041505109A196E3
:101E7000EFADA197F62DD80111968C9111979C91F9
:101E80009817C9F311968C91DB01A80FB11D9C9195
:101E9000D80111968C91282F30E02417350711F0C6
:101EA0008F5F01C08F2DD80111968C9391939D3037
:101EB00019F0E215F305F9F66C96EEADFFAD6C97EF
:101EC0008081833211F66FE370E0872D9A2D0E9496
:101ED00070247C01009709F48EC6E9E2F3E0DC018E
:101EE00011968C911197808312968C91818368E171
:101EF00071E0CF010E947B24892BB9F5EDE2F5E07A
:101F0000D70113968C911397808314968C91149714
:101F1000818315968C911597828316968C91838375
:101F20006EE170E0872D9A2D0E948424BC016550DB
:101F30007109872D9A2D0E94010140E1BE01675E63
:101F40007F4F0E949924BE01675E7F4F8DE295E02E
:101F50000E945601882329F0CE0105960E94B30104
:101F600004C08BE191E00E94B30165E271E089E277
:101F700093E00E947B24892B09F03DC6F701838101
:101F8000898384818A8385818B83EDE2F5E0D701A3
:101F900016968C911697808317968C91179781834C
:101FA00018968C911897828319968C9183836EE191
:101FB00070E0872D9A2D0E948424BC016550710920
:101FC000872D9A2D0E94010140E1BE01675E7F4F7F
:101FD0000E949924BE01675E7F4F8DE295E00E94CA
:101FE0005601882309F403C6CE0101960E943F24BE
:101FF0006C32B1E07B0709F46AC40CF067C06E363E
:10200000710509F490C27CF56836710509F418C1B0
:102010009CF46536710509F4E3C02CF4643671054F
:1020200009F4CEC0DFC56636710509F4E9C067362C
:10203000710509F4F5C0D6C56B36710509F445C2C2
:102040004CF46936710509F40BC16A36710509F45F
:1020500017C1C8C56C36710509F447C26D367105E4
:1020600009F453C2BFC56D3C710509F4BFC2BCF48D
:102070006A3C710509F48AC24CF4683C710509F4A4
:1020800065C2693C710509F471C2ACC56B3C710550
:1020900009F48CC26C3C710509F498C2A3C5603D7B
:1020A000710509F4E3C34CF46E3C710509F4AEC24A
:1020B0006F3C710509F4BAC295C5613D710509F41B
:1020C000E5C3623D710509F4EFC38CC56139F1E0E8
:1020D0007F0709F4BEC4D4F5623331E0730709F415
:1020E00056C4D4F46F32B1E07B0709F420C454F431
:1020F0006D32F1E07F0709F4FAC36E32714009F4E2
:1021000006C470C5603331E0730709F420C461333D
:10211000714009F42CC466C56533B1E07B0709F44E
:1021200066C454F46333F1E07F0709F440C46433B8
:10213000714009F44CC456C5663331E0730709F4A5
:1021400064C46039714009F473C44CC56739B1E0A7
:102150007B0709F4E4C4D4F46439F1E07F0709F49F
:10216000ABC454F4623931E0730709F483C46339B2
:10217000714009F490C436C56539B1E07B0709F4B4
:10218000ACC46639714009F4B9C42CC56A39F1E0B0
:102190007F0709F4F4C454F4683931E0730709F493
:1021A000CFC46939714009F4DCC41CC56935B2E09B
:1021B0007B0709F4F7C46A35724009F405C512C5F6
:1021C0006091C8027091C9028091CA029091CB02BD
:1021D0004B2D552D16DC8B2D952D0E94B3010BC573
:1021E0006091CC027091CD028091CE029091CF028D
:1021F0004B2D552D06DC8B2D952D0E94B301FBC474
:102200006091D0027091D1028091D2029091D3025C
:102210004B2D552DF6DB8B2D952D0E94B301EBC474
:102220006091D4027091D5028091D6029091D7022C
:102230004B2D552DE6DB8B2D952D0E94B301DBC474
:102240006091C4027091C5028091C6029091C7024C
:102250004B2D552DD6DB8B2D952D0E94B301CBC474
:102260006091E0027091E1028091E2029091E302BC
:102270004B2D552DC6DB8B2D952D0E94B301BBC474
:102280006091E4027091E5028091E6029091E7028C
:102290004B2D552DB6DB81E28E8F6C96AEADBFAD6A
:1022A0006C9711968C9111978F8F12968C91129733
:1022B00088A313968C9189A3EB2DF52DDE019296C0
:1022C000E12CF12CAF0107C0FA018191AF018D9390
:1022D000FFEFEF1AFF0A6E96EEADFFAD6E9701901D
:1022E0000020E9F7CF016E962EAD3FAD6E97821BB1
:1022F000930B0296E816F90638F367013FEFC31A0D
:10230000D30A1C141D0414F00C940322FE017E96C3
:10231000B6016E0F7F1F80E090E0B8E0912C4191F4
:10232000292F332727FD3A952427322F22274B2F99
:10233000592D33233CF4220F331FA1E22A27A0E1B9
:102340003A2702C0220F331F4150510991F7982FAD
:10235000882782279327E617F70709F74C0140E102
:102360006DE275E00E9499248DE295E00E948F2431
:10237000B0E18B16910498F480912D05FE01EE0DCD
:10238000FF1D82A380E3FE01EE0DFF1D81A3FE0170
:10239000EE0DFF1D80A3FE01EC0DFD1D868FC40117
:1023A0004097803F9105B8F4ADE2B5E011968C916D
:1023B0001197FE01EE0DFF1D82A38C91FE01EE0D23
:1023C000FF1D81A380E3FE01EE0DFF1D80A3FE0132
:1023D000EC0DFD1D868FC4019A9581159F40B8F4C0
:1023E000EDE2F5E08281DE01AE0DBF1D92968C9389
:1023F0008181DE01AE0DBF1D91968C9391978081F6
:10240000FD0180A380E3FE01EC0DFD1D868F81148C
:10241000F0E19F06C0F0DE01AC0DBD1DEDE2F5E080
:1024200080815E968C938181DE01AE0DBF1D9096FA
:102430008C938281DE01AE0DBF1D91968C93919796
:102440008381FD0182A3C7010596FE01E80FF91FF4
:102450002DE0268F99230CF4CEC3FE017E96A701B2
:102460004A5F5F4F4E0F5F1F90E02191F8943091CB
:102470005605A5E5B5E08C91381305C0A1ECB0E098
:102480008C9180628C93A5E5B5E08C91A091580564
:10249000B0915905A80FB11D2C93A5E5B5E08C911D
:1024A000682F70E02091570530E021503109621704
:1024B000730711F08F5F01C0892FA5E5B5E08C93FC
:1024C0007894E417F50789F696C36091E802709155
:1024D000E9028091EA029091EB024B2D552D91DAA1
:1024E0008B2D952D0E94B30186C3609118037091C6
:1024F000190380911A0390911B034B2D552D81DAFE
:102500008B2D952D0E94B30176C380911E0390916F
:102510001F034AE06B2D752D0E9499248B2D952D5C
:102520000E94B30168C3809120039091210300971A
:1025300019F0019731F05FC388E291E00E94B30186
:102540005AC38AE291E00E94B30155C360916502CB
:102550007091660280916702909168024B2D552D13
:1025600050DA8B2D952D0E94B30145C3609169020D
:1025700070916A0280916B0290916C024B2D552DE7
:1025800040DA8B2D952D0E94B30135C360916D0209
:1025900070916E0280916F02909170024B2D552DBB
:1025A00030DA8B2D952D0E94B30125C36091710205
:1025B0007091720280917302909174024B2D552D8F
:1025C00020DA8B2D952D0E94B30115C36091610215
:1025D0007091620280916302909164024B2D552D9F
:1025E00010DA8B2D952D0E94B30105C360917D02F9
:1025F00070917E0280917F02909180024B2D552D2B
:1026000000DA8B2D952D0E94B301F5C260918102F5
:102610007091820280918302909184024B2D552DFE
:10262000F0D98B2D952D0E94B301E5C260918502F2
:102630007091860280918702909188024B2D552DD2
:10264000E0D981E28E8F6C96EEADFFAD6C97818103
:102650008F8F828188A3838189A3EB2DF52DDE01E5
:102660009296E12CF12CAF0107C0FA018191AF01E4
:102670008D93FFEFEF1AFF0A6E96EEADFFAD6E97EA
:1026800001900020E9F7CF016E962EAD3FAD6E9719
:10269000821B930B0296E816F90638F367013FEFA9
:1026A000C31AD30A1C141D0414F00C941022FE014A
:1026B0007E96B6016E0F7F1F80E090E0B8E0912C0F
:1026C0004191292F332727FD3A952427322F22279E
:1026D0004B2F592D33233CF4220F331FA1E22A271D
:1026E000A0E13A2702C0220F331F4150510991F750
:1026F000982F882782279327E617F70709F74C01B9
:1027000040E16DE275E00E9499248DE295E00E941F
:102710008F24B0E18B16910498F480912D05FE0171
:10272000EE0DFF1D82A380E3FE01EE0DFF1D81A3D0
:10273000FE01EE0DFF1D80A3FE01EC0DFD1D868F39
:10274000C4014097803F9105B8F4ADE2B5E0119621
:102750008C911197FE01EE0DFF1D82A38C91FE015D
:10276000EE0DFF1D81A380E3FE01EE0DFF1D80A392
:10277000FE01EC0DFD1D868FC4019A9581159F40C9
:10278000B8F4EDE2F5E08281DE01AE0DBF1D929658
:102790008C938181DE01AE0DBF1D91968C93919734
:1027A0008081FD0180A380E3FE01EC0DFD1D868F7D
:1027B0008114F0E19F06C0F0DE01AC0DBD1DEDE21D
:1027C000F5E080815E968C938181DE01AE0DBF1DA8
:1027D00090968C938281DE01AE0DBF1D91968C93F5
:1027E00091978381FD0182A3C7010596FE01E80F41
:1027F000F91F2DE0268F99230CF4FDC1FE017E9672
:10280000A7014A5F5F4F4E0F5F1F90E02191F89440
:1028100030915605A5E5B5E08C91381305C0A1ECC3
:10282000B0E08C9180628C93A5E5B5E08C91A0918D
:102830005805B0915905A80FB11D2C93A5E5B5E039
:102840008C91682F70E02091570530E021503109BC
:102850006217730711F08F5F01C0892FA5E5B5E0FE
:102860008C937894E417F50789F6C5C16091B50299
:102870007091B6028091B7029091B8024B2D552D00
:10288000C0D88B2D952D0E94B301B5C18091BB029C
:102890009091BC024AE06B2D752D0E9499248B2DDE
:1028A000952D0E94B301A7C18091BD029091BE02F7
:1028B000009719F0019731F09EC188E291E00E94E3
:1028C000B30199C18AE291E00E94B30194C1609181
:1028D00002027091030280910402909105024B2D37
:1028E000552D8FD88B2D952D0E94B30184C16091F9
:1028F00006027091070280910802909109024B2D07
:10290000552D7FD88B2D952D0E94B30174C16091F8
:102910000A0270910B0280910C0290910D024B2DD6
:10292000552D6FD88B2D952D0E94B30164C16091F8
:102930000E0270910F0280911002909111024B2DA6
:10294000552D5FD88B2D952D0E94B30154C16091F8
:10295000FE017091FF0180910002909101024B2DC8
:10296000552D4FD88B2D952D0E94B30144C16091F8
:102970001A0270911B0280911C0290911D024B2D36
:10298000552D3FD88B2D952D0E94B30134C16091F8
:102990001E0270911F0280912002909121024B2D06
:1029A000552D2FD88B2D952D0E94B30124C16091F8
:1029B00022027091230280912402909125024B2DD6
:1029C000552D1FD88B2D952D0E94B30114C16091F8
:1029D00052027091530280915402909155024B2DF6
:1029E000552D0FD88B2D952D0E94B30104C18091D8
:1029F0005802909159024AE06B2D752D0E9499243E
:102A00008B2D952D0E94B301F6C080915A029091B2
:102A10005B02009719F0019731F0EDC088E291E078
:102A20000E94B301E8C08AE291E00E94B301E3C0D2
:102A300060919F017091A0018091A1019091A201EC
:102A40004B2D552D0E94010D8B2D952D0E94B3010C
:102A5000D2C06091A3017091A4018091A5019091D1
:102A6000A6014B2D552D0E94010D8B2D952D0E94F9
:102A7000B301C1C06091A7017091A8018091A90123
:102A80009091AA014B2D552D0E94010D8B2D952D56
:102A90000E94B301B0C06091AB017091AC01809114
:102AA000AD019091AE014B2D552D0E94010D8B2D46
:102AB000952D0E94B3019FC060919B0170919C0174
:102AC00080919D0190919E014B2D552D0E94010DED
:102AD0008B2D952D0E94B3018EC06091B70170912E
:102AE000B8018091B9019091BA014B2D552D0E94EA
:102AF000010D8B2D952D0E94B3017DC06091BB010E
:102B00007091BC018091BD019091BE014B2D552D5E
:102B10000E94010D8B2D952D0E94B3016CC0609118
:102B2000BF017091C0018091C1019091C2014B2DF4
:102B3000552D0E94010D8B2D952D0E94B3015BC078
:102B40006091EF017091F0018091F1019091F2019B
:102B50004B2D552D0E94010D8B2D952D0E94B301FB
:102B60004AC08091F5019091F6014AE06B2D752DD8
:102B70000E9499248B2D952D0E94B3013CC0809119
:102B8000F7019091F801009719F0019731F033C0E7
:102B900088E291E00E94B3012EC08AE291E00E9497
:102BA000B30129C0609197017091980180919901BA
:102BB00090919A012AE04B2D552D0E94A3248B2D34
:102BC000952D0E94B30117C08091000190910101E1
:102BD0004AE06B2D752D0E9499248B2D952D0E9416
:102BE000B30109C08CE291E00E94B30104C08BE103
:102BF00091E00E94B30166E270E0872D9A2D0E9459
:102C00007024009709F41CC9FC01AAE2B5E0818197
:102C10008C93828111968C9311978381898384810F
:102C20008A8385818B8364E371E0CD010E947B24DC
:102C3000892B09F0FFC86C964EAC5FAC6C976E9612
:102C4000AEACBFAC6E976DE070E0C2010E94702424
:102C5000EDE2F5E0DC0114972C91208311962C9184
:102C6000218311962C91228311968C9183836EE19E
:102C700070E0C2010E948424BC0165507109C20148
:102C80000E94010140E1BE01675E7F4F0E949924CE
:102C9000BE01675E7F4F8DE295E00E94560188235A
:102CA00011F40C94FD21CE0101960E943F246F3552
:102CB000B1E07B0709F403C3DCF56A3F710509F451
:102CC0003CC2ECF46939710509F4B1C164F46739A7
:102CD000710509F450C10CF07CC16639710509F425
:102CE00072C00C94F7216B39710509F4E7C10CF43B
:102CF000CCC16C39710509F40FC20C94F7216E3FF9
:102D0000710509F487C23CF46C3F710509F43FC2B8
:102D10000CF428C251C26115F1E07F0709F4A9C281
:102D20000CF492C26E35714009F4B4C20C94F721D0
:102D3000643CA1E07A0709F446C4DCF46336E1E0C0
:102D40007E0709F414C344F4613621E0720709F4E4
:102D5000E0C20CF4C9C2F2C2623CA1E07A0709F4F5
:102D600045C30CF058C36436714009F42EC30C946B
:102D7000F721683CF1E07F0711F40C94C01E44F485
:102D8000663C31E0730709F4C4C50CF4EFC429C7ED
:102D90006835B2E07B0711F40C9424213CF4643FC5
:102DA000714011F40C948B1F0C94F721693522E0CB
:102DB000720711F40C9463216A35724011F40C947B
:102DC0008B210C94F7216EE170E0C2010E948424F3
:102DD00005979C01D501A5014C5E5F4FF50111924D
:102DE000E417F507E1F72B30310554F0E1E4F5E0A5
:102DF000895C9A4F9C0191919D93E217F307D9F753
:102E0000C5010E941F246093C4027093C502809381
:102E1000C6029093C70281E28E8FD20111968C91E7
:102E200011978F8F12968C91129788A313968C917D
:102E300089A31AA21BA21CA27E01BEE1EB0EF11C0B
:102E4000BE016E5D7F4FF70180E090E0B8E0D12CCD
:102E50004191292F332727FD3A952427322F222706
:102E60004B2F5D2D33233CF4220F331FA1E22A2781
:102E7000A0E13A2702C0220F331F4150510991F7B8
:102E8000982F882782279327E617F70709F76C0101
:102E900040E16DE275E00E9499248DE295E00E9488
:102EA0008F24B0E1CB16D10438F480912D058DA389
:102EB00080E38CA38BA38AA3C6014097803F910532
:102EC00048F4EDE2F5E081818DA380818CA380E35D
:102ED0008BA38AA3C6019A9581159F4050F4EDE219
:102EE000F5E082818DA381818CA380818BA380E317
:102EF0008AA3C114F0E1DF0650F0EDE2F5E0808135
:102F00008AA381818BA382818CA383818DA38DE091
:102F10008EA39E01295D3F4FE5E5F5E00F2EF1EC14
:102F20008F2E912CF02D70E0D7014D917D01F894FA
:102F300091818081981304C0D4018C9180628C931C
:102F4000508183819481850F911DDC014C93808198
:102F5000C82ED12C428150E041505109C416D506EB
:102F600011F08F5F01C0872F80837894E216F306FB
:102F7000D9F60C940F0F6EE170E0C2010E94842418
:102F800005979C01D501A5014C5E5F4FF50111929B
:102F9000E417F507E1F72B30310554F0E1E4F5E0F3
:102FA000895C9A4F9C0191919D93E217F307D9F7A1
:102FB000C5010E941F246093E0027093E102809398
:102FC000E2029093E30289E291E00E94B3010C9443
:102FD0000F0F6EE170E0C2010E94842405979C01EE
:102FE000D501A5014C5E5F4FF5011192E417F5077D
:102FF000E1F72B30310554F0E1E4F5E0895C9A4FBC
:103000009C0191919D93E217F307D9F7C5010E94A6
:103010001F246093E4027093E5028093E60290938C
:10302000E70289E291E00E94B3010C940F0F6EE178
:1030300070E0C2010E94842405979C01D501A5017E
:103040004C5E5F4FF5011192E417F507E1F72B3065
:10305000310554F0E1E4F5E0895C9A4F9C019191CF
:103060009D93E217F307D9F7C5010E941F246093CF
:10307000E8027093E9028093EA029093EB0289E2FE
:1030800091E00E94B3010C940F0FF201828581330D
:1030900049F481E08093260387E391E00E94B30125
:1030A0000C940F0F803311F00C940F0F1092260325
:1030B0008AE391E00E94B3010C940F0F6EE170E07F
:1030C000C2010E94842405979C01D501A5014C5E94
:1030D0005F4FF5011192E417F507E1F72B30310549
:1030E00054F0E1E4F5E0895C9A4F9C0191919D9345
:1030F000E217F307D9F7C5010E941F246093180354
:103100007093190380931A0390931B0389E291E053
:103110000E94B3010C940F0FB501C2010E9430014F
:10312000C5010E94222490931F0380931E0389E20D
:1031300091E00E94B3010C940F0FB501C2010E94EF
:103140003001C5010E941F246093610270936202E6
:10315000809363029093640289E291E00E94B3013C
:103160000C940F0FB501C2010E943001C5010E94ED
:103170001F2460937D0270937E0280937F02909360
:10318000800289E291E00E94B3010C940F0FB50117
:10319000C2010E943001C5010E941F246093810278
:1031A00070938202809383029093840289E291E07B
:1031B0000E94B3010C940F0F6EE170E0C2010E94F7
:1031C000842405979C01D501A5014C5E5F4FF50154
:1031D0001192E417F507E1F72B30310554F0E1E4E3
:1031E000F5E0895C9A4F9C0191919D93E217F3075A
:1031F000D9F7C5010E941F2460938502709386024F
:10320000809387029093880289E291E00E94B30143
:103210000C940F0FD2011A968C91813349F481E0FE
:103220008093C30287E391E00E94B3010C940F0FD7
:10323000803311F00C940F0F1092C3028AE391E0D7
:103240000E94B3010C940F0FB501C2010E9430011E
:10325000C5010E941F246093B5027093B60280934B
:10326000B7029093B80289E291E00E94B3010C94F6
:103270000F0FB501C2010E943001C5010E94222436
:103280009093BC028093BB0289E291E00E94B3015B
:103290000C940F0FB501C2010E943001C5010E94BC
:1032A0001F246093FE017093FF01809300029093AE
:1032B000010289E291E00E94B3010C940F0FB50165
:1032C000C2010E943001C5010E941F2460931A02AE
:1032D00070931B0280931C0290931D0289E291E07F
:1032E0000E94B3010C940F0FB501C2010E9430017E
:1032F000C5010E941F2460931E0270931F028093D9
:1033000020029093210289E291E00E94B3010C9483
:103310000F0FB501C2010E943001C5010E941F2498
:1033200060932202709323028093240290932502DB
:1033300089E291E00E94B3010C940F0FF2018285A3
:10334000813349F481E08093600287E391E00E9439
:10335000B3010C940F0F803311F00C940F0F1092E7
:1033600060028AE391E00E94B3010C940F0F6EE1BA
:1033700070E0C2010E94842405979C01D501A5013B
:103380004C5E5F4FF5011192E417F507E1F72B3022
:10339000310554F0E1E4F5E0895C9A4F9C0191918C
:1033A0009D93E217F307D9F7C5010E941F2460938C
:1033B000520270935302809354029093550289E213
:1033C00091E00E94B3010C940F0FB501C2010E945D
:1033D0003001C5010E942224909359028093580223
:1033E00089E291E00E94B3010C940F0FB501C20174
:1033F0000E943001C5010E941F2460939B017093BD
:103400009C0180939D0190939E0189E291E00E942E
:10341000B3010C940F0F6EE170E0C2010E9484248E
:1034200005979C01D501A5014C5E5F4FF5011192F6
:10343000E417F507E1F72B30310554F0E1E4F5E04E
:10344000895C9A4F9C0191919D93E217F307D9F7FC
:10345000C5010E941F246093B7017093B801809347
:10346000B9019093BA0181E28E8FD20111968C91AD
:1034700011978F8F12968C91129788A313968C9127
:1034800089A31AA21BA21CA27E01BEE1EB0EF11CB5
:10349000BE016E5D7F4FF70180E090E0B8E0D12C77
:1034A0004191292F332727FD3A952427322F2227B0
:1034B0004B2F5D2D33233CF4220F331FA1E22A272B
:1034C000A0E13A2702C0220F331F4150510991F762
:1034D000982F882782279327E617F70709F76C01AB
:1034E00040E16DE275E00E9499248DE295E00E9432
:1034F0008F24B0E1CB16D10438F480912D058DA333
:1035000080E38CA38BA38AA3C6014097803F9105DB
:1035100048F4EDE2F5E081818DA380818CA380E306
:103520008BA38AA3C6019A9581159F4050F4EDE2C2
:10353000F5E082818DA381818CA380818BA380E3C0
:103540008AA3C114F0E1DF0650F0EDE2F5E08081DE
:103550008AA381818BA382818CA383818DA38DE03B
:103560008EA39E01295D3F4FE5E5F5E00F2EF1ECBE
:103570008F2E912CF02D70E0D7014D917D01F894A4
:1035800091818081981304C0D4018C9180628C93C6
:10359000508183819481850F911DDC014C93808142
:1035A000C82ED12C428150E041505109C416D50695
:1035B00011F08F5F01C0872F80837894E216F306A5
:1035C000D9F60C940F0F6EE170E0C2010E948424C2
:1035D00005979C01D501A5014C5E5F4FF501119245
:1035E000E417F507E1F72B30310554F0E1E4F5E09D
:1035F000895C9A4F9C0191919D93E217F307D9F74B
:10360000C5010E941F246093BB017093BC0180938D
:10361000BD019093BE0181E28E8FF20181818F8F77
:10362000828188A3838189A31AA21BA21CA27E0186
:10363000FEE1EF0EF11CBE016E5D7F4FF70180E0F1
:1036400090E0B8E0D12C4191292F332727FD3A95FE
:103650002427322F22274B2F5D2D33233CF4220FBA
:10366000331FA1E22A27A0E13A2702C0220F331F0D
:103670004150510991F7982F882782279327E61701
:10368000F70709F76C0140E16DE275E00E949924AB
:103690008DE295E00E948F24B0E1CB16D10438F47E
:1036A00080912D058DA380E38CA38BA38AA3C601F3
:1036B0004097803F910548F4EDE2F5E081818DA3CC
:1036C00080818CA380E38BA38AA3C6019A95811580
:1036D0009F4050F4EDE2F5E082818DA381818CA3BF
:1036E00080818BA380E38AA3C114F0E1DF0650F050
:1036F000EDE2F5E080818AA381818BA382818CA396
:1037000083818DA38DE08EA39E01295D3F4FE5E56A
:10371000F5E00F2EF1EC8F2E912CF02D70E0D701FB
:103720004D917D01F89491818081981304C0D4015A
:103730008C9180628C93508183819481850F911D3F
:10374000DC014C938081C82ED12C428150E0415045
:103750005109C416D50611F08F5F01C0872F8083F1
:103760007894E216F306D9F60C940F0F6EE170E030
:10377000C2010E94842405979C01D501A5014C5EDD
:103780005F4FF5011192E417F507E1F72B30310592
:1037900054F0E1E4F5E0895C9A4F9C0191919D938E
:1037A000E217F307D9F7C5010E941F246093BF01F8
:1037B0007093C0018093C1019093C20181E28E8F0A
:1037C000F20181818F8F828188A3838189A31AA2CC
:1037D0001BA21CA27E01FEE1EF0EF11CBE016E5D7C
:1037E0007F4FF70180E090E0B8E0D12C4191292F84
:1037F000332727FD3A952427322F22274B2F5D2D83
:1038000033233CF4220F331FA1E22A27A0E13A27F9
:1038100002C0220F331F4150510991F7982F88277A
:1038200082279327E617F70709F76C0140E16DE25D
:1038300075E00E9499248DE295E00E948F24B0E10A
:10384000CB16D10438F480912D058DA380E38CA391
:103850008BA38AA3C6014097803F910548F4EDE20F
:10386000F5E081818DA380818CA380E38BA38AA363
:10387000C6019A9581159F4050F4EDE2F5E08281F2
:103880008DA381818CA380818BA380E38AA3C11443
:10389000F0E1DF0650F0EDE2F5E080818AA381815E
:1038A0008BA382818CA383818DA38DE08EA39E0147
:1038B000295D3F4FE5E5F5E00F2EF1EC8F2E912CC1
:1038C000F02D70E0D7014D917D01F89491818081B8
:1038D000981304C0D4018C9180628C9350818381B1
:1038E0009481850F911DDC014C938081C82ED12CD1
:1038F000428150E041505109C416D50611F08F5F46
:1039000001C0872F80837894E216F306D9F60C94D1
:103910000F0FF2018285813309F0AFC081E08093FF
:10392000FD0181E28E8F81818F8F828188A38381C7
:1039300089A38FE48AA38EE48BA31CA21DA21EA2DE
:103940007E01FEE1EF0EF11CBE016C5D7F4FF701C1
:1039500080E090E0B8E0D12C4191292F332727FD5A
:103960003A952427322F22274B2F5D2D33233CF409
:10397000220F331FA1E22A27A0E13A2702C0220F1B
:10398000331F4150510991F7982F88278227932799
:10399000E617F70709F76C0140E16DE275E0C9D75A
:1039A0008DE295E0BCD7B0E1CB16D10438F480911C
:1039B0002D058FA380E38EA38DA38CA3C601409712
:1039C000803F910548F4EDE2F5E081818FA380818D
:1039D0008EA380E38DA38CA3C6019A9581159F4089
:1039E00050F4EDE2F5E082818FA381818EA3808186
:1039F0008DA380E38CA3C114F0E1DF0650F0EDE26B
:103A0000F5E080818CA381818DA382818EA3838147
:103A10008FA38DE088A79E01275D3F4FE5E5F5E088
:103A20000F2EF1EC8F2E912CF02D70E0D7014D91DF
:103A30007D01F89491818081981304C0D4018C9108
:103A400080628C93508183819481850F911DDC016C
:103A50004C938081C82ED12C428150E041505109B5
:103A6000C416D50611F08F5F01C0872F808378942C
:103A7000E216F306D9F60C940F0F803311F00C9474
:103A80000F0F1092FD0181E28E8FF20181818F8FE5
:103A9000828188A3838189A38FE48AA386E48BA390
:103AA0008CA31DA21EA21FA27E01FEE1EF0EF11C3F
:103AB000BE016B5D7F4FF70180E090E0B8E0D12C54
:103AC0004191292F332727FD3A952427322F22278A
:103AD0004B2F5D2D33233CF4220F331FA1E22A2705
:103AE000A0E13A2702C0220F331F4150510991F73C
:103AF000982F882782279327E617F70709F76C0185
:103B000040E16DE275E015D78DE295E008D7B0E1B0
:103B1000CB16D10438F480912D0588A780E38FA3BC
:103B20008EA38DA3C6014097803F910548F4EDE236
:103B3000F5E0818188A780818FA380E38EA38DA388
:103B4000C6019A9581159F4050F4EDE2F5E082811F
:103B500088A781818FA380818EA380E38DA3C11468
:103B6000F0E1DF0650F0EDE2F5E080818DA3818188
:103B70008EA382818FA3838188A78DE089A79E0170
:103B8000265D3F4FE5E5F5E00F2EF1EC8F2E912CF1
:103B9000F02D70E0D7014D917D01F89491818081E5
:103BA000981304C0D4018C9180628C9350818381DE
:103BB0009481850F911DDC014C938081C82ED12CFE
:103BC000428150E041505109C416D50611F08F5F73
:103BD00001C0872F80837894E216F306D9F60C94FF
:103BE0000F0F6EE170E0C2018FD605979C01D501E1
:103BF000A5014C5E5F4FF5011192E417F507E1F75F
:103C00002B30310554F0E1E4F5E0895C9A4F9C01DA
:103C100091919D93E217F307D9F7C50110D66093F0
:103C2000EF017093F0018093F1019093F20181E232
:103C30008E8FF20181818F8F828188A3838189A3F6
:103C40001AA21BA21CA27E01FEE1EF0EF11CBE0116
:103C50006E5D7F4FF70180E090E0B8E0D12C41919C
:103C6000292F332727FD3A952427322F22274B2F40
:103C70005D2D33233CF4220F331FA1E22A27A0E15C
:103C80003A2702C0220F331F4150510991F7982F54
:103C9000882782279327E617F70709F76C0140E189
:103CA0006DE275E046D68DE295E039D6B0E1CB16EF
:103CB000D10438F480912D058DA380E38CA38BA3D0
:103CC0008AA3C6014097803F910548F4EDE2F5E0F4
:103CD00081818DA380818CA380E38BA38AA3C601FD
:103CE0009A9581159F4050F4EDE2F5E082818DA315
:103CF00081818CA380818BA380E38AA3C114F0E12E
:103D0000DF0650F0EDE2F5E080818AA381818BA38C
:103D100082818CA383818DA38DE08EA39E01295D7A
:103D20003F4FE5E5F5E00F2EF1EC8F2E912CF02DB5
:103D300070E0D7014D917D01F894918180819813B5
:103D400004C0D4018C9180628C93508183819481D2
:103D5000850F911DDC014C938081C82ED12C4281AE
:103D600050E041505109C416D50611F08F5F01C0D3
:103D7000872F80837894E216F306D9F60C940F0F00
:103D80006EE170E0C201C0D505979C01D501A50187
:103D90004C5E5F4FF5011192E417F507E1F72B3008
:103DA000310554F0E1E4F5E0895C9A4F9C01919172
:103DB0009D93E217F307D9F7C50144D59093F60117
:103DC0008093F50181E28E8FF20181818F8F828154
:103DD00088A3838189A31AA21BA21CA27E01FEE1F3
:103DE000EF0EF11CBE016E5D7F4FF70180E090E0A9
:103DF000B8E0D12C4191292F332727FD3A9524276C
:103E0000322F22274B2F5D2D33233CF4220F331FFB
:103E1000A1E22A27A0E13A2702C0220F331F415016
:103E2000510991F7982F882782279327E617F707DC
:103E300009F76C0140E16DE275E07BD58DE295E01C
:103E40006ED5B0E1CB16D10438F480912D058DA349
:103E500080E38CA38BA38AA3C6014097803F910582
:103E600048F4EDE2F5E081818DA380818CA380E3AD
:103E70008BA38AA3C6019A9581159F4050F4EDE269
:103E8000F5E082818DA381818CA380818BA380E367
:103E90008AA3C114F0E1DF0650F0EDE2F5E0808185
:103EA0008AA381818BA382818CA383818DA38DE0E2
:103EB0008EA39E01295D3F4FE5E5F5E00F2EF1EC65
:103EC0008F2E912CF02D70E0D7014D917D01F8944B
:103ED00091818081981304C0D4018C9180628C936D
:103EE000508183819481850F911DDC014C938081E9
:103EF000C82ED12C428150E041505109C416D5063C
:103F000011F08F5F01C0872F80837894E216F3064B
:103F1000D9F60C940F0F0F2EF4ECEF2EF2E0FF2EDB
:103F2000F02DF701408151816281738180E090E042
:103F3000FED6D7015C964D915D916D917C915F9716
:103F400084E090E0F4D6F70140A151A162A173A1F1
:103F500088E090E0ECD6D70194964D915D916D91FB
:103F60007C9197978CE090E0E2D6409118035091B5
:103F7000190360911A0370911B0380E190E0D7D67A
:103F800060911E0370911F0384E190E0D5D60F2E3F
:103F9000F1E6EF2EF2E0FF2EF02DF7014081518186
:103FA0006281738188E190E0C2D6D7015C964D9121
:103FB0005D916D917C915F978CE190E0B8D6F701AF
:103FC00040A151A162A173A180E290E0B0D6D701D7
:103FD00094964D915D916D917C91979784E290E0DC
:103FE000A6D64091B5025091B6026091B702709189
:103FF000B80288E290E09BD66091BB027091BC024F
:104000008CE290E099D60F2EFEEFEF2EF1E0FF2E1E
:10401000F02DF701408151816281738180E390E04E
:1040200086D6D7015C964D915D916D917C915F979D
:1040300084E390E07CD6F70140A151A162A173A175
:1040400088E390E074D6D70194964D915D916D917F
:104050007C9197978CE390E06AD640915202509100
:104060005302609154027091550280E490E05FD653
:10407000609158027091590284E490E05DD60F2E51
:10408000FBE9EF2EF1E0FF2EF02DF7014081518189
:104090006281738188E490E04AD6D7015C964D91A5
:1040A0005D916D917C915F978CE490E040D6F70133
:1040B00040A151A162A173A180E590E038D6D7015B
:1040C00094964D915D916D917C91979784E590E0E8
:1040D0002ED64091EF015091F0016091F101709165
:1040E000F20188E590E023D66091F5017091F60128
:1040F0008CE590E021D681E28E8FF20181818F8F55
:10410000828188A3838189A31AA21BA21CA27E019B
:10411000FEE1EF0EF11CBE016E5D7F4FF70180E006
:1041200090E0B8E0D12C4191292F332727FD3A9513
:104130002427322F22274B2F5D2D33233CF4220FCF
:10414000331FA1E22A27A0E13A2702C0220F331F22
:104150004150510991F7982F882782279327E61716
:10416000F70709F76C0140E16DE275E0E2D38DE2FB
:1041700095E0D5D3B0E1CB16D10438F480912D056C
:104180008DA380E38CA38BA38AA3C6014097803FB5
:10419000910548F4EDE2F5E081818DA380818CA347
:1041A00080E38BA38AA3C6019A9581159F4050F4A2
:1041B000EDE2F5E082818DA381818CA380818BA3C8
:1041C00080E38AA3C114F0E1DF0650F0EDE2F5E0F0
:1041D00080818AA381818BA382818CA383818DA31B
:1041E0008DE08EA39E01295D3F4FE5E5F5E00F2EA2
:1041F000F1EC8F2E912CF02D70E0D7014D917D01C7
:10420000F89491818081981304C0D4018C918062CC
:104210008C93508183819481850F911DDC014C9397
:104220008081C82ED12C428150E041505109C416E2
:10423000D50611F08F5F01C0872F80837894E21636
:10424000F306D9F60C940F0F6EE170E0C2015CD357
:1042500005979C01D501A5014C5E5F4FF5011192B8
:10426000E417F507E1F72B30310554F0E1E4F5E010
:10427000895C9A4F9C0191919D93E217F307D9F7BE
:104280006FE371E0C50137D3892B49F482E0809355
:104290009201EFE6F0E08081826080830EC06EE3E1
:1042A00071E0C50128D3892B41F485E08093920108
:1042B000EFE6F0E080818260808389E291E00E94F5
:1042C000B3010C940F0F6EE170E0C2011DD305978E
:1042D0009C01D501A5014C5E5F4FF5011192E417D9
:1042E000F507E1F72B30310554F0E1E4F5E0895CA6
:1042F0009A4F9C0191919D93E217F307D9F7C5015D
:10430000A1D2909301018093000189E291E00E9483
:10431000B3010C940F0FB501C2010E94300110923D
:104320009201C501ACD2AB01BC01CA01992324F4AE
:1043300088279927841B950B092E000CAA0BBB0B11
:10434000B595A795979587958115EAE09E07A105F4
:10435000B10544F580359105A105B1057CF00F2E1E
:10436000F0EACF2ED12CE12CF12CF02D22E030E020
:104370008C159D05AE05BF0554F402C021E030E068
:104380002150310930938D0120938C0111C02F5F92
:104390003F4FF0E5CF0ED11CE11CF11C203231055E
:1043A00039F706C080E290E090938D0180938C01F4
:1043B0008091970190919801A0919901B0919A01F3
:1043C000840F951FA61FB71F8093930190939401AC
:1043D000A0939501B0939601EFE6F0E080818260B2
:1043E000808389E291E00E94B3010C940F0F82E474
:1043F00091E00E94B3010C940F0F8BE191E00E94B9
:10440000B3010C940F0F40E16DE275E080E090E0A5
:1044100090D28DE295E083D2812C912C0C94BC112A
:1044200040E16DE275E080E090E083D28DE295E0BE
:1044300076D2812C912C0C948D135058BB27AA272F
:104440000ED00DC1FED030F003D120F031F49F3FEB
:1044500011F41EF4F3C00EF4E095E7FBE9C0E92F78
:104460000FD180F3BA17620773078407950718F016
:1044700071F49EF527C10EF4E0950B2EBA2FA02DF6
:104480000B01B90190010C01CA01A0011124FF2701
:10449000591B99F0593F50F4503E68F11A16F040FC
:1044A000A22F232F342F4427585FF3CF46953795FB
:1044B0002795A795F0405395C9F77EF41F16BA0BC0
:1044C000620B730B840BBAF09150A1F0FF0FBB1F6E
:1044D000661F771F881FC2F70EC0BA0F621F731FB7
:1044E000841F48F4879577956795B795F7959E3F14
:1044F00008F0B3CF9395880F08F09927EE0F9795A2
:104500008795089571D008F481E0089504D06894E7
:10451000B111D9C00895BCD088F09F5790F0B92F41
:104520009927B751A0F0D1F0660F771F881F991F08
:104530001AF0BA95C9F712C0B13081F0C3D0B1E01A
:104540000895C0C0672F782F8827B85F39F0B93F2A
:10455000CCF3869577956795B395D9F73EF490950A
:104560008095709561957F4F8F4F9F4F0895E89488
:1045700009C097FB3EF490958095709561957F4FAB
:104580008F4F9F4F9923A9F0F92F96E9BB27939559
:10459000F695879577956795B795F111F8CFFAF469
:1045A000BB0F11F460FF1BC06F5F7F4F8F4F9F4F9A
:1045B00016C0882311F096E911C0772321F09EE8F8
:1045C000872F762F05C0662371F096E8862F70E05E
:1045D00060E02AF09A95660F771F881FDAF7880F38
:1045E0009695879597F90895990F0008550FAA0B8E
:1045F000E0E8FEEF16161706E807F907C0F01216F6
:104600001306E407F50798F0621B730B840B950BF8
:1046100039F40A2661F0232B242B252B21F408954D
:104620000A2609F4A140A6958FEF811D811D0895EA
:1046300097F99F6780E870E060E008959FEF80EC55
:10464000089500240A9416161706180609060895F8
:1046500000240A9412161306140605060895092E5E
:104660000394000C11F4882352F0BB0F40F4BF2BCD
:1046700011F460FF04C06F5F7F4F8F4F9F4F08950D
:1046800057FD9058440F551F59F05F3F71F0479503
:10469000880F97FB991F61F09F3F79F087950895E8
:1046A000121613061406551FF2CF4695F1DF08C007
:1046B000161617061806991FF1CF86957105610524
:1046C00008940895E894BB2766277727CB0197F9CC
:1046D00008958ADF08F48FEF08950BD0C0CFB1DFC3
:1046E00028F0B6DF18F0952309F0A2CFA7CF112448
:1046F000EACFC6DFA0F3959FD1F3950F50E0551F89
:10470000629FF001729FBB27F00DB11D639FAA2726
:10471000F00DB11DAA1F649F6627B00DA11D661F75
:10472000829F2227B00DA11D621F739FB00DA11D96
:10473000621F839FA00D611D221F749F3327A00D50
:10474000611D231F849F600D211D822F762F6A2FEC
:1047500011249F5750408AF0E1F088234AF0EE0F71
:10476000FF1FBB1F661F771F881F91505040A9F77E
:104770009E3F510570F05CCFA6CF5F3FECF3983EB3
:10478000DCF3869577956795B795F795E7959F5FE5
:10479000C1F7FE2B880F911D9695879597F908957F
:1047A00077DFE0F09E37D8F09639B8F49E3848F4B9
:1047B000672F782F8827985FF9CF8695779567952B
:1047C00093959539D0F3B62FB1706B0F711D811D84
:1047D00020F4879577956795939502C01CC073CF99
:1047E000882371F4772321F09850872B762F07C008
:1047F000662311F499270DC09051862B70E060E07C
:104800002AF09A95660F771F881FDAF7880F96951A
:10481000879597F908959F3F31F0915020F487953F
:1048200077956795B795880F911D9695879597F918
:104830000895EE0FFF1F0590F491E02D099466276F
:104840007727E6C0FC0188279927E8942191203238
:10485000E9F3293010F02E30C8F32B3239F02D3225
:1048600031F4689403C092D0820F911D219120539E
:104870002A30C8F31EF4909581959F4F08951F9399
:10488000FC0199278827BC01E89411911032E9F3C3
:10489000193010F01E30C8F31B3249F01D3241F4BC
:1048A000689405C05ED0610F711D811D911D11912D
:1048B00010531A30B8F33EF4909580957095619539
:1048C0007F4F8F4F9F4F1F910895FB01DC010D908B
:1048D0000020E9F7119701900D920020E1F708956B
:1048E000FC018191861721F08823D9F79927089533
:1048F0003197CF010895FB01DC018D910190801962
:104900000110D9F3990B0895FC016150704001909A
:104910000110D8F7809590958E0F9F1F0895DC01A8
:104920006C9161566A3108F0605E6F5B6D93C1F700
:104930000895BB274A3031F4992322F4BDE29095C3
:1049400081959F4F4DC0BB272A3051F4992342F4E3
:10495000BDE290958095709561957F4F8F4F9F4FE9
:104960001EC0592F482F372F262F660F771F881FFD
:10497000991F660F771F881F991F620F731F841F6F
:10498000951F660F771F881F991F08957AE0979FDC
:10499000902D879F802D910D11240895BB27FA013A
:1049A000A62F6217710581059105330B30FB66F068
:1049B000AA27660F771F881F991FAA1FA21710F03A
:1049C000A21B63953850A9F7A05DAA3308F0A95D32
:1049D000A19336F7B111B1931082CA018BC1BB27E5
:1049E000FB015527AA27880F991FAA1FA41710F0AB
:1049F000A41B83955051B9F7A05DAA3308F0A95DB7
:104A0000A193009779F7B111B1931192CB0172C1C3
:104A1000A0E0B0E0EDE0F5E2BEC1EC017B01611584
:104A2000710519F0DB018D939C938E010F5F1F4F71
:104A30007880872D90E03ED1892B11F0E801F5CFE9
:104A4000BDE27B1205C00F5F1F4F7980C1E008C037
:104A5000EBE27E1204C08E010E5F1F4F7980C0E032
:104A60006801F1E0CF1AD10843E050E060E870E05F
:104A7000C60128D1892BE9F4680122E0C20ED11CBD
:104A800045E050E06BE770E0C6011CD1892B21F4B2
:104A9000680187E0C80ED11CE114F10419F0D701B8
:104AA000CD92DC92C111F9C060E070E080E89FE730
:104AB000FDC043E050E068E770E0C60103D1892BF8
:104AC00051F4E114F10409F4EDC00E5F1F4FF7013A
:104AD00011830083E7C0680160E070E0CB0100E073
:104AE00010E0F601D0EDD70DDA3050F52C2F226012
:104AF000622E2C2F2870C2FF05C0211127C00F5F26
:104B00001F4F24C0222311F001501109A5E0B0E08D
:104B10009B01AC0132D14B015C01880C991CAA1C91
:104B2000BB1CC501B4016D0F711D811D911D68393C
:104B3000A9E97A078A07A9E19A0740F0C66005C08B
:104B4000DE3F51F4C3FD44C0C8606C2EBFEFCB1AEA
:104B5000DB0A7080C62DC5CF2D2F2F7D2531C1F5E5
:104B600040814D3211F4C06106C04B3221F03196C4
:104B700021E030E006C03296D60111964C9122E039
:104B800030E0A0EDA40FAA3018F0E21BF30B20C018
:104B900040E050E04038BCE05B075CF49A01220F33
:104BA000331F220F331F420F531F440F551F4A0F4D
:104BB000511D3196DF0111972C91A0EDA20FAA3063
:104BC00048F3C4FF03C0519541955109040F151FC7
:104BD000C1FF07C0E114F10421F03197D701ED9333
:104BE000FC93C5DCC370C33019F06B017C0106C0B7
:104BF0006B017C01F7FAF094F7F8F09420E030E0D4
:104C0000A901C701B6017EDC882309F443C017FF60
:104C100006C0119501951109C7E9D0E002C0CFEA9D
:104C2000D0E05E01B8E1AB1AB1084601BE2DAF2D50
:104C300090E2E92EF12C0E151F057CF0FE01259166
:104C4000359145915491B4018B2F9A2F46DD4B013C
:104C5000B82FA92F0E191F09EECF2497F594E794CA
:104C6000CA15DB0541F76401EB2EFA2E8E2D880F55
:104C70008F2D881F8F3F41F020E030E0A901C70150
:104C8000B60140DC811106C082E290E090935B05A2
:104C900080935A05C701B60109C060E070E080E862
:104CA0009FEF04C060E070E080EC9FE7CDB7DEB717
:104CB000EEE08DC091112EC0803219F089508550E0
:104CC000D0F70895FB01DC014150504088F08D91F0
:104CD00081341CF08B350CF4805E659161341CF0DE
:104CE0006B350CF4605E861B611171F3990B0895AE
:104CF000881BFCCFDC01FC01672F71917723E1F762
:104D0000329704C07C916D9370836291AE17BF0798
:104D1000C8F30895992788270895A6E1B0E044E0F4
:104D200050E00FC0A8E1B0E042E050E00AC0242FFC
:104D300017D0252F15D000C012D0272F11C0DC01AD
:104D4000CB01FC01F999FECF06C0F2BDE1BDF89A96
:104D5000319600B40D9241505040B8F70895262F77
:104D6000F999FECF1FBA92BD81BD20BD0FB6F89450
:104D7000FA9AF99A0FBE0196089540D0A59F900D1A
:104D8000B49F900DA49F800D911D112408952F9222
:104D90003F924F925F926F927F928F929F92AF92CB
:104DA000BF92CF92DF92EF92FF920F931F93CF9318
:104DB000DF93CDB7DEB7CA1BDB0B0FB6F894DEBFAF
:104DC0000FBECDBF09942A88398848885F846E84D5
:104DD0007D848C849B84AA84B984C884DF80EE801F
:104DE000FD800C811B81AA81B981CE0FD11D0FB628
:104DF000F894DEBF0FBECDBFED010895A29FB001B4
:104E0000B39FC001A39F700D811D1124911DB29FFE
:0E4E1000700D811D1124911D0895F894FFCF9F
:104E1E000A000100433243412053412041445020B7
:104E2E00312E3000000000004946004352432065F9
:104E3E0072726F7200565200300031005652657217
:104E4E00726F72005653004F4E004F46460043435A
:104E5E00570056536572726F72000A030503000302
:104E6E00F902F102E802DD02D102C202B1029D0294
:104E7E0087026E02520234021402F201CF01AA011D
:104E8E0086016301410121010301E700CE00B80054
:0C4E9E00A4009300840078006D00640004
:00000001FF
